{
  "_format": "hh-sol-artifact-1",
  "contractName": "UP_Catnip",
  "sourceName": "contracts/upgradeable/token/ERC777/UP_Catnip/UP_Catnip.sol",
  "abi": [
    {
      "inputs": [],
      "stateMutability": "nonpayable",
      "type": "constructor"
    },
    {
      "anonymous": false,
      "inputs": [
        {
          "indexed": false,
          "internalType": "address",
          "name": "previousAdmin",
          "type": "address"
        },
        {
          "indexed": false,
          "internalType": "address",
          "name": "newAdmin",
          "type": "address"
        }
      ],
      "name": "AdminChanged",
      "type": "event"
    },
    {
      "anonymous": false,
      "inputs": [
        {
          "indexed": true,
          "internalType": "address",
          "name": "owner",
          "type": "address"
        },
        {
          "indexed": true,
          "internalType": "address",
          "name": "spender",
          "type": "address"
        },
        {
          "indexed": false,
          "internalType": "uint256",
          "name": "value",
          "type": "uint256"
        }
      ],
      "name": "Approval",
      "type": "event"
    },
    {
      "anonymous": false,
      "inputs": [
        {
          "indexed": true,
          "internalType": "address",
          "name": "operator",
          "type": "address"
        },
        {
          "indexed": true,
          "internalType": "address",
          "name": "tokenHolder",
          "type": "address"
        }
      ],
      "name": "AuthorizedOperator",
      "type": "event"
    },
    {
      "anonymous": false,
      "inputs": [
        {
          "indexed": true,
          "internalType": "address",
          "name": "beacon",
          "type": "address"
        }
      ],
      "name": "BeaconUpgraded",
      "type": "event"
    },
    {
      "anonymous": false,
      "inputs": [
        {
          "indexed": true,
          "internalType": "address",
          "name": "operator",
          "type": "address"
        },
        {
          "indexed": true,
          "internalType": "address",
          "name": "from",
          "type": "address"
        },
        {
          "indexed": false,
          "internalType": "uint256",
          "name": "amount",
          "type": "uint256"
        },
        {
          "indexed": false,
          "internalType": "bytes",
          "name": "data",
          "type": "bytes"
        },
        {
          "indexed": false,
          "internalType": "bytes",
          "name": "operatorData",
          "type": "bytes"
        }
      ],
      "name": "Burned",
      "type": "event"
    },
    {
      "anonymous": false,
      "inputs": [
        {
          "indexed": false,
          "internalType": "uint8",
          "name": "version",
          "type": "uint8"
        }
      ],
      "name": "Initialized",
      "type": "event"
    },
    {
      "anonymous": false,
      "inputs": [
        {
          "indexed": true,
          "internalType": "address",
          "name": "operator",
          "type": "address"
        },
        {
          "indexed": true,
          "internalType": "address",
          "name": "to",
          "type": "address"
        },
        {
          "indexed": false,
          "internalType": "uint256",
          "name": "amount",
          "type": "uint256"
        },
        {
          "indexed": false,
          "internalType": "bytes",
          "name": "data",
          "type": "bytes"
        },
        {
          "indexed": false,
          "internalType": "bytes",
          "name": "operatorData",
          "type": "bytes"
        }
      ],
      "name": "Minted",
      "type": "event"
    },
    {
      "anonymous": false,
      "inputs": [
        {
          "indexed": true,
          "internalType": "address",
          "name": "previousOwner",
          "type": "address"
        },
        {
          "indexed": true,
          "internalType": "address",
          "name": "newOwner",
          "type": "address"
        }
      ],
      "name": "OwnershipTransferred",
      "type": "event"
    },
    {
      "anonymous": false,
      "inputs": [
        {
          "indexed": true,
          "internalType": "address",
          "name": "operator",
          "type": "address"
        },
        {
          "indexed": true,
          "internalType": "address",
          "name": "tokenHolder",
          "type": "address"
        }
      ],
      "name": "RevokedOperator",
      "type": "event"
    },
    {
      "anonymous": false,
      "inputs": [
        {
          "indexed": true,
          "internalType": "address",
          "name": "operator",
          "type": "address"
        },
        {
          "indexed": true,
          "internalType": "address",
          "name": "from",
          "type": "address"
        },
        {
          "indexed": true,
          "internalType": "address",
          "name": "to",
          "type": "address"
        },
        {
          "indexed": false,
          "internalType": "uint256",
          "name": "amount",
          "type": "uint256"
        },
        {
          "indexed": false,
          "internalType": "bytes",
          "name": "data",
          "type": "bytes"
        },
        {
          "indexed": false,
          "internalType": "bytes",
          "name": "operatorData",
          "type": "bytes"
        }
      ],
      "name": "Sent",
      "type": "event"
    },
    {
      "anonymous": false,
      "inputs": [
        {
          "indexed": true,
          "internalType": "address",
          "name": "from",
          "type": "address"
        },
        {
          "indexed": true,
          "internalType": "address",
          "name": "to",
          "type": "address"
        },
        {
          "indexed": false,
          "internalType": "uint256",
          "name": "value",
          "type": "uint256"
        }
      ],
      "name": "Transfer",
      "type": "event"
    },
    {
      "anonymous": false,
      "inputs": [
        {
          "indexed": true,
          "internalType": "address",
          "name": "implementation",
          "type": "address"
        }
      ],
      "name": "Upgraded",
      "type": "event"
    },
    {
      "inputs": [
        {
          "internalType": "address",
          "name": "holder",
          "type": "address"
        },
        {
          "internalType": "address",
          "name": "spender",
          "type": "address"
        }
      ],
      "name": "allowance",
      "outputs": [
        {
          "internalType": "uint256",
          "name": "",
          "type": "uint256"
        }
      ],
      "stateMutability": "view",
      "type": "function"
    },
    {
      "inputs": [
        {
          "internalType": "address",
          "name": "spender",
          "type": "address"
        },
        {
          "internalType": "uint256",
          "name": "value",
          "type": "uint256"
        }
      ],
      "name": "approve",
      "outputs": [
        {
          "internalType": "bool",
          "name": "",
          "type": "bool"
        }
      ],
      "stateMutability": "nonpayable",
      "type": "function"
    },
    {
      "inputs": [
        {
          "internalType": "address",
          "name": "operator",
          "type": "address"
        }
      ],
      "name": "authorizeOperator",
      "outputs": [],
      "stateMutability": "nonpayable",
      "type": "function"
    },
    {
      "inputs": [
        {
          "internalType": "address",
          "name": "tokenHolder",
          "type": "address"
        }
      ],
      "name": "balanceOf",
      "outputs": [
        {
          "internalType": "uint256",
          "name": "",
          "type": "uint256"
        }
      ],
      "stateMutability": "view",
      "type": "function"
    },
    {
      "inputs": [
        {
          "internalType": "uint256",
          "name": "amount",
          "type": "uint256"
        },
        {
          "internalType": "bytes",
          "name": "data",
          "type": "bytes"
        }
      ],
      "name": "burn",
      "outputs": [],
      "stateMutability": "nonpayable",
      "type": "function"
    },
    {
      "inputs": [],
      "name": "decimals",
      "outputs": [
        {
          "internalType": "uint8",
          "name": "",
          "type": "uint8"
        }
      ],
      "stateMutability": "pure",
      "type": "function"
    },
    {
      "inputs": [],
      "name": "defaultOperators",
      "outputs": [
        {
          "internalType": "address[]",
          "name": "",
          "type": "address[]"
        }
      ],
      "stateMutability": "view",
      "type": "function"
    },
    {
      "inputs": [],
      "name": "getNumber",
      "outputs": [
        {
          "internalType": "uint256",
          "name": "",
          "type": "uint256"
        }
      ],
      "stateMutability": "view",
      "type": "function"
    },
    {
      "inputs": [],
      "name": "granularity",
      "outputs": [
        {
          "internalType": "uint256",
          "name": "",
          "type": "uint256"
        }
      ],
      "stateMutability": "view",
      "type": "function"
    },
    {
      "inputs": [],
      "name": "initialize",
      "outputs": [],
      "stateMutability": "nonpayable",
      "type": "function"
    },
    {
      "inputs": [
        {
          "internalType": "address",
          "name": "operator",
          "type": "address"
        },
        {
          "internalType": "address",
          "name": "tokenHolder",
          "type": "address"
        }
      ],
      "name": "isOperatorFor",
      "outputs": [
        {
          "internalType": "bool",
          "name": "",
          "type": "bool"
        }
      ],
      "stateMutability": "view",
      "type": "function"
    },
    {
      "inputs": [],
      "name": "name",
      "outputs": [
        {
          "internalType": "string",
          "name": "",
          "type": "string"
        }
      ],
      "stateMutability": "view",
      "type": "function"
    },
    {
      "inputs": [],
      "name": "number",
      "outputs": [
        {
          "internalType": "uint256",
          "name": "",
          "type": "uint256"
        }
      ],
      "stateMutability": "view",
      "type": "function"
    },
    {
      "inputs": [
        {
          "internalType": "address",
          "name": "account",
          "type": "address"
        },
        {
          "internalType": "uint256",
          "name": "amount",
          "type": "uint256"
        },
        {
          "internalType": "bytes",
          "name": "data",
          "type": "bytes"
        },
        {
          "internalType": "bytes",
          "name": "operatorData",
          "type": "bytes"
        }
      ],
      "name": "operatorBurn",
      "outputs": [],
      "stateMutability": "nonpayable",
      "type": "function"
    },
    {
      "inputs": [
        {
          "internalType": "address",
          "name": "sender",
          "type": "address"
        },
        {
          "internalType": "address",
          "name": "recipient",
          "type": "address"
        },
        {
          "internalType": "uint256",
          "name": "amount",
          "type": "uint256"
        },
        {
          "internalType": "bytes",
          "name": "data",
          "type": "bytes"
        },
        {
          "internalType": "bytes",
          "name": "operatorData",
          "type": "bytes"
        }
      ],
      "name": "operatorSend",
      "outputs": [],
      "stateMutability": "nonpayable",
      "type": "function"
    },
    {
      "inputs": [],
      "name": "owner",
      "outputs": [
        {
          "internalType": "address",
          "name": "",
          "type": "address"
        }
      ],
      "stateMutability": "view",
      "type": "function"
    },
    {
      "inputs": [],
      "name": "proxiableUUID",
      "outputs": [
        {
          "internalType": "bytes32",
          "name": "",
          "type": "bytes32"
        }
      ],
      "stateMutability": "view",
      "type": "function"
    },
    {
      "inputs": [],
      "name": "renounceOwnership",
      "outputs": [],
      "stateMutability": "nonpayable",
      "type": "function"
    },
    {
      "inputs": [
        {
          "internalType": "address",
          "name": "operator",
          "type": "address"
        }
      ],
      "name": "revokeOperator",
      "outputs": [],
      "stateMutability": "nonpayable",
      "type": "function"
    },
    {
      "inputs": [
        {
          "internalType": "address",
          "name": "recipient",
          "type": "address"
        },
        {
          "internalType": "uint256",
          "name": "amount",
          "type": "uint256"
        },
        {
          "internalType": "bytes",
          "name": "data",
          "type": "bytes"
        }
      ],
      "name": "send",
      "outputs": [],
      "stateMutability": "nonpayable",
      "type": "function"
    },
    {
      "inputs": [
        {
          "internalType": "uint256",
          "name": "_number",
          "type": "uint256"
        }
      ],
      "name": "setNumber",
      "outputs": [],
      "stateMutability": "nonpayable",
      "type": "function"
    },
    {
      "inputs": [],
      "name": "symbol",
      "outputs": [
        {
          "internalType": "string",
          "name": "",
          "type": "string"
        }
      ],
      "stateMutability": "view",
      "type": "function"
    },
    {
      "inputs": [],
      "name": "totalSupply",
      "outputs": [
        {
          "internalType": "uint256",
          "name": "",
          "type": "uint256"
        }
      ],
      "stateMutability": "view",
      "type": "function"
    },
    {
      "inputs": [
        {
          "internalType": "address",
          "name": "recipient",
          "type": "address"
        },
        {
          "internalType": "uint256",
          "name": "amount",
          "type": "uint256"
        }
      ],
      "name": "transfer",
      "outputs": [
        {
          "internalType": "bool",
          "name": "",
          "type": "bool"
        }
      ],
      "stateMutability": "nonpayable",
      "type": "function"
    },
    {
      "inputs": [
        {
          "internalType": "address",
          "name": "holder",
          "type": "address"
        },
        {
          "internalType": "address",
          "name": "recipient",
          "type": "address"
        },
        {
          "internalType": "uint256",
          "name": "amount",
          "type": "uint256"
        }
      ],
      "name": "transferFrom",
      "outputs": [
        {
          "internalType": "bool",
          "name": "",
          "type": "bool"
        }
      ],
      "stateMutability": "nonpayable",
      "type": "function"
    },
    {
      "inputs": [
        {
          "internalType": "address",
          "name": "newOwner",
          "type": "address"
        }
      ],
      "name": "transferOwnership",
      "outputs": [],
      "stateMutability": "nonpayable",
      "type": "function"
    },
    {
      "inputs": [
        {
          "internalType": "address",
          "name": "newImplementation",
          "type": "address"
        }
      ],
      "name": "upgradeTo",
      "outputs": [],
      "stateMutability": "nonpayable",
      "type": "function"
    },
    {
      "inputs": [
        {
          "internalType": "address",
          "name": "newImplementation",
          "type": "address"
        },
        {
          "internalType": "bytes",
          "name": "data",
          "type": "bytes"
        }
      ],
      "name": "upgradeToAndCall",
      "outputs": [],
      "stateMutability": "payable",
      "type": "function"
    }
  ],
  "bytecode": "0x60a0604052306080523480156200001557600080fd5b506200002062000026565b620000e8565b600054610100900460ff1615620000935760405162461bcd60e51b815260206004820152602760248201527f496e697469616c697a61626c653a20636f6e747261637420697320696e697469604482015266616c697a696e6760c81b606482015260840160405180910390fd5b60005460ff9081161015620000e6576000805460ff191660ff9081179091556040519081527f7f26b83ff96e1f2b6a682f133852f6798a09c465da95921460cefb38474024989060200160405180910390a15b565b608051612afe62000120600039600081816106950152818161071f015281816108150152818161089a01526109840152612afe6000f3fe6080604052600436106101b75760003560e01c80638129fc1c116100ec578063d95b63711161008a578063f2fde38b11610064578063f2fde38b146104c0578063fad8b32a146104e0578063fc673c4f14610500578063fe9d93031461052057600080fd5b8063d95b637114610445578063dd62ed3e14610465578063f2c9ecd8146104ab57600080fd5b8063959b8c3f116100c6578063959b8c3f146103d057806395d89b41146103f05780639bd9bbc614610405578063a9059cbb1461042557600080fd5b80638129fc1c1461037d5780638381f58a146103925780638da5cb5b146103a857600080fd5b80633fb5c1cb11610159578063556f0dc711610133578063556f0dc7146102fe57806362ad1b831461031257806370a0823114610332578063715018a61461036857600080fd5b80633fb5c1cb146102b65780634f1ef286146102d657806352d1902d146102e957600080fd5b806318160ddd1161019557806318160ddd1461023957806323b872dd14610258578063313ce567146102785780633659cfe61461029457600080fd5b806306e48538146101bc57806306fdde03146101e7578063095ea7b314610209575b600080fd5b3480156101c857600080fd5b506101d1610540565b6040516101de91906123cc565b60405180910390f35b3480156101f357600080fd5b506101fc6105a2565b6040516101de9190612471565b34801561021557600080fd5b50610229610224366004612499565b61062b565b60405190151581526020016101de565b34801561024557600080fd5b506034545b6040519081526020016101de565b34801561026457600080fd5b506102296102733660046124c5565b610643565b34801561028457600080fd5b50604051601281526020016101de565b3480156102a057600080fd5b506102b46102af366004612506565b61068b565b005b3480156102c257600080fd5b506102b46102d1366004612523565b60fb55565b6102b46102e43660046125df565b61080b565b3480156102f557600080fd5b5061024a610977565b34801561030a57600080fd5b50600161024a565b34801561031e57600080fd5b506102b461032d36600461262f565b610a3c565b34801561033e57600080fd5b5061024a61034d366004612506565b6001600160a01b031660009081526033602052604090205490565b34801561037457600080fd5b506102b4610abd565b34801561038957600080fd5b506102b4610ad1565b34801561039e57600080fd5b5061024a60fb5481565b3480156103b457600080fd5b5060c9546040516001600160a01b0390911681526020016101de565b3480156103dc57600080fd5b506102b46103eb366004612506565b610c75565b3480156103fc57600080fd5b506101fc610dab565b34801561041157600080fd5b506102b46104203660046126c2565b610dba565b34801561043157600080fd5b50610229610440366004612499565b610ddd565b34801561045157600080fd5b5061022961046036600461271b565b610e15565b34801561047157600080fd5b5061024a61048036600461271b565b6001600160a01b039182166000908152603b6020908152604080832093909416825291909152205490565b3480156104b757600080fd5b5060fb5461024a565b3480156104cc57600080fd5b506102b46104db366004612506565b610eb6565b3480156104ec57600080fd5b506102b46104fb366004612506565b610f2c565b34801561050c57600080fd5b506102b461051b366004612754565b611063565b34801561052c57600080fd5b506102b461053b3660046127d4565b6110e0565b6060603780548060200260200160405190810160405280929190818152602001828054801561059857602002820191906000526020600020905b81546001600160a01b0316815260019091019060200180831161057a575b5050505050905090565b6060603580546105b190612805565b80601f01602080910402602001604051908101604052809291908181526020018280546105dd90612805565b80156105985780601f106105ff57610100808354040283529160200191610598565b820191906000526020600020905b81548152906001019060200180831161060d57509395945050505050565b6000336106398185856110fb565b5060019392505050565b600033610651858285611254565b61067e858585604051806020016040528060008152506040518060200160405280600081525060006112e0565b60019150505b9392505050565b6001600160a01b037f000000000000000000000000000000000000000000000000000000000000000016300361071d5760405162461bcd60e51b815260206004820152602c60248201527f46756e6374696f6e206d7573742062652063616c6c6564207468726f7567682060448201526b19195b1959d85d1958d85b1b60a21b60648201526084015b60405180910390fd5b7f00000000000000000000000000000000000000000000000000000000000000006001600160a01b03166107787f360894a13ba1a3210667c828492db98dca3e2076cc3735a920a3ca505d382bbc546001600160a01b031690565b6001600160a01b0316146107e35760405162461bcd60e51b815260206004820152602c60248201527f46756e6374696f6e206d7573742062652063616c6c6564207468726f7567682060448201526b6163746976652070726f787960a01b6064820152608401610714565b6107ec816113f5565b60408051600080825260208201909252610808918391906113fd565b50565b6001600160a01b037f00000000000000000000000000000000000000000000000000000000000000001630036108985760405162461bcd60e51b815260206004820152602c60248201527f46756e6374696f6e206d7573742062652063616c6c6564207468726f7567682060448201526b19195b1959d85d1958d85b1b60a21b6064820152608401610714565b7f00000000000000000000000000000000000000000000000000000000000000006001600160a01b03166108f37f360894a13ba1a3210667c828492db98dca3e2076cc3735a920a3ca505d382bbc546001600160a01b031690565b6001600160a01b03161461095e5760405162461bcd60e51b815260206004820152602c60248201527f46756e6374696f6e206d7573742062652063616c6c6564207468726f7567682060448201526b6163746976652070726f787960a01b6064820152608401610714565b610967826113f5565b610973828260016113fd565b5050565b6000306001600160a01b037f00000000000000000000000000000000000000000000000000000000000000001614610a175760405162461bcd60e51b815260206004820152603860248201527f555550535570677261646561626c653a206d757374206e6f742062652063616c60448201527f6c6564207468726f7567682064656c656761746563616c6c00000000000000006064820152608401610714565b507f360894a13ba1a3210667c828492db98dca3e2076cc3735a920a3ca505d382bbc90565b610a463386610e15565b610aa75760405162461bcd60e51b815260206004820152602c60248201527f4552433737373a2063616c6c6572206973206e6f7420616e206f70657261746f60448201526b39103337b9103437b63232b960a11b6064820152608401610714565b610ab6858585858560016112e0565b5050505050565b610ac561159d565b610acf60006115f7565b565b600054610100900460ff1615808015610af15750600054600160ff909116105b80610b0b5750303b158015610b0b575060005460ff166001145b610b7d5760405162461bcd60e51b815260206004820152602e60248201527f496e697469616c697a61626c653a20636f6e747261637420697320616c72656160448201527f647920696e697469616c697a65640000000000000000000000000000000000006064820152608401610714565b6000805460ff191660011790558015610ba0576000805461ff0019166101001790555b604080518082018252600981527f55505f4361746e6970000000000000000000000000000000000000000000000060208083019190915282518084018452600281527f434e00000000000000000000000000000000000000000000000000000000000081830152835160008152918201909352610c1d9290611656565b610c256116cc565b610c2d611737565b8015610808576000805461ff0019169055604051600181527f7f26b83ff96e1f2b6a682f133852f6798a09c465da95921460cefb38474024989060200160405180910390a150565b6001600160a01b0381163303610cf25760405162461bcd60e51b8152602060048201526024808201527f4552433737373a20617574686f72697a696e672073656c66206173206f70657260448201527f61746f72000000000000000000000000000000000000000000000000000000006064820152608401610714565b6001600160a01b03811660009081526038602052604090205460ff1615610d4357336000908152603a602090815260408083206001600160a01b03851684529091529020805460ff19169055610d72565b3360009081526039602090815260408083206001600160a01b03851684529091529020805460ff191660011790555b60405133906001600160a01b038316907ff4caeb2d6ca8932a215a353d0703c326ec2d81fc68170f320eb2ab49e9df61f990600090a350565b6060603680546105b190612805565b610dd8338484846040518060200160405280600081525060016112e0565b505050565b6000610e0c338484604051806020016040528060008152506040518060200160405280600081525060006112e0565b50600192915050565b6000816001600160a01b0316836001600160a01b03161480610e8057506001600160a01b03831660009081526038602052604090205460ff168015610e8057506001600160a01b038083166000908152603a602090815260408083209387168352929052205460ff16155b8061068457506001600160a01b0380831660009081526039602090815260408083209387168352929052205460ff169392505050565b610ebe61159d565b6001600160a01b038116610f235760405162461bcd60e51b815260206004820152602660248201527f4f776e61626c653a206e6577206f776e657220697320746865207a65726f206160448201526564647265737360d01b6064820152608401610714565b610808816115f7565b336001600160a01b03821603610faa5760405162461bcd60e51b815260206004820152602160248201527f4552433737373a207265766f6b696e672073656c66206173206f70657261746f60448201527f72000000000000000000000000000000000000000000000000000000000000006064820152608401610714565b6001600160a01b03811660009081526038602052604090205460ff1615610ffe57336000908152603a602090815260408083206001600160a01b03851684529091529020805460ff1916600117905561102a565b3360009081526039602090815260408083206001600160a01b03851684529091529020805460ff191690555b60405133906001600160a01b038316907f50546e66e5f44d728365dc3908c63bc5cfeeab470722c1677e3073a6ac294aa190600090a350565b61106d3385610e15565b6110ce5760405162461bcd60e51b815260206004820152602c60248201527f4552433737373a2063616c6c6572206973206e6f7420616e206f70657261746f60448201526b39103337b9103437b63232b960a11b6064820152608401610714565b6110da848484846117aa565b50505050565b610973338383604051806020016040528060008152506117aa565b6001600160a01b0383166111775760405162461bcd60e51b815260206004820152602560248201527f4552433737373a20617070726f76652066726f6d20746865207a65726f20616460448201527f64726573730000000000000000000000000000000000000000000000000000006064820152608401610714565b6001600160a01b0382166111f35760405162461bcd60e51b815260206004820152602360248201527f4552433737373a20617070726f766520746f20746865207a65726f206164647260448201527f65737300000000000000000000000000000000000000000000000000000000006064820152608401610714565b6001600160a01b038381166000818152603b602090815260408083209487168084529482529182902085905590518481527f8c5be1e5ebec7d5bd14f71427d1e84f3dd0314c0f7b2291e5b200ac8c7c3b925910160405180910390a3505050565b6001600160a01b038381166000908152603b602090815260408083209386168352929052205460001981146110da57818110156112d35760405162461bcd60e51b815260206004820152601e60248201527f4552433737373a20696e73756666696369656e7420616c6c6f77616e636500006044820152606401610714565b6110da84848484036110fb565b6001600160a01b0386166113455760405162461bcd60e51b815260206004820152602660248201527f4552433737373a207472616e736665722066726f6d20746865207a65726f206160448201526564647265737360d01b6064820152608401610714565b6001600160a01b0385166113c05760405162461bcd60e51b8152602060048201526024808201527f4552433737373a207472616e7366657220746f20746865207a65726f2061646460448201527f72657373000000000000000000000000000000000000000000000000000000006064820152608401610714565b336113cf818888888888611993565b6113dd818888888888611ad3565b6113ec81888888888888611c4f565b50505050505050565b61080861159d565b7f4910fdfa16fed3260ed0e7147f7cc6da11a60208b5b9406d12a635614ffd91435460ff161561143057610dd883611e3d565b826001600160a01b03166352d1902d6040518163ffffffff1660e01b8152600401602060405180830381865afa92505050801561148a575060408051601f3d908101601f191682019092526114879181019061283f565b60015b6114fc5760405162461bcd60e51b815260206004820152602e60248201527f45524331393637557067726164653a206e657720696d706c656d656e7461746960448201527f6f6e206973206e6f7420555550530000000000000000000000000000000000006064820152608401610714565b7f360894a13ba1a3210667c828492db98dca3e2076cc3735a920a3ca505d382bbc81146115915760405162461bcd60e51b815260206004820152602960248201527f45524331393637557067726164653a20756e737570706f727465642070726f7860448201527f6961626c655555494400000000000000000000000000000000000000000000006064820152608401610714565b50610dd8838383611f08565b60c9546001600160a01b03163314610acf5760405162461bcd60e51b815260206004820181905260248201527f4f776e61626c653a2063616c6c6572206973206e6f7420746865206f776e65726044820152606401610714565b60c980546001600160a01b0383811673ffffffffffffffffffffffffffffffffffffffff19831681179093556040519116919082907f8be0079c531659141344cd1fd0a4f28419497f9722a3daafe3b4186f6b6457e090600090a35050565b600054610100900460ff166116c15760405162461bcd60e51b815260206004820152602b60248201527f496e697469616c697a61626c653a20636f6e7472616374206973206e6f74206960448201526a6e697469616c697a696e6760a81b6064820152608401610714565b610dd8838383611f2d565b600054610100900460ff16610acf5760405162461bcd60e51b815260206004820152602b60248201527f496e697469616c697a61626c653a20636f6e7472616374206973206e6f74206960448201526a6e697469616c697a696e6760a81b6064820152608401610714565b600054610100900460ff166117a25760405162461bcd60e51b815260206004820152602b60248201527f496e697469616c697a61626c653a20636f6e7472616374206973206e6f74206960448201526a6e697469616c697a696e6760a81b6064820152608401610714565b610acf61214d565b6001600160a01b0384166118265760405162461bcd60e51b815260206004820152602260248201527f4552433737373a206275726e2066726f6d20746865207a65726f20616464726560448201527f73730000000000000000000000000000000000000000000000000000000000006064820152608401610714565b3361183681866000878787611993565b6001600160a01b038516600090815260336020526040902054848110156118c55760405162461bcd60e51b815260206004820152602360248201527f4552433737373a206275726e20616d6f756e7420657863656564732062616c6160448201527f6e636500000000000000000000000000000000000000000000000000000000006064820152608401610714565b6001600160a01b03861660009081526033602052604081208683039055603480548792906118f490849061286e565b92505081905550856001600160a01b0316826001600160a01b03167fa78a9be3a7b862d26933ad85fb11d80ef66b8f972d7cbba06621d583943a409887878760405161194293929190612885565b60405180910390a36040518581526000906001600160a01b038816907fddf252ad1be2c89b69c2b068fc378daa952ba7f163c4a11628f55a4df523b3ef9060200160405180910390a3505050505050565b60405163555ddc6560e11b81526001600160a01b03861660048201527f29ddb589b1fb5fc7cf394961c1adf5f8c6454761adf795e67fe149f658abe8956024820152600090731820a4b7618bde71dce8cdc73aab6c95905fad249063aabbb8ca90604401602060405180830381865afa158015611a14573d6000803e3d6000fd5b505050506040513d601f19601f82011682018060405250810190611a3891906128ba565b90506001600160a01b038116156113ec576040517f75ab97820000000000000000000000000000000000000000000000000000000081526001600160a01b038216906375ab978290611a98908a908a908a908a908a908a906004016128d7565b600060405180830381600087803b158015611ab257600080fd5b505af1158015611ac6573d6000803e3d6000fd5b5050505050505050505050565b6001600160a01b03851660009081526033602052604090205483811015611b625760405162461bcd60e51b815260206004820152602760248201527f4552433737373a207472616e7366657220616d6f756e7420657863656564732060448201527f62616c616e6365000000000000000000000000000000000000000000000000006064820152608401610714565b6001600160a01b03808716600090815260336020526040808220878503905591871681529081208054869290611b99908490612930565b92505081905550846001600160a01b0316866001600160a01b0316886001600160a01b03167f06b541ddaa720db2b10a4d0cdac39b8d360425fc073085fac19bc82614677987878787604051611bf193929190612885565b60405180910390a4846001600160a01b0316866001600160a01b03167fddf252ad1be2c89b69c2b068fc378daa952ba7f163c4a11628f55a4df523b3ef86604051611c3e91815260200190565b60405180910390a350505050505050565b60405163555ddc6560e11b81526001600160a01b03861660048201527fb281fc8c12954d22544db45de3159a39272895b169a852b314f9cc762e44c53b6024820152600090731820a4b7618bde71dce8cdc73aab6c95905fad249063aabbb8ca90604401602060405180830381865afa158015611cd0573d6000803e3d6000fd5b505050506040513d601f19601f82011682018060405250810190611cf491906128ba565b90506001600160a01b03811615611d89576040517e23de290000000000000000000000000000000000000000000000000000000081526001600160a01b038216906223de2990611d52908b908b908b908b908b908b906004016128d7565b600060405180830381600087803b158015611d6c57600080fd5b505af1158015611d80573d6000803e3d6000fd5b50505050611e33565b8115611e33576001600160a01b0386163b15611e335760405162461bcd60e51b815260206004820152604d60248201527f4552433737373a20746f6b656e20726563697069656e7420636f6e747261637460448201527f20686173206e6f20696d706c656d656e74657220666f7220455243373737546f60648201527f6b656e73526563697069656e7400000000000000000000000000000000000000608482015260a401610714565b5050505050505050565b6001600160a01b0381163b611eba5760405162461bcd60e51b815260206004820152602d60248201527f455243313936373a206e657720696d706c656d656e746174696f6e206973206e60448201527f6f74206120636f6e7472616374000000000000000000000000000000000000006064820152608401610714565b7f360894a13ba1a3210667c828492db98dca3e2076cc3735a920a3ca505d382bbc805473ffffffffffffffffffffffffffffffffffffffff19166001600160a01b0392909216919091179055565b611f11836121c1565b600082511180611f1e5750805b15610dd8576110da8383612201565b600054610100900460ff16611f985760405162461bcd60e51b815260206004820152602b60248201527f496e697469616c697a61626c653a20636f6e7472616374206973206e6f74206960448201526a6e697469616c697a696e6760a81b6064820152608401610714565b6035611fa48482612996565b506036611fb18382612996565b508051611fc5906037906020840190612345565b5060005b815181101561202e57600160386000848481518110611fea57611fea612a56565b6020908102919091018101516001600160a01b03168252810191909152604001600020805460ff19169115159190911790558061202681612a6c565b915050611fc9565b506040516329965a1d60e01b815230600482018190527fac7fbab5f54a3ca8194167523c6753bfeb96a445279294b6125b68cce217705460248301526044820152731820a4b7618bde71dce8cdc73aab6c95905fad24906329965a1d90606401600060405180830381600087803b1580156120a857600080fd5b505af11580156120bc573d6000803e3d6000fd5b50506040516329965a1d60e01b815230600482018190527faea199e31a596269b42cdafd93407f14436db6e4cad65417994c2eb37381e05a60248301526044820152731820a4b7618bde71dce8cdc73aab6c95905fad2492506329965a1d9150606401600060405180830381600087803b15801561213957600080fd5b505af11580156113ec573d6000803e3d6000fd5b600054610100900460ff166121b85760405162461bcd60e51b815260206004820152602b60248201527f496e697469616c697a61626c653a20636f6e7472616374206973206e6f74206960448201526a6e697469616c697a696e6760a81b6064820152608401610714565b610acf336115f7565b6121ca81611e3d565b6040516001600160a01b038216907fbc7cd75a20ee27fd9adebab32041f755214dbc6bffa90cc0225b39da2e5c2d3b90600090a250565b60606001600160a01b0383163b6122805760405162461bcd60e51b815260206004820152602660248201527f416464726573733a2064656c65676174652063616c6c20746f206e6f6e2d636f60448201527f6e747261637400000000000000000000000000000000000000000000000000006064820152608401610714565b600080846001600160a01b03168460405161229b9190612a85565b600060405180830381855af49150503d80600081146122d6576040519150601f19603f3d011682016040523d82523d6000602084013e6122db565b606091505b50915091506123038282604051806060016040528060278152602001612aa26027913961230c565b95945050505050565b6060831561231b575081610684565b82511561232b5782518084602001fd5b8160405162461bcd60e51b81526004016107149190612471565b8280548282559060005260206000209081019282156123a7579160200282015b828111156123a7578251825473ffffffffffffffffffffffffffffffffffffffff19166001600160a01b03909116178255602090920191600190910190612365565b506123b39291506123b7565b5090565b5b808211156123b357600081556001016123b8565b6020808252825182820181905260009190848201906040850190845b8181101561240d5783516001600160a01b0316835292840192918401916001016123e8565b50909695505050505050565b60005b8381101561243457818101518382015260200161241c565b838111156110da5750506000910152565b6000815180845261245d816020860160208601612419565b601f01601f19169290920160200192915050565b6020815260006106846020830184612445565b6001600160a01b038116811461080857600080fd5b600080604083850312156124ac57600080fd5b82356124b781612484565b946020939093013593505050565b6000806000606084860312156124da57600080fd5b83356124e581612484565b925060208401356124f581612484565b929592945050506040919091013590565b60006020828403121561251857600080fd5b813561068481612484565b60006020828403121561253557600080fd5b5035919050565b634e487b7160e01b600052604160045260246000fd5b600082601f83011261256357600080fd5b813567ffffffffffffffff8082111561257e5761257e61253c565b604051601f8301601f19908116603f011681019082821181831017156125a6576125a661253c565b816040528381528660208588010111156125bf57600080fd5b836020870160208301376000602085830101528094505050505092915050565b600080604083850312156125f257600080fd5b82356125fd81612484565b9150602083013567ffffffffffffffff81111561261957600080fd5b61262585828601612552565b9150509250929050565b600080600080600060a0868803121561264757600080fd5b853561265281612484565b9450602086013561266281612484565b935060408601359250606086013567ffffffffffffffff8082111561268657600080fd5b61269289838a01612552565b935060808801359150808211156126a857600080fd5b506126b588828901612552565b9150509295509295909350565b6000806000606084860312156126d757600080fd5b83356126e281612484565b925060208401359150604084013567ffffffffffffffff81111561270557600080fd5b61271186828701612552565b9150509250925092565b6000806040838503121561272e57600080fd5b823561273981612484565b9150602083013561274981612484565b809150509250929050565b6000806000806080858703121561276a57600080fd5b843561277581612484565b935060208501359250604085013567ffffffffffffffff8082111561279957600080fd5b6127a588838901612552565b935060608701359150808211156127bb57600080fd5b506127c887828801612552565b91505092959194509250565b600080604083850312156127e757600080fd5b82359150602083013567ffffffffffffffff81111561261957600080fd5b600181811c9082168061281957607f821691505b60208210810361283957634e487b7160e01b600052602260045260246000fd5b50919050565b60006020828403121561285157600080fd5b5051919050565b634e487b7160e01b600052601160045260246000fd5b60008282101561288057612880612858565b500390565b83815260606020820152600061289e6060830185612445565b82810360408401526128b08185612445565b9695505050505050565b6000602082840312156128cc57600080fd5b815161068481612484565b60006001600160a01b038089168352808816602084015280871660408401525084606083015260c0608083015261291160c0830185612445565b82810360a08401526129238185612445565b9998505050505050505050565b6000821982111561294357612943612858565b500190565b601f821115610dd857600081815260208120601f850160051c8101602086101561296f5750805b601f850160051c820191505b8181101561298e5782815560010161297b565b505050505050565b815167ffffffffffffffff8111156129b0576129b061253c565b6129c4816129be8454612805565b84612948565b602080601f8311600181146129f957600084156129e15750858301515b600019600386901b1c1916600185901b17855561298e565b600085815260208120601f198616915b82811015612a2857888601518255948401946001909101908401612a09565b5085821015612a465787850151600019600388901b60f8161c191681555b5050505050600190811b01905550565b634e487b7160e01b600052603260045260246000fd5b600060018201612a7e57612a7e612858565b5060010190565b60008251612a97818460208701612419565b919091019291505056fe416464726573733a206c6f772d6c6576656c2064656c65676174652063616c6c206661696c6564a26469706673582212209e0e12b9b119b9ecc83850989696269f4a41c42032bab76615649d74b92d9ce064736f6c634300080f0033",
  "linkReferences": {},
  "deployedLinkReferences": {}
}