{
  "_format": "hh-sol-artifact-1",
  "contractName": "UP_Catnip",
  "sourceName": "contracts/token/upgradeable/token/ERC777/UP_Catnip/UP_Catnip.sol",
  "abi": [
    {
      "inputs": [],
      "stateMutability": "nonpayable",
      "type": "constructor"
    },
    {
      "anonymous": false,
      "inputs": [
        {
          "indexed": false,
          "internalType": "address",
          "name": "previousAdmin",
          "type": "address"
        },
        {
          "indexed": false,
          "internalType": "address",
          "name": "newAdmin",
          "type": "address"
        }
      ],
      "name": "AdminChanged",
      "type": "event"
    },
    {
      "anonymous": false,
      "inputs": [
        {
          "indexed": true,
          "internalType": "address",
          "name": "owner",
          "type": "address"
        },
        {
          "indexed": true,
          "internalType": "address",
          "name": "spender",
          "type": "address"
        },
        {
          "indexed": false,
          "internalType": "uint256",
          "name": "value",
          "type": "uint256"
        }
      ],
      "name": "Approval",
      "type": "event"
    },
    {
      "anonymous": false,
      "inputs": [
        {
          "indexed": true,
          "internalType": "address",
          "name": "operator",
          "type": "address"
        },
        {
          "indexed": true,
          "internalType": "address",
          "name": "tokenHolder",
          "type": "address"
        }
      ],
      "name": "AuthorizedOperator",
      "type": "event"
    },
    {
      "anonymous": false,
      "inputs": [
        {
          "indexed": true,
          "internalType": "address",
          "name": "beacon",
          "type": "address"
        }
      ],
      "name": "BeaconUpgraded",
      "type": "event"
    },
    {
      "anonymous": false,
      "inputs": [
        {
          "indexed": true,
          "internalType": "address",
          "name": "operator",
          "type": "address"
        },
        {
          "indexed": true,
          "internalType": "address",
          "name": "from",
          "type": "address"
        },
        {
          "indexed": false,
          "internalType": "uint256",
          "name": "amount",
          "type": "uint256"
        },
        {
          "indexed": false,
          "internalType": "bytes",
          "name": "data",
          "type": "bytes"
        },
        {
          "indexed": false,
          "internalType": "bytes",
          "name": "operatorData",
          "type": "bytes"
        }
      ],
      "name": "Burned",
      "type": "event"
    },
    {
      "anonymous": false,
      "inputs": [
        {
          "indexed": false,
          "internalType": "uint8",
          "name": "version",
          "type": "uint8"
        }
      ],
      "name": "Initialized",
      "type": "event"
    },
    {
      "anonymous": false,
      "inputs": [
        {
          "indexed": true,
          "internalType": "address",
          "name": "operator",
          "type": "address"
        },
        {
          "indexed": true,
          "internalType": "address",
          "name": "to",
          "type": "address"
        },
        {
          "indexed": false,
          "internalType": "uint256",
          "name": "amount",
          "type": "uint256"
        },
        {
          "indexed": false,
          "internalType": "bytes",
          "name": "data",
          "type": "bytes"
        },
        {
          "indexed": false,
          "internalType": "bytes",
          "name": "operatorData",
          "type": "bytes"
        }
      ],
      "name": "Minted",
      "type": "event"
    },
    {
      "anonymous": false,
      "inputs": [
        {
          "indexed": true,
          "internalType": "address",
          "name": "previousOwner",
          "type": "address"
        },
        {
          "indexed": true,
          "internalType": "address",
          "name": "newOwner",
          "type": "address"
        }
      ],
      "name": "OwnershipTransferred",
      "type": "event"
    },
    {
      "anonymous": false,
      "inputs": [
        {
          "indexed": true,
          "internalType": "address",
          "name": "operator",
          "type": "address"
        },
        {
          "indexed": true,
          "internalType": "address",
          "name": "tokenHolder",
          "type": "address"
        }
      ],
      "name": "RevokedOperator",
      "type": "event"
    },
    {
      "anonymous": false,
      "inputs": [
        {
          "indexed": true,
          "internalType": "address",
          "name": "operator",
          "type": "address"
        },
        {
          "indexed": true,
          "internalType": "address",
          "name": "from",
          "type": "address"
        },
        {
          "indexed": true,
          "internalType": "address",
          "name": "to",
          "type": "address"
        },
        {
          "indexed": false,
          "internalType": "uint256",
          "name": "amount",
          "type": "uint256"
        },
        {
          "indexed": false,
          "internalType": "bytes",
          "name": "data",
          "type": "bytes"
        },
        {
          "indexed": false,
          "internalType": "bytes",
          "name": "operatorData",
          "type": "bytes"
        }
      ],
      "name": "Sent",
      "type": "event"
    },
    {
      "anonymous": false,
      "inputs": [
        {
          "indexed": true,
          "internalType": "address",
          "name": "from",
          "type": "address"
        },
        {
          "indexed": true,
          "internalType": "address",
          "name": "to",
          "type": "address"
        },
        {
          "indexed": false,
          "internalType": "uint256",
          "name": "value",
          "type": "uint256"
        }
      ],
      "name": "Transfer",
      "type": "event"
    },
    {
      "anonymous": false,
      "inputs": [
        {
          "indexed": true,
          "internalType": "address",
          "name": "implementation",
          "type": "address"
        }
      ],
      "name": "Upgraded",
      "type": "event"
    },
    {
      "inputs": [
        {
          "internalType": "address",
          "name": "holder",
          "type": "address"
        },
        {
          "internalType": "address",
          "name": "spender",
          "type": "address"
        }
      ],
      "name": "allowance",
      "outputs": [
        {
          "internalType": "uint256",
          "name": "",
          "type": "uint256"
        }
      ],
      "stateMutability": "view",
      "type": "function"
    },
    {
      "inputs": [
        {
          "internalType": "address",
          "name": "spender",
          "type": "address"
        },
        {
          "internalType": "uint256",
          "name": "value",
          "type": "uint256"
        }
      ],
      "name": "approve",
      "outputs": [
        {
          "internalType": "bool",
          "name": "",
          "type": "bool"
        }
      ],
      "stateMutability": "nonpayable",
      "type": "function"
    },
    {
      "inputs": [
        {
          "internalType": "address",
          "name": "operator",
          "type": "address"
        }
      ],
      "name": "authorizeOperator",
      "outputs": [],
      "stateMutability": "nonpayable",
      "type": "function"
    },
    {
      "inputs": [
        {
          "internalType": "address",
          "name": "tokenHolder",
          "type": "address"
        }
      ],
      "name": "balanceOf",
      "outputs": [
        {
          "internalType": "uint256",
          "name": "",
          "type": "uint256"
        }
      ],
      "stateMutability": "view",
      "type": "function"
    },
    {
      "inputs": [
        {
          "internalType": "uint256",
          "name": "amount",
          "type": "uint256"
        },
        {
          "internalType": "bytes",
          "name": "data",
          "type": "bytes"
        }
      ],
      "name": "burn",
      "outputs": [],
      "stateMutability": "nonpayable",
      "type": "function"
    },
    {
      "inputs": [],
      "name": "decimals",
      "outputs": [
        {
          "internalType": "uint8",
          "name": "",
          "type": "uint8"
        }
      ],
      "stateMutability": "pure",
      "type": "function"
    },
    {
      "inputs": [],
      "name": "defaultOperators",
      "outputs": [
        {
          "internalType": "address[]",
          "name": "",
          "type": "address[]"
        }
      ],
      "stateMutability": "view",
      "type": "function"
    },
    {
      "inputs": [],
      "name": "granularity",
      "outputs": [
        {
          "internalType": "uint256",
          "name": "",
          "type": "uint256"
        }
      ],
      "stateMutability": "view",
      "type": "function"
    },
    {
      "inputs": [],
      "name": "initialize",
      "outputs": [],
      "stateMutability": "nonpayable",
      "type": "function"
    },
    {
      "inputs": [
        {
          "internalType": "address",
          "name": "operator",
          "type": "address"
        },
        {
          "internalType": "address",
          "name": "tokenHolder",
          "type": "address"
        }
      ],
      "name": "isOperatorFor",
      "outputs": [
        {
          "internalType": "bool",
          "name": "",
          "type": "bool"
        }
      ],
      "stateMutability": "view",
      "type": "function"
    },
    {
      "inputs": [],
      "name": "name",
      "outputs": [
        {
          "internalType": "string",
          "name": "",
          "type": "string"
        }
      ],
      "stateMutability": "view",
      "type": "function"
    },
    {
      "inputs": [
        {
          "internalType": "address",
          "name": "account",
          "type": "address"
        },
        {
          "internalType": "uint256",
          "name": "amount",
          "type": "uint256"
        },
        {
          "internalType": "bytes",
          "name": "data",
          "type": "bytes"
        },
        {
          "internalType": "bytes",
          "name": "operatorData",
          "type": "bytes"
        }
      ],
      "name": "operatorBurn",
      "outputs": [],
      "stateMutability": "nonpayable",
      "type": "function"
    },
    {
      "inputs": [
        {
          "internalType": "address",
          "name": "sender",
          "type": "address"
        },
        {
          "internalType": "address",
          "name": "recipient",
          "type": "address"
        },
        {
          "internalType": "uint256",
          "name": "amount",
          "type": "uint256"
        },
        {
          "internalType": "bytes",
          "name": "data",
          "type": "bytes"
        },
        {
          "internalType": "bytes",
          "name": "operatorData",
          "type": "bytes"
        }
      ],
      "name": "operatorSend",
      "outputs": [],
      "stateMutability": "nonpayable",
      "type": "function"
    },
    {
      "inputs": [],
      "name": "owner",
      "outputs": [
        {
          "internalType": "address",
          "name": "",
          "type": "address"
        }
      ],
      "stateMutability": "view",
      "type": "function"
    },
    {
      "inputs": [],
      "name": "proxiableUUID",
      "outputs": [
        {
          "internalType": "bytes32",
          "name": "",
          "type": "bytes32"
        }
      ],
      "stateMutability": "view",
      "type": "function"
    },
    {
      "inputs": [],
      "name": "renounceOwnership",
      "outputs": [],
      "stateMutability": "nonpayable",
      "type": "function"
    },
    {
      "inputs": [
        {
          "internalType": "address",
          "name": "operator",
          "type": "address"
        }
      ],
      "name": "revokeOperator",
      "outputs": [],
      "stateMutability": "nonpayable",
      "type": "function"
    },
    {
      "inputs": [
        {
          "internalType": "address",
          "name": "recipient",
          "type": "address"
        },
        {
          "internalType": "uint256",
          "name": "amount",
          "type": "uint256"
        },
        {
          "internalType": "bytes",
          "name": "data",
          "type": "bytes"
        }
      ],
      "name": "send",
      "outputs": [],
      "stateMutability": "nonpayable",
      "type": "function"
    },
    {
      "inputs": [],
      "name": "symbol",
      "outputs": [
        {
          "internalType": "string",
          "name": "",
          "type": "string"
        }
      ],
      "stateMutability": "view",
      "type": "function"
    },
    {
      "inputs": [],
      "name": "totalSupply",
      "outputs": [
        {
          "internalType": "uint256",
          "name": "",
          "type": "uint256"
        }
      ],
      "stateMutability": "view",
      "type": "function"
    },
    {
      "inputs": [
        {
          "internalType": "address",
          "name": "recipient",
          "type": "address"
        },
        {
          "internalType": "uint256",
          "name": "amount",
          "type": "uint256"
        }
      ],
      "name": "transfer",
      "outputs": [
        {
          "internalType": "bool",
          "name": "",
          "type": "bool"
        }
      ],
      "stateMutability": "nonpayable",
      "type": "function"
    },
    {
      "inputs": [
        {
          "internalType": "address",
          "name": "holder",
          "type": "address"
        },
        {
          "internalType": "address",
          "name": "recipient",
          "type": "address"
        },
        {
          "internalType": "uint256",
          "name": "amount",
          "type": "uint256"
        }
      ],
      "name": "transferFrom",
      "outputs": [
        {
          "internalType": "bool",
          "name": "",
          "type": "bool"
        }
      ],
      "stateMutability": "nonpayable",
      "type": "function"
    },
    {
      "inputs": [
        {
          "internalType": "address",
          "name": "newOwner",
          "type": "address"
        }
      ],
      "name": "transferOwnership",
      "outputs": [],
      "stateMutability": "nonpayable",
      "type": "function"
    },
    {
      "inputs": [
        {
          "internalType": "address",
          "name": "newImplementation",
          "type": "address"
        }
      ],
      "name": "upgradeTo",
      "outputs": [],
      "stateMutability": "nonpayable",
      "type": "function"
    },
    {
      "inputs": [
        {
          "internalType": "address",
          "name": "newImplementation",
          "type": "address"
        },
        {
          "internalType": "bytes",
          "name": "data",
          "type": "bytes"
        }
      ],
      "name": "upgradeToAndCall",
      "outputs": [],
      "stateMutability": "payable",
      "type": "function"
    }
  ],
  "bytecode": "0x60a06040523073ffffffffffffffffffffffffffffffffffffffff1660809073ffffffffffffffffffffffffffffffffffffffff168152503480156200004457600080fd5b50620000797f66ff1190674b98ae2b3001ef2b82ad5442592ff7e2cdeeea7bc8580de56dcf2f60001b620000f760201b60201c565b620000ad7f8426148b83c40b551d0365a67ddbbe5a7f788ef16beda1736a557fc7c3f64a0260001b620000f760201b60201c565b620000e17f8c53d378605d5fffed1e6300600bc0b233ec314fb8d72f331ec9c019c4652e8e60001b620000f760201b60201c565b620000f1620000fa60201b60201c565b620002a5565b50565b600060019054906101000a900460ff16156200014d576040517f08c379a0000000000000000000000000000000000000000000000000000000008152600401620001449062000248565b60405180910390fd5b60ff801660008054906101000a900460ff1660ff161015620001bf5760ff6000806101000a81548160ff021916908360ff1602179055507f7f26b83ff96e1f2b6a682f133852f6798a09c465da95921460cefb384740249860ff604051620001b6919062000288565b60405180910390a15b565b600082825260208201905092915050565b7f496e697469616c697a61626c653a20636f6e747261637420697320696e69746960008201527f616c697a696e6700000000000000000000000000000000000000000000000000602082015250565b600062000230602783620001c1565b91506200023d82620001d2565b604082019050919050565b60006020820190508181036000830152620002638162000221565b9050919050565b600060ff82169050919050565b62000282816200026a565b82525050565b60006020820190506200029f600083018462000277565b92915050565b6080516149d2620002dd6000396000818161079c0152818161082a01528181610924015281816109b20152610a6201526149d26000f3fe6080604052600436106101965760003560e01c8063715018a6116100e1578063a9059cbb1161008a578063f2fde38b11610064578063f2fde38b1461054f578063fad8b32a14610578578063fc673c4f146105a1578063fe9d9303146105ca57610196565b8063a9059cbb14610498578063d95b6371146104d5578063dd62ed3e1461051257610196565b8063959b8c3f116100bb578063959b8c3f1461041b57806395d89b41146104445780639bd9bbc61461046f57610196565b8063715018a6146103c25780638129fc1c146103d95780638da5cb5b146103f057610196565b80633659cfe611610143578063556f0dc71161011d578063556f0dc71461033157806362ad1b831461035c57806370a082311461038557610196565b80633659cfe6146102c15780634f1ef286146102ea57806352d1902d1461030657610196565b806318160ddd1161017457806318160ddd1461022e57806323b872dd14610259578063313ce5671461029657610196565b806306e485381461019b57806306fdde03146101c6578063095ea7b3146101f1575b600080fd5b3480156101a757600080fd5b506101b06105f3565b6040516101bd9190612ecc565b60405180910390f35b3480156101d257600080fd5b506101db610681565b6040516101e89190612f87565b60405180910390f35b3480156101fd57600080fd5b506102186004803603810190610213919061301f565b610713565b604051610225919061307a565b60405180910390f35b34801561023a57600080fd5b50610243610736565b60405161025091906130a4565b60405180910390f35b34801561026557600080fd5b50610280600480360381019061027b91906130bf565b610740565b60405161028d919061307a565b60405180910390f35b3480156102a257600080fd5b506102ab610791565b6040516102b8919061312e565b60405180910390f35b3480156102cd57600080fd5b506102e860048036038101906102e39190613149565b61079a565b005b61030460048036038101906102ff91906132ab565b610922565b005b34801561031257600080fd5b5061031b610a5e565b6040516103289190613320565b60405180910390f35b34801561033d57600080fd5b50610346610b17565b60405161035391906130a4565b60405180910390f35b34801561036857600080fd5b50610383600480360381019061037e919061333b565b610b20565b005b34801561039157600080fd5b506103ac60048036038101906103a79190613149565b610b86565b6040516103b991906130a4565b60405180910390f35b3480156103ce57600080fd5b506103d7610bcf565b005b3480156103e557600080fd5b506103ee610be3565b005b3480156103fc57600080fd5b50610405610f1b565b60405161041291906133fd565b60405180910390f35b34801561042757600080fd5b50610442600480360381019061043d9190613149565b610f45565b005b34801561045057600080fd5b506104596111a5565b6040516104669190612f87565b60405180910390f35b34801561047b57600080fd5b5061049660048036038101906104919190613418565b611237565b005b3480156104a457600080fd5b506104bf60048036038101906104ba919061301f565b611261565b6040516104cc919061307a565b60405180910390f35b3480156104e157600080fd5b506104fc60048036038101906104f79190613487565b6112a1565b604051610509919061307a565b60405180910390f35b34801561051e57600080fd5b5061053960048036038101906105349190613487565b611452565b60405161054691906130a4565b60405180910390f35b34801561055b57600080fd5b5061057660048036038101906105719190613149565b6114d9565b005b34801561058457600080fd5b5061059f600480360381019061059a9190613149565b61155c565b005b3480156105ad57600080fd5b506105c860048036038101906105c391906134c7565b6117bc565b005b3480156105d657600080fd5b506105f160048036038101906105ec9190613566565b61181e565b005b6060603780548060200260200160405190810160405280929190818152602001828054801561067757602002820191906000526020600020905b8160009054906101000a900473ffffffffffffffffffffffffffffffffffffffff1673ffffffffffffffffffffffffffffffffffffffff168152602001906001019080831161062d575b5050505050905090565b606060358054610690906135f1565b80601f01602080910402602001604051908101604052809291908181526020018280546106bc906135f1565b80156107095780601f106106de57610100808354040283529160200191610709565b820191906000526020600020905b8154815290600101906020018083116106ec57829003601f168201915b5050505050905090565b60008061071e611844565b905061072b81858561184c565b600191505092915050565b6000603454905090565b60008061074b611844565b9050610758858285611a15565b61078585858560405180602001604052806000815250604051806020016040528060008152506000611aa1565b60019150509392505050565b60006012905090565b7f000000000000000000000000000000000000000000000000000000000000000073ffffffffffffffffffffffffffffffffffffffff163073ffffffffffffffffffffffffffffffffffffffff1603610828576040517f08c379a000000000000000000000000000000000000000000000000000000000815260040161081f90613694565b60405180910390fd5b7f000000000000000000000000000000000000000000000000000000000000000073ffffffffffffffffffffffffffffffffffffffff16610867611bbf565b73ffffffffffffffffffffffffffffffffffffffff16146108bd576040517f08c379a00000000000000000000000000000000000000000000000000000000081526004016108b490613726565b60405180910390fd5b6108c681611c16565b61091f81600067ffffffffffffffff8111156108e5576108e4613180565b5b6040519080825280601f01601f1916602001820160405280156109175781602001600182028036833780820191505090505b506000611c4d565b50565b7f000000000000000000000000000000000000000000000000000000000000000073ffffffffffffffffffffffffffffffffffffffff163073ffffffffffffffffffffffffffffffffffffffff16036109b0576040517f08c379a00000000000000000000000000000000000000000000000000000000081526004016109a790613694565b60405180910390fd5b7f000000000000000000000000000000000000000000000000000000000000000073ffffffffffffffffffffffffffffffffffffffff166109ef611bbf565b73ffffffffffffffffffffffffffffffffffffffff1614610a45576040517f08c379a0000000000000000000000000000000000000000000000000000000008152600401610a3c90613726565b60405180910390fd5b610a4e82611c16565b610a5a82826001611c4d565b5050565b60007f000000000000000000000000000000000000000000000000000000000000000073ffffffffffffffffffffffffffffffffffffffff163073ffffffffffffffffffffffffffffffffffffffff1614610aee576040517f08c379a0000000000000000000000000000000000000000000000000000000008152600401610ae5906137b8565b60405180910390fd5b7f360894a13ba1a3210667c828492db98dca3e2076cc3735a920a3ca505d382bbc60001b905090565b60006001905090565b610b31610b2b611844565b866112a1565b610b70576040517f08c379a0000000000000000000000000000000000000000000000000000000008152600401610b679061384a565b60405180910390fd5b610b7f85858585856001611aa1565b5050505050565b6000603360008373ffffffffffffffffffffffffffffffffffffffff1673ffffffffffffffffffffffffffffffffffffffff168152602001908152602001600020549050919050565b610bd7611dbb565b610be16000611e39565b565b60008060019054906101000a900460ff16159050808015610c145750600160008054906101000a900460ff1660ff16105b80610c415750610c2330611eff565b158015610c405750600160008054906101000a900460ff1660ff16145b5b610c80576040517f08c379a0000000000000000000000000000000000000000000000000000000008152600401610c77906138dc565b60405180910390fd5b60016000806101000a81548160ff021916908360ff1602179055508015610cbd576001600060016101000a81548160ff0219169083151502179055505b610ce97faf15b059daf6950c17c59cde028f77b6510cb0e5514325dbcd5b3852e2b0ffbe60001b611f22565b610d157f3c2a15d85c3ac34970e107e89daeac31a6f90db2c2534e7ad37e01482035777860001b611f22565b610d417fb3b1c7b9d162ccccf9557f000fb9ed62ca3b9f82776626a8b216e09df3f45d3860001b611f22565b610dff6040518060400160405280600981526020017f55505f4361746e697000000000000000000000000000000000000000000000008152506040518060400160405280600281526020017f434e000000000000000000000000000000000000000000000000000000000000815250600067ffffffffffffffff811115610dcb57610dca613180565b5b604051908082528060200260200182016040528015610df95781602001602082028036833780820191505090505b50611f25565b610e2b7f991d7a86f5c899161013773ab04c46d1c5d6f3d041e6bdf5f49d0bb0acf70b8d60001b611f22565b610e577fc763b46416634c1e4147ee7cb6b7efd64148165b16ac3afac727861bf8ff4d1160001b611f22565b610e5f611f84565b610e8b7f1d04c6ded6fe0574294c607b24d2d8f4d25fabffc7bcf1f45fa2a5832d85c81c60001b611f22565b610eb77f39637b5c0ef04719b01efb5aec0608eedc443e9e824bad1a20bda4d132ea140760001b611f22565b610ebf611fd5565b8015610f185760008060016101000a81548160ff0219169083151502179055507f7f26b83ff96e1f2b6a682f133852f6798a09c465da95921460cefb38474024986001604051610f0f9190613941565b60405180910390a15b50565b600060c960009054906101000a900473ffffffffffffffffffffffffffffffffffffffff16905090565b8073ffffffffffffffffffffffffffffffffffffffff16610f64611844565b73ffffffffffffffffffffffffffffffffffffffff1603610fba576040517f08c379a0000000000000000000000000000000000000000000000000000000008152600401610fb1906139ce565b60405180910390fd5b603860008273ffffffffffffffffffffffffffffffffffffffff1673ffffffffffffffffffffffffffffffffffffffff16815260200190815260200160002060009054906101000a900460ff16156110a457603a6000611018611844565b73ffffffffffffffffffffffffffffffffffffffff1673ffffffffffffffffffffffffffffffffffffffff16815260200190815260200160002060008273ffffffffffffffffffffffffffffffffffffffff1673ffffffffffffffffffffffffffffffffffffffff16815260200190815260200160002060006101000a81549060ff0219169055611141565b6001603960006110b2611844565b73ffffffffffffffffffffffffffffffffffffffff1673ffffffffffffffffffffffffffffffffffffffff16815260200190815260200160002060008373ffffffffffffffffffffffffffffffffffffffff1673ffffffffffffffffffffffffffffffffffffffff16815260200190815260200160002060006101000a81548160ff0219169083151502179055505b611149611844565b73ffffffffffffffffffffffffffffffffffffffff168173ffffffffffffffffffffffffffffffffffffffff167ff4caeb2d6ca8932a215a353d0703c326ec2d81fc68170f320eb2ab49e9df61f960405160405180910390a350565b6060603680546111b4906135f1565b80601f01602080910402602001604051908101604052809291908181526020018280546111e0906135f1565b801561122d5780601f106112025761010080835404028352916020019161122d565b820191906000526020600020905b81548152906001019060200180831161121057829003601f168201915b5050505050905090565b61125c611242611844565b848484604051806020016040528060008152506001611aa1565b505050565b600061129761126e611844565b848460405180602001604052806000815250604051806020016040528060008152506000611aa1565b6001905092915050565b60008173ffffffffffffffffffffffffffffffffffffffff168373ffffffffffffffffffffffffffffffffffffffff1614806113b95750603860008473ffffffffffffffffffffffffffffffffffffffff1673ffffffffffffffffffffffffffffffffffffffff16815260200190815260200160002060009054906101000a900460ff1680156113b85750603a60008373ffffffffffffffffffffffffffffffffffffffff1673ffffffffffffffffffffffffffffffffffffffff16815260200190815260200160002060008473ffffffffffffffffffffffffffffffffffffffff1673ffffffffffffffffffffffffffffffffffffffff16815260200190815260200160002060009054906101000a900460ff16155b5b8061144a5750603960008373ffffffffffffffffffffffffffffffffffffffff1673ffffffffffffffffffffffffffffffffffffffff16815260200190815260200160002060008473ffffffffffffffffffffffffffffffffffffffff1673ffffffffffffffffffffffffffffffffffffffff16815260200190815260200160002060009054906101000a900460ff165b905092915050565b6000603b60008473ffffffffffffffffffffffffffffffffffffffff1673ffffffffffffffffffffffffffffffffffffffff16815260200190815260200160002060008373ffffffffffffffffffffffffffffffffffffffff1673ffffffffffffffffffffffffffffffffffffffff16815260200190815260200160002054905092915050565b6114e1611dbb565b600073ffffffffffffffffffffffffffffffffffffffff168173ffffffffffffffffffffffffffffffffffffffff1603611550576040517f08c379a000000000000000000000000000000000000000000000000000000000815260040161154790613a60565b60405180910390fd5b61155981611e39565b50565b611564611844565b73ffffffffffffffffffffffffffffffffffffffff168173ffffffffffffffffffffffffffffffffffffffff16036115d1576040517f08c379a00000000000000000000000000000000000000000000000000000000081526004016115c890613af2565b60405180910390fd5b603860008273ffffffffffffffffffffffffffffffffffffffff1673ffffffffffffffffffffffffffffffffffffffff16815260200190815260200160002060009054906101000a900460ff16156116c4576001603a6000611631611844565b73ffffffffffffffffffffffffffffffffffffffff1673ffffffffffffffffffffffffffffffffffffffff16815260200190815260200160002060008373ffffffffffffffffffffffffffffffffffffffff1673ffffffffffffffffffffffffffffffffffffffff16815260200190815260200160002060006101000a81548160ff021916908315150217905550611758565b603960006116d0611844565b73ffffffffffffffffffffffffffffffffffffffff1673ffffffffffffffffffffffffffffffffffffffff16815260200190815260200160002060008273ffffffffffffffffffffffffffffffffffffffff1673ffffffffffffffffffffffffffffffffffffffff16815260200190815260200160002060006101000a81549060ff02191690555b611760611844565b73ffffffffffffffffffffffffffffffffffffffff168173ffffffffffffffffffffffffffffffffffffffff167f50546e66e5f44d728365dc3908c63bc5cfeeab470722c1677e3073a6ac294aa160405160405180910390a350565b6117cd6117c7611844565b856112a1565b61180c576040517f08c379a00000000000000000000000000000000000000000000000000000000081526004016118039061384a565b60405180910390fd5b6118188484848461202e565b50505050565b611840611829611844565b83836040518060200160405280600081525061202e565b5050565b600033905090565b600073ffffffffffffffffffffffffffffffffffffffff168373ffffffffffffffffffffffffffffffffffffffff16036118bb576040517f08c379a00000000000000000000000000000000000000000000000000000000081526004016118b290613b84565b60405180910390fd5b600073ffffffffffffffffffffffffffffffffffffffff168273ffffffffffffffffffffffffffffffffffffffff160361192a576040517f08c379a000000000000000000000000000000000000000000000000000000000815260040161192190613c16565b60405180910390fd5b80603b60008573ffffffffffffffffffffffffffffffffffffffff1673ffffffffffffffffffffffffffffffffffffffff16815260200190815260200160002060008473ffffffffffffffffffffffffffffffffffffffff1673ffffffffffffffffffffffffffffffffffffffff168152602001908152602001600020819055508173ffffffffffffffffffffffffffffffffffffffff168373ffffffffffffffffffffffffffffffffffffffff167f8c5be1e5ebec7d5bd14f71427d1e84f3dd0314c0f7b2291e5b200ac8c7c3b92583604051611a0891906130a4565b60405180910390a3505050565b6000611a218484611452565b90507fffffffffffffffffffffffffffffffffffffffffffffffffffffffffffffffff8114611a9b5781811015611a8d576040517f08c379a0000000000000000000000000000000000000000000000000000000008152600401611a8490613c82565b60405180910390fd5b611a9a848484840361184c565b5b50505050565b600073ffffffffffffffffffffffffffffffffffffffff168673ffffffffffffffffffffffffffffffffffffffff1603611b10576040517f08c379a0000000000000000000000000000000000000000000000000000000008152600401611b0790613d14565b60405180910390fd5b600073ffffffffffffffffffffffffffffffffffffffff168573ffffffffffffffffffffffffffffffffffffffff1603611b7f576040517f08c379a0000000000000000000000000000000000000000000000000000000008152600401611b7690613da6565b60405180910390fd5b6000611b89611844565b9050611b99818888888888612282565b611ba78188888888886123e9565b611bb681888888888888612606565b50505050505050565b6000611bed7f360894a13ba1a3210667c828492db98dca3e2076cc3735a920a3ca505d382bbc60001b6127d8565b60000160009054906101000a900473ffffffffffffffffffffffffffffffffffffffff16905090565b611c1e611dbb565b611c4a7f1ca495790228f613779f3748ec9e9f25d5eeced97332b0d9c6c7b8ff43dcf41b60001b611f22565b50565b611c797f4910fdfa16fed3260ed0e7147f7cc6da11a60208b5b9406d12a635614ffd914360001b6127e2565b60000160009054906101000a900460ff1615611c9d57611c98836127ec565b611db6565b8273ffffffffffffffffffffffffffffffffffffffff166352d1902d6040518163ffffffff1660e01b8152600401602060405180830381865afa925050508015611d0557506040513d601f19601f82011682018060405250810190611d029190613df2565b60015b611d44576040517f08c379a0000000000000000000000000000000000000000000000000000000008152600401611d3b90613e91565b60405180910390fd5b7f360894a13ba1a3210667c828492db98dca3e2076cc3735a920a3ca505d382bbc60001b8114611da9576040517f08c379a0000000000000000000000000000000000000000000000000000000008152600401611da090613f23565b60405180910390fd5b50611db58383836128a5565b5b505050565b611dc3611844565b73ffffffffffffffffffffffffffffffffffffffff16611de1610f1b565b73ffffffffffffffffffffffffffffffffffffffff1614611e37576040517f08c379a0000000000000000000000000000000000000000000000000000000008152600401611e2e90613f8f565b60405180910390fd5b565b600060c960009054906101000a900473ffffffffffffffffffffffffffffffffffffffff1690508160c960006101000a81548173ffffffffffffffffffffffffffffffffffffffff021916908373ffffffffffffffffffffffffffffffffffffffff1602179055508173ffffffffffffffffffffffffffffffffffffffff168173ffffffffffffffffffffffffffffffffffffffff167f8be0079c531659141344cd1fd0a4f28419497f9722a3daafe3b4186f6b6457e060405160405180910390a35050565b6000808273ffffffffffffffffffffffffffffffffffffffff163b119050919050565b50565b600060019054906101000a900460ff16611f74576040517f08c379a0000000000000000000000000000000000000000000000000000000008152600401611f6b90614021565b60405180910390fd5b611f7f8383836128d1565b505050565b600060019054906101000a900460ff16611fd3576040517f08c379a0000000000000000000000000000000000000000000000000000000008152600401611fca90614021565b60405180910390fd5b565b600060019054906101000a900460ff16612024576040517f08c379a000000000000000000000000000000000000000000000000000000000815260040161201b90614021565b60405180910390fd5b61202c612b34565b565b600073ffffffffffffffffffffffffffffffffffffffff168473ffffffffffffffffffffffffffffffffffffffff160361209d576040517f08c379a0000000000000000000000000000000000000000000000000000000008152600401612094906140b3565b60405180910390fd5b60006120a7611844565b90506120b881866000878787612282565b6120c58186600087612b95565b6000603360008773ffffffffffffffffffffffffffffffffffffffff1673ffffffffffffffffffffffffffffffffffffffff1681526020019081526020016000205490508481101561214c576040517f08c379a000000000000000000000000000000000000000000000000000000000815260040161214390614145565b60405180910390fd5b848103603360008873ffffffffffffffffffffffffffffffffffffffff1673ffffffffffffffffffffffffffffffffffffffff1681526020019081526020016000208190555084603460008282546121a49190614194565b925050819055508573ffffffffffffffffffffffffffffffffffffffff168273ffffffffffffffffffffffffffffffffffffffff167fa78a9be3a7b862d26933ad85fb11d80ef66b8f972d7cbba06621d583943a409887878760405161220c9392919061421d565b60405180910390a3600073ffffffffffffffffffffffffffffffffffffffff168673ffffffffffffffffffffffffffffffffffffffff167fddf252ad1be2c89b69c2b068fc378daa952ba7f163c4a11628f55a4df523b3ef8760405161227291906130a4565b60405180910390a3505050505050565b6000731820a4b7618bde71dce8cdc73aab6c95905fad2473ffffffffffffffffffffffffffffffffffffffff1663aabbb8ca877f29ddb589b1fb5fc7cf394961c1adf5f8c6454761adf795e67fe149f658abe8956040518363ffffffff1660e01b81526004016122f3929190614262565b602060405180830381865afa158015612310573d6000803e3d6000fd5b505050506040513d601f19601f8201168201806040525081019061233491906142a0565b9050600073ffffffffffffffffffffffffffffffffffffffff168173ffffffffffffffffffffffffffffffffffffffff16146123e0578073ffffffffffffffffffffffffffffffffffffffff166375ab97828888888888886040518763ffffffff1660e01b81526004016123ad969594939291906142cd565b600060405180830381600087803b1580156123c757600080fd5b505af11580156123db573d6000803e3d6000fd5b505050505b50505050505050565b6123f586868686612b95565b6000603360008773ffffffffffffffffffffffffffffffffffffffff1673ffffffffffffffffffffffffffffffffffffffff1681526020019081526020016000205490508381101561247c576040517f08c379a0000000000000000000000000000000000000000000000000000000008152600401612473906143ae565b60405180910390fd5b838103603360008873ffffffffffffffffffffffffffffffffffffffff1673ffffffffffffffffffffffffffffffffffffffff1681526020019081526020016000208190555083603360008773ffffffffffffffffffffffffffffffffffffffff1673ffffffffffffffffffffffffffffffffffffffff168152602001908152602001600020600082825461251191906143ce565b925050819055508473ffffffffffffffffffffffffffffffffffffffff168673ffffffffffffffffffffffffffffffffffffffff168873ffffffffffffffffffffffffffffffffffffffff167f06b541ddaa720db2b10a4d0cdac39b8d360425fc073085fac19bc826146779878787876040516125909392919061421d565b60405180910390a48473ffffffffffffffffffffffffffffffffffffffff168673ffffffffffffffffffffffffffffffffffffffff167fddf252ad1be2c89b69c2b068fc378daa952ba7f163c4a11628f55a4df523b3ef866040516125f591906130a4565b60405180910390a350505050505050565b6000731820a4b7618bde71dce8cdc73aab6c95905fad2473ffffffffffffffffffffffffffffffffffffffff1663aabbb8ca877fb281fc8c12954d22544db45de3159a39272895b169a852b314f9cc762e44c53b6040518363ffffffff1660e01b8152600401612677929190614262565b602060405180830381865afa158015612694573d6000803e3d6000fd5b505050506040513d601f19601f820116820180604052508101906126b891906142a0565b9050600073ffffffffffffffffffffffffffffffffffffffff168173ffffffffffffffffffffffffffffffffffffffff1614612767578073ffffffffffffffffffffffffffffffffffffffff166223de298989898989896040518763ffffffff1660e01b8152600401612730969594939291906142cd565b600060405180830381600087803b15801561274a57600080fd5b505af115801561275e573d6000803e3d6000fd5b505050506127ce565b81156127cd5761278c8673ffffffffffffffffffffffffffffffffffffffff16611eff565b156127cc576040517f08c379a00000000000000000000000000000000000000000000000000000000081526004016127c3906144bc565b60405180910390fd5b5b5b5050505050505050565b6000819050919050565b6000819050919050565b6127f581611eff565b612834576040517f08c379a000000000000000000000000000000000000000000000000000000000815260040161282b9061454e565b60405180910390fd5b806128617f360894a13ba1a3210667c828492db98dca3e2076cc3735a920a3ca505d382bbc60001b6127d8565b60000160006101000a81548173ffffffffffffffffffffffffffffffffffffffff021916908373ffffffffffffffffffffffffffffffffffffffff16021790555050565b6128ae83612b9b565b6000825111806128bb5750805b156128cc576128ca8383612bea565b505b505050565b600060019054906101000a900460ff16612920576040517f08c379a000000000000000000000000000000000000000000000000000000000815260040161291790614021565b60405180910390fd5b826035908161292f9190614710565b50816036908161293f9190614710565b508060379080519060200190612956929190612d35565b5060005b81518110156129e85760016038600084848151811061297c5761297b6147e2565b5b602002602001015173ffffffffffffffffffffffffffffffffffffffff1673ffffffffffffffffffffffffffffffffffffffff16815260200190815260200160002060006101000a81548160ff02191690831515021790555080806129e090614811565b91505061295a565b50731820a4b7618bde71dce8cdc73aab6c95905fad2473ffffffffffffffffffffffffffffffffffffffff166329965a1d307fac7fbab5f54a3ca8194167523c6753bfeb96a445279294b6125b68cce2177054306040518463ffffffff1660e01b8152600401612a5a93929190614859565b600060405180830381600087803b158015612a7457600080fd5b505af1158015612a88573d6000803e3d6000fd5b50505050731820a4b7618bde71dce8cdc73aab6c95905fad2473ffffffffffffffffffffffffffffffffffffffff166329965a1d307faea199e31a596269b42cdafd93407f14436db6e4cad65417994c2eb37381e05a306040518463ffffffff1660e01b8152600401612afd93929190614859565b600060405180830381600087803b158015612b1757600080fd5b505af1158015612b2b573d6000803e3d6000fd5b50505050505050565b600060019054906101000a900460ff16612b83576040517f08c379a0000000000000000000000000000000000000000000000000000000008152600401612b7a90614021565b60405180910390fd5b612b93612b8e611844565b611e39565b565b50505050565b612ba4816127ec565b8073ffffffffffffffffffffffffffffffffffffffff167fbc7cd75a20ee27fd9adebab32041f755214dbc6bffa90cc0225b39da2e5c2d3b60405160405180910390a250565b6060612bf583611eff565b612c34576040517f08c379a0000000000000000000000000000000000000000000000000000000008152600401612c2b90614902565b60405180910390fd5b6000808473ffffffffffffffffffffffffffffffffffffffff1684604051612c5c919061495e565b600060405180830381855af49150503d8060008114612c97576040519150601f19603f3d011682016040523d82523d6000602084013e612c9c565b606091505b5091509150612cc4828260405180606001604052806027815260200161497660279139612cce565b9250505092915050565b60608315612cde57829050612d2e565b600083511115612cf15782518084602001fd5b816040517f08c379a0000000000000000000000000000000000000000000000000000000008152600401612d259190612f87565b60405180910390fd5b9392505050565b828054828255906000526020600020908101928215612dae579160200282015b82811115612dad5782518260006101000a81548173ffffffffffffffffffffffffffffffffffffffff021916908373ffffffffffffffffffffffffffffffffffffffff16021790555091602001919060010190612d55565b5b509050612dbb9190612dbf565b5090565b5b80821115612dd8576000816000905550600101612dc0565b5090565b600081519050919050565b600082825260208201905092915050565b6000819050602082019050919050565b600073ffffffffffffffffffffffffffffffffffffffff82169050919050565b6000612e3382612e08565b9050919050565b612e4381612e28565b82525050565b6000612e558383612e3a565b60208301905092915050565b6000602082019050919050565b6000612e7982612ddc565b612e838185612de7565b9350612e8e83612df8565b8060005b83811015612ebf578151612ea68882612e49565b9750612eb183612e61565b925050600181019050612e92565b5085935050505092915050565b60006020820190508181036000830152612ee68184612e6e565b905092915050565b600081519050919050565b600082825260208201905092915050565b60005b83811015612f28578082015181840152602081019050612f0d565b83811115612f37576000848401525b50505050565b6000601f19601f8301169050919050565b6000612f5982612eee565b612f638185612ef9565b9350612f73818560208601612f0a565b612f7c81612f3d565b840191505092915050565b60006020820190508181036000830152612fa18184612f4e565b905092915050565b6000604051905090565b600080fd5b600080fd5b612fc681612e28565b8114612fd157600080fd5b50565b600081359050612fe381612fbd565b92915050565b6000819050919050565b612ffc81612fe9565b811461300757600080fd5b50565b60008135905061301981612ff3565b92915050565b6000806040838503121561303657613035612fb3565b5b600061304485828601612fd4565b92505060206130558582860161300a565b9150509250929050565b60008115159050919050565b6130748161305f565b82525050565b600060208201905061308f600083018461306b565b92915050565b61309e81612fe9565b82525050565b60006020820190506130b96000830184613095565b92915050565b6000806000606084860312156130d8576130d7612fb3565b5b60006130e686828701612fd4565b93505060206130f786828701612fd4565b92505060406131088682870161300a565b9150509250925092565b600060ff82169050919050565b61312881613112565b82525050565b6000602082019050613143600083018461311f565b92915050565b60006020828403121561315f5761315e612fb3565b5b600061316d84828501612fd4565b91505092915050565b600080fd5b600080fd5b7f4e487b7100000000000000000000000000000000000000000000000000000000600052604160045260246000fd5b6131b882612f3d565b810181811067ffffffffffffffff821117156131d7576131d6613180565b5b80604052505050565b60006131ea612fa9565b90506131f682826131af565b919050565b600067ffffffffffffffff82111561321657613215613180565b5b61321f82612f3d565b9050602081019050919050565b82818337600083830152505050565b600061324e613249846131fb565b6131e0565b90508281526020810184848401111561326a5761326961317b565b5b61327584828561322c565b509392505050565b600082601f83011261329257613291613176565b5b81356132a284826020860161323b565b91505092915050565b600080604083850312156132c2576132c1612fb3565b5b60006132d085828601612fd4565b925050602083013567ffffffffffffffff8111156132f1576132f0612fb8565b5b6132fd8582860161327d565b9150509250929050565b6000819050919050565b61331a81613307565b82525050565b60006020820190506133356000830184613311565b92915050565b600080600080600060a0868803121561335757613356612fb3565b5b600061336588828901612fd4565b955050602061337688828901612fd4565b94505060406133878882890161300a565b935050606086013567ffffffffffffffff8111156133a8576133a7612fb8565b5b6133b48882890161327d565b925050608086013567ffffffffffffffff8111156133d5576133d4612fb8565b5b6133e18882890161327d565b9150509295509295909350565b6133f781612e28565b82525050565b600060208201905061341260008301846133ee565b92915050565b60008060006060848603121561343157613430612fb3565b5b600061343f86828701612fd4565b93505060206134508682870161300a565b925050604084013567ffffffffffffffff81111561347157613470612fb8565b5b61347d8682870161327d565b9150509250925092565b6000806040838503121561349e5761349d612fb3565b5b60006134ac85828601612fd4565b92505060206134bd85828601612fd4565b9150509250929050565b600080600080608085870312156134e1576134e0612fb3565b5b60006134ef87828801612fd4565b94505060206135008782880161300a565b935050604085013567ffffffffffffffff81111561352157613520612fb8565b5b61352d8782880161327d565b925050606085013567ffffffffffffffff81111561354e5761354d612fb8565b5b61355a8782880161327d565b91505092959194509250565b6000806040838503121561357d5761357c612fb3565b5b600061358b8582860161300a565b925050602083013567ffffffffffffffff8111156135ac576135ab612fb8565b5b6135b88582860161327d565b9150509250929050565b7f4e487b7100000000000000000000000000000000000000000000000000000000600052602260045260246000fd5b6000600282049050600182168061360957607f821691505b60208210810361361c5761361b6135c2565b5b50919050565b7f46756e6374696f6e206d7573742062652063616c6c6564207468726f7567682060008201527f64656c656761746563616c6c0000000000000000000000000000000000000000602082015250565b600061367e602c83612ef9565b915061368982613622565b604082019050919050565b600060208201905081810360008301526136ad81613671565b9050919050565b7f46756e6374696f6e206d7573742062652063616c6c6564207468726f7567682060008201527f6163746976652070726f78790000000000000000000000000000000000000000602082015250565b6000613710602c83612ef9565b915061371b826136b4565b604082019050919050565b6000602082019050818103600083015261373f81613703565b9050919050565b7f555550535570677261646561626c653a206d757374206e6f742062652063616c60008201527f6c6564207468726f7567682064656c656761746563616c6c0000000000000000602082015250565b60006137a2603883612ef9565b91506137ad82613746565b604082019050919050565b600060208201905081810360008301526137d181613795565b9050919050565b7f4552433737373a2063616c6c6572206973206e6f7420616e206f70657261746f60008201527f7220666f7220686f6c6465720000000000000000000000000000000000000000602082015250565b6000613834602c83612ef9565b915061383f826137d8565b604082019050919050565b6000602082019050818103600083015261386381613827565b9050919050565b7f496e697469616c697a61626c653a20636f6e747261637420697320616c72656160008201527f647920696e697469616c697a6564000000000000000000000000000000000000602082015250565b60006138c6602e83612ef9565b91506138d18261386a565b604082019050919050565b600060208201905081810360008301526138f5816138b9565b9050919050565b6000819050919050565b6000819050919050565b600061392b613926613921846138fc565b613906565b613112565b9050919050565b61393b81613910565b82525050565b60006020820190506139566000830184613932565b92915050565b7f4552433737373a20617574686f72697a696e672073656c66206173206f70657260008201527f61746f7200000000000000000000000000000000000000000000000000000000602082015250565b60006139b8602483612ef9565b91506139c38261395c565b604082019050919050565b600060208201905081810360008301526139e7816139ab565b9050919050565b7f4f776e61626c653a206e6577206f776e657220697320746865207a65726f206160008201527f6464726573730000000000000000000000000000000000000000000000000000602082015250565b6000613a4a602683612ef9565b9150613a55826139ee565b604082019050919050565b60006020820190508181036000830152613a7981613a3d565b9050919050565b7f4552433737373a207265766f6b696e672073656c66206173206f70657261746f60008201527f7200000000000000000000000000000000000000000000000000000000000000602082015250565b6000613adc602183612ef9565b9150613ae782613a80565b604082019050919050565b60006020820190508181036000830152613b0b81613acf565b9050919050565b7f4552433737373a20617070726f76652066726f6d20746865207a65726f20616460008201527f6472657373000000000000000000000000000000000000000000000000000000602082015250565b6000613b6e602583612ef9565b9150613b7982613b12565b604082019050919050565b60006020820190508181036000830152613b9d81613b61565b9050919050565b7f4552433737373a20617070726f766520746f20746865207a65726f206164647260008201527f6573730000000000000000000000000000000000000000000000000000000000602082015250565b6000613c00602383612ef9565b9150613c0b82613ba4565b604082019050919050565b60006020820190508181036000830152613c2f81613bf3565b9050919050565b7f4552433737373a20696e73756666696369656e7420616c6c6f77616e63650000600082015250565b6000613c6c601e83612ef9565b9150613c7782613c36565b602082019050919050565b60006020820190508181036000830152613c9b81613c5f565b9050919050565b7f4552433737373a207472616e736665722066726f6d20746865207a65726f206160008201527f6464726573730000000000000000000000000000000000000000000000000000602082015250565b6000613cfe602683612ef9565b9150613d0982613ca2565b604082019050919050565b60006020820190508181036000830152613d2d81613cf1565b9050919050565b7f4552433737373a207472616e7366657220746f20746865207a65726f2061646460008201527f7265737300000000000000000000000000000000000000000000000000000000602082015250565b6000613d90602483612ef9565b9150613d9b82613d34565b604082019050919050565b60006020820190508181036000830152613dbf81613d83565b9050919050565b613dcf81613307565b8114613dda57600080fd5b50565b600081519050613dec81613dc6565b92915050565b600060208284031215613e0857613e07612fb3565b5b6000613e1684828501613ddd565b91505092915050565b7f45524331393637557067726164653a206e657720696d706c656d656e7461746960008201527f6f6e206973206e6f742055555053000000000000000000000000000000000000602082015250565b6000613e7b602e83612ef9565b9150613e8682613e1f565b604082019050919050565b60006020820190508181036000830152613eaa81613e6e565b9050919050565b7f45524331393637557067726164653a20756e737570706f727465642070726f7860008201527f6961626c65555549440000000000000000000000000000000000000000000000602082015250565b6000613f0d602983612ef9565b9150613f1882613eb1565b604082019050919050565b60006020820190508181036000830152613f3c81613f00565b9050919050565b7f4f776e61626c653a2063616c6c6572206973206e6f7420746865206f776e6572600082015250565b6000613f79602083612ef9565b9150613f8482613f43565b602082019050919050565b60006020820190508181036000830152613fa881613f6c565b9050919050565b7f496e697469616c697a61626c653a20636f6e7472616374206973206e6f74206960008201527f6e697469616c697a696e67000000000000000000000000000000000000000000602082015250565b600061400b602b83612ef9565b915061401682613faf565b604082019050919050565b6000602082019050818103600083015261403a81613ffe565b9050919050565b7f4552433737373a206275726e2066726f6d20746865207a65726f20616464726560008201527f7373000000000000000000000000000000000000000000000000000000000000602082015250565b600061409d602283612ef9565b91506140a882614041565b604082019050919050565b600060208201905081810360008301526140cc81614090565b9050919050565b7f4552433737373a206275726e20616d6f756e7420657863656564732062616c6160008201527f6e63650000000000000000000000000000000000000000000000000000000000602082015250565b600061412f602383612ef9565b915061413a826140d3565b604082019050919050565b6000602082019050818103600083015261415e81614122565b9050919050565b7f4e487b7100000000000000000000000000000000000000000000000000000000600052601160045260246000fd5b600061419f82612fe9565b91506141aa83612fe9565b9250828210156141bd576141bc614165565b5b828203905092915050565b600081519050919050565b600082825260208201905092915050565b60006141ef826141c8565b6141f981856141d3565b9350614209818560208601612f0a565b61421281612f3d565b840191505092915050565b60006060820190506142326000830186613095565b818103602083015261424481856141e4565b9050818103604083015261425881846141e4565b9050949350505050565b600060408201905061427760008301856133ee565b6142846020830184613311565b9392505050565b60008151905061429a81612fbd565b92915050565b6000602082840312156142b6576142b5612fb3565b5b60006142c48482850161428b565b91505092915050565b600060c0820190506142e260008301896133ee565b6142ef60208301886133ee565b6142fc60408301876133ee565b6143096060830186613095565b818103608083015261431b81856141e4565b905081810360a083015261432f81846141e4565b9050979650505050505050565b7f4552433737373a207472616e7366657220616d6f756e7420657863656564732060008201527f62616c616e636500000000000000000000000000000000000000000000000000602082015250565b6000614398602783612ef9565b91506143a38261433c565b604082019050919050565b600060208201905081810360008301526143c78161438b565b9050919050565b60006143d982612fe9565b91506143e483612fe9565b9250827fffffffffffffffffffffffffffffffffffffffffffffffffffffffffffffffff0382111561441957614418614165565b5b828201905092915050565b7f4552433737373a20746f6b656e20726563697069656e7420636f6e747261637460008201527f20686173206e6f20696d706c656d656e74657220666f7220455243373737546f60208201527f6b656e73526563697069656e7400000000000000000000000000000000000000604082015250565b60006144a6604d83612ef9565b91506144b182614424565b606082019050919050565b600060208201905081810360008301526144d581614499565b9050919050565b7f455243313936373a206e657720696d706c656d656e746174696f6e206973206e60008201527f6f74206120636f6e747261637400000000000000000000000000000000000000602082015250565b6000614538602d83612ef9565b9150614543826144dc565b604082019050919050565b600060208201905081810360008301526145678161452b565b9050919050565b60008190508160005260206000209050919050565b60006020601f8301049050919050565b600082821b905092915050565b6000600883026145d07fffffffffffffffffffffffffffffffffffffffffffffffffffffffffffffffff82614593565b6145da8683614593565b95508019841693508086168417925050509392505050565b600061460d61460861460384612fe9565b613906565b612fe9565b9050919050565b6000819050919050565b614627836145f2565b61463b61463382614614565b8484546145a0565b825550505050565b600090565b614650614643565b61465b81848461461e565b505050565b5b8181101561467f57614674600082614648565b600181019050614661565b5050565b601f8211156146c4576146958161456e565b61469e84614583565b810160208510156146ad578190505b6146c16146b985614583565b830182614660565b50505b505050565b600082821c905092915050565b60006146e7600019846008026146c9565b1980831691505092915050565b600061470083836146d6565b9150826002028217905092915050565b61471982612eee565b67ffffffffffffffff81111561473257614731613180565b5b61473c82546135f1565b614747828285614683565b600060209050601f83116001811461477a5760008415614768578287015190505b61477285826146f4565b8655506147da565b601f1984166147888661456e565b60005b828110156147b05784890151825560018201915060208501945060208101905061478b565b868310156147cd57848901516147c9601f8916826146d6565b8355505b6001600288020188555050505b505050505050565b7f4e487b7100000000000000000000000000000000000000000000000000000000600052603260045260246000fd5b600061481c82612fe9565b91507fffffffffffffffffffffffffffffffffffffffffffffffffffffffffffffffff820361484e5761484d614165565b5b600182019050919050565b600060608201905061486e60008301866133ee565b61487b6020830185613311565b61488860408301846133ee565b949350505050565b7f416464726573733a2064656c65676174652063616c6c20746f206e6f6e2d636f60008201527f6e74726163740000000000000000000000000000000000000000000000000000602082015250565b60006148ec602683612ef9565b91506148f782614890565b604082019050919050565b6000602082019050818103600083015261491b816148df565b9050919050565b600081905092915050565b6000614938826141c8565b6149428185614922565b9350614952818560208601612f0a565b80840191505092915050565b600061496a828461492d565b91508190509291505056fe416464726573733a206c6f772d6c6576656c2064656c65676174652063616c6c206661696c6564a2646970667358221220c8d6d374979df0a502ade9a5ee6f9644ccff6d53a632e39af8d8b362218f479f64736f6c634300080f0033",
  "linkReferences": {},
  "deployedLinkReferences": {}
}