{
  "_format": "hh-sol-artifact-1",
  "contractName": "UP_Catnip",
  "sourceName": "contracts/token/upgradeable/token/ERC777/UP_Catnip/UP_Catnip.sol",
  "abi": [
    {
      "inputs": [],
      "stateMutability": "nonpayable",
      "type": "constructor"
    },
    {
      "anonymous": false,
      "inputs": [
        {
          "indexed": false,
          "internalType": "address",
          "name": "previousAdmin",
          "type": "address"
        },
        {
          "indexed": false,
          "internalType": "address",
          "name": "newAdmin",
          "type": "address"
        }
      ],
      "name": "AdminChanged",
      "type": "event"
    },
    {
      "anonymous": false,
      "inputs": [
        {
          "indexed": true,
          "internalType": "address",
          "name": "owner",
          "type": "address"
        },
        {
          "indexed": true,
          "internalType": "address",
          "name": "spender",
          "type": "address"
        },
        {
          "indexed": false,
          "internalType": "uint256",
          "name": "value",
          "type": "uint256"
        }
      ],
      "name": "Approval",
      "type": "event"
    },
    {
      "anonymous": false,
      "inputs": [
        {
          "indexed": true,
          "internalType": "address",
          "name": "operator",
          "type": "address"
        },
        {
          "indexed": true,
          "internalType": "address",
          "name": "tokenHolder",
          "type": "address"
        }
      ],
      "name": "AuthorizedOperator",
      "type": "event"
    },
    {
      "anonymous": false,
      "inputs": [
        {
          "indexed": true,
          "internalType": "address",
          "name": "beacon",
          "type": "address"
        }
      ],
      "name": "BeaconUpgraded",
      "type": "event"
    },
    {
      "anonymous": false,
      "inputs": [
        {
          "indexed": true,
          "internalType": "address",
          "name": "operator",
          "type": "address"
        },
        {
          "indexed": true,
          "internalType": "address",
          "name": "from",
          "type": "address"
        },
        {
          "indexed": false,
          "internalType": "uint256",
          "name": "amount",
          "type": "uint256"
        },
        {
          "indexed": false,
          "internalType": "bytes",
          "name": "data",
          "type": "bytes"
        },
        {
          "indexed": false,
          "internalType": "bytes",
          "name": "operatorData",
          "type": "bytes"
        }
      ],
      "name": "Burned",
      "type": "event"
    },
    {
      "anonymous": false,
      "inputs": [
        {
          "indexed": false,
          "internalType": "uint8",
          "name": "version",
          "type": "uint8"
        }
      ],
      "name": "Initialized",
      "type": "event"
    },
    {
      "anonymous": false,
      "inputs": [
        {
          "indexed": true,
          "internalType": "address",
          "name": "operator",
          "type": "address"
        },
        {
          "indexed": true,
          "internalType": "address",
          "name": "to",
          "type": "address"
        },
        {
          "indexed": false,
          "internalType": "uint256",
          "name": "amount",
          "type": "uint256"
        },
        {
          "indexed": false,
          "internalType": "bytes",
          "name": "data",
          "type": "bytes"
        },
        {
          "indexed": false,
          "internalType": "bytes",
          "name": "operatorData",
          "type": "bytes"
        }
      ],
      "name": "Minted",
      "type": "event"
    },
    {
      "anonymous": false,
      "inputs": [
        {
          "indexed": true,
          "internalType": "address",
          "name": "previousOwner",
          "type": "address"
        },
        {
          "indexed": true,
          "internalType": "address",
          "name": "newOwner",
          "type": "address"
        }
      ],
      "name": "OwnershipTransferred",
      "type": "event"
    },
    {
      "anonymous": false,
      "inputs": [
        {
          "indexed": true,
          "internalType": "address",
          "name": "operator",
          "type": "address"
        },
        {
          "indexed": true,
          "internalType": "address",
          "name": "tokenHolder",
          "type": "address"
        }
      ],
      "name": "RevokedOperator",
      "type": "event"
    },
    {
      "anonymous": false,
      "inputs": [
        {
          "indexed": true,
          "internalType": "address",
          "name": "operator",
          "type": "address"
        },
        {
          "indexed": true,
          "internalType": "address",
          "name": "from",
          "type": "address"
        },
        {
          "indexed": true,
          "internalType": "address",
          "name": "to",
          "type": "address"
        },
        {
          "indexed": false,
          "internalType": "uint256",
          "name": "amount",
          "type": "uint256"
        },
        {
          "indexed": false,
          "internalType": "bytes",
          "name": "data",
          "type": "bytes"
        },
        {
          "indexed": false,
          "internalType": "bytes",
          "name": "operatorData",
          "type": "bytes"
        }
      ],
      "name": "Sent",
      "type": "event"
    },
    {
      "anonymous": false,
      "inputs": [
        {
          "indexed": true,
          "internalType": "address",
          "name": "from",
          "type": "address"
        },
        {
          "indexed": true,
          "internalType": "address",
          "name": "to",
          "type": "address"
        },
        {
          "indexed": false,
          "internalType": "uint256",
          "name": "value",
          "type": "uint256"
        }
      ],
      "name": "Transfer",
      "type": "event"
    },
    {
      "anonymous": false,
      "inputs": [
        {
          "indexed": true,
          "internalType": "address",
          "name": "implementation",
          "type": "address"
        }
      ],
      "name": "Upgraded",
      "type": "event"
    },
    {
      "inputs": [
        {
          "internalType": "address",
          "name": "holder",
          "type": "address"
        },
        {
          "internalType": "address",
          "name": "spender",
          "type": "address"
        }
      ],
      "name": "allowance",
      "outputs": [
        {
          "internalType": "uint256",
          "name": "",
          "type": "uint256"
        }
      ],
      "stateMutability": "view",
      "type": "function"
    },
    {
      "inputs": [
        {
          "internalType": "address",
          "name": "spender",
          "type": "address"
        },
        {
          "internalType": "uint256",
          "name": "value",
          "type": "uint256"
        }
      ],
      "name": "approve",
      "outputs": [
        {
          "internalType": "bool",
          "name": "",
          "type": "bool"
        }
      ],
      "stateMutability": "nonpayable",
      "type": "function"
    },
    {
      "inputs": [
        {
          "internalType": "address",
          "name": "operator",
          "type": "address"
        }
      ],
      "name": "authorizeOperator",
      "outputs": [],
      "stateMutability": "nonpayable",
      "type": "function"
    },
    {
      "inputs": [
        {
          "internalType": "address",
          "name": "tokenHolder",
          "type": "address"
        }
      ],
      "name": "balanceOf",
      "outputs": [
        {
          "internalType": "uint256",
          "name": "",
          "type": "uint256"
        }
      ],
      "stateMutability": "view",
      "type": "function"
    },
    {
      "inputs": [
        {
          "internalType": "uint256",
          "name": "amount",
          "type": "uint256"
        },
        {
          "internalType": "bytes",
          "name": "data",
          "type": "bytes"
        }
      ],
      "name": "burn",
      "outputs": [],
      "stateMutability": "nonpayable",
      "type": "function"
    },
    {
      "inputs": [],
      "name": "decimals",
      "outputs": [
        {
          "internalType": "uint8",
          "name": "",
          "type": "uint8"
        }
      ],
      "stateMutability": "pure",
      "type": "function"
    },
    {
      "inputs": [],
      "name": "defaultOperators",
      "outputs": [
        {
          "internalType": "address[]",
          "name": "",
          "type": "address[]"
        }
      ],
      "stateMutability": "view",
      "type": "function"
    },
    {
      "inputs": [],
      "name": "granularity",
      "outputs": [
        {
          "internalType": "uint256",
          "name": "",
          "type": "uint256"
        }
      ],
      "stateMutability": "view",
      "type": "function"
    },
    {
      "inputs": [],
      "name": "initialize",
      "outputs": [],
      "stateMutability": "nonpayable",
      "type": "function"
    },
    {
      "inputs": [
        {
          "internalType": "address",
          "name": "operator",
          "type": "address"
        },
        {
          "internalType": "address",
          "name": "tokenHolder",
          "type": "address"
        }
      ],
      "name": "isOperatorFor",
      "outputs": [
        {
          "internalType": "bool",
          "name": "",
          "type": "bool"
        }
      ],
      "stateMutability": "view",
      "type": "function"
    },
    {
      "inputs": [],
      "name": "name",
      "outputs": [
        {
          "internalType": "string",
          "name": "",
          "type": "string"
        }
      ],
      "stateMutability": "view",
      "type": "function"
    },
    {
      "inputs": [
        {
          "internalType": "address",
          "name": "account",
          "type": "address"
        },
        {
          "internalType": "uint256",
          "name": "amount",
          "type": "uint256"
        },
        {
          "internalType": "bytes",
          "name": "data",
          "type": "bytes"
        },
        {
          "internalType": "bytes",
          "name": "operatorData",
          "type": "bytes"
        }
      ],
      "name": "operatorBurn",
      "outputs": [],
      "stateMutability": "nonpayable",
      "type": "function"
    },
    {
      "inputs": [
        {
          "internalType": "address",
          "name": "sender",
          "type": "address"
        },
        {
          "internalType": "address",
          "name": "recipient",
          "type": "address"
        },
        {
          "internalType": "uint256",
          "name": "amount",
          "type": "uint256"
        },
        {
          "internalType": "bytes",
          "name": "data",
          "type": "bytes"
        },
        {
          "internalType": "bytes",
          "name": "operatorData",
          "type": "bytes"
        }
      ],
      "name": "operatorSend",
      "outputs": [],
      "stateMutability": "nonpayable",
      "type": "function"
    },
    {
      "inputs": [],
      "name": "owner",
      "outputs": [
        {
          "internalType": "address",
          "name": "",
          "type": "address"
        }
      ],
      "stateMutability": "view",
      "type": "function"
    },
    {
      "inputs": [],
      "name": "proxiableUUID",
      "outputs": [
        {
          "internalType": "bytes32",
          "name": "",
          "type": "bytes32"
        }
      ],
      "stateMutability": "view",
      "type": "function"
    },
    {
      "inputs": [],
      "name": "renounceOwnership",
      "outputs": [],
      "stateMutability": "nonpayable",
      "type": "function"
    },
    {
      "inputs": [
        {
          "internalType": "address",
          "name": "operator",
          "type": "address"
        }
      ],
      "name": "revokeOperator",
      "outputs": [],
      "stateMutability": "nonpayable",
      "type": "function"
    },
    {
      "inputs": [
        {
          "internalType": "address",
          "name": "recipient",
          "type": "address"
        },
        {
          "internalType": "uint256",
          "name": "amount",
          "type": "uint256"
        },
        {
          "internalType": "bytes",
          "name": "data",
          "type": "bytes"
        }
      ],
      "name": "send",
      "outputs": [],
      "stateMutability": "nonpayable",
      "type": "function"
    },
    {
      "inputs": [],
      "name": "symbol",
      "outputs": [
        {
          "internalType": "string",
          "name": "",
          "type": "string"
        }
      ],
      "stateMutability": "view",
      "type": "function"
    },
    {
      "inputs": [],
      "name": "totalSupply",
      "outputs": [
        {
          "internalType": "uint256",
          "name": "",
          "type": "uint256"
        }
      ],
      "stateMutability": "view",
      "type": "function"
    },
    {
      "inputs": [
        {
          "internalType": "address",
          "name": "recipient",
          "type": "address"
        },
        {
          "internalType": "uint256",
          "name": "amount",
          "type": "uint256"
        }
      ],
      "name": "transfer",
      "outputs": [
        {
          "internalType": "bool",
          "name": "",
          "type": "bool"
        }
      ],
      "stateMutability": "nonpayable",
      "type": "function"
    },
    {
      "inputs": [
        {
          "internalType": "address",
          "name": "holder",
          "type": "address"
        },
        {
          "internalType": "address",
          "name": "recipient",
          "type": "address"
        },
        {
          "internalType": "uint256",
          "name": "amount",
          "type": "uint256"
        }
      ],
      "name": "transferFrom",
      "outputs": [
        {
          "internalType": "bool",
          "name": "",
          "type": "bool"
        }
      ],
      "stateMutability": "nonpayable",
      "type": "function"
    },
    {
      "inputs": [
        {
          "internalType": "address",
          "name": "newOwner",
          "type": "address"
        }
      ],
      "name": "transferOwnership",
      "outputs": [],
      "stateMutability": "nonpayable",
      "type": "function"
    },
    {
      "inputs": [
        {
          "internalType": "address",
          "name": "newImplementation",
          "type": "address"
        }
      ],
      "name": "upgradeTo",
      "outputs": [],
      "stateMutability": "nonpayable",
      "type": "function"
    },
    {
      "inputs": [
        {
          "internalType": "address",
          "name": "newImplementation",
          "type": "address"
        },
        {
          "internalType": "bytes",
          "name": "data",
          "type": "bytes"
        }
      ],
      "name": "upgradeToAndCall",
      "outputs": [],
      "stateMutability": "payable",
      "type": "function"
    }
  ],
  "bytecode": "0x60a0604052306080523480156200001557600080fd5b506200002062000026565b620000e8565b600054610100900460ff1615620000935760405162461bcd60e51b815260206004820152602760248201527f496e697469616c697a61626c653a20636f6e747261637420697320696e697469604482015266616c697a696e6760c81b606482015260840160405180910390fd5b60005460ff9081161015620000e6576000805460ff191660ff9081179091556040519081527f7f26b83ff96e1f2b6a682f133852f6798a09c465da95921460cefb38474024989060200160405180910390a15b565b608051612a796200012060003960008181610629015281816106b3015281816107a90152818161082e01526109180152612a796000f3fe6080604052600436106101965760003560e01c8063715018a6116100e1578063a9059cbb1161008a578063f2fde38b11610064578063f2fde38b14610454578063fad8b32a14610474578063fc673c4f14610494578063fe9d9303146104b457600080fd5b8063a9059cbb146103ce578063d95b6371146103ee578063dd62ed3e1461040e57600080fd5b8063959b8c3f116100bb578063959b8c3f1461037957806395d89b41146103995780639bd9bbc6146103ae57600080fd5b8063715018a6146103275780638129fc1c1461033c5780638da5cb5b1461035157600080fd5b80633659cfe611610143578063556f0dc71161011d578063556f0dc7146102bd57806362ad1b83146102d157806370a08231146102f157600080fd5b80633659cfe6146102735780634f1ef2861461029557806352d1902d146102a857600080fd5b806318160ddd1161017457806318160ddd1461021857806323b872dd14610237578063313ce5671461025757600080fd5b806306e485381461019b57806306fdde03146101c6578063095ea7b3146101e8575b600080fd5b3480156101a757600080fd5b506101b06104d4565b6040516101bd9190612360565b60405180910390f35b3480156101d257600080fd5b506101db610536565b6040516101bd9190612405565b3480156101f457600080fd5b5061020861020336600461242d565b6105bf565b60405190151581526020016101bd565b34801561022457600080fd5b506034545b6040519081526020016101bd565b34801561024357600080fd5b50610208610252366004612459565b6105d7565b34801561026357600080fd5b50604051601281526020016101bd565b34801561027f57600080fd5b5061029361028e36600461249a565b61061f565b005b6102936102a336600461255a565b61079f565b3480156102b457600080fd5b5061022961090b565b3480156102c957600080fd5b506001610229565b3480156102dd57600080fd5b506102936102ec3660046125aa565b6109d0565b3480156102fd57600080fd5b5061022961030c36600461249a565b6001600160a01b031660009081526033602052604090205490565b34801561033357600080fd5b50610293610a51565b34801561034857600080fd5b50610293610a65565b34801561035d57600080fd5b5060c9546040516001600160a01b0390911681526020016101bd565b34801561038557600080fd5b5061029361039436600461249a565b610c09565b3480156103a557600080fd5b506101db610d3f565b3480156103ba57600080fd5b506102936103c936600461263d565b610d4e565b3480156103da57600080fd5b506102086103e936600461242d565b610d71565b3480156103fa57600080fd5b50610208610409366004612696565b610da9565b34801561041a57600080fd5b50610229610429366004612696565b6001600160a01b039182166000908152603b6020908152604080832093909416825291909152205490565b34801561046057600080fd5b5061029361046f36600461249a565b610e4a565b34801561048057600080fd5b5061029361048f36600461249a565b610ec0565b3480156104a057600080fd5b506102936104af3660046126cf565b610ff7565b3480156104c057600080fd5b506102936104cf36600461274f565b611074565b6060603780548060200260200160405190810160405280929190818152602001828054801561052c57602002820191906000526020600020905b81546001600160a01b0316815260019091019060200180831161050e575b5050505050905090565b60606035805461054590612780565b80601f016020809104026020016040519081016040528092919081815260200182805461057190612780565b801561052c5780601f106105935761010080835404028352916020019161052c565b820191906000526020600020905b8154815290600101906020018083116105a157509395945050505050565b6000336105cd81858561108f565b5060019392505050565b6000336105e58582856111e8565b61061285858560405180602001604052806000815250604051806020016040528060008152506000611274565b60019150505b9392505050565b6001600160a01b037f00000000000000000000000000000000000000000000000000000000000000001630036106b15760405162461bcd60e51b815260206004820152602c60248201527f46756e6374696f6e206d7573742062652063616c6c6564207468726f7567682060448201526b19195b1959d85d1958d85b1b60a21b60648201526084015b60405180910390fd5b7f00000000000000000000000000000000000000000000000000000000000000006001600160a01b031661070c7f360894a13ba1a3210667c828492db98dca3e2076cc3735a920a3ca505d382bbc546001600160a01b031690565b6001600160a01b0316146107775760405162461bcd60e51b815260206004820152602c60248201527f46756e6374696f6e206d7573742062652063616c6c6564207468726f7567682060448201526b6163746976652070726f787960a01b60648201526084016106a8565b61078081611389565b6040805160008082526020820190925261079c91839190611391565b50565b6001600160a01b037f000000000000000000000000000000000000000000000000000000000000000016300361082c5760405162461bcd60e51b815260206004820152602c60248201527f46756e6374696f6e206d7573742062652063616c6c6564207468726f7567682060448201526b19195b1959d85d1958d85b1b60a21b60648201526084016106a8565b7f00000000000000000000000000000000000000000000000000000000000000006001600160a01b03166108877f360894a13ba1a3210667c828492db98dca3e2076cc3735a920a3ca505d382bbc546001600160a01b031690565b6001600160a01b0316146108f25760405162461bcd60e51b815260206004820152602c60248201527f46756e6374696f6e206d7573742062652063616c6c6564207468726f7567682060448201526b6163746976652070726f787960a01b60648201526084016106a8565b6108fb82611389565b61090782826001611391565b5050565b6000306001600160a01b037f000000000000000000000000000000000000000000000000000000000000000016146109ab5760405162461bcd60e51b815260206004820152603860248201527f555550535570677261646561626c653a206d757374206e6f742062652063616c60448201527f6c6564207468726f7567682064656c656761746563616c6c000000000000000060648201526084016106a8565b507f360894a13ba1a3210667c828492db98dca3e2076cc3735a920a3ca505d382bbc90565b6109da3386610da9565b610a3b5760405162461bcd60e51b815260206004820152602c60248201527f4552433737373a2063616c6c6572206973206e6f7420616e206f70657261746f60448201526b39103337b9103437b63232b960a11b60648201526084016106a8565b610a4a85858585856001611274565b5050505050565b610a59611531565b610a63600061158b565b565b600054610100900460ff1615808015610a855750600054600160ff909116105b80610a9f5750303b158015610a9f575060005460ff166001145b610b115760405162461bcd60e51b815260206004820152602e60248201527f496e697469616c697a61626c653a20636f6e747261637420697320616c72656160448201527f647920696e697469616c697a656400000000000000000000000000000000000060648201526084016106a8565b6000805460ff191660011790558015610b34576000805461ff0019166101001790555b604080518082018252600981527f55505f4361746e6970000000000000000000000000000000000000000000000060208083019190915282518084018452600281527f434e00000000000000000000000000000000000000000000000000000000000081830152835160008152918201909352610bb192906115ea565b610bb9611660565b610bc16116cb565b801561079c576000805461ff0019169055604051600181527f7f26b83ff96e1f2b6a682f133852f6798a09c465da95921460cefb38474024989060200160405180910390a150565b6001600160a01b0381163303610c865760405162461bcd60e51b8152602060048201526024808201527f4552433737373a20617574686f72697a696e672073656c66206173206f70657260448201527f61746f720000000000000000000000000000000000000000000000000000000060648201526084016106a8565b6001600160a01b03811660009081526038602052604090205460ff1615610cd757336000908152603a602090815260408083206001600160a01b03851684529091529020805460ff19169055610d06565b3360009081526039602090815260408083206001600160a01b03851684529091529020805460ff191660011790555b60405133906001600160a01b038316907ff4caeb2d6ca8932a215a353d0703c326ec2d81fc68170f320eb2ab49e9df61f990600090a350565b60606036805461054590612780565b610d6c33848484604051806020016040528060008152506001611274565b505050565b6000610da033848460405180602001604052806000815250604051806020016040528060008152506000611274565b50600192915050565b6000816001600160a01b0316836001600160a01b03161480610e1457506001600160a01b03831660009081526038602052604090205460ff168015610e1457506001600160a01b038083166000908152603a602090815260408083209387168352929052205460ff16155b8061061857506001600160a01b0380831660009081526039602090815260408083209387168352929052205460ff169392505050565b610e52611531565b6001600160a01b038116610eb75760405162461bcd60e51b815260206004820152602660248201527f4f776e61626c653a206e6577206f776e657220697320746865207a65726f206160448201526564647265737360d01b60648201526084016106a8565b61079c8161158b565b336001600160a01b03821603610f3e5760405162461bcd60e51b815260206004820152602160248201527f4552433737373a207265766f6b696e672073656c66206173206f70657261746f60448201527f720000000000000000000000000000000000000000000000000000000000000060648201526084016106a8565b6001600160a01b03811660009081526038602052604090205460ff1615610f9257336000908152603a602090815260408083206001600160a01b03851684529091529020805460ff19166001179055610fbe565b3360009081526039602090815260408083206001600160a01b03851684529091529020805460ff191690555b60405133906001600160a01b038316907f50546e66e5f44d728365dc3908c63bc5cfeeab470722c1677e3073a6ac294aa190600090a350565b6110013385610da9565b6110625760405162461bcd60e51b815260206004820152602c60248201527f4552433737373a2063616c6c6572206973206e6f7420616e206f70657261746f60448201526b39103337b9103437b63232b960a11b60648201526084016106a8565b61106e8484848461173e565b50505050565b6109073383836040518060200160405280600081525061173e565b6001600160a01b03831661110b5760405162461bcd60e51b815260206004820152602560248201527f4552433737373a20617070726f76652066726f6d20746865207a65726f20616460448201527f647265737300000000000000000000000000000000000000000000000000000060648201526084016106a8565b6001600160a01b0382166111875760405162461bcd60e51b815260206004820152602360248201527f4552433737373a20617070726f766520746f20746865207a65726f206164647260448201527f657373000000000000000000000000000000000000000000000000000000000060648201526084016106a8565b6001600160a01b038381166000818152603b602090815260408083209487168084529482529182902085905590518481527f8c5be1e5ebec7d5bd14f71427d1e84f3dd0314c0f7b2291e5b200ac8c7c3b925910160405180910390a3505050565b6001600160a01b038381166000908152603b6020908152604080832093861683529290522054600019811461106e57818110156112675760405162461bcd60e51b815260206004820152601e60248201527f4552433737373a20696e73756666696369656e7420616c6c6f77616e6365000060448201526064016106a8565b61106e848484840361108f565b6001600160a01b0386166112d95760405162461bcd60e51b815260206004820152602660248201527f4552433737373a207472616e736665722066726f6d20746865207a65726f206160448201526564647265737360d01b60648201526084016106a8565b6001600160a01b0385166113545760405162461bcd60e51b8152602060048201526024808201527f4552433737373a207472616e7366657220746f20746865207a65726f2061646460448201527f726573730000000000000000000000000000000000000000000000000000000060648201526084016106a8565b33611363818888888888611927565b611371818888888888611a67565b61138081888888888888611be3565b50505050505050565b61079c611531565b7f4910fdfa16fed3260ed0e7147f7cc6da11a60208b5b9406d12a635614ffd91435460ff16156113c457610d6c83611dd1565b826001600160a01b03166352d1902d6040518163ffffffff1660e01b8152600401602060405180830381865afa92505050801561141e575060408051601f3d908101601f1916820190925261141b918101906127ba565b60015b6114905760405162461bcd60e51b815260206004820152602e60248201527f45524331393637557067726164653a206e657720696d706c656d656e7461746960448201527f6f6e206973206e6f74205555505300000000000000000000000000000000000060648201526084016106a8565b7f360894a13ba1a3210667c828492db98dca3e2076cc3735a920a3ca505d382bbc81146115255760405162461bcd60e51b815260206004820152602960248201527f45524331393637557067726164653a20756e737570706f727465642070726f7860448201527f6961626c6555554944000000000000000000000000000000000000000000000060648201526084016106a8565b50610d6c838383611e9c565b60c9546001600160a01b03163314610a635760405162461bcd60e51b815260206004820181905260248201527f4f776e61626c653a2063616c6c6572206973206e6f7420746865206f776e657260448201526064016106a8565b60c980546001600160a01b0383811673ffffffffffffffffffffffffffffffffffffffff19831681179093556040519116919082907f8be0079c531659141344cd1fd0a4f28419497f9722a3daafe3b4186f6b6457e090600090a35050565b600054610100900460ff166116555760405162461bcd60e51b815260206004820152602b60248201527f496e697469616c697a61626c653a20636f6e7472616374206973206e6f74206960448201526a6e697469616c697a696e6760a81b60648201526084016106a8565b610d6c838383611ec1565b600054610100900460ff16610a635760405162461bcd60e51b815260206004820152602b60248201527f496e697469616c697a61626c653a20636f6e7472616374206973206e6f74206960448201526a6e697469616c697a696e6760a81b60648201526084016106a8565b600054610100900460ff166117365760405162461bcd60e51b815260206004820152602b60248201527f496e697469616c697a61626c653a20636f6e7472616374206973206e6f74206960448201526a6e697469616c697a696e6760a81b60648201526084016106a8565b610a636120e1565b6001600160a01b0384166117ba5760405162461bcd60e51b815260206004820152602260248201527f4552433737373a206275726e2066726f6d20746865207a65726f20616464726560448201527f737300000000000000000000000000000000000000000000000000000000000060648201526084016106a8565b336117ca81866000878787611927565b6001600160a01b038516600090815260336020526040902054848110156118595760405162461bcd60e51b815260206004820152602360248201527f4552433737373a206275726e20616d6f756e7420657863656564732062616c6160448201527f6e6365000000000000000000000000000000000000000000000000000000000060648201526084016106a8565b6001600160a01b03861660009081526033602052604081208683039055603480548792906118889084906127e9565b92505081905550856001600160a01b0316826001600160a01b03167fa78a9be3a7b862d26933ad85fb11d80ef66b8f972d7cbba06621d583943a40988787876040516118d693929190612800565b60405180910390a36040518581526000906001600160a01b038816907fddf252ad1be2c89b69c2b068fc378daa952ba7f163c4a11628f55a4df523b3ef9060200160405180910390a3505050505050565b60405163555ddc6560e11b81526001600160a01b03861660048201527f29ddb589b1fb5fc7cf394961c1adf5f8c6454761adf795e67fe149f658abe8956024820152600090731820a4b7618bde71dce8cdc73aab6c95905fad249063aabbb8ca90604401602060405180830381865afa1580156119a8573d6000803e3d6000fd5b505050506040513d601f19601f820116820180604052508101906119cc9190612835565b90506001600160a01b03811615611380576040517f75ab97820000000000000000000000000000000000000000000000000000000081526001600160a01b038216906375ab978290611a2c908a908a908a908a908a908a90600401612852565b600060405180830381600087803b158015611a4657600080fd5b505af1158015611a5a573d6000803e3d6000fd5b5050505050505050505050565b6001600160a01b03851660009081526033602052604090205483811015611af65760405162461bcd60e51b815260206004820152602760248201527f4552433737373a207472616e7366657220616d6f756e7420657863656564732060448201527f62616c616e63650000000000000000000000000000000000000000000000000060648201526084016106a8565b6001600160a01b03808716600090815260336020526040808220878503905591871681529081208054869290611b2d9084906128ab565b92505081905550846001600160a01b0316866001600160a01b0316886001600160a01b03167f06b541ddaa720db2b10a4d0cdac39b8d360425fc073085fac19bc82614677987878787604051611b8593929190612800565b60405180910390a4846001600160a01b0316866001600160a01b03167fddf252ad1be2c89b69c2b068fc378daa952ba7f163c4a11628f55a4df523b3ef86604051611bd291815260200190565b60405180910390a350505050505050565b60405163555ddc6560e11b81526001600160a01b03861660048201527fb281fc8c12954d22544db45de3159a39272895b169a852b314f9cc762e44c53b6024820152600090731820a4b7618bde71dce8cdc73aab6c95905fad249063aabbb8ca90604401602060405180830381865afa158015611c64573d6000803e3d6000fd5b505050506040513d601f19601f82011682018060405250810190611c889190612835565b90506001600160a01b03811615611d1d576040517e23de290000000000000000000000000000000000000000000000000000000081526001600160a01b038216906223de2990611ce6908b908b908b908b908b908b90600401612852565b600060405180830381600087803b158015611d0057600080fd5b505af1158015611d14573d6000803e3d6000fd5b50505050611dc7565b8115611dc7576001600160a01b0386163b15611dc75760405162461bcd60e51b815260206004820152604d60248201527f4552433737373a20746f6b656e20726563697069656e7420636f6e747261637460448201527f20686173206e6f20696d706c656d656e74657220666f7220455243373737546f60648201527f6b656e73526563697069656e7400000000000000000000000000000000000000608482015260a4016106a8565b5050505050505050565b6001600160a01b0381163b611e4e5760405162461bcd60e51b815260206004820152602d60248201527f455243313936373a206e657720696d706c656d656e746174696f6e206973206e60448201527f6f74206120636f6e74726163740000000000000000000000000000000000000060648201526084016106a8565b7f360894a13ba1a3210667c828492db98dca3e2076cc3735a920a3ca505d382bbc805473ffffffffffffffffffffffffffffffffffffffff19166001600160a01b0392909216919091179055565b611ea583612155565b600082511180611eb25750805b15610d6c5761106e8383612195565b600054610100900460ff16611f2c5760405162461bcd60e51b815260206004820152602b60248201527f496e697469616c697a61626c653a20636f6e7472616374206973206e6f74206960448201526a6e697469616c697a696e6760a81b60648201526084016106a8565b6035611f388482612911565b506036611f458382612911565b508051611f599060379060208401906122d9565b5060005b8151811015611fc257600160386000848481518110611f7e57611f7e6129d1565b6020908102919091018101516001600160a01b03168252810191909152604001600020805460ff191691151591909117905580611fba816129e7565b915050611f5d565b506040516329965a1d60e01b815230600482018190527fac7fbab5f54a3ca8194167523c6753bfeb96a445279294b6125b68cce217705460248301526044820152731820a4b7618bde71dce8cdc73aab6c95905fad24906329965a1d90606401600060405180830381600087803b15801561203c57600080fd5b505af1158015612050573d6000803e3d6000fd5b50506040516329965a1d60e01b815230600482018190527faea199e31a596269b42cdafd93407f14436db6e4cad65417994c2eb37381e05a60248301526044820152731820a4b7618bde71dce8cdc73aab6c95905fad2492506329965a1d9150606401600060405180830381600087803b1580156120cd57600080fd5b505af1158015611380573d6000803e3d6000fd5b600054610100900460ff1661214c5760405162461bcd60e51b815260206004820152602b60248201527f496e697469616c697a61626c653a20636f6e7472616374206973206e6f74206960448201526a6e697469616c697a696e6760a81b60648201526084016106a8565b610a633361158b565b61215e81611dd1565b6040516001600160a01b038216907fbc7cd75a20ee27fd9adebab32041f755214dbc6bffa90cc0225b39da2e5c2d3b90600090a250565b60606001600160a01b0383163b6122145760405162461bcd60e51b815260206004820152602660248201527f416464726573733a2064656c65676174652063616c6c20746f206e6f6e2d636f60448201527f6e7472616374000000000000000000000000000000000000000000000000000060648201526084016106a8565b600080846001600160a01b03168460405161222f9190612a00565b600060405180830381855af49150503d806000811461226a576040519150601f19603f3d011682016040523d82523d6000602084013e61226f565b606091505b50915091506122978282604051806060016040528060278152602001612a1d602791396122a0565b95945050505050565b606083156122af575081610618565b8251156122bf5782518084602001fd5b8160405162461bcd60e51b81526004016106a89190612405565b82805482825590600052602060002090810192821561233b579160200282015b8281111561233b578251825473ffffffffffffffffffffffffffffffffffffffff19166001600160a01b039091161782556020909201916001909101906122f9565b5061234792915061234b565b5090565b5b80821115612347576000815560010161234c565b6020808252825182820181905260009190848201906040850190845b818110156123a15783516001600160a01b03168352928401929184019160010161237c565b50909695505050505050565b60005b838110156123c85781810151838201526020016123b0565b8381111561106e5750506000910152565b600081518084526123f18160208601602086016123ad565b601f01601f19169290920160200192915050565b60208152600061061860208301846123d9565b6001600160a01b038116811461079c57600080fd5b6000806040838503121561244057600080fd5b823561244b81612418565b946020939093013593505050565b60008060006060848603121561246e57600080fd5b833561247981612418565b9250602084013561248981612418565b929592945050506040919091013590565b6000602082840312156124ac57600080fd5b813561061881612418565b634e487b7160e01b600052604160045260246000fd5b600082601f8301126124de57600080fd5b813567ffffffffffffffff808211156124f9576124f96124b7565b604051601f8301601f19908116603f01168101908282118183101715612521576125216124b7565b8160405283815286602085880101111561253a57600080fd5b836020870160208301376000602085830101528094505050505092915050565b6000806040838503121561256d57600080fd5b823561257881612418565b9150602083013567ffffffffffffffff81111561259457600080fd5b6125a0858286016124cd565b9150509250929050565b600080600080600060a086880312156125c257600080fd5b85356125cd81612418565b945060208601356125dd81612418565b935060408601359250606086013567ffffffffffffffff8082111561260157600080fd5b61260d89838a016124cd565b9350608088013591508082111561262357600080fd5b50612630888289016124cd565b9150509295509295909350565b60008060006060848603121561265257600080fd5b833561265d81612418565b925060208401359150604084013567ffffffffffffffff81111561268057600080fd5b61268c868287016124cd565b9150509250925092565b600080604083850312156126a957600080fd5b82356126b481612418565b915060208301356126c481612418565b809150509250929050565b600080600080608085870312156126e557600080fd5b84356126f081612418565b935060208501359250604085013567ffffffffffffffff8082111561271457600080fd5b612720888389016124cd565b9350606087013591508082111561273657600080fd5b50612743878288016124cd565b91505092959194509250565b6000806040838503121561276257600080fd5b82359150602083013567ffffffffffffffff81111561259457600080fd5b600181811c9082168061279457607f821691505b6020821081036127b457634e487b7160e01b600052602260045260246000fd5b50919050565b6000602082840312156127cc57600080fd5b5051919050565b634e487b7160e01b600052601160045260246000fd5b6000828210156127fb576127fb6127d3565b500390565b83815260606020820152600061281960608301856123d9565b828103604084015261282b81856123d9565b9695505050505050565b60006020828403121561284757600080fd5b815161061881612418565b60006001600160a01b038089168352808816602084015280871660408401525084606083015260c0608083015261288c60c08301856123d9565b82810360a084015261289e81856123d9565b9998505050505050505050565b600082198211156128be576128be6127d3565b500190565b601f821115610d6c57600081815260208120601f850160051c810160208610156128ea5750805b601f850160051c820191505b81811015612909578281556001016128f6565b505050505050565b815167ffffffffffffffff81111561292b5761292b6124b7565b61293f816129398454612780565b846128c3565b602080601f831160018114612974576000841561295c5750858301515b600019600386901b1c1916600185901b178555612909565b600085815260208120601f198616915b828110156129a357888601518255948401946001909101908401612984565b50858210156129c15787850151600019600388901b60f8161c191681555b5050505050600190811b01905550565b634e487b7160e01b600052603260045260246000fd5b6000600182016129f9576129f96127d3565b5060010190565b60008251612a128184602087016123ad565b919091019291505056fe416464726573733a206c6f772d6c6576656c2064656c65676174652063616c6c206661696c6564a26469706673582212205bbf61ea53014e238fe73e8fee23ac699937cb99adfc68e42fc32b293c819fee64736f6c634300080f0033",
  "linkReferences": {},
  "deployedLinkReferences": {}
}