{
  "_format": "hh-sol-artifact-1",
  "contractName": "UP_Catnip",
  "sourceName": "contracts/token/upgradeable/token/ERC777/UP_Catnip/UP_Catnip.sol",
  "abi": [
    {
      "inputs": [],
      "stateMutability": "nonpayable",
      "type": "constructor"
    },
    {
      "anonymous": false,
      "inputs": [
        {
          "indexed": false,
          "internalType": "address",
          "name": "previousAdmin",
          "type": "address"
        },
        {
          "indexed": false,
          "internalType": "address",
          "name": "newAdmin",
          "type": "address"
        }
      ],
      "name": "AdminChanged",
      "type": "event"
    },
    {
      "anonymous": false,
      "inputs": [
        {
          "indexed": true,
          "internalType": "address",
          "name": "owner",
          "type": "address"
        },
        {
          "indexed": true,
          "internalType": "address",
          "name": "spender",
          "type": "address"
        },
        {
          "indexed": false,
          "internalType": "uint256",
          "name": "value",
          "type": "uint256"
        }
      ],
      "name": "Approval",
      "type": "event"
    },
    {
      "anonymous": false,
      "inputs": [
        {
          "indexed": true,
          "internalType": "address",
          "name": "operator",
          "type": "address"
        },
        {
          "indexed": true,
          "internalType": "address",
          "name": "tokenHolder",
          "type": "address"
        }
      ],
      "name": "AuthorizedOperator",
      "type": "event"
    },
    {
      "anonymous": false,
      "inputs": [
        {
          "indexed": true,
          "internalType": "address",
          "name": "beacon",
          "type": "address"
        }
      ],
      "name": "BeaconUpgraded",
      "type": "event"
    },
    {
      "anonymous": false,
      "inputs": [
        {
          "indexed": true,
          "internalType": "address",
          "name": "operator",
          "type": "address"
        },
        {
          "indexed": true,
          "internalType": "address",
          "name": "from",
          "type": "address"
        },
        {
          "indexed": false,
          "internalType": "uint256",
          "name": "amount",
          "type": "uint256"
        },
        {
          "indexed": false,
          "internalType": "bytes",
          "name": "data",
          "type": "bytes"
        },
        {
          "indexed": false,
          "internalType": "bytes",
          "name": "operatorData",
          "type": "bytes"
        }
      ],
      "name": "Burned",
      "type": "event"
    },
    {
      "anonymous": false,
      "inputs": [
        {
          "indexed": false,
          "internalType": "uint8",
          "name": "version",
          "type": "uint8"
        }
      ],
      "name": "Initialized",
      "type": "event"
    },
    {
      "anonymous": false,
      "inputs": [
        {
          "indexed": true,
          "internalType": "address",
          "name": "operator",
          "type": "address"
        },
        {
          "indexed": true,
          "internalType": "address",
          "name": "to",
          "type": "address"
        },
        {
          "indexed": false,
          "internalType": "uint256",
          "name": "amount",
          "type": "uint256"
        },
        {
          "indexed": false,
          "internalType": "bytes",
          "name": "data",
          "type": "bytes"
        },
        {
          "indexed": false,
          "internalType": "bytes",
          "name": "operatorData",
          "type": "bytes"
        }
      ],
      "name": "Minted",
      "type": "event"
    },
    {
      "anonymous": false,
      "inputs": [
        {
          "indexed": true,
          "internalType": "address",
          "name": "previousOwner",
          "type": "address"
        },
        {
          "indexed": true,
          "internalType": "address",
          "name": "newOwner",
          "type": "address"
        }
      ],
      "name": "OwnershipTransferred",
      "type": "event"
    },
    {
      "anonymous": false,
      "inputs": [
        {
          "indexed": true,
          "internalType": "address",
          "name": "operator",
          "type": "address"
        },
        {
          "indexed": true,
          "internalType": "address",
          "name": "tokenHolder",
          "type": "address"
        }
      ],
      "name": "RevokedOperator",
      "type": "event"
    },
    {
      "anonymous": false,
      "inputs": [
        {
          "indexed": true,
          "internalType": "address",
          "name": "operator",
          "type": "address"
        },
        {
          "indexed": true,
          "internalType": "address",
          "name": "from",
          "type": "address"
        },
        {
          "indexed": true,
          "internalType": "address",
          "name": "to",
          "type": "address"
        },
        {
          "indexed": false,
          "internalType": "uint256",
          "name": "amount",
          "type": "uint256"
        },
        {
          "indexed": false,
          "internalType": "bytes",
          "name": "data",
          "type": "bytes"
        },
        {
          "indexed": false,
          "internalType": "bytes",
          "name": "operatorData",
          "type": "bytes"
        }
      ],
      "name": "Sent",
      "type": "event"
    },
    {
      "anonymous": false,
      "inputs": [
        {
          "indexed": true,
          "internalType": "address",
          "name": "from",
          "type": "address"
        },
        {
          "indexed": true,
          "internalType": "address",
          "name": "to",
          "type": "address"
        },
        {
          "indexed": false,
          "internalType": "uint256",
          "name": "value",
          "type": "uint256"
        }
      ],
      "name": "Transfer",
      "type": "event"
    },
    {
      "anonymous": false,
      "inputs": [
        {
          "indexed": true,
          "internalType": "address",
          "name": "implementation",
          "type": "address"
        }
      ],
      "name": "Upgraded",
      "type": "event"
    },
    {
      "inputs": [
        {
          "internalType": "address",
          "name": "holder",
          "type": "address"
        },
        {
          "internalType": "address",
          "name": "spender",
          "type": "address"
        }
      ],
      "name": "allowance",
      "outputs": [
        {
          "internalType": "uint256",
          "name": "",
          "type": "uint256"
        }
      ],
      "stateMutability": "view",
      "type": "function"
    },
    {
      "inputs": [
        {
          "internalType": "address",
          "name": "spender",
          "type": "address"
        },
        {
          "internalType": "uint256",
          "name": "value",
          "type": "uint256"
        }
      ],
      "name": "approve",
      "outputs": [
        {
          "internalType": "bool",
          "name": "",
          "type": "bool"
        }
      ],
      "stateMutability": "nonpayable",
      "type": "function"
    },
    {
      "inputs": [
        {
          "internalType": "address",
          "name": "operator",
          "type": "address"
        }
      ],
      "name": "authorizeOperator",
      "outputs": [],
      "stateMutability": "nonpayable",
      "type": "function"
    },
    {
      "inputs": [
        {
          "internalType": "address",
          "name": "tokenHolder",
          "type": "address"
        }
      ],
      "name": "balanceOf",
      "outputs": [
        {
          "internalType": "uint256",
          "name": "",
          "type": "uint256"
        }
      ],
      "stateMutability": "view",
      "type": "function"
    },
    {
      "inputs": [
        {
          "internalType": "uint256",
          "name": "amount",
          "type": "uint256"
        },
        {
          "internalType": "bytes",
          "name": "data",
          "type": "bytes"
        }
      ],
      "name": "burn",
      "outputs": [],
      "stateMutability": "nonpayable",
      "type": "function"
    },
    {
      "inputs": [],
      "name": "decimals",
      "outputs": [
        {
          "internalType": "uint8",
          "name": "",
          "type": "uint8"
        }
      ],
      "stateMutability": "pure",
      "type": "function"
    },
    {
      "inputs": [],
      "name": "defaultOperators",
      "outputs": [
        {
          "internalType": "address[]",
          "name": "",
          "type": "address[]"
        }
      ],
      "stateMutability": "view",
      "type": "function"
    },
    {
      "inputs": [],
      "name": "granularity",
      "outputs": [
        {
          "internalType": "uint256",
          "name": "",
          "type": "uint256"
        }
      ],
      "stateMutability": "view",
      "type": "function"
    },
    {
      "inputs": [],
      "name": "initialize",
      "outputs": [],
      "stateMutability": "nonpayable",
      "type": "function"
    },
    {
      "inputs": [
        {
          "internalType": "address",
          "name": "operator",
          "type": "address"
        },
        {
          "internalType": "address",
          "name": "tokenHolder",
          "type": "address"
        }
      ],
      "name": "isOperatorFor",
      "outputs": [
        {
          "internalType": "bool",
          "name": "",
          "type": "bool"
        }
      ],
      "stateMutability": "view",
      "type": "function"
    },
    {
      "inputs": [],
      "name": "name",
      "outputs": [
        {
          "internalType": "string",
          "name": "",
          "type": "string"
        }
      ],
      "stateMutability": "view",
      "type": "function"
    },
    {
      "inputs": [
        {
          "internalType": "address",
          "name": "account",
          "type": "address"
        },
        {
          "internalType": "uint256",
          "name": "amount",
          "type": "uint256"
        },
        {
          "internalType": "bytes",
          "name": "data",
          "type": "bytes"
        },
        {
          "internalType": "bytes",
          "name": "operatorData",
          "type": "bytes"
        }
      ],
      "name": "operatorBurn",
      "outputs": [],
      "stateMutability": "nonpayable",
      "type": "function"
    },
    {
      "inputs": [
        {
          "internalType": "address",
          "name": "sender",
          "type": "address"
        },
        {
          "internalType": "address",
          "name": "recipient",
          "type": "address"
        },
        {
          "internalType": "uint256",
          "name": "amount",
          "type": "uint256"
        },
        {
          "internalType": "bytes",
          "name": "data",
          "type": "bytes"
        },
        {
          "internalType": "bytes",
          "name": "operatorData",
          "type": "bytes"
        }
      ],
      "name": "operatorSend",
      "outputs": [],
      "stateMutability": "nonpayable",
      "type": "function"
    },
    {
      "inputs": [],
      "name": "owner",
      "outputs": [
        {
          "internalType": "address",
          "name": "",
          "type": "address"
        }
      ],
      "stateMutability": "view",
      "type": "function"
    },
    {
      "inputs": [],
      "name": "proxiableUUID",
      "outputs": [
        {
          "internalType": "bytes32",
          "name": "",
          "type": "bytes32"
        }
      ],
      "stateMutability": "view",
      "type": "function"
    },
    {
      "inputs": [],
      "name": "renounceOwnership",
      "outputs": [],
      "stateMutability": "nonpayable",
      "type": "function"
    },
    {
      "inputs": [
        {
          "internalType": "address",
          "name": "operator",
          "type": "address"
        }
      ],
      "name": "revokeOperator",
      "outputs": [],
      "stateMutability": "nonpayable",
      "type": "function"
    },
    {
      "inputs": [
        {
          "internalType": "address",
          "name": "recipient",
          "type": "address"
        },
        {
          "internalType": "uint256",
          "name": "amount",
          "type": "uint256"
        },
        {
          "internalType": "bytes",
          "name": "data",
          "type": "bytes"
        }
      ],
      "name": "send",
      "outputs": [],
      "stateMutability": "nonpayable",
      "type": "function"
    },
    {
      "inputs": [],
      "name": "supplyLimit",
      "outputs": [
        {
          "internalType": "uint256",
          "name": "",
          "type": "uint256"
        }
      ],
      "stateMutability": "view",
      "type": "function"
    },
    {
      "inputs": [],
      "name": "symbol",
      "outputs": [
        {
          "internalType": "string",
          "name": "",
          "type": "string"
        }
      ],
      "stateMutability": "view",
      "type": "function"
    },
    {
      "inputs": [],
      "name": "totalSupply",
      "outputs": [
        {
          "internalType": "uint256",
          "name": "",
          "type": "uint256"
        }
      ],
      "stateMutability": "view",
      "type": "function"
    },
    {
      "inputs": [
        {
          "internalType": "address",
          "name": "recipient",
          "type": "address"
        },
        {
          "internalType": "uint256",
          "name": "amount",
          "type": "uint256"
        }
      ],
      "name": "transfer",
      "outputs": [
        {
          "internalType": "bool",
          "name": "",
          "type": "bool"
        }
      ],
      "stateMutability": "nonpayable",
      "type": "function"
    },
    {
      "inputs": [
        {
          "internalType": "address",
          "name": "holder",
          "type": "address"
        },
        {
          "internalType": "address",
          "name": "recipient",
          "type": "address"
        },
        {
          "internalType": "uint256",
          "name": "amount",
          "type": "uint256"
        }
      ],
      "name": "transferFrom",
      "outputs": [
        {
          "internalType": "bool",
          "name": "",
          "type": "bool"
        }
      ],
      "stateMutability": "nonpayable",
      "type": "function"
    },
    {
      "inputs": [
        {
          "internalType": "address",
          "name": "newOwner",
          "type": "address"
        }
      ],
      "name": "transferOwnership",
      "outputs": [],
      "stateMutability": "nonpayable",
      "type": "function"
    },
    {
      "inputs": [
        {
          "internalType": "address",
          "name": "newImplementation",
          "type": "address"
        }
      ],
      "name": "upgradeTo",
      "outputs": [],
      "stateMutability": "nonpayable",
      "type": "function"
    },
    {
      "inputs": [
        {
          "internalType": "address",
          "name": "newImplementation",
          "type": "address"
        },
        {
          "internalType": "bytes",
          "name": "data",
          "type": "bytes"
        }
      ],
      "name": "upgradeToAndCall",
      "outputs": [],
      "stateMutability": "payable",
      "type": "function"
    }
  ],
  "bytecode": "0x60a0604052306080523480156200001557600080fd5b506200002062000026565b620000e8565b600054610100900460ff1615620000935760405162461bcd60e51b815260206004820152602760248201527f496e697469616c697a61626c653a20636f6e747261637420697320696e697469604482015266616c697a696e6760c81b606482015260840160405180910390fd5b60005460ff9081161015620000e6576000805460ff191660ff9081179091556040519081527f7f26b83ff96e1f2b6a682f133852f6798a09c465da95921460cefb38474024989060200160405180910390a15b565b608051612bd5620001206000396000818161064c015281816106d6015281816107cc01528181610851015261093b0152612bd56000f3fe6080604052600436106101a15760003560e01c8063715018a6116100e1578063a9059cbb1161008a578063f2fde38b11610064578063f2fde38b14610475578063fad8b32a14610495578063fc673c4f146104b5578063fe9d9303146104d557600080fd5b8063a9059cbb146103ef578063d95b63711461040f578063dd62ed3e1461042f57600080fd5b8063959b8c3f116100bb578063959b8c3f1461039a57806395d89b41146103ba5780639bd9bbc6146103cf57600080fd5b8063715018a6146103485780638129fc1c1461035d5780638da5cb5b1461037257600080fd5b8063313ce5671161014e57806352d1902d1161012857806352d1902d146102c9578063556f0dc7146102de57806362ad1b83146102f257806370a082311461031257600080fd5b8063313ce567146102785780633659cfe6146102945780634f1ef286146102b657600080fd5b806318160ddd1161017f57806318160ddd1461022357806319d1997a1461024257806323b872dd1461025857600080fd5b806306e48538146101a657806306fdde03146101d1578063095ea7b3146101f3575b600080fd5b3480156101b257600080fd5b506101bb6104f5565b6040516101c891906123aa565b60405180910390f35b3480156101dd57600080fd5b506101e6610557565b6040516101c8919061244f565b3480156101ff57600080fd5b5061021361020e366004612477565b6105e0565b60405190151581526020016101c8565b34801561022f57600080fd5b506034545b6040519081526020016101c8565b34801561024e57600080fd5b5061023460fb5481565b34801561026457600080fd5b506102136102733660046124a3565b6105fa565b34801561028457600080fd5b50604051601281526020016101c8565b3480156102a057600080fd5b506102b46102af3660046124e4565b610642565b005b6102b46102c43660046125a4565b6107c2565b3480156102d557600080fd5b5061023461092e565b3480156102ea57600080fd5b506001610234565b3480156102fe57600080fd5b506102b461030d3660046125f4565b6109f3565b34801561031e57600080fd5b5061023461032d3660046124e4565b6001600160a01b031660009081526033602052604090205490565b34801561035457600080fd5b506102b4610a74565b34801561036957600080fd5b506102b4610a88565b34801561037e57600080fd5b5060c9546040516001600160a01b0390911681526020016101c8565b3480156103a657600080fd5b506102b46103b53660046124e4565b610c34565b3480156103c657600080fd5b506101e6610d6a565b3480156103db57600080fd5b506102b46103ea366004612687565b610d79565b3480156103fb57600080fd5b5061021361040a366004612477565b610d9c565b34801561041b57600080fd5b5061021361042a3660046126e0565b610dd4565b34801561043b57600080fd5b5061023461044a3660046126e0565b6001600160a01b039182166000908152603b6020908152604080832093909416825291909152205490565b34801561048157600080fd5b506102b46104903660046124e4565b610e75565b3480156104a157600080fd5b506102b46104b03660046124e4565b610eeb565b3480156104c157600080fd5b506102b46104d0366004612719565b611022565b3480156104e157600080fd5b506102b46104f0366004612799565b61109f565b6060603780548060200260200160405190810160405280929190818152602001828054801561054d57602002820191906000526020600020905b81546001600160a01b0316815260019091019060200180831161052f575b5050505050905090565b606060358054610566906127ca565b80601f0160208091040260200160405190810160405280929190818152602001828054610592906127ca565b801561054d5780601f106105b45761010080835404028352916020019161054d565b820191906000526020600020905b8154815290600101906020018083116105c257509395945050505050565b6000336105ee8185856110ba565b60019150505b92915050565b600033610608858285611213565b6106358585856040518060200160405280600081525060405180602001604052806000815250600061129f565b60019150505b9392505050565b6001600160a01b037f00000000000000000000000000000000000000000000000000000000000000001630036106d45760405162461bcd60e51b815260206004820152602c60248201527f46756e6374696f6e206d7573742062652063616c6c6564207468726f7567682060448201526b19195b1959d85d1958d85b1b60a21b60648201526084015b60405180910390fd5b7f00000000000000000000000000000000000000000000000000000000000000006001600160a01b031661072f7f360894a13ba1a3210667c828492db98dca3e2076cc3735a920a3ca505d382bbc546001600160a01b031690565b6001600160a01b03161461079a5760405162461bcd60e51b815260206004820152602c60248201527f46756e6374696f6e206d7573742062652063616c6c6564207468726f7567682060448201526b6163746976652070726f787960a01b60648201526084016106cb565b6107a3816113b4565b604080516000808252602082019092526107bf918391906113bc565b50565b6001600160a01b037f000000000000000000000000000000000000000000000000000000000000000016300361084f5760405162461bcd60e51b815260206004820152602c60248201527f46756e6374696f6e206d7573742062652063616c6c6564207468726f7567682060448201526b19195b1959d85d1958d85b1b60a21b60648201526084016106cb565b7f00000000000000000000000000000000000000000000000000000000000000006001600160a01b03166108aa7f360894a13ba1a3210667c828492db98dca3e2076cc3735a920a3ca505d382bbc546001600160a01b031690565b6001600160a01b0316146109155760405162461bcd60e51b815260206004820152602c60248201527f46756e6374696f6e206d7573742062652063616c6c6564207468726f7567682060448201526b6163746976652070726f787960a01b60648201526084016106cb565b61091e826113b4565b61092a828260016113bc565b5050565b6000306001600160a01b037f000000000000000000000000000000000000000000000000000000000000000016146109ce5760405162461bcd60e51b815260206004820152603860248201527f555550535570677261646561626c653a206d757374206e6f742062652063616c60448201527f6c6564207468726f7567682064656c656761746563616c6c000000000000000060648201526084016106cb565b507f360894a13ba1a3210667c828492db98dca3e2076cc3735a920a3ca505d382bbc90565b6109fd3386610dd4565b610a5e5760405162461bcd60e51b815260206004820152602c60248201527f4552433737373a2063616c6c6572206973206e6f7420616e206f70657261746f60448201526b39103337b9103437b63232b960a11b60648201526084016106cb565b610a6d8585858585600161129f565b5050505050565b610a7c61155c565b610a8660006115b6565b565b600054610100900460ff1615808015610aa85750600054600160ff909116105b80610ac25750303b158015610ac2575060005460ff166001145b610b345760405162461bcd60e51b815260206004820152602e60248201527f496e697469616c697a61626c653a20636f6e747261637420697320616c72656160448201527f647920696e697469616c697a656400000000000000000000000000000000000060648201526084016106cb565b6000805460ff191660011790558015610b57576000805461ff0019166101001790555b604080518082018252600981527f55505f4361746e6970000000000000000000000000000000000000000000000060208083019190915282518084018452600281527f434e00000000000000000000000000000000000000000000000000000000000081830152835160008152918201909352610bd49290611615565b610bdc61168b565b610be46116f6565b610bec611769565b80156107bf576000805461ff0019169055604051600181527f7f26b83ff96e1f2b6a682f133852f6798a09c465da95921460cefb38474024989060200160405180910390a150565b6001600160a01b0381163303610cb15760405162461bcd60e51b8152602060048201526024808201527f4552433737373a20617574686f72697a696e672073656c66206173206f70657260448201527f61746f720000000000000000000000000000000000000000000000000000000060648201526084016106cb565b6001600160a01b03811660009081526038602052604090205460ff1615610d0257336000908152603a602090815260408083206001600160a01b03851684529091529020805460ff19169055610d31565b3360009081526039602090815260408083206001600160a01b03851684529091529020805460ff191660011790555b60405133906001600160a01b038316907ff4caeb2d6ca8932a215a353d0703c326ec2d81fc68170f320eb2ab49e9df61f990600090a350565b606060368054610566906127ca565b610d973384848460405180602001604052806000815250600161129f565b505050565b6000610dcb3384846040518060200160405280600081525060405180602001604052806000815250600061129f565b50600192915050565b6000816001600160a01b0316836001600160a01b03161480610e3f57506001600160a01b03831660009081526038602052604090205460ff168015610e3f57506001600160a01b038083166000908152603a602090815260408083209387168352929052205460ff16155b8061063b57506001600160a01b0380831660009081526039602090815260408083209387168352929052205460ff169392505050565b610e7d61155c565b6001600160a01b038116610ee25760405162461bcd60e51b815260206004820152602660248201527f4f776e61626c653a206e6577206f776e657220697320746865207a65726f206160448201526564647265737360d01b60648201526084016106cb565b6107bf816115b6565b336001600160a01b03821603610f695760405162461bcd60e51b815260206004820152602160248201527f4552433737373a207265766f6b696e672073656c66206173206f70657261746f60448201527f720000000000000000000000000000000000000000000000000000000000000060648201526084016106cb565b6001600160a01b03811660009081526038602052604090205460ff1615610fbd57336000908152603a602090815260408083206001600160a01b03851684529091529020805460ff19166001179055610fe9565b3360009081526039602090815260408083206001600160a01b03851684529091529020805460ff191690555b60405133906001600160a01b038316907f50546e66e5f44d728365dc3908c63bc5cfeeab470722c1677e3073a6ac294aa190600090a350565b61102c3385610dd4565b61108d5760405162461bcd60e51b815260206004820152602c60248201527f4552433737373a2063616c6c6572206973206e6f7420616e206f70657261746f60448201526b39103337b9103437b63232b960a11b60648201526084016106cb565b61109984848484611788565b50505050565b61092a33838360405180602001604052806000815250611788565b6001600160a01b0383166111365760405162461bcd60e51b815260206004820152602560248201527f4552433737373a20617070726f76652066726f6d20746865207a65726f20616460448201527f647265737300000000000000000000000000000000000000000000000000000060648201526084016106cb565b6001600160a01b0382166111b25760405162461bcd60e51b815260206004820152602360248201527f4552433737373a20617070726f766520746f20746865207a65726f206164647260448201527f657373000000000000000000000000000000000000000000000000000000000060648201526084016106cb565b6001600160a01b038381166000818152603b602090815260408083209487168084529482529182902085905590518481527f8c5be1e5ebec7d5bd14f71427d1e84f3dd0314c0f7b2291e5b200ac8c7c3b925910160405180910390a3505050565b6001600160a01b038381166000908152603b6020908152604080832093861683529290522054600019811461109957818110156112925760405162461bcd60e51b815260206004820152601e60248201527f4552433737373a20696e73756666696369656e7420616c6c6f77616e6365000060448201526064016106cb565b61109984848484036110ba565b6001600160a01b0386166113045760405162461bcd60e51b815260206004820152602660248201527f4552433737373a207472616e736665722066726f6d20746865207a65726f206160448201526564647265737360d01b60648201526084016106cb565b6001600160a01b03851661137f5760405162461bcd60e51b8152602060048201526024808201527f4552433737373a207472616e7366657220746f20746865207a65726f2061646460448201527f726573730000000000000000000000000000000000000000000000000000000060648201526084016106cb565b3361138e818888888888611971565b61139c818888888888611ab1565b6113ab81888888888888611c2d565b50505050505050565b6107bf61155c565b7f4910fdfa16fed3260ed0e7147f7cc6da11a60208b5b9406d12a635614ffd91435460ff16156113ef57610d9783611e1b565b826001600160a01b03166352d1902d6040518163ffffffff1660e01b8152600401602060405180830381865afa925050508015611449575060408051601f3d908101601f1916820190925261144691810190612804565b60015b6114bb5760405162461bcd60e51b815260206004820152602e60248201527f45524331393637557067726164653a206e657720696d706c656d656e7461746960448201527f6f6e206973206e6f74205555505300000000000000000000000000000000000060648201526084016106cb565b7f360894a13ba1a3210667c828492db98dca3e2076cc3735a920a3ca505d382bbc81146115505760405162461bcd60e51b815260206004820152602960248201527f45524331393637557067726164653a20756e737570706f727465642070726f7860448201527f6961626c6555554944000000000000000000000000000000000000000000000060648201526084016106cb565b50610d97838383611ee6565b60c9546001600160a01b03163314610a865760405162461bcd60e51b815260206004820181905260248201527f4f776e61626c653a2063616c6c6572206973206e6f7420746865206f776e657260448201526064016106cb565b60c980546001600160a01b0383811673ffffffffffffffffffffffffffffffffffffffff19831681179093556040519116919082907f8be0079c531659141344cd1fd0a4f28419497f9722a3daafe3b4186f6b6457e090600090a35050565b600054610100900460ff166116805760405162461bcd60e51b815260206004820152602b60248201527f496e697469616c697a61626c653a20636f6e7472616374206973206e6f74206960448201526a6e697469616c697a696e6760a81b60648201526084016106cb565b610d97838383611f0b565b600054610100900460ff16610a865760405162461bcd60e51b815260206004820152602b60248201527f496e697469616c697a61626c653a20636f6e7472616374206973206e6f74206960448201526a6e697469616c697a696e6760a81b60648201526084016106cb565b600054610100900460ff166117615760405162461bcd60e51b815260206004820152602b60248201527f496e697469616c697a61626c653a20636f6e7472616374206973206e6f74206960448201526a6e697469616c697a696e6760a81b60648201526084016106cb565b610a8661212b565b6117756012600a612917565b61178390633b9aca00612926565b60fb55565b6001600160a01b0384166118045760405162461bcd60e51b815260206004820152602260248201527f4552433737373a206275726e2066726f6d20746865207a65726f20616464726560448201527f737300000000000000000000000000000000000000000000000000000000000060648201526084016106cb565b3361181481866000878787611971565b6001600160a01b038516600090815260336020526040902054848110156118a35760405162461bcd60e51b815260206004820152602360248201527f4552433737373a206275726e20616d6f756e7420657863656564732062616c6160448201527f6e6365000000000000000000000000000000000000000000000000000000000060648201526084016106cb565b6001600160a01b03861660009081526033602052604081208683039055603480548792906118d2908490612945565b92505081905550856001600160a01b0316826001600160a01b03167fa78a9be3a7b862d26933ad85fb11d80ef66b8f972d7cbba06621d583943a40988787876040516119209392919061295c565b60405180910390a36040518581526000906001600160a01b038816907fddf252ad1be2c89b69c2b068fc378daa952ba7f163c4a11628f55a4df523b3ef9060200160405180910390a3505050505050565b60405163555ddc6560e11b81526001600160a01b03861660048201527f29ddb589b1fb5fc7cf394961c1adf5f8c6454761adf795e67fe149f658abe8956024820152600090731820a4b7618bde71dce8cdc73aab6c95905fad249063aabbb8ca90604401602060405180830381865afa1580156119f2573d6000803e3d6000fd5b505050506040513d601f19601f82011682018060405250810190611a169190612991565b90506001600160a01b038116156113ab576040517f75ab97820000000000000000000000000000000000000000000000000000000081526001600160a01b038216906375ab978290611a76908a908a908a908a908a908a906004016129ae565b600060405180830381600087803b158015611a9057600080fd5b505af1158015611aa4573d6000803e3d6000fd5b5050505050505050505050565b6001600160a01b03851660009081526033602052604090205483811015611b405760405162461bcd60e51b815260206004820152602760248201527f4552433737373a207472616e7366657220616d6f756e7420657863656564732060448201527f62616c616e63650000000000000000000000000000000000000000000000000060648201526084016106cb565b6001600160a01b03808716600090815260336020526040808220878503905591871681529081208054869290611b77908490612a07565b92505081905550846001600160a01b0316866001600160a01b0316886001600160a01b03167f06b541ddaa720db2b10a4d0cdac39b8d360425fc073085fac19bc82614677987878787604051611bcf9392919061295c565b60405180910390a4846001600160a01b0316866001600160a01b03167fddf252ad1be2c89b69c2b068fc378daa952ba7f163c4a11628f55a4df523b3ef86604051611c1c91815260200190565b60405180910390a350505050505050565b60405163555ddc6560e11b81526001600160a01b03861660048201527fb281fc8c12954d22544db45de3159a39272895b169a852b314f9cc762e44c53b6024820152600090731820a4b7618bde71dce8cdc73aab6c95905fad249063aabbb8ca90604401602060405180830381865afa158015611cae573d6000803e3d6000fd5b505050506040513d601f19601f82011682018060405250810190611cd29190612991565b90506001600160a01b03811615611d67576040517e23de290000000000000000000000000000000000000000000000000000000081526001600160a01b038216906223de2990611d30908b908b908b908b908b908b906004016129ae565b600060405180830381600087803b158015611d4a57600080fd5b505af1158015611d5e573d6000803e3d6000fd5b50505050611e11565b8115611e11576001600160a01b0386163b15611e115760405162461bcd60e51b815260206004820152604d60248201527f4552433737373a20746f6b656e20726563697069656e7420636f6e747261637460448201527f20686173206e6f20696d706c656d656e74657220666f7220455243373737546f60648201527f6b656e73526563697069656e7400000000000000000000000000000000000000608482015260a4016106cb565b5050505050505050565b6001600160a01b0381163b611e985760405162461bcd60e51b815260206004820152602d60248201527f455243313936373a206e657720696d706c656d656e746174696f6e206973206e60448201527f6f74206120636f6e74726163740000000000000000000000000000000000000060648201526084016106cb565b7f360894a13ba1a3210667c828492db98dca3e2076cc3735a920a3ca505d382bbc805473ffffffffffffffffffffffffffffffffffffffff19166001600160a01b0392909216919091179055565b611eef8361219f565b600082511180611efc5750805b15610d975761109983836121df565b600054610100900460ff16611f765760405162461bcd60e51b815260206004820152602b60248201527f496e697469616c697a61626c653a20636f6e7472616374206973206e6f74206960448201526a6e697469616c697a696e6760a81b60648201526084016106cb565b6035611f828482612a6d565b506036611f8f8382612a6d565b508051611fa3906037906020840190612323565b5060005b815181101561200c57600160386000848481518110611fc857611fc8612b2d565b6020908102919091018101516001600160a01b03168252810191909152604001600020805460ff19169115159190911790558061200481612b43565b915050611fa7565b506040516329965a1d60e01b815230600482018190527fac7fbab5f54a3ca8194167523c6753bfeb96a445279294b6125b68cce217705460248301526044820152731820a4b7618bde71dce8cdc73aab6c95905fad24906329965a1d90606401600060405180830381600087803b15801561208657600080fd5b505af115801561209a573d6000803e3d6000fd5b50506040516329965a1d60e01b815230600482018190527faea199e31a596269b42cdafd93407f14436db6e4cad65417994c2eb37381e05a60248301526044820152731820a4b7618bde71dce8cdc73aab6c95905fad2492506329965a1d9150606401600060405180830381600087803b15801561211757600080fd5b505af11580156113ab573d6000803e3d6000fd5b600054610100900460ff166121965760405162461bcd60e51b815260206004820152602b60248201527f496e697469616c697a61626c653a20636f6e7472616374206973206e6f74206960448201526a6e697469616c697a696e6760a81b60648201526084016106cb565b610a86336115b6565b6121a881611e1b565b6040516001600160a01b038216907fbc7cd75a20ee27fd9adebab32041f755214dbc6bffa90cc0225b39da2e5c2d3b90600090a250565b60606001600160a01b0383163b61225e5760405162461bcd60e51b815260206004820152602660248201527f416464726573733a2064656c65676174652063616c6c20746f206e6f6e2d636f60448201527f6e7472616374000000000000000000000000000000000000000000000000000060648201526084016106cb565b600080846001600160a01b0316846040516122799190612b5c565b600060405180830381855af49150503d80600081146122b4576040519150601f19603f3d011682016040523d82523d6000602084013e6122b9565b606091505b50915091506122e18282604051806060016040528060278152602001612b79602791396122ea565b95945050505050565b606083156122f957508161063b565b8251156123095782518084602001fd5b8160405162461bcd60e51b81526004016106cb919061244f565b828054828255906000526020600020908101928215612385579160200282015b82811115612385578251825473ffffffffffffffffffffffffffffffffffffffff19166001600160a01b03909116178255602090920191600190910190612343565b50612391929150612395565b5090565b5b808211156123915760008155600101612396565b6020808252825182820181905260009190848201906040850190845b818110156123eb5783516001600160a01b0316835292840192918401916001016123c6565b50909695505050505050565b60005b838110156124125781810151838201526020016123fa565b838111156110995750506000910152565b6000815180845261243b8160208601602086016123f7565b601f01601f19169290920160200192915050565b60208152600061063b6020830184612423565b6001600160a01b03811681146107bf57600080fd5b6000806040838503121561248a57600080fd5b823561249581612462565b946020939093013593505050565b6000806000606084860312156124b857600080fd5b83356124c381612462565b925060208401356124d381612462565b929592945050506040919091013590565b6000602082840312156124f657600080fd5b813561063b81612462565b634e487b7160e01b600052604160045260246000fd5b600082601f83011261252857600080fd5b813567ffffffffffffffff8082111561254357612543612501565b604051601f8301601f19908116603f0116810190828211818310171561256b5761256b612501565b8160405283815286602085880101111561258457600080fd5b836020870160208301376000602085830101528094505050505092915050565b600080604083850312156125b757600080fd5b82356125c281612462565b9150602083013567ffffffffffffffff8111156125de57600080fd5b6125ea85828601612517565b9150509250929050565b600080600080600060a0868803121561260c57600080fd5b853561261781612462565b9450602086013561262781612462565b935060408601359250606086013567ffffffffffffffff8082111561264b57600080fd5b61265789838a01612517565b9350608088013591508082111561266d57600080fd5b5061267a88828901612517565b9150509295509295909350565b60008060006060848603121561269c57600080fd5b83356126a781612462565b925060208401359150604084013567ffffffffffffffff8111156126ca57600080fd5b6126d686828701612517565b9150509250925092565b600080604083850312156126f357600080fd5b82356126fe81612462565b9150602083013561270e81612462565b809150509250929050565b6000806000806080858703121561272f57600080fd5b843561273a81612462565b935060208501359250604085013567ffffffffffffffff8082111561275e57600080fd5b61276a88838901612517565b9350606087013591508082111561278057600080fd5b5061278d87828801612517565b91505092959194509250565b600080604083850312156127ac57600080fd5b82359150602083013567ffffffffffffffff8111156125de57600080fd5b600181811c908216806127de57607f821691505b6020821081036127fe57634e487b7160e01b600052602260045260246000fd5b50919050565b60006020828403121561281657600080fd5b5051919050565b634e487b7160e01b600052601160045260246000fd5b600181815b8085111561286e5781600019048211156128545761285461281d565b8085161561286157918102915b93841c9390800290612838565b509250929050565b600082612885575060016105f4565b81612892575060006105f4565b81600181146128a857600281146128b2576128ce565b60019150506105f4565b60ff8411156128c3576128c361281d565b50506001821b6105f4565b5060208310610133831016604e8410600b84101617156128f1575081810a6105f4565b6128fb8383612833565b806000190482111561290f5761290f61281d565b029392505050565b600061063b60ff841683612876565b60008160001904831182151516156129405761294061281d565b500290565b6000828210156129575761295761281d565b500390565b8381526060602082015260006129756060830185612423565b82810360408401526129878185612423565b9695505050505050565b6000602082840312156129a357600080fd5b815161063b81612462565b60006001600160a01b038089168352808816602084015280871660408401525084606083015260c060808301526129e860c0830185612423565b82810360a08401526129fa8185612423565b9998505050505050505050565b60008219821115612a1a57612a1a61281d565b500190565b601f821115610d9757600081815260208120601f850160051c81016020861015612a465750805b601f850160051c820191505b81811015612a6557828155600101612a52565b505050505050565b815167ffffffffffffffff811115612a8757612a87612501565b612a9b81612a9584546127ca565b84612a1f565b602080601f831160018114612ad05760008415612ab85750858301515b600019600386901b1c1916600185901b178555612a65565b600085815260208120601f198616915b82811015612aff57888601518255948401946001909101908401612ae0565b5085821015612b1d5787850151600019600388901b60f8161c191681555b5050505050600190811b01905550565b634e487b7160e01b600052603260045260246000fd5b600060018201612b5557612b5561281d565b5060010190565b60008251612b6e8184602087016123f7565b919091019291505056fe416464726573733a206c6f772d6c6576656c2064656c65676174652063616c6c206661696c6564a264697066735822122065cf6eea008b41a22b15bea55be894ddee4ec75f3f6815630cd658ec36756a2b64736f6c634300080f0033",
  "linkReferences": {},
  "deployedLinkReferences": {}
}