{
  "_format": "hh-sol-artifact-1",
  "contractName": "UP_CatnipVer02",
  "sourceName": "contracts/upgradeable/token/ERC777/UP_Catnip/UP_CatnipVer02.sol",
  "abi": [
    {
      "anonymous": false,
      "inputs": [
        {
          "indexed": false,
          "internalType": "address",
          "name": "previousAdmin",
          "type": "address"
        },
        {
          "indexed": false,
          "internalType": "address",
          "name": "newAdmin",
          "type": "address"
        }
      ],
      "name": "AdminChanged",
      "type": "event"
    },
    {
      "anonymous": false,
      "inputs": [
        {
          "indexed": true,
          "internalType": "address",
          "name": "owner",
          "type": "address"
        },
        {
          "indexed": true,
          "internalType": "address",
          "name": "spender",
          "type": "address"
        },
        {
          "indexed": false,
          "internalType": "uint256",
          "name": "value",
          "type": "uint256"
        }
      ],
      "name": "Approval",
      "type": "event"
    },
    {
      "anonymous": false,
      "inputs": [
        {
          "indexed": true,
          "internalType": "address",
          "name": "operator",
          "type": "address"
        },
        {
          "indexed": true,
          "internalType": "address",
          "name": "tokenHolder",
          "type": "address"
        }
      ],
      "name": "AuthorizedOperator",
      "type": "event"
    },
    {
      "anonymous": false,
      "inputs": [
        {
          "indexed": true,
          "internalType": "address",
          "name": "beacon",
          "type": "address"
        }
      ],
      "name": "BeaconUpgraded",
      "type": "event"
    },
    {
      "anonymous": false,
      "inputs": [
        {
          "indexed": true,
          "internalType": "address",
          "name": "operator",
          "type": "address"
        },
        {
          "indexed": true,
          "internalType": "address",
          "name": "from",
          "type": "address"
        },
        {
          "indexed": false,
          "internalType": "uint256",
          "name": "amount",
          "type": "uint256"
        },
        {
          "indexed": false,
          "internalType": "bytes",
          "name": "data",
          "type": "bytes"
        },
        {
          "indexed": false,
          "internalType": "bytes",
          "name": "operatorData",
          "type": "bytes"
        }
      ],
      "name": "Burned",
      "type": "event"
    },
    {
      "anonymous": false,
      "inputs": [
        {
          "indexed": false,
          "internalType": "uint8",
          "name": "version",
          "type": "uint8"
        }
      ],
      "name": "Initialized",
      "type": "event"
    },
    {
      "anonymous": false,
      "inputs": [
        {
          "indexed": true,
          "internalType": "address",
          "name": "operator",
          "type": "address"
        },
        {
          "indexed": true,
          "internalType": "address",
          "name": "to",
          "type": "address"
        },
        {
          "indexed": false,
          "internalType": "uint256",
          "name": "amount",
          "type": "uint256"
        },
        {
          "indexed": false,
          "internalType": "bytes",
          "name": "data",
          "type": "bytes"
        },
        {
          "indexed": false,
          "internalType": "bytes",
          "name": "operatorData",
          "type": "bytes"
        }
      ],
      "name": "Minted",
      "type": "event"
    },
    {
      "anonymous": false,
      "inputs": [
        {
          "indexed": true,
          "internalType": "address",
          "name": "previousOwner",
          "type": "address"
        },
        {
          "indexed": true,
          "internalType": "address",
          "name": "newOwner",
          "type": "address"
        }
      ],
      "name": "OwnershipTransferred",
      "type": "event"
    },
    {
      "anonymous": false,
      "inputs": [
        {
          "indexed": true,
          "internalType": "address",
          "name": "operator",
          "type": "address"
        },
        {
          "indexed": true,
          "internalType": "address",
          "name": "tokenHolder",
          "type": "address"
        }
      ],
      "name": "RevokedOperator",
      "type": "event"
    },
    {
      "anonymous": false,
      "inputs": [
        {
          "indexed": true,
          "internalType": "address",
          "name": "operator",
          "type": "address"
        },
        {
          "indexed": true,
          "internalType": "address",
          "name": "from",
          "type": "address"
        },
        {
          "indexed": true,
          "internalType": "address",
          "name": "to",
          "type": "address"
        },
        {
          "indexed": false,
          "internalType": "uint256",
          "name": "amount",
          "type": "uint256"
        },
        {
          "indexed": false,
          "internalType": "bytes",
          "name": "data",
          "type": "bytes"
        },
        {
          "indexed": false,
          "internalType": "bytes",
          "name": "operatorData",
          "type": "bytes"
        }
      ],
      "name": "Sent",
      "type": "event"
    },
    {
      "anonymous": false,
      "inputs": [
        {
          "indexed": true,
          "internalType": "address",
          "name": "from",
          "type": "address"
        },
        {
          "indexed": true,
          "internalType": "address",
          "name": "to",
          "type": "address"
        },
        {
          "indexed": false,
          "internalType": "uint256",
          "name": "value",
          "type": "uint256"
        }
      ],
      "name": "Transfer",
      "type": "event"
    },
    {
      "anonymous": false,
      "inputs": [
        {
          "indexed": true,
          "internalType": "address",
          "name": "implementation",
          "type": "address"
        }
      ],
      "name": "Upgraded",
      "type": "event"
    },
    {
      "inputs": [
        {
          "internalType": "address",
          "name": "holder",
          "type": "address"
        },
        {
          "internalType": "address",
          "name": "spender",
          "type": "address"
        }
      ],
      "name": "allowance",
      "outputs": [
        {
          "internalType": "uint256",
          "name": "",
          "type": "uint256"
        }
      ],
      "stateMutability": "view",
      "type": "function"
    },
    {
      "inputs": [
        {
          "internalType": "address",
          "name": "spender",
          "type": "address"
        },
        {
          "internalType": "uint256",
          "name": "value",
          "type": "uint256"
        }
      ],
      "name": "approve",
      "outputs": [
        {
          "internalType": "bool",
          "name": "",
          "type": "bool"
        }
      ],
      "stateMutability": "nonpayable",
      "type": "function"
    },
    {
      "inputs": [
        {
          "internalType": "address",
          "name": "operator",
          "type": "address"
        }
      ],
      "name": "authorizeOperator",
      "outputs": [],
      "stateMutability": "nonpayable",
      "type": "function"
    },
    {
      "inputs": [
        {
          "internalType": "address",
          "name": "tokenHolder",
          "type": "address"
        }
      ],
      "name": "balanceOf",
      "outputs": [
        {
          "internalType": "uint256",
          "name": "",
          "type": "uint256"
        }
      ],
      "stateMutability": "view",
      "type": "function"
    },
    {
      "inputs": [
        {
          "internalType": "uint256",
          "name": "amount",
          "type": "uint256"
        },
        {
          "internalType": "bytes",
          "name": "data",
          "type": "bytes"
        }
      ],
      "name": "burn",
      "outputs": [],
      "stateMutability": "nonpayable",
      "type": "function"
    },
    {
      "inputs": [],
      "name": "catnipVersion",
      "outputs": [
        {
          "internalType": "uint256",
          "name": "",
          "type": "uint256"
        }
      ],
      "stateMutability": "pure",
      "type": "function"
    },
    {
      "inputs": [],
      "name": "decimals",
      "outputs": [
        {
          "internalType": "uint8",
          "name": "",
          "type": "uint8"
        }
      ],
      "stateMutability": "pure",
      "type": "function"
    },
    {
      "inputs": [],
      "name": "defaultOperators",
      "outputs": [
        {
          "internalType": "address[]",
          "name": "",
          "type": "address[]"
        }
      ],
      "stateMutability": "view",
      "type": "function"
    },
    {
      "inputs": [],
      "name": "getNumber",
      "outputs": [
        {
          "internalType": "uint256",
          "name": "",
          "type": "uint256"
        }
      ],
      "stateMutability": "view",
      "type": "function"
    },
    {
      "inputs": [],
      "name": "granularity",
      "outputs": [
        {
          "internalType": "uint256",
          "name": "",
          "type": "uint256"
        }
      ],
      "stateMutability": "view",
      "type": "function"
    },
    {
      "inputs": [],
      "name": "increaseNumber",
      "outputs": [],
      "stateMutability": "nonpayable",
      "type": "function"
    },
    {
      "inputs": [],
      "name": "initialize",
      "outputs": [],
      "stateMutability": "nonpayable",
      "type": "function"
    },
    {
      "inputs": [
        {
          "internalType": "address",
          "name": "operator",
          "type": "address"
        },
        {
          "internalType": "address",
          "name": "tokenHolder",
          "type": "address"
        }
      ],
      "name": "isOperatorFor",
      "outputs": [
        {
          "internalType": "bool",
          "name": "",
          "type": "bool"
        }
      ],
      "stateMutability": "view",
      "type": "function"
    },
    {
      "inputs": [],
      "name": "name",
      "outputs": [
        {
          "internalType": "string",
          "name": "",
          "type": "string"
        }
      ],
      "stateMutability": "view",
      "type": "function"
    },
    {
      "inputs": [],
      "name": "number",
      "outputs": [
        {
          "internalType": "uint256",
          "name": "",
          "type": "uint256"
        }
      ],
      "stateMutability": "view",
      "type": "function"
    },
    {
      "inputs": [
        {
          "internalType": "address",
          "name": "account",
          "type": "address"
        },
        {
          "internalType": "uint256",
          "name": "amount",
          "type": "uint256"
        },
        {
          "internalType": "bytes",
          "name": "data",
          "type": "bytes"
        },
        {
          "internalType": "bytes",
          "name": "operatorData",
          "type": "bytes"
        }
      ],
      "name": "operatorBurn",
      "outputs": [],
      "stateMutability": "nonpayable",
      "type": "function"
    },
    {
      "inputs": [
        {
          "internalType": "address",
          "name": "sender",
          "type": "address"
        },
        {
          "internalType": "address",
          "name": "recipient",
          "type": "address"
        },
        {
          "internalType": "uint256",
          "name": "amount",
          "type": "uint256"
        },
        {
          "internalType": "bytes",
          "name": "data",
          "type": "bytes"
        },
        {
          "internalType": "bytes",
          "name": "operatorData",
          "type": "bytes"
        }
      ],
      "name": "operatorSend",
      "outputs": [],
      "stateMutability": "nonpayable",
      "type": "function"
    },
    {
      "inputs": [],
      "name": "owner",
      "outputs": [
        {
          "internalType": "address",
          "name": "",
          "type": "address"
        }
      ],
      "stateMutability": "view",
      "type": "function"
    },
    {
      "inputs": [],
      "name": "proxiableUUID",
      "outputs": [
        {
          "internalType": "bytes32",
          "name": "",
          "type": "bytes32"
        }
      ],
      "stateMutability": "view",
      "type": "function"
    },
    {
      "inputs": [],
      "name": "renounceOwnership",
      "outputs": [],
      "stateMutability": "nonpayable",
      "type": "function"
    },
    {
      "inputs": [
        {
          "internalType": "address",
          "name": "operator",
          "type": "address"
        }
      ],
      "name": "revokeOperator",
      "outputs": [],
      "stateMutability": "nonpayable",
      "type": "function"
    },
    {
      "inputs": [
        {
          "internalType": "address",
          "name": "recipient",
          "type": "address"
        },
        {
          "internalType": "uint256",
          "name": "amount",
          "type": "uint256"
        },
        {
          "internalType": "bytes",
          "name": "data",
          "type": "bytes"
        }
      ],
      "name": "send",
      "outputs": [],
      "stateMutability": "nonpayable",
      "type": "function"
    },
    {
      "inputs": [
        {
          "internalType": "uint256",
          "name": "_number",
          "type": "uint256"
        }
      ],
      "name": "setNumber",
      "outputs": [],
      "stateMutability": "nonpayable",
      "type": "function"
    },
    {
      "inputs": [],
      "name": "symbol",
      "outputs": [
        {
          "internalType": "string",
          "name": "",
          "type": "string"
        }
      ],
      "stateMutability": "view",
      "type": "function"
    },
    {
      "inputs": [],
      "name": "totalSupply",
      "outputs": [
        {
          "internalType": "uint256",
          "name": "",
          "type": "uint256"
        }
      ],
      "stateMutability": "view",
      "type": "function"
    },
    {
      "inputs": [
        {
          "internalType": "address",
          "name": "recipient",
          "type": "address"
        },
        {
          "internalType": "uint256",
          "name": "amount",
          "type": "uint256"
        }
      ],
      "name": "transfer",
      "outputs": [
        {
          "internalType": "bool",
          "name": "",
          "type": "bool"
        }
      ],
      "stateMutability": "nonpayable",
      "type": "function"
    },
    {
      "inputs": [
        {
          "internalType": "address",
          "name": "holder",
          "type": "address"
        },
        {
          "internalType": "address",
          "name": "recipient",
          "type": "address"
        },
        {
          "internalType": "uint256",
          "name": "amount",
          "type": "uint256"
        }
      ],
      "name": "transferFrom",
      "outputs": [
        {
          "internalType": "bool",
          "name": "",
          "type": "bool"
        }
      ],
      "stateMutability": "nonpayable",
      "type": "function"
    },
    {
      "inputs": [
        {
          "internalType": "address",
          "name": "newOwner",
          "type": "address"
        }
      ],
      "name": "transferOwnership",
      "outputs": [],
      "stateMutability": "nonpayable",
      "type": "function"
    },
    {
      "inputs": [
        {
          "internalType": "address",
          "name": "newImplementation",
          "type": "address"
        }
      ],
      "name": "upgradeTo",
      "outputs": [],
      "stateMutability": "nonpayable",
      "type": "function"
    },
    {
      "inputs": [
        {
          "internalType": "address",
          "name": "newImplementation",
          "type": "address"
        },
        {
          "internalType": "bytes",
          "name": "data",
          "type": "bytes"
        }
      ],
      "name": "upgradeToAndCall",
      "outputs": [],
      "stateMutability": "payable",
      "type": "function"
    }
  ],
  "bytecode": "0x60a0604052306080523480156200001557600080fd5b506200002062000026565b620000e8565b600054610100900460ff1615620000935760405162461bcd60e51b815260206004820152602760248201527f496e697469616c697a61626c653a20636f6e747261637420697320696e697469604482015266616c697a696e6760c81b606482015260840160405180910390fd5b60005460ff9081161015620000e6576000805460ff191660ff9081179091556040519081527f7f26b83ff96e1f2b6a682f133852f6798a09c465da95921460cefb38474024989060200160405180910390a15b565b608051612b4b62000120600039600081816106d40152818161075e01528181610854015281816108d901526109c30152612b4b6000f3fe6080604052600436106101cd5760003560e01c80638129fc1c116100f7578063d95b637111610095578063f39d6fa211610064578063f39d6fa21461050b578063fad8b32a1461051f578063fc673c4f1461053f578063fe9d93031461055f57600080fd5b8063d95b637114610470578063dd62ed3e14610490578063f2c9ecd8146104d6578063f2fde38b146104eb57600080fd5b8063959b8c3f116100d1578063959b8c3f146103fb57806395d89b411461041b5780639bd9bbc614610430578063a9059cbb1461045057600080fd5b80638129fc1c146103a85780638381f58a146103bd5780638da5cb5b146103d357600080fd5b80633fb5c1cb1161016f5780635b4ef8191161013e5780635b4ef8191461032857806362ad1b831461033d57806370a082311461035d578063715018a61461039357600080fd5b80633fb5c1cb146102cc5780634f1ef286146102ec57806352d1902d146102ff578063556f0dc71461031457600080fd5b806318160ddd116101ab57806318160ddd1461024f57806323b872dd1461026e578063313ce5671461028e5780633659cfe6146102aa57600080fd5b806306e48538146101d257806306fdde03146101fd578063095ea7b31461021f575b600080fd5b3480156101de57600080fd5b506101e761057f565b6040516101f49190612419565b60405180910390f35b34801561020957600080fd5b506102126105e1565b6040516101f491906124be565b34801561022b57600080fd5b5061023f61023a3660046124e6565b61066a565b60405190151581526020016101f4565b34801561025b57600080fd5b506034545b6040519081526020016101f4565b34801561027a57600080fd5b5061023f610289366004612512565b610682565b34801561029a57600080fd5b50604051601281526020016101f4565b3480156102b657600080fd5b506102ca6102c5366004612553565b6106ca565b005b3480156102d857600080fd5b506102ca6102e7366004612570565b60fb55565b6102ca6102fa36600461262c565b61084a565b34801561030b57600080fd5b506102606109b6565b34801561032057600080fd5b506001610260565b34801561033457600080fd5b506102ca610a7b565b34801561034957600080fd5b506102ca61035836600461267c565b610a89565b34801561036957600080fd5b50610260610378366004612553565b6001600160a01b031660009081526033602052604090205490565b34801561039f57600080fd5b506102ca610b0a565b3480156103b457600080fd5b506102ca610b1e565b3480156103c957600080fd5b5061026060fb5481565b3480156103df57600080fd5b5060c9546040516001600160a01b0390911681526020016101f4565b34801561040757600080fd5b506102ca610416366004612553565b610cc2565b34801561042757600080fd5b50610212610df8565b34801561043c57600080fd5b506102ca61044b36600461270f565b610e07565b34801561045c57600080fd5b5061023f61046b3660046124e6565b610e2a565b34801561047c57600080fd5b5061023f61048b366004612768565b610e62565b34801561049c57600080fd5b506102606104ab366004612768565b6001600160a01b039182166000908152603b6020908152604080832093909416825291909152205490565b3480156104e257600080fd5b5060fb54610260565b3480156104f757600080fd5b506102ca610506366004612553565b610f03565b34801561051757600080fd5b506002610260565b34801561052b57600080fd5b506102ca61053a366004612553565b610f79565b34801561054b57600080fd5b506102ca61055a3660046127a1565b6110b0565b34801561056b57600080fd5b506102ca61057a366004612821565b61112d565b606060378054806020026020016040519081016040528092919081815260200182805480156105d757602002820191906000526020600020905b81546001600160a01b031681526001909101906020018083116105b9575b5050505050905090565b6060603580546105f090612852565b80601f016020809104026020016040519081016040528092919081815260200182805461061c90612852565b80156105d75780601f1061063e576101008083540402835291602001916105d7565b820191906000526020600020905b81548152906001019060200180831161064c57509395945050505050565b600033610678818585611148565b5060019392505050565b6000336106908582856112a1565b6106bd8585856040518060200160405280600081525060405180602001604052806000815250600061132d565b60019150505b9392505050565b6001600160a01b037f000000000000000000000000000000000000000000000000000000000000000016300361075c5760405162461bcd60e51b815260206004820152602c60248201527f46756e6374696f6e206d7573742062652063616c6c6564207468726f7567682060448201526b19195b1959d85d1958d85b1b60a21b60648201526084015b60405180910390fd5b7f00000000000000000000000000000000000000000000000000000000000000006001600160a01b03166107b77f360894a13ba1a3210667c828492db98dca3e2076cc3735a920a3ca505d382bbc546001600160a01b031690565b6001600160a01b0316146108225760405162461bcd60e51b815260206004820152602c60248201527f46756e6374696f6e206d7573742062652063616c6c6564207468726f7567682060448201526b6163746976652070726f787960a01b6064820152608401610753565b61082b81611442565b604080516000808252602082019092526108479183919061144a565b50565b6001600160a01b037f00000000000000000000000000000000000000000000000000000000000000001630036108d75760405162461bcd60e51b815260206004820152602c60248201527f46756e6374696f6e206d7573742062652063616c6c6564207468726f7567682060448201526b19195b1959d85d1958d85b1b60a21b6064820152608401610753565b7f00000000000000000000000000000000000000000000000000000000000000006001600160a01b03166109327f360894a13ba1a3210667c828492db98dca3e2076cc3735a920a3ca505d382bbc546001600160a01b031690565b6001600160a01b03161461099d5760405162461bcd60e51b815260206004820152602c60248201527f46756e6374696f6e206d7573742062652063616c6c6564207468726f7567682060448201526b6163746976652070726f787960a01b6064820152608401610753565b6109a682611442565b6109b28282600161144a565b5050565b6000306001600160a01b037f00000000000000000000000000000000000000000000000000000000000000001614610a565760405162461bcd60e51b815260206004820152603860248201527f555550535570677261646561626c653a206d757374206e6f742062652063616c60448201527f6c6564207468726f7567682064656c656761746563616c6c00000000000000006064820152608401610753565b507f360894a13ba1a3210667c828492db98dca3e2076cc3735a920a3ca505d382bbc90565b60fb546102e79060016128a2565b610a933386610e62565b610af45760405162461bcd60e51b815260206004820152602c60248201527f4552433737373a2063616c6c6572206973206e6f7420616e206f70657261746f60448201526b39103337b9103437b63232b960a11b6064820152608401610753565b610b038585858585600161132d565b5050505050565b610b126115ea565b610b1c6000611644565b565b600054610100900460ff1615808015610b3e5750600054600160ff909116105b80610b585750303b158015610b58575060005460ff166001145b610bca5760405162461bcd60e51b815260206004820152602e60248201527f496e697469616c697a61626c653a20636f6e747261637420697320616c72656160448201527f647920696e697469616c697a65640000000000000000000000000000000000006064820152608401610753565b6000805460ff191660011790558015610bed576000805461ff0019166101001790555b604080518082018252600981527f55505f4361746e6970000000000000000000000000000000000000000000000060208083019190915282518084018452600281527f434e00000000000000000000000000000000000000000000000000000000000081830152835160008152918201909352610c6a92906116a3565b610c72611719565b610c7a611784565b8015610847576000805461ff0019169055604051600181527f7f26b83ff96e1f2b6a682f133852f6798a09c465da95921460cefb38474024989060200160405180910390a150565b6001600160a01b0381163303610d3f5760405162461bcd60e51b8152602060048201526024808201527f4552433737373a20617574686f72697a696e672073656c66206173206f70657260448201527f61746f72000000000000000000000000000000000000000000000000000000006064820152608401610753565b6001600160a01b03811660009081526038602052604090205460ff1615610d9057336000908152603a602090815260408083206001600160a01b03851684529091529020805460ff19169055610dbf565b3360009081526039602090815260408083206001600160a01b03851684529091529020805460ff191660011790555b60405133906001600160a01b038316907ff4caeb2d6ca8932a215a353d0703c326ec2d81fc68170f320eb2ab49e9df61f990600090a350565b6060603680546105f090612852565b610e253384848460405180602001604052806000815250600161132d565b505050565b6000610e593384846040518060200160405280600081525060405180602001604052806000815250600061132d565b50600192915050565b6000816001600160a01b0316836001600160a01b03161480610ecd57506001600160a01b03831660009081526038602052604090205460ff168015610ecd57506001600160a01b038083166000908152603a602090815260408083209387168352929052205460ff16155b806106c357506001600160a01b0380831660009081526039602090815260408083209387168352929052205460ff169392505050565b610f0b6115ea565b6001600160a01b038116610f705760405162461bcd60e51b815260206004820152602660248201527f4f776e61626c653a206e6577206f776e657220697320746865207a65726f206160448201526564647265737360d01b6064820152608401610753565b61084781611644565b336001600160a01b03821603610ff75760405162461bcd60e51b815260206004820152602160248201527f4552433737373a207265766f6b696e672073656c66206173206f70657261746f60448201527f72000000000000000000000000000000000000000000000000000000000000006064820152608401610753565b6001600160a01b03811660009081526038602052604090205460ff161561104b57336000908152603a602090815260408083206001600160a01b03851684529091529020805460ff19166001179055611077565b3360009081526039602090815260408083206001600160a01b03851684529091529020805460ff191690555b60405133906001600160a01b038316907f50546e66e5f44d728365dc3908c63bc5cfeeab470722c1677e3073a6ac294aa190600090a350565b6110ba3385610e62565b61111b5760405162461bcd60e51b815260206004820152602c60248201527f4552433737373a2063616c6c6572206973206e6f7420616e206f70657261746f60448201526b39103337b9103437b63232b960a11b6064820152608401610753565b611127848484846117f7565b50505050565b6109b2338383604051806020016040528060008152506117f7565b6001600160a01b0383166111c45760405162461bcd60e51b815260206004820152602560248201527f4552433737373a20617070726f76652066726f6d20746865207a65726f20616460448201527f64726573730000000000000000000000000000000000000000000000000000006064820152608401610753565b6001600160a01b0382166112405760405162461bcd60e51b815260206004820152602360248201527f4552433737373a20617070726f766520746f20746865207a65726f206164647260448201527f65737300000000000000000000000000000000000000000000000000000000006064820152608401610753565b6001600160a01b038381166000818152603b602090815260408083209487168084529482529182902085905590518481527f8c5be1e5ebec7d5bd14f71427d1e84f3dd0314c0f7b2291e5b200ac8c7c3b925910160405180910390a3505050565b6001600160a01b038381166000908152603b6020908152604080832093861683529290522054600019811461112757818110156113205760405162461bcd60e51b815260206004820152601e60248201527f4552433737373a20696e73756666696369656e7420616c6c6f77616e636500006044820152606401610753565b6111278484848403611148565b6001600160a01b0386166113925760405162461bcd60e51b815260206004820152602660248201527f4552433737373a207472616e736665722066726f6d20746865207a65726f206160448201526564647265737360d01b6064820152608401610753565b6001600160a01b03851661140d5760405162461bcd60e51b8152602060048201526024808201527f4552433737373a207472616e7366657220746f20746865207a65726f2061646460448201527f72657373000000000000000000000000000000000000000000000000000000006064820152608401610753565b3361141c8188888888886119e0565b61142a818888888888611b20565b61143981888888888888611c9c565b50505050505050565b6108476115ea565b7f4910fdfa16fed3260ed0e7147f7cc6da11a60208b5b9406d12a635614ffd91435460ff161561147d57610e2583611e8a565b826001600160a01b03166352d1902d6040518163ffffffff1660e01b8152600401602060405180830381865afa9250505080156114d7575060408051601f3d908101601f191682019092526114d4918101906128ba565b60015b6115495760405162461bcd60e51b815260206004820152602e60248201527f45524331393637557067726164653a206e657720696d706c656d656e7461746960448201527f6f6e206973206e6f7420555550530000000000000000000000000000000000006064820152608401610753565b7f360894a13ba1a3210667c828492db98dca3e2076cc3735a920a3ca505d382bbc81146115de5760405162461bcd60e51b815260206004820152602960248201527f45524331393637557067726164653a20756e737570706f727465642070726f7860448201527f6961626c655555494400000000000000000000000000000000000000000000006064820152608401610753565b50610e25838383611f55565b60c9546001600160a01b03163314610b1c5760405162461bcd60e51b815260206004820181905260248201527f4f776e61626c653a2063616c6c6572206973206e6f7420746865206f776e65726044820152606401610753565b60c980546001600160a01b0383811673ffffffffffffffffffffffffffffffffffffffff19831681179093556040519116919082907f8be0079c531659141344cd1fd0a4f28419497f9722a3daafe3b4186f6b6457e090600090a35050565b600054610100900460ff1661170e5760405162461bcd60e51b815260206004820152602b60248201527f496e697469616c697a61626c653a20636f6e7472616374206973206e6f74206960448201526a6e697469616c697a696e6760a81b6064820152608401610753565b610e25838383611f7a565b600054610100900460ff16610b1c5760405162461bcd60e51b815260206004820152602b60248201527f496e697469616c697a61626c653a20636f6e7472616374206973206e6f74206960448201526a6e697469616c697a696e6760a81b6064820152608401610753565b600054610100900460ff166117ef5760405162461bcd60e51b815260206004820152602b60248201527f496e697469616c697a61626c653a20636f6e7472616374206973206e6f74206960448201526a6e697469616c697a696e6760a81b6064820152608401610753565b610b1c61219a565b6001600160a01b0384166118735760405162461bcd60e51b815260206004820152602260248201527f4552433737373a206275726e2066726f6d20746865207a65726f20616464726560448201527f73730000000000000000000000000000000000000000000000000000000000006064820152608401610753565b33611883818660008787876119e0565b6001600160a01b038516600090815260336020526040902054848110156119125760405162461bcd60e51b815260206004820152602360248201527f4552433737373a206275726e20616d6f756e7420657863656564732062616c6160448201527f6e636500000000000000000000000000000000000000000000000000000000006064820152608401610753565b6001600160a01b03861660009081526033602052604081208683039055603480548792906119419084906128d3565b92505081905550856001600160a01b0316826001600160a01b03167fa78a9be3a7b862d26933ad85fb11d80ef66b8f972d7cbba06621d583943a409887878760405161198f939291906128ea565b60405180910390a36040518581526000906001600160a01b038816907fddf252ad1be2c89b69c2b068fc378daa952ba7f163c4a11628f55a4df523b3ef9060200160405180910390a3505050505050565b60405163555ddc6560e11b81526001600160a01b03861660048201527f29ddb589b1fb5fc7cf394961c1adf5f8c6454761adf795e67fe149f658abe8956024820152600090731820a4b7618bde71dce8cdc73aab6c95905fad249063aabbb8ca90604401602060405180830381865afa158015611a61573d6000803e3d6000fd5b505050506040513d601f19601f82011682018060405250810190611a85919061291f565b90506001600160a01b03811615611439576040517f75ab97820000000000000000000000000000000000000000000000000000000081526001600160a01b038216906375ab978290611ae5908a908a908a908a908a908a9060040161293c565b600060405180830381600087803b158015611aff57600080fd5b505af1158015611b13573d6000803e3d6000fd5b5050505050505050505050565b6001600160a01b03851660009081526033602052604090205483811015611baf5760405162461bcd60e51b815260206004820152602760248201527f4552433737373a207472616e7366657220616d6f756e7420657863656564732060448201527f62616c616e6365000000000000000000000000000000000000000000000000006064820152608401610753565b6001600160a01b03808716600090815260336020526040808220878503905591871681529081208054869290611be69084906128a2565b92505081905550846001600160a01b0316866001600160a01b0316886001600160a01b03167f06b541ddaa720db2b10a4d0cdac39b8d360425fc073085fac19bc82614677987878787604051611c3e939291906128ea565b60405180910390a4846001600160a01b0316866001600160a01b03167fddf252ad1be2c89b69c2b068fc378daa952ba7f163c4a11628f55a4df523b3ef86604051611c8b91815260200190565b60405180910390a350505050505050565b60405163555ddc6560e11b81526001600160a01b03861660048201527fb281fc8c12954d22544db45de3159a39272895b169a852b314f9cc762e44c53b6024820152600090731820a4b7618bde71dce8cdc73aab6c95905fad249063aabbb8ca90604401602060405180830381865afa158015611d1d573d6000803e3d6000fd5b505050506040513d601f19601f82011682018060405250810190611d41919061291f565b90506001600160a01b03811615611dd6576040517e23de290000000000000000000000000000000000000000000000000000000081526001600160a01b038216906223de2990611d9f908b908b908b908b908b908b9060040161293c565b600060405180830381600087803b158015611db957600080fd5b505af1158015611dcd573d6000803e3d6000fd5b50505050611e80565b8115611e80576001600160a01b0386163b15611e805760405162461bcd60e51b815260206004820152604d60248201527f4552433737373a20746f6b656e20726563697069656e7420636f6e747261637460448201527f20686173206e6f20696d706c656d656e74657220666f7220455243373737546f60648201527f6b656e73526563697069656e7400000000000000000000000000000000000000608482015260a401610753565b5050505050505050565b6001600160a01b0381163b611f075760405162461bcd60e51b815260206004820152602d60248201527f455243313936373a206e657720696d706c656d656e746174696f6e206973206e60448201527f6f74206120636f6e7472616374000000000000000000000000000000000000006064820152608401610753565b7f360894a13ba1a3210667c828492db98dca3e2076cc3735a920a3ca505d382bbc805473ffffffffffffffffffffffffffffffffffffffff19166001600160a01b0392909216919091179055565b611f5e8361220e565b600082511180611f6b5750805b15610e2557611127838361224e565b600054610100900460ff16611fe55760405162461bcd60e51b815260206004820152602b60248201527f496e697469616c697a61626c653a20636f6e7472616374206973206e6f74206960448201526a6e697469616c697a696e6760a81b6064820152608401610753565b6035611ff184826129e3565b506036611ffe83826129e3565b508051612012906037906020840190612392565b5060005b815181101561207b5760016038600084848151811061203757612037612aa3565b6020908102919091018101516001600160a01b03168252810191909152604001600020805460ff19169115159190911790558061207381612ab9565b915050612016565b506040516329965a1d60e01b815230600482018190527fac7fbab5f54a3ca8194167523c6753bfeb96a445279294b6125b68cce217705460248301526044820152731820a4b7618bde71dce8cdc73aab6c95905fad24906329965a1d90606401600060405180830381600087803b1580156120f557600080fd5b505af1158015612109573d6000803e3d6000fd5b50506040516329965a1d60e01b815230600482018190527faea199e31a596269b42cdafd93407f14436db6e4cad65417994c2eb37381e05a60248301526044820152731820a4b7618bde71dce8cdc73aab6c95905fad2492506329965a1d9150606401600060405180830381600087803b15801561218657600080fd5b505af1158015611439573d6000803e3d6000fd5b600054610100900460ff166122055760405162461bcd60e51b815260206004820152602b60248201527f496e697469616c697a61626c653a20636f6e7472616374206973206e6f74206960448201526a6e697469616c697a696e6760a81b6064820152608401610753565b610b1c33611644565b61221781611e8a565b6040516001600160a01b038216907fbc7cd75a20ee27fd9adebab32041f755214dbc6bffa90cc0225b39da2e5c2d3b90600090a250565b60606001600160a01b0383163b6122cd5760405162461bcd60e51b815260206004820152602660248201527f416464726573733a2064656c65676174652063616c6c20746f206e6f6e2d636f60448201527f6e747261637400000000000000000000000000000000000000000000000000006064820152608401610753565b600080846001600160a01b0316846040516122e89190612ad2565b600060405180830381855af49150503d8060008114612323576040519150601f19603f3d011682016040523d82523d6000602084013e612328565b606091505b50915091506123508282604051806060016040528060278152602001612aef60279139612359565b95945050505050565b606083156123685750816106c3565b8251156123785782518084602001fd5b8160405162461bcd60e51b815260040161075391906124be565b8280548282559060005260206000209081019282156123f4579160200282015b828111156123f4578251825473ffffffffffffffffffffffffffffffffffffffff19166001600160a01b039091161782556020909201916001909101906123b2565b50612400929150612404565b5090565b5b808211156124005760008155600101612405565b6020808252825182820181905260009190848201906040850190845b8181101561245a5783516001600160a01b031683529284019291840191600101612435565b50909695505050505050565b60005b83811015612481578181015183820152602001612469565b838111156111275750506000910152565b600081518084526124aa816020860160208601612466565b601f01601f19169290920160200192915050565b6020815260006106c36020830184612492565b6001600160a01b038116811461084757600080fd5b600080604083850312156124f957600080fd5b8235612504816124d1565b946020939093013593505050565b60008060006060848603121561252757600080fd5b8335612532816124d1565b92506020840135612542816124d1565b929592945050506040919091013590565b60006020828403121561256557600080fd5b81356106c3816124d1565b60006020828403121561258257600080fd5b5035919050565b634e487b7160e01b600052604160045260246000fd5b600082601f8301126125b057600080fd5b813567ffffffffffffffff808211156125cb576125cb612589565b604051601f8301601f19908116603f011681019082821181831017156125f3576125f3612589565b8160405283815286602085880101111561260c57600080fd5b836020870160208301376000602085830101528094505050505092915050565b6000806040838503121561263f57600080fd5b823561264a816124d1565b9150602083013567ffffffffffffffff81111561266657600080fd5b6126728582860161259f565b9150509250929050565b600080600080600060a0868803121561269457600080fd5b853561269f816124d1565b945060208601356126af816124d1565b935060408601359250606086013567ffffffffffffffff808211156126d357600080fd5b6126df89838a0161259f565b935060808801359150808211156126f557600080fd5b506127028882890161259f565b9150509295509295909350565b60008060006060848603121561272457600080fd5b833561272f816124d1565b925060208401359150604084013567ffffffffffffffff81111561275257600080fd5b61275e8682870161259f565b9150509250925092565b6000806040838503121561277b57600080fd5b8235612786816124d1565b91506020830135612796816124d1565b809150509250929050565b600080600080608085870312156127b757600080fd5b84356127c2816124d1565b935060208501359250604085013567ffffffffffffffff808211156127e657600080fd5b6127f28883890161259f565b9350606087013591508082111561280857600080fd5b506128158782880161259f565b91505092959194509250565b6000806040838503121561283457600080fd5b82359150602083013567ffffffffffffffff81111561266657600080fd5b600181811c9082168061286657607f821691505b60208210810361288657634e487b7160e01b600052602260045260246000fd5b50919050565b634e487b7160e01b600052601160045260246000fd5b600082198211156128b5576128b561288c565b500190565b6000602082840312156128cc57600080fd5b5051919050565b6000828210156128e5576128e561288c565b500390565b8381526060602082015260006129036060830185612492565b82810360408401526129158185612492565b9695505050505050565b60006020828403121561293157600080fd5b81516106c3816124d1565b60006001600160a01b038089168352808816602084015280871660408401525084606083015260c0608083015261297660c0830185612492565b82810360a08401526129888185612492565b9998505050505050505050565b601f821115610e2557600081815260208120601f850160051c810160208610156129bc5750805b601f850160051c820191505b818110156129db578281556001016129c8565b505050505050565b815167ffffffffffffffff8111156129fd576129fd612589565b612a1181612a0b8454612852565b84612995565b602080601f831160018114612a465760008415612a2e5750858301515b600019600386901b1c1916600185901b1785556129db565b600085815260208120601f198616915b82811015612a7557888601518255948401946001909101908401612a56565b5085821015612a935787850151600019600388901b60f8161c191681555b5050505050600190811b01905550565b634e487b7160e01b600052603260045260246000fd5b600060018201612acb57612acb61288c565b5060010190565b60008251612ae4818460208701612466565b919091019291505056fe416464726573733a206c6f772d6c6576656c2064656c65676174652063616c6c206661696c6564a26469706673582212207e38b5b7b4bf2de0aa9e293e61eb297afdc3802383b4401a217ae3bfc69447f664736f6c634300080f0033",
  "linkReferences": {},
  "deployedLinkReferences": {}
}