{
  "_format": "hh-sol-artifact-1",
  "contractName": "UP_CatnipVer02",
  "sourceName": "contracts/token/upgradeable/token/ERC777/UP_Catnip/UP_CatnipVer02.sol",
  "abi": [
    {
      "anonymous": false,
      "inputs": [
        {
          "indexed": false,
          "internalType": "address",
          "name": "previousAdmin",
          "type": "address"
        },
        {
          "indexed": false,
          "internalType": "address",
          "name": "newAdmin",
          "type": "address"
        }
      ],
      "name": "AdminChanged",
      "type": "event"
    },
    {
      "anonymous": false,
      "inputs": [
        {
          "indexed": true,
          "internalType": "address",
          "name": "owner",
          "type": "address"
        },
        {
          "indexed": true,
          "internalType": "address",
          "name": "spender",
          "type": "address"
        },
        {
          "indexed": false,
          "internalType": "uint256",
          "name": "value",
          "type": "uint256"
        }
      ],
      "name": "Approval",
      "type": "event"
    },
    {
      "anonymous": false,
      "inputs": [
        {
          "indexed": true,
          "internalType": "address",
          "name": "operator",
          "type": "address"
        },
        {
          "indexed": true,
          "internalType": "address",
          "name": "tokenHolder",
          "type": "address"
        }
      ],
      "name": "AuthorizedOperator",
      "type": "event"
    },
    {
      "anonymous": false,
      "inputs": [
        {
          "indexed": true,
          "internalType": "address",
          "name": "beacon",
          "type": "address"
        }
      ],
      "name": "BeaconUpgraded",
      "type": "event"
    },
    {
      "anonymous": false,
      "inputs": [
        {
          "indexed": true,
          "internalType": "address",
          "name": "operator",
          "type": "address"
        },
        {
          "indexed": true,
          "internalType": "address",
          "name": "from",
          "type": "address"
        },
        {
          "indexed": false,
          "internalType": "uint256",
          "name": "amount",
          "type": "uint256"
        },
        {
          "indexed": false,
          "internalType": "bytes",
          "name": "data",
          "type": "bytes"
        },
        {
          "indexed": false,
          "internalType": "bytes",
          "name": "operatorData",
          "type": "bytes"
        }
      ],
      "name": "Burned",
      "type": "event"
    },
    {
      "anonymous": false,
      "inputs": [
        {
          "indexed": false,
          "internalType": "uint8",
          "name": "version",
          "type": "uint8"
        }
      ],
      "name": "Initialized",
      "type": "event"
    },
    {
      "anonymous": false,
      "inputs": [
        {
          "indexed": true,
          "internalType": "address",
          "name": "operator",
          "type": "address"
        },
        {
          "indexed": true,
          "internalType": "address",
          "name": "to",
          "type": "address"
        },
        {
          "indexed": false,
          "internalType": "uint256",
          "name": "amount",
          "type": "uint256"
        },
        {
          "indexed": false,
          "internalType": "bytes",
          "name": "data",
          "type": "bytes"
        },
        {
          "indexed": false,
          "internalType": "bytes",
          "name": "operatorData",
          "type": "bytes"
        }
      ],
      "name": "Minted",
      "type": "event"
    },
    {
      "anonymous": false,
      "inputs": [
        {
          "indexed": true,
          "internalType": "address",
          "name": "previousOwner",
          "type": "address"
        },
        {
          "indexed": true,
          "internalType": "address",
          "name": "newOwner",
          "type": "address"
        }
      ],
      "name": "OwnershipTransferred",
      "type": "event"
    },
    {
      "anonymous": false,
      "inputs": [
        {
          "indexed": false,
          "internalType": "uint256",
          "name": "_releaseTime",
          "type": "uint256"
        }
      ],
      "name": "ReleaseTime",
      "type": "event"
    },
    {
      "anonymous": false,
      "inputs": [
        {
          "indexed": true,
          "internalType": "address",
          "name": "operator",
          "type": "address"
        },
        {
          "indexed": true,
          "internalType": "address",
          "name": "tokenHolder",
          "type": "address"
        }
      ],
      "name": "RevokedOperator",
      "type": "event"
    },
    {
      "anonymous": false,
      "inputs": [
        {
          "indexed": true,
          "internalType": "address",
          "name": "operator",
          "type": "address"
        },
        {
          "indexed": true,
          "internalType": "address",
          "name": "from",
          "type": "address"
        },
        {
          "indexed": true,
          "internalType": "address",
          "name": "to",
          "type": "address"
        },
        {
          "indexed": false,
          "internalType": "uint256",
          "name": "amount",
          "type": "uint256"
        },
        {
          "indexed": false,
          "internalType": "bytes",
          "name": "data",
          "type": "bytes"
        },
        {
          "indexed": false,
          "internalType": "bytes",
          "name": "operatorData",
          "type": "bytes"
        }
      ],
      "name": "Sent",
      "type": "event"
    },
    {
      "anonymous": false,
      "inputs": [
        {
          "indexed": false,
          "internalType": "address",
          "name": "staker",
          "type": "address"
        },
        {
          "indexed": false,
          "internalType": "uint256",
          "name": "stakeAmount",
          "type": "uint256"
        }
      ],
      "name": "Stake",
      "type": "event"
    },
    {
      "anonymous": false,
      "inputs": [
        {
          "indexed": false,
          "internalType": "address",
          "name": "operator",
          "type": "address"
        },
        {
          "indexed": false,
          "internalType": "address",
          "name": "from",
          "type": "address"
        },
        {
          "indexed": false,
          "internalType": "address",
          "name": "to",
          "type": "address"
        },
        {
          "indexed": false,
          "internalType": "uint256",
          "name": "amount",
          "type": "uint256"
        },
        {
          "indexed": false,
          "internalType": "bytes",
          "name": "userData",
          "type": "bytes"
        },
        {
          "indexed": false,
          "internalType": "bytes",
          "name": "operatorData",
          "type": "bytes"
        }
      ],
      "name": "StakedTokenReceived",
      "type": "event"
    },
    {
      "anonymous": false,
      "inputs": [
        {
          "indexed": true,
          "internalType": "address",
          "name": "from",
          "type": "address"
        },
        {
          "indexed": true,
          "internalType": "address",
          "name": "to",
          "type": "address"
        },
        {
          "indexed": false,
          "internalType": "uint256",
          "name": "value",
          "type": "uint256"
        }
      ],
      "name": "Transfer",
      "type": "event"
    },
    {
      "anonymous": false,
      "inputs": [
        {
          "indexed": false,
          "internalType": "address",
          "name": "unStaker",
          "type": "address"
        },
        {
          "indexed": false,
          "internalType": "uint256",
          "name": "unStakeAmount",
          "type": "uint256"
        }
      ],
      "name": "UnStake",
      "type": "event"
    },
    {
      "anonymous": false,
      "inputs": [
        {
          "indexed": true,
          "internalType": "address",
          "name": "implementation",
          "type": "address"
        }
      ],
      "name": "Upgraded",
      "type": "event"
    },
    {
      "inputs": [
        {
          "internalType": "address",
          "name": "holder",
          "type": "address"
        },
        {
          "internalType": "address",
          "name": "spender",
          "type": "address"
        }
      ],
      "name": "allowance",
      "outputs": [
        {
          "internalType": "uint256",
          "name": "",
          "type": "uint256"
        }
      ],
      "stateMutability": "view",
      "type": "function"
    },
    {
      "inputs": [
        {
          "internalType": "address",
          "name": "spender",
          "type": "address"
        },
        {
          "internalType": "uint256",
          "name": "value",
          "type": "uint256"
        }
      ],
      "name": "approve",
      "outputs": [
        {
          "internalType": "bool",
          "name": "",
          "type": "bool"
        }
      ],
      "stateMutability": "nonpayable",
      "type": "function"
    },
    {
      "inputs": [
        {
          "internalType": "address",
          "name": "operator",
          "type": "address"
        }
      ],
      "name": "authorizeOperator",
      "outputs": [],
      "stateMutability": "nonpayable",
      "type": "function"
    },
    {
      "inputs": [
        {
          "internalType": "address",
          "name": "tokenHolder",
          "type": "address"
        }
      ],
      "name": "balanceOf",
      "outputs": [
        {
          "internalType": "uint256",
          "name": "",
          "type": "uint256"
        }
      ],
      "stateMutability": "view",
      "type": "function"
    },
    {
      "inputs": [
        {
          "internalType": "address",
          "name": "",
          "type": "address"
        }
      ],
      "name": "beneficiaries",
      "outputs": [
        {
          "internalType": "uint256",
          "name": "",
          "type": "uint256"
        }
      ],
      "stateMutability": "view",
      "type": "function"
    },
    {
      "inputs": [
        {
          "internalType": "uint256",
          "name": "amount",
          "type": "uint256"
        },
        {
          "internalType": "bytes",
          "name": "data",
          "type": "bytes"
        }
      ],
      "name": "burn",
      "outputs": [],
      "stateMutability": "nonpayable",
      "type": "function"
    },
    {
      "inputs": [],
      "name": "catnipVersion",
      "outputs": [
        {
          "internalType": "uint256",
          "name": "",
          "type": "uint256"
        }
      ],
      "stateMutability": "pure",
      "type": "function"
    },
    {
      "inputs": [],
      "name": "decimals",
      "outputs": [
        {
          "internalType": "uint8",
          "name": "",
          "type": "uint8"
        }
      ],
      "stateMutability": "pure",
      "type": "function"
    },
    {
      "inputs": [],
      "name": "defaultOperators",
      "outputs": [
        {
          "internalType": "address[]",
          "name": "",
          "type": "address[]"
        }
      ],
      "stateMutability": "view",
      "type": "function"
    },
    {
      "inputs": [],
      "name": "granularity",
      "outputs": [
        {
          "internalType": "uint256",
          "name": "",
          "type": "uint256"
        }
      ],
      "stateMutability": "view",
      "type": "function"
    },
    {
      "inputs": [],
      "name": "initialize",
      "outputs": [],
      "stateMutability": "nonpayable",
      "type": "function"
    },
    {
      "inputs": [
        {
          "internalType": "address",
          "name": "operator",
          "type": "address"
        },
        {
          "internalType": "address",
          "name": "tokenHolder",
          "type": "address"
        }
      ],
      "name": "isOperatorFor",
      "outputs": [
        {
          "internalType": "bool",
          "name": "",
          "type": "bool"
        }
      ],
      "stateMutability": "view",
      "type": "function"
    },
    {
      "inputs": [
        {
          "internalType": "address",
          "name": "account",
          "type": "address"
        },
        {
          "internalType": "uint256",
          "name": "amount",
          "type": "uint256"
        },
        {
          "internalType": "bytes",
          "name": "userData",
          "type": "bytes"
        },
        {
          "internalType": "bytes",
          "name": "operatorData",
          "type": "bytes"
        }
      ],
      "name": "mint",
      "outputs": [],
      "stateMutability": "nonpayable",
      "type": "function"
    },
    {
      "inputs": [],
      "name": "name",
      "outputs": [
        {
          "internalType": "string",
          "name": "",
          "type": "string"
        }
      ],
      "stateMutability": "view",
      "type": "function"
    },
    {
      "inputs": [
        {
          "internalType": "address",
          "name": "account",
          "type": "address"
        },
        {
          "internalType": "uint256",
          "name": "amount",
          "type": "uint256"
        },
        {
          "internalType": "bytes",
          "name": "data",
          "type": "bytes"
        },
        {
          "internalType": "bytes",
          "name": "operatorData",
          "type": "bytes"
        }
      ],
      "name": "operatorBurn",
      "outputs": [],
      "stateMutability": "nonpayable",
      "type": "function"
    },
    {
      "inputs": [
        {
          "internalType": "address",
          "name": "sender",
          "type": "address"
        },
        {
          "internalType": "address",
          "name": "recipient",
          "type": "address"
        },
        {
          "internalType": "uint256",
          "name": "amount",
          "type": "uint256"
        },
        {
          "internalType": "bytes",
          "name": "data",
          "type": "bytes"
        },
        {
          "internalType": "bytes",
          "name": "operatorData",
          "type": "bytes"
        }
      ],
      "name": "operatorSend",
      "outputs": [],
      "stateMutability": "nonpayable",
      "type": "function"
    },
    {
      "inputs": [],
      "name": "owner",
      "outputs": [
        {
          "internalType": "address",
          "name": "",
          "type": "address"
        }
      ],
      "stateMutability": "view",
      "type": "function"
    },
    {
      "inputs": [],
      "name": "proxiableUUID",
      "outputs": [
        {
          "internalType": "bytes32",
          "name": "",
          "type": "bytes32"
        }
      ],
      "stateMutability": "view",
      "type": "function"
    },
    {
      "inputs": [],
      "name": "releaseTime",
      "outputs": [
        {
          "internalType": "uint256",
          "name": "",
          "type": "uint256"
        }
      ],
      "stateMutability": "view",
      "type": "function"
    },
    {
      "inputs": [],
      "name": "renounceOwnership",
      "outputs": [],
      "stateMutability": "nonpayable",
      "type": "function"
    },
    {
      "inputs": [
        {
          "internalType": "address",
          "name": "operator",
          "type": "address"
        }
      ],
      "name": "revokeOperator",
      "outputs": [],
      "stateMutability": "nonpayable",
      "type": "function"
    },
    {
      "inputs": [
        {
          "internalType": "address",
          "name": "recipient",
          "type": "address"
        },
        {
          "internalType": "uint256",
          "name": "amount",
          "type": "uint256"
        },
        {
          "internalType": "bytes",
          "name": "data",
          "type": "bytes"
        }
      ],
      "name": "send",
      "outputs": [],
      "stateMutability": "nonpayable",
      "type": "function"
    },
    {
      "inputs": [
        {
          "internalType": "uint256",
          "name": "_amount",
          "type": "uint256"
        }
      ],
      "name": "stake",
      "outputs": [],
      "stateMutability": "nonpayable",
      "type": "function"
    },
    {
      "inputs": [],
      "name": "supplyLimit",
      "outputs": [
        {
          "internalType": "uint256",
          "name": "",
          "type": "uint256"
        }
      ],
      "stateMutability": "view",
      "type": "function"
    },
    {
      "inputs": [],
      "name": "symbol",
      "outputs": [
        {
          "internalType": "string",
          "name": "",
          "type": "string"
        }
      ],
      "stateMutability": "view",
      "type": "function"
    },
    {
      "inputs": [
        {
          "internalType": "address",
          "name": "operator",
          "type": "address"
        },
        {
          "internalType": "address",
          "name": "from",
          "type": "address"
        },
        {
          "internalType": "address",
          "name": "to",
          "type": "address"
        },
        {
          "internalType": "uint256",
          "name": "amount",
          "type": "uint256"
        },
        {
          "internalType": "bytes",
          "name": "userData",
          "type": "bytes"
        },
        {
          "internalType": "bytes",
          "name": "operatorData",
          "type": "bytes"
        }
      ],
      "name": "tokensReceived",
      "outputs": [],
      "stateMutability": "nonpayable",
      "type": "function"
    },
    {
      "inputs": [],
      "name": "totalSupply",
      "outputs": [
        {
          "internalType": "uint256",
          "name": "",
          "type": "uint256"
        }
      ],
      "stateMutability": "view",
      "type": "function"
    },
    {
      "inputs": [
        {
          "internalType": "address",
          "name": "recipient",
          "type": "address"
        },
        {
          "internalType": "uint256",
          "name": "amount",
          "type": "uint256"
        }
      ],
      "name": "transfer",
      "outputs": [
        {
          "internalType": "bool",
          "name": "",
          "type": "bool"
        }
      ],
      "stateMutability": "nonpayable",
      "type": "function"
    },
    {
      "inputs": [
        {
          "internalType": "address",
          "name": "holder",
          "type": "address"
        },
        {
          "internalType": "address",
          "name": "recipient",
          "type": "address"
        },
        {
          "internalType": "uint256",
          "name": "amount",
          "type": "uint256"
        }
      ],
      "name": "transferFrom",
      "outputs": [
        {
          "internalType": "bool",
          "name": "",
          "type": "bool"
        }
      ],
      "stateMutability": "nonpayable",
      "type": "function"
    },
    {
      "inputs": [
        {
          "internalType": "address",
          "name": "newOwner",
          "type": "address"
        }
      ],
      "name": "transferOwnership",
      "outputs": [],
      "stateMutability": "nonpayable",
      "type": "function"
    },
    {
      "inputs": [],
      "name": "unStake",
      "outputs": [],
      "stateMutability": "nonpayable",
      "type": "function"
    },
    {
      "inputs": [
        {
          "internalType": "address",
          "name": "newImplementation",
          "type": "address"
        }
      ],
      "name": "upgradeTo",
      "outputs": [],
      "stateMutability": "nonpayable",
      "type": "function"
    },
    {
      "inputs": [
        {
          "internalType": "address",
          "name": "newImplementation",
          "type": "address"
        },
        {
          "internalType": "bytes",
          "name": "data",
          "type": "bytes"
        }
      ],
      "name": "upgradeToAndCall",
      "outputs": [],
      "stateMutability": "payable",
      "type": "function"
    }
  ],
  "bytecode": "0x60a0604052306080523480156200001557600080fd5b506200002062000026565b620000e8565b600054610100900460ff1615620000935760405162461bcd60e51b815260206004820152602760248201527f496e697469616c697a61626c653a20636f6e747261637420697320696e697469604482015266616c697a696e6760c81b606482015260840160405180910390fd5b60005460ff9081161015620000e6576000805460ff191660ff9081179091556040519081527f7f26b83ff96e1f2b6a682f133852f6798a09c465da95921460cefb38474024989060200160405180910390a15b565b60805161341962000120600039600081816107c30152818161084d01528181610943015281816109c80152610ab201526134196000f3fe6080604052600436106101fd5760003560e01c806373cf575a1161011d578063b91d4001116100b0578063f2fde38b1161007f578063fad8b32a11610064578063fad8b32a146105bd578063fc673c4f146105dd578063fe9d9303146105fd57600080fd5b8063f2fde38b14610589578063f39d6fa2146105a957600080fd5b8063b91d4001146104ed578063d95b637114610503578063dcdc7dd014610523578063dd62ed3e1461054357600080fd5b806395d89b41116100ec57806395d89b41146104785780639bd9bbc61461048d578063a694fc3a146104ad578063a9059cbb146104cd57600080fd5b806373cf575a146104065780638129fc1c1461041b5780638da5cb5b14610430578063959b8c3f1461045857600080fd5b8063313ce56711610195578063556f0dc711610164578063556f0dc71461038757806362ad1b831461039b57806370a08231146103bb578063715018a6146103f157600080fd5b8063313ce567146103235780633659cfe61461033f5780634f1ef2861461035f57806352d1902d1461037257600080fd5b8063095ea7b3116101d1578063095ea7b3146102a857806318160ddd146102d857806319d1997a146102ed57806323b872dd1461030357600080fd5b806223de2914610202578063015677391461022457806306e485381461026457806306fdde0314610286575b600080fd5b34801561020e57600080fd5b5061022261021d366004612ab3565b61061d565b005b34801561023057600080fd5b5061025161023f366004612b64565b60fd6020526000908152604090205481565b6040519081526020015b60405180910390f35b34801561027057600080fd5b5061027961066c565b60405161025b9190612b81565b34801561029257600080fd5b5061029b6106ce565b60405161025b9190612c26565b3480156102b457600080fd5b506102c86102c3366004612c39565b610757565b604051901515815260200161025b565b3480156102e457600080fd5b50603454610251565b3480156102f957600080fd5b5061025160fb5481565b34801561030f57600080fd5b506102c861031e366004612c65565b610771565b34801561032f57600080fd5b506040516012815260200161025b565b34801561034b57600080fd5b5061022261035a366004612b64565b6107b9565b61022261036d366004612d49565b610939565b34801561037e57600080fd5b50610251610aa5565b34801561039357600080fd5b506001610251565b3480156103a757600080fd5b506102226103b6366004612d99565b610b6a565b3480156103c757600080fd5b506102516103d6366004612b64565b6001600160a01b031660009081526033602052604090205490565b3480156103fd57600080fd5b50610222610beb565b34801561041257600080fd5b50610222610bff565b34801561042757600080fd5b50610222610d97565b34801561043c57600080fd5b5060c9546040516001600160a01b03909116815260200161025b565b34801561046457600080fd5b50610222610473366004612b64565b610f44565b34801561048457600080fd5b5061029b61107a565b34801561049957600080fd5b506102226104a8366004612e2c565b611089565b3480156104b957600080fd5b506102226104c8366004612e85565b6110ac565b3480156104d957600080fd5b506102c86104e8366004612c39565b61125a565b3480156104f957600080fd5b5061025160fc5481565b34801561050f57600080fd5b506102c861051e366004612e9e565b611292565b34801561052f57600080fd5b5061022261053e366004612ed7565b611333565b34801561054f57600080fd5b5061025161055e366004612e9e565b6001600160a01b039182166000908152603b6020908152604080832093909416825291909152205490565b34801561059557600080fd5b506102226105a4366004612b64565b611396565b3480156105b557600080fd5b506002610251565b3480156105c957600080fd5b506102226105d8366004612b64565b61140c565b3480156105e957600080fd5b506102226105f8366004612ed7565b611543565b34801561060957600080fd5b50610222610618366004612f57565b6115ba565b7f7c8d9f2d3f21cafb746a6eca432265064d4df0915ba08e9612d08b9de6b79dd7888888888888888860405161065a989796959493929190612fb1565b60405180910390a15050505050505050565b606060378054806020026020016040519081016040528092919081815260200182805480156106c457602002820191906000526020600020905b81546001600160a01b031681526001909101906020018083116106a6575b5050505050905090565b6060603580546106dd9061300e565b80601f01602080910402602001604051908101604052809291908181526020018280546107099061300e565b80156106c45780601f1061072b576101008083540402835291602001916106c4565b820191906000526020600020905b81548152906001019060200180831161073957509395945050505050565b6000336107658185856115d5565b60019150505b92915050565b60003361077f85828561172e565b6107ac858585604051806020016040528060008152506040518060200160405280600081525060006117ba565b60019150505b9392505050565b6001600160a01b037f000000000000000000000000000000000000000000000000000000000000000016300361084b5760405162461bcd60e51b815260206004820152602c60248201527f46756e6374696f6e206d7573742062652063616c6c6564207468726f7567682060448201526b19195b1959d85d1958d85b1b60a21b60648201526084015b60405180910390fd5b7f00000000000000000000000000000000000000000000000000000000000000006001600160a01b03166108a67f360894a13ba1a3210667c828492db98dca3e2076cc3735a920a3ca505d382bbc546001600160a01b031690565b6001600160a01b0316146109115760405162461bcd60e51b815260206004820152602c60248201527f46756e6374696f6e206d7573742062652063616c6c6564207468726f7567682060448201526b6163746976652070726f787960a01b6064820152608401610842565b61091a816118cf565b60408051600080825260208201909252610936918391906118d7565b50565b6001600160a01b037f00000000000000000000000000000000000000000000000000000000000000001630036109c65760405162461bcd60e51b815260206004820152602c60248201527f46756e6374696f6e206d7573742062652063616c6c6564207468726f7567682060448201526b19195b1959d85d1958d85b1b60a21b6064820152608401610842565b7f00000000000000000000000000000000000000000000000000000000000000006001600160a01b0316610a217f360894a13ba1a3210667c828492db98dca3e2076cc3735a920a3ca505d382bbc546001600160a01b031690565b6001600160a01b031614610a8c5760405162461bcd60e51b815260206004820152602c60248201527f46756e6374696f6e206d7573742062652063616c6c6564207468726f7567682060448201526b6163746976652070726f787960a01b6064820152608401610842565b610a95826118cf565b610aa1828260016118d7565b5050565b6000306001600160a01b037f00000000000000000000000000000000000000000000000000000000000000001614610b455760405162461bcd60e51b815260206004820152603860248201527f555550535570677261646561626c653a206d757374206e6f742062652063616c60448201527f6c6564207468726f7567682064656c656761746563616c6c00000000000000006064820152608401610842565b507f360894a13ba1a3210667c828492db98dca3e2076cc3735a920a3ca505d382bbc90565b610b743386611292565b610bd55760405162461bcd60e51b815260206004820152602c60248201527f4552433737373a2063616c6c6572206973206e6f7420616e206f70657261746f60448201526b39103337b9103437b63232b960a11b6064820152608401610842565b610be4858585858560016117ba565b5050505050565b610bf3611a77565b610bfd6000611ad1565b565b60fc5430904211610c525760405162461bcd60e51b815260206004820152601760248201527f5374616b696e67206861736e27742066696e69736865640000000000000000006044820152606401610842565b33600081815260fd6020526040808220829055516370a0823160e01b81526004810192909252906001600160a01b038316906370a0823190602401602060405180830381865afa158015610caa573d6000803e3d6000fd5b505050506040513d601f19601f82011682018060405250810190610cce9190613048565b6040517f9bd9bbc60000000000000000000000000000000000000000000000000000000081523360048201526024810182905260606044820152600060648201529091506001600160a01b03831690639bd9bbc690608401600060405180830381600087803b158015610d4057600080fd5b505af1158015610d54573d6000803e3d6000fd5b505060408051338152602081018590527fb24546d975e2628748efc9aced80665e0fad66272033e5c0ea25fd3afac9979593500190505b60405180910390a15050565b600054610100900460ff1615808015610db75750600054600160ff909116105b80610dd15750303b158015610dd1575060005460ff166001145b610e435760405162461bcd60e51b815260206004820152602e60248201527f496e697469616c697a61626c653a20636f6e747261637420697320616c72656160448201527f647920696e697469616c697a65640000000000000000000000000000000000006064820152608401610842565b6000805460ff191660011790558015610e66576000805461ff0019166101001790555b604080518082018252600981527f55505f4361746e6970000000000000000000000000000000000000000000000060208083019190915282518084018452600281527f434e00000000000000000000000000000000000000000000000000000000000081830152835160008152918201909352610ee39290611b30565b610eeb611ba6565b610ef3611c11565b610efb611c84565b8015610936576000805461ff0019169055604051600181527f7f26b83ff96e1f2b6a682f133852f6798a09c465da95921460cefb3847402498906020015b60405180910390a150565b6001600160a01b0381163303610fc15760405162461bcd60e51b8152602060048201526024808201527f4552433737373a20617574686f72697a696e672073656c66206173206f70657260448201527f61746f72000000000000000000000000000000000000000000000000000000006064820152608401610842565b6001600160a01b03811660009081526038602052604090205460ff161561101257336000908152603a602090815260408083206001600160a01b03851684529091529020805460ff19169055611041565b3360009081526039602090815260408083206001600160a01b03851684529091529020805460ff191660011790555b60405133906001600160a01b038316907ff4caeb2d6ca8932a215a353d0703c326ec2d81fc68170f320eb2ab49e9df61f990600090a350565b6060603680546106dd9061300e565b6110a7338484846040518060200160405280600081525060016117ba565b505050565b6040516370a0823160e01b81523360048201523090829082906370a0823190602401602060405180830381865afa1580156110eb573d6000803e3d6000fd5b505050506040513d601f19601f8201168201806040525081019061110f9190613048565b1161115c5760405162461bcd60e51b815260206004820152601c60248201527f53686f756c642068617665206361746e69707320746f207374616b65000000006044820152606401610842565b611164611ca3565b33600090815260fd602052604081208054849290611183908490613077565b90915550506040517f62ad1b830000000000000000000000000000000000000000000000000000000081523360048201523060248201526044810183905260a06064820152600060a4820181905260c0608483015260c48201526001600160a01b038216906362ad1b839060e401600060405180830381600087803b15801561120b57600080fd5b505af115801561121f573d6000803e3d6000fd5b505060408051338152602081018690527febedb8b3c678666e7f36970bc8f57abf6d8fa2e828c0da91ea5b75bf68ed101a9350019050610d8b565b6000611289338484604051806020016040528060008152506040518060200160405280600081525060006117ba565b50600192915050565b6000816001600160a01b0316836001600160a01b031614806112fd57506001600160a01b03831660009081526038602052604090205460ff1680156112fd57506001600160a01b038083166000908152603a602090815260408083209387168352929052205460ff16155b806107b257506001600160a01b0380831660009081526039602090815260408083209387168352929052205460ff169392505050565b60fb5483106113845760405162461bcd60e51b815260206004820152601360248201527f4578636565646564206d617820737570706c79000000000000000000000000006044820152606401610842565b61139084848484611ce7565b50505050565b61139e611a77565b6001600160a01b0381166114035760405162461bcd60e51b815260206004820152602660248201527f4f776e61626c653a206e6577206f776e657220697320746865207a65726f206160448201526564647265737360d01b6064820152608401610842565b61093681611ad1565b336001600160a01b0382160361148a5760405162461bcd60e51b815260206004820152602160248201527f4552433737373a207265766f6b696e672073656c66206173206f70657261746f60448201527f72000000000000000000000000000000000000000000000000000000000000006064820152608401610842565b6001600160a01b03811660009081526038602052604090205460ff16156114de57336000908152603a602090815260408083206001600160a01b03851684529091529020805460ff1916600117905561150a565b3360009081526039602090815260408083206001600160a01b03851684529091529020805460ff191690555b60405133906001600160a01b038316907f50546e66e5f44d728365dc3908c63bc5cfeeab470722c1677e3073a6ac294aa190600090a350565b61154d3385611292565b6115ae5760405162461bcd60e51b815260206004820152602c60248201527f4552433737373a2063616c6c6572206973206e6f7420616e206f70657261746f60448201526b39103337b9103437b63232b960a11b6064820152608401610842565b61139084848484611cf5565b610aa133838360405180602001604052806000815250611cf5565b6001600160a01b0383166116515760405162461bcd60e51b815260206004820152602560248201527f4552433737373a20617070726f76652066726f6d20746865207a65726f20616460448201527f64726573730000000000000000000000000000000000000000000000000000006064820152608401610842565b6001600160a01b0382166116cd5760405162461bcd60e51b815260206004820152602360248201527f4552433737373a20617070726f766520746f20746865207a65726f206164647260448201527f65737300000000000000000000000000000000000000000000000000000000006064820152608401610842565b6001600160a01b038381166000818152603b602090815260408083209487168084529482529182902085905590518481527f8c5be1e5ebec7d5bd14f71427d1e84f3dd0314c0f7b2291e5b200ac8c7c3b925910160405180910390a3505050565b6001600160a01b038381166000908152603b6020908152604080832093861683529290522054600019811461139057818110156117ad5760405162461bcd60e51b815260206004820152601e60248201527f4552433737373a20696e73756666696369656e7420616c6c6f77616e636500006044820152606401610842565b61139084848484036115d5565b6001600160a01b03861661181f5760405162461bcd60e51b815260206004820152602660248201527f4552433737373a207472616e736665722066726f6d20746865207a65726f206160448201526564647265737360d01b6064820152608401610842565b6001600160a01b03851661189a5760405162461bcd60e51b8152602060048201526024808201527f4552433737373a207472616e7366657220746f20746865207a65726f2061646460448201527f72657373000000000000000000000000000000000000000000000000000000006064820152608401610842565b336118a9818888888888611edf565b6118b781888888888861201f565b6118c68188888888888861219b565b50505050505050565b610936611a77565b7f4910fdfa16fed3260ed0e7147f7cc6da11a60208b5b9406d12a635614ffd91435460ff161561190a576110a783612389565b826001600160a01b03166352d1902d6040518163ffffffff1660e01b8152600401602060405180830381865afa925050508015611964575060408051601f3d908101601f1916820190925261196191810190613048565b60015b6119d65760405162461bcd60e51b815260206004820152602e60248201527f45524331393637557067726164653a206e657720696d706c656d656e7461746960448201527f6f6e206973206e6f7420555550530000000000000000000000000000000000006064820152608401610842565b7f360894a13ba1a3210667c828492db98dca3e2076cc3735a920a3ca505d382bbc8114611a6b5760405162461bcd60e51b815260206004820152602960248201527f45524331393637557067726164653a20756e737570706f727465642070726f7860448201527f6961626c655555494400000000000000000000000000000000000000000000006064820152608401610842565b506110a7838383612454565b60c9546001600160a01b03163314610bfd5760405162461bcd60e51b815260206004820181905260248201527f4f776e61626c653a2063616c6c6572206973206e6f7420746865206f776e65726044820152606401610842565b60c980546001600160a01b0383811673ffffffffffffffffffffffffffffffffffffffff19831681179093556040519116919082907f8be0079c531659141344cd1fd0a4f28419497f9722a3daafe3b4186f6b6457e090600090a35050565b600054610100900460ff16611b9b5760405162461bcd60e51b815260206004820152602b60248201527f496e697469616c697a61626c653a20636f6e7472616374206973206e6f74206960448201526a6e697469616c697a696e6760a81b6064820152608401610842565b6110a7838383612479565b600054610100900460ff16610bfd5760405162461bcd60e51b815260206004820152602b60248201527f496e697469616c697a61626c653a20636f6e7472616374206973206e6f74206960448201526a6e697469616c697a696e6760a81b6064820152608401610842565b600054610100900460ff16611c7c5760405162461bcd60e51b815260206004820152602b60248201527f496e697469616c697a61626c653a20636f6e7472616374206973206e6f74206960448201526a6e697469616c697a696e6760a81b6064820152608401610842565b610bfd612699565b611c906012600a613173565b611c9e90633b9aca00613182565b60fb55565b6301baf800611cb28142613077565b60fc8190556040519081527ffdadcafe80125e03c996b4177dd52df5498ef2842deba41eb59484c19f7ba97b90602001610f39565b61139084848484600161270d565b6001600160a01b038416611d715760405162461bcd60e51b815260206004820152602260248201527f4552433737373a206275726e2066726f6d20746865207a65726f20616464726560448201527f73730000000000000000000000000000000000000000000000000000000000006064820152608401610842565b33611d8181866000878787611edf565b6001600160a01b03851660009081526033602052604090205484811015611e105760405162461bcd60e51b815260206004820152602360248201527f4552433737373a206275726e20616d6f756e7420657863656564732062616c6160448201527f6e636500000000000000000000000000000000000000000000000000000000006064820152608401610842565b6001600160a01b0386166000908152603360205260408120868303905560348054879290611e3f9084906131a1565b92505081905550856001600160a01b0316826001600160a01b03167fa78a9be3a7b862d26933ad85fb11d80ef66b8f972d7cbba06621d583943a4098878787604051611e8d939291906131b8565b60405180910390a36040518581526000906001600160a01b038816907fddf252ad1be2c89b69c2b068fc378daa952ba7f163c4a11628f55a4df523b3ef906020015b60405180910390a3505050505050565b60405163555ddc6560e11b81526001600160a01b03861660048201527f29ddb589b1fb5fc7cf394961c1adf5f8c6454761adf795e67fe149f658abe8956024820152600090731820a4b7618bde71dce8cdc73aab6c95905fad249063aabbb8ca90604401602060405180830381865afa158015611f60573d6000803e3d6000fd5b505050506040513d601f19601f82011682018060405250810190611f8491906131ed565b90506001600160a01b038116156118c6576040517f75ab97820000000000000000000000000000000000000000000000000000000081526001600160a01b038216906375ab978290611fe4908a908a908a908a908a908a9060040161320a565b600060405180830381600087803b158015611ffe57600080fd5b505af1158015612012573d6000803e3d6000fd5b5050505050505050505050565b6001600160a01b038516600090815260336020526040902054838110156120ae5760405162461bcd60e51b815260206004820152602760248201527f4552433737373a207472616e7366657220616d6f756e7420657863656564732060448201527f62616c616e6365000000000000000000000000000000000000000000000000006064820152608401610842565b6001600160a01b038087166000908152603360205260408082208785039055918716815290812080548692906120e5908490613077565b92505081905550846001600160a01b0316866001600160a01b0316886001600160a01b03167f06b541ddaa720db2b10a4d0cdac39b8d360425fc073085fac19bc8261467798787878760405161213d939291906131b8565b60405180910390a4846001600160a01b0316866001600160a01b03167fddf252ad1be2c89b69c2b068fc378daa952ba7f163c4a11628f55a4df523b3ef8660405161218a91815260200190565b60405180910390a350505050505050565b60405163555ddc6560e11b81526001600160a01b03861660048201527fb281fc8c12954d22544db45de3159a39272895b169a852b314f9cc762e44c53b6024820152600090731820a4b7618bde71dce8cdc73aab6c95905fad249063aabbb8ca90604401602060405180830381865afa15801561221c573d6000803e3d6000fd5b505050506040513d601f19601f8201168201806040525081019061224091906131ed565b90506001600160a01b038116156122d5576040517e23de290000000000000000000000000000000000000000000000000000000081526001600160a01b038216906223de299061229e908b908b908b908b908b908b9060040161320a565b600060405180830381600087803b1580156122b857600080fd5b505af11580156122cc573d6000803e3d6000fd5b5050505061237f565b811561237f576001600160a01b0386163b1561237f5760405162461bcd60e51b815260206004820152604d60248201527f4552433737373a20746f6b656e20726563697069656e7420636f6e747261637460448201527f20686173206e6f20696d706c656d656e74657220666f7220455243373737546f60648201527f6b656e73526563697069656e7400000000000000000000000000000000000000608482015260a401610842565b5050505050505050565b6001600160a01b0381163b6124065760405162461bcd60e51b815260206004820152602d60248201527f455243313936373a206e657720696d706c656d656e746174696f6e206973206e60448201527f6f74206120636f6e7472616374000000000000000000000000000000000000006064820152608401610842565b7f360894a13ba1a3210667c828492db98dca3e2076cc3735a920a3ca505d382bbc805473ffffffffffffffffffffffffffffffffffffffff19166001600160a01b0392909216919091179055565b61245d8361284a565b60008251118061246a5750805b156110a757611390838361288a565b600054610100900460ff166124e45760405162461bcd60e51b815260206004820152602b60248201527f496e697469616c697a61626c653a20636f6e7472616374206973206e6f74206960448201526a6e697469616c697a696e6760a81b6064820152608401610842565b60356124f084826132b1565b5060366124fd83826132b1565b5080516125119060379060208401906129ce565b5060005b815181101561257a5760016038600084848151811061253657612536613371565b6020908102919091018101516001600160a01b03168252810191909152604001600020805460ff19169115159190911790558061257281613387565b915050612515565b506040516329965a1d60e01b815230600482018190527fac7fbab5f54a3ca8194167523c6753bfeb96a445279294b6125b68cce217705460248301526044820152731820a4b7618bde71dce8cdc73aab6c95905fad24906329965a1d90606401600060405180830381600087803b1580156125f457600080fd5b505af1158015612608573d6000803e3d6000fd5b50506040516329965a1d60e01b815230600482018190527faea199e31a596269b42cdafd93407f14436db6e4cad65417994c2eb37381e05a60248301526044820152731820a4b7618bde71dce8cdc73aab6c95905fad2492506329965a1d9150606401600060405180830381600087803b15801561268557600080fd5b505af11580156118c6573d6000803e3d6000fd5b600054610100900460ff166127045760405162461bcd60e51b815260206004820152602b60248201527f496e697469616c697a61626c653a20636f6e7472616374206973206e6f74206960448201526a6e697469616c697a696e6760a81b6064820152608401610842565b610bfd33611ad1565b6001600160a01b0385166127635760405162461bcd60e51b815260206004820181905260248201527f4552433737373a206d696e7420746f20746865207a65726f20616464726573736044820152606401610842565b6000339050846034600082825461277a9190613077565b90915550506001600160a01b038616600090815260336020526040812080548792906127a7908490613077565b909155506127bd9050816000888888888861219b565b856001600160a01b0316816001600160a01b03167f2fe5be0146f74c5bce36c0b80911af6c7d86ff27e89d5cfa61fc681327954e5d878787604051612804939291906131b8565b60405180910390a36040518581526001600160a01b038716906000907fddf252ad1be2c89b69c2b068fc378daa952ba7f163c4a11628f55a4df523b3ef90602001611ecf565b61285381612389565b6040516001600160a01b038216907fbc7cd75a20ee27fd9adebab32041f755214dbc6bffa90cc0225b39da2e5c2d3b90600090a250565b60606001600160a01b0383163b6129095760405162461bcd60e51b815260206004820152602660248201527f416464726573733a2064656c65676174652063616c6c20746f206e6f6e2d636f60448201527f6e747261637400000000000000000000000000000000000000000000000000006064820152608401610842565b600080846001600160a01b03168460405161292491906133a0565b600060405180830381855af49150503d806000811461295f576040519150601f19603f3d011682016040523d82523d6000602084013e612964565b606091505b509150915061298c82826040518060600160405280602781526020016133bd60279139612995565b95945050505050565b606083156129a45750816107b2565b8251156129b45782518084602001fd5b8160405162461bcd60e51b81526004016108429190612c26565b828054828255906000526020600020908101928215612a30579160200282015b82811115612a30578251825473ffffffffffffffffffffffffffffffffffffffff19166001600160a01b039091161782556020909201916001909101906129ee565b50612a3c929150612a40565b5090565b5b80821115612a3c5760008155600101612a41565b6001600160a01b038116811461093657600080fd5b60008083601f840112612a7c57600080fd5b50813567ffffffffffffffff811115612a9457600080fd5b602083019150836020828501011115612aac57600080fd5b9250929050565b60008060008060008060008060c0898b031215612acf57600080fd5b8835612ada81612a55565b97506020890135612aea81612a55565b96506040890135612afa81612a55565b955060608901359450608089013567ffffffffffffffff80821115612b1e57600080fd5b612b2a8c838d01612a6a565b909650945060a08b0135915080821115612b4357600080fd5b50612b508b828c01612a6a565b999c989b5096995094979396929594505050565b600060208284031215612b7657600080fd5b81356107b281612a55565b6020808252825182820181905260009190848201906040850190845b81811015612bc25783516001600160a01b031683529284019291840191600101612b9d565b50909695505050505050565b60005b83811015612be9578181015183820152602001612bd1565b838111156113905750506000910152565b60008151808452612c12816020860160208601612bce565b601f01601f19169290920160200192915050565b6020815260006107b26020830184612bfa565b60008060408385031215612c4c57600080fd5b8235612c5781612a55565b946020939093013593505050565b600080600060608486031215612c7a57600080fd5b8335612c8581612a55565b92506020840135612c9581612a55565b929592945050506040919091013590565b634e487b7160e01b600052604160045260246000fd5b600082601f830112612ccd57600080fd5b813567ffffffffffffffff80821115612ce857612ce8612ca6565b604051601f8301601f19908116603f01168101908282118183101715612d1057612d10612ca6565b81604052838152866020858801011115612d2957600080fd5b836020870160208301376000602085830101528094505050505092915050565b60008060408385031215612d5c57600080fd5b8235612d6781612a55565b9150602083013567ffffffffffffffff811115612d8357600080fd5b612d8f85828601612cbc565b9150509250929050565b600080600080600060a08688031215612db157600080fd5b8535612dbc81612a55565b94506020860135612dcc81612a55565b935060408601359250606086013567ffffffffffffffff80821115612df057600080fd5b612dfc89838a01612cbc565b93506080880135915080821115612e1257600080fd5b50612e1f88828901612cbc565b9150509295509295909350565b600080600060608486031215612e4157600080fd5b8335612e4c81612a55565b925060208401359150604084013567ffffffffffffffff811115612e6f57600080fd5b612e7b86828701612cbc565b9150509250925092565b600060208284031215612e9757600080fd5b5035919050565b60008060408385031215612eb157600080fd5b8235612ebc81612a55565b91506020830135612ecc81612a55565b809150509250929050565b60008060008060808587031215612eed57600080fd5b8435612ef881612a55565b935060208501359250604085013567ffffffffffffffff80821115612f1c57600080fd5b612f2888838901612cbc565b93506060870135915080821115612f3e57600080fd5b50612f4b87828801612cbc565b91505092959194509250565b60008060408385031215612f6a57600080fd5b82359150602083013567ffffffffffffffff811115612d8357600080fd5b81835281816020850137506000828201602090810191909152601f909101601f19169091010190565b60006001600160a01b03808b168352808a16602084015280891660408401525086606083015260c06080830152612fec60c083018688612f88565b82810360a0840152612fff818587612f88565b9b9a5050505050505050505050565b600181811c9082168061302257607f821691505b60208210810361304257634e487b7160e01b600052602260045260246000fd5b50919050565b60006020828403121561305a57600080fd5b5051919050565b634e487b7160e01b600052601160045260246000fd5b6000821982111561308a5761308a613061565b500190565b600181815b808511156130ca5781600019048211156130b0576130b0613061565b808516156130bd57918102915b93841c9390800290613094565b509250929050565b6000826130e15750600161076b565b816130ee5750600061076b565b8160018114613104576002811461310e5761312a565b600191505061076b565b60ff84111561311f5761311f613061565b50506001821b61076b565b5060208310610133831016604e8410600b841016171561314d575081810a61076b565b613157838361308f565b806000190482111561316b5761316b613061565b029392505050565b60006107b260ff8416836130d2565b600081600019048311821515161561319c5761319c613061565b500290565b6000828210156131b3576131b3613061565b500390565b8381526060602082015260006131d16060830185612bfa565b82810360408401526131e38185612bfa565b9695505050505050565b6000602082840312156131ff57600080fd5b81516107b281612a55565b60006001600160a01b038089168352808816602084015280871660408401525084606083015260c0608083015261324460c0830185612bfa565b82810360a08401526132568185612bfa565b9998505050505050505050565b601f8211156110a757600081815260208120601f850160051c8101602086101561328a5750805b601f850160051c820191505b818110156132a957828155600101613296565b505050505050565b815167ffffffffffffffff8111156132cb576132cb612ca6565b6132df816132d9845461300e565b84613263565b602080601f83116001811461331457600084156132fc5750858301515b600019600386901b1c1916600185901b1785556132a9565b600085815260208120601f198616915b8281101561334357888601518255948401946001909101908401613324565b50858210156133615787850151600019600388901b60f8161c191681555b5050505050600190811b01905550565b634e487b7160e01b600052603260045260246000fd5b60006001820161339957613399613061565b5060010190565b600082516133b2818460208701612bce565b919091019291505056fe416464726573733a206c6f772d6c6576656c2064656c65676174652063616c6c206661696c6564a26469706673582212208f75d13fce948d2c3f4e55a55f9c969c1b814bb7847fca96ba8ba93c1a9a49c564736f6c634300080f0033",
  "linkReferences": {},
  "deployedLinkReferences": {}
}