{
  "_format": "hh-sol-artifact-1",
  "contractName": "UP_CatnipVer02",
  "sourceName": "contracts/token/upgradeable/token/ERC777/UP_Catnip/UP_CatnipVer02.sol",
  "abi": [
    {
      "anonymous": false,
      "inputs": [
        {
          "indexed": false,
          "internalType": "address",
          "name": "previousAdmin",
          "type": "address"
        },
        {
          "indexed": false,
          "internalType": "address",
          "name": "newAdmin",
          "type": "address"
        }
      ],
      "name": "AdminChanged",
      "type": "event"
    },
    {
      "anonymous": false,
      "inputs": [
        {
          "indexed": true,
          "internalType": "address",
          "name": "owner",
          "type": "address"
        },
        {
          "indexed": true,
          "internalType": "address",
          "name": "spender",
          "type": "address"
        },
        {
          "indexed": false,
          "internalType": "uint256",
          "name": "value",
          "type": "uint256"
        }
      ],
      "name": "Approval",
      "type": "event"
    },
    {
      "anonymous": false,
      "inputs": [
        {
          "indexed": true,
          "internalType": "address",
          "name": "operator",
          "type": "address"
        },
        {
          "indexed": true,
          "internalType": "address",
          "name": "tokenHolder",
          "type": "address"
        }
      ],
      "name": "AuthorizedOperator",
      "type": "event"
    },
    {
      "anonymous": false,
      "inputs": [
        {
          "indexed": true,
          "internalType": "address",
          "name": "beacon",
          "type": "address"
        }
      ],
      "name": "BeaconUpgraded",
      "type": "event"
    },
    {
      "anonymous": false,
      "inputs": [
        {
          "indexed": true,
          "internalType": "address",
          "name": "operator",
          "type": "address"
        },
        {
          "indexed": true,
          "internalType": "address",
          "name": "from",
          "type": "address"
        },
        {
          "indexed": false,
          "internalType": "uint256",
          "name": "amount",
          "type": "uint256"
        },
        {
          "indexed": false,
          "internalType": "bytes",
          "name": "data",
          "type": "bytes"
        },
        {
          "indexed": false,
          "internalType": "bytes",
          "name": "operatorData",
          "type": "bytes"
        }
      ],
      "name": "Burned",
      "type": "event"
    },
    {
      "anonymous": false,
      "inputs": [
        {
          "indexed": false,
          "internalType": "uint8",
          "name": "version",
          "type": "uint8"
        }
      ],
      "name": "Initialized",
      "type": "event"
    },
    {
      "anonymous": false,
      "inputs": [
        {
          "indexed": true,
          "internalType": "address",
          "name": "operator",
          "type": "address"
        },
        {
          "indexed": true,
          "internalType": "address",
          "name": "to",
          "type": "address"
        },
        {
          "indexed": false,
          "internalType": "uint256",
          "name": "amount",
          "type": "uint256"
        },
        {
          "indexed": false,
          "internalType": "bytes",
          "name": "data",
          "type": "bytes"
        },
        {
          "indexed": false,
          "internalType": "bytes",
          "name": "operatorData",
          "type": "bytes"
        }
      ],
      "name": "Minted",
      "type": "event"
    },
    {
      "anonymous": false,
      "inputs": [
        {
          "indexed": true,
          "internalType": "address",
          "name": "previousOwner",
          "type": "address"
        },
        {
          "indexed": true,
          "internalType": "address",
          "name": "newOwner",
          "type": "address"
        }
      ],
      "name": "OwnershipTransferred",
      "type": "event"
    },
    {
      "anonymous": false,
      "inputs": [
        {
          "indexed": false,
          "internalType": "uint256",
          "name": "_releaseTime",
          "type": "uint256"
        }
      ],
      "name": "ReleaseTime",
      "type": "event"
    },
    {
      "anonymous": false,
      "inputs": [
        {
          "indexed": true,
          "internalType": "address",
          "name": "operator",
          "type": "address"
        },
        {
          "indexed": true,
          "internalType": "address",
          "name": "tokenHolder",
          "type": "address"
        }
      ],
      "name": "RevokedOperator",
      "type": "event"
    },
    {
      "anonymous": false,
      "inputs": [
        {
          "indexed": true,
          "internalType": "address",
          "name": "operator",
          "type": "address"
        },
        {
          "indexed": true,
          "internalType": "address",
          "name": "from",
          "type": "address"
        },
        {
          "indexed": true,
          "internalType": "address",
          "name": "to",
          "type": "address"
        },
        {
          "indexed": false,
          "internalType": "uint256",
          "name": "amount",
          "type": "uint256"
        },
        {
          "indexed": false,
          "internalType": "bytes",
          "name": "data",
          "type": "bytes"
        },
        {
          "indexed": false,
          "internalType": "bytes",
          "name": "operatorData",
          "type": "bytes"
        }
      ],
      "name": "Sent",
      "type": "event"
    },
    {
      "anonymous": false,
      "inputs": [
        {
          "indexed": false,
          "internalType": "address",
          "name": "staker",
          "type": "address"
        },
        {
          "indexed": false,
          "internalType": "uint256",
          "name": "stakeAmount",
          "type": "uint256"
        }
      ],
      "name": "Stake",
      "type": "event"
    },
    {
      "anonymous": false,
      "inputs": [
        {
          "indexed": false,
          "internalType": "address",
          "name": "operator",
          "type": "address"
        },
        {
          "indexed": false,
          "internalType": "address",
          "name": "from",
          "type": "address"
        },
        {
          "indexed": false,
          "internalType": "address",
          "name": "to",
          "type": "address"
        },
        {
          "indexed": false,
          "internalType": "uint256",
          "name": "amount",
          "type": "uint256"
        },
        {
          "indexed": false,
          "internalType": "bytes",
          "name": "userData",
          "type": "bytes"
        },
        {
          "indexed": false,
          "internalType": "bytes",
          "name": "operatorData",
          "type": "bytes"
        }
      ],
      "name": "TokenReceived",
      "type": "event"
    },
    {
      "anonymous": false,
      "inputs": [
        {
          "indexed": false,
          "internalType": "address",
          "name": "operator",
          "type": "address"
        },
        {
          "indexed": false,
          "internalType": "address",
          "name": "from",
          "type": "address"
        },
        {
          "indexed": false,
          "internalType": "address",
          "name": "to",
          "type": "address"
        },
        {
          "indexed": false,
          "internalType": "uint256",
          "name": "amount",
          "type": "uint256"
        },
        {
          "indexed": false,
          "internalType": "bytes",
          "name": "userData",
          "type": "bytes"
        },
        {
          "indexed": false,
          "internalType": "bytes",
          "name": "operatorData",
          "type": "bytes"
        }
      ],
      "name": "TokensToSend",
      "type": "event"
    },
    {
      "anonymous": false,
      "inputs": [
        {
          "indexed": true,
          "internalType": "address",
          "name": "from",
          "type": "address"
        },
        {
          "indexed": true,
          "internalType": "address",
          "name": "to",
          "type": "address"
        },
        {
          "indexed": false,
          "internalType": "uint256",
          "name": "value",
          "type": "uint256"
        }
      ],
      "name": "Transfer",
      "type": "event"
    },
    {
      "anonymous": false,
      "inputs": [
        {
          "indexed": false,
          "internalType": "address",
          "name": "unStaker",
          "type": "address"
        },
        {
          "indexed": false,
          "internalType": "uint256",
          "name": "unStakeAmount",
          "type": "uint256"
        }
      ],
      "name": "UnStake",
      "type": "event"
    },
    {
      "anonymous": false,
      "inputs": [
        {
          "indexed": true,
          "internalType": "address",
          "name": "implementation",
          "type": "address"
        }
      ],
      "name": "Upgraded",
      "type": "event"
    },
    {
      "anonymous": false,
      "inputs": [
        {
          "indexed": false,
          "internalType": "address",
          "name": "whitelistSetter",
          "type": "address"
        },
        {
          "indexed": false,
          "internalType": "address",
          "name": "whitelisted",
          "type": "address"
        }
      ],
      "name": "Whitelisted",
      "type": "event"
    },
    {
      "inputs": [],
      "name": "__Ver02Setup_init",
      "outputs": [],
      "stateMutability": "nonpayable",
      "type": "function"
    },
    {
      "inputs": [
        {
          "internalType": "address",
          "name": "holder",
          "type": "address"
        },
        {
          "internalType": "address",
          "name": "spender",
          "type": "address"
        }
      ],
      "name": "allowance",
      "outputs": [
        {
          "internalType": "uint256",
          "name": "",
          "type": "uint256"
        }
      ],
      "stateMutability": "view",
      "type": "function"
    },
    {
      "inputs": [
        {
          "internalType": "address",
          "name": "spender",
          "type": "address"
        },
        {
          "internalType": "uint256",
          "name": "value",
          "type": "uint256"
        }
      ],
      "name": "approve",
      "outputs": [
        {
          "internalType": "bool",
          "name": "",
          "type": "bool"
        }
      ],
      "stateMutability": "nonpayable",
      "type": "function"
    },
    {
      "inputs": [
        {
          "internalType": "address",
          "name": "operator",
          "type": "address"
        }
      ],
      "name": "authorizeOperator",
      "outputs": [],
      "stateMutability": "nonpayable",
      "type": "function"
    },
    {
      "inputs": [
        {
          "internalType": "address",
          "name": "tokenHolder",
          "type": "address"
        }
      ],
      "name": "balanceOf",
      "outputs": [
        {
          "internalType": "uint256",
          "name": "",
          "type": "uint256"
        }
      ],
      "stateMutability": "view",
      "type": "function"
    },
    {
      "inputs": [
        {
          "internalType": "address",
          "name": "",
          "type": "address"
        }
      ],
      "name": "beneficiaries",
      "outputs": [
        {
          "internalType": "uint256",
          "name": "",
          "type": "uint256"
        }
      ],
      "stateMutability": "view",
      "type": "function"
    },
    {
      "inputs": [
        {
          "internalType": "uint256",
          "name": "amount",
          "type": "uint256"
        },
        {
          "internalType": "bytes",
          "name": "data",
          "type": "bytes"
        }
      ],
      "name": "burn",
      "outputs": [],
      "stateMutability": "nonpayable",
      "type": "function"
    },
    {
      "inputs": [],
      "name": "catnipVersion",
      "outputs": [
        {
          "internalType": "uint256",
          "name": "",
          "type": "uint256"
        }
      ],
      "stateMutability": "pure",
      "type": "function"
    },
    {
      "inputs": [],
      "name": "decimals",
      "outputs": [
        {
          "internalType": "uint8",
          "name": "",
          "type": "uint8"
        }
      ],
      "stateMutability": "pure",
      "type": "function"
    },
    {
      "inputs": [],
      "name": "defaultOperators",
      "outputs": [
        {
          "internalType": "address[]",
          "name": "",
          "type": "address[]"
        }
      ],
      "stateMutability": "view",
      "type": "function"
    },
    {
      "inputs": [],
      "name": "granularity",
      "outputs": [
        {
          "internalType": "uint256",
          "name": "",
          "type": "uint256"
        }
      ],
      "stateMutability": "view",
      "type": "function"
    },
    {
      "inputs": [],
      "name": "initialize",
      "outputs": [],
      "stateMutability": "nonpayable",
      "type": "function"
    },
    {
      "inputs": [
        {
          "internalType": "address",
          "name": "operator",
          "type": "address"
        },
        {
          "internalType": "address",
          "name": "tokenHolder",
          "type": "address"
        }
      ],
      "name": "isOperatorFor",
      "outputs": [
        {
          "internalType": "bool",
          "name": "",
          "type": "bool"
        }
      ],
      "stateMutability": "view",
      "type": "function"
    },
    {
      "inputs": [
        {
          "internalType": "address",
          "name": "account",
          "type": "address"
        },
        {
          "internalType": "uint256",
          "name": "amount",
          "type": "uint256"
        },
        {
          "internalType": "bytes",
          "name": "userData",
          "type": "bytes"
        },
        {
          "internalType": "bytes",
          "name": "operatorData",
          "type": "bytes"
        }
      ],
      "name": "mint",
      "outputs": [],
      "stateMutability": "nonpayable",
      "type": "function"
    },
    {
      "inputs": [],
      "name": "name",
      "outputs": [
        {
          "internalType": "string",
          "name": "",
          "type": "string"
        }
      ],
      "stateMutability": "view",
      "type": "function"
    },
    {
      "inputs": [],
      "name": "onlyVer02SetupInit",
      "outputs": [
        {
          "internalType": "bool",
          "name": "",
          "type": "bool"
        }
      ],
      "stateMutability": "view",
      "type": "function"
    },
    {
      "inputs": [
        {
          "internalType": "address",
          "name": "account",
          "type": "address"
        },
        {
          "internalType": "uint256",
          "name": "amount",
          "type": "uint256"
        },
        {
          "internalType": "bytes",
          "name": "data",
          "type": "bytes"
        },
        {
          "internalType": "bytes",
          "name": "operatorData",
          "type": "bytes"
        }
      ],
      "name": "operatorBurn",
      "outputs": [],
      "stateMutability": "nonpayable",
      "type": "function"
    },
    {
      "inputs": [
        {
          "internalType": "address",
          "name": "sender",
          "type": "address"
        },
        {
          "internalType": "address",
          "name": "recipient",
          "type": "address"
        },
        {
          "internalType": "uint256",
          "name": "amount",
          "type": "uint256"
        },
        {
          "internalType": "bytes",
          "name": "data",
          "type": "bytes"
        },
        {
          "internalType": "bytes",
          "name": "operatorData",
          "type": "bytes"
        }
      ],
      "name": "operatorSend",
      "outputs": [],
      "stateMutability": "nonpayable",
      "type": "function"
    },
    {
      "inputs": [],
      "name": "owner",
      "outputs": [
        {
          "internalType": "address",
          "name": "",
          "type": "address"
        }
      ],
      "stateMutability": "view",
      "type": "function"
    },
    {
      "inputs": [],
      "name": "proxiableUUID",
      "outputs": [
        {
          "internalType": "bytes32",
          "name": "",
          "type": "bytes32"
        }
      ],
      "stateMutability": "view",
      "type": "function"
    },
    {
      "inputs": [],
      "name": "releaseTime",
      "outputs": [
        {
          "internalType": "uint256",
          "name": "",
          "type": "uint256"
        }
      ],
      "stateMutability": "view",
      "type": "function"
    },
    {
      "inputs": [],
      "name": "renounceOwnership",
      "outputs": [],
      "stateMutability": "nonpayable",
      "type": "function"
    },
    {
      "inputs": [
        {
          "internalType": "address",
          "name": "operator",
          "type": "address"
        }
      ],
      "name": "revokeOperator",
      "outputs": [],
      "stateMutability": "nonpayable",
      "type": "function"
    },
    {
      "inputs": [
        {
          "internalType": "address",
          "name": "recipient",
          "type": "address"
        },
        {
          "internalType": "uint256",
          "name": "amount",
          "type": "uint256"
        },
        {
          "internalType": "bytes",
          "name": "data",
          "type": "bytes"
        }
      ],
      "name": "send",
      "outputs": [],
      "stateMutability": "nonpayable",
      "type": "function"
    },
    {
      "inputs": [
        {
          "internalType": "address",
          "name": "account",
          "type": "address"
        }
      ],
      "name": "setWhitelist",
      "outputs": [],
      "stateMutability": "nonpayable",
      "type": "function"
    },
    {
      "inputs": [
        {
          "internalType": "uint256",
          "name": "_amount",
          "type": "uint256"
        }
      ],
      "name": "stake",
      "outputs": [],
      "stateMutability": "nonpayable",
      "type": "function"
    },
    {
      "inputs": [],
      "name": "stakeAmount",
      "outputs": [
        {
          "internalType": "uint256",
          "name": "",
          "type": "uint256"
        }
      ],
      "stateMutability": "view",
      "type": "function"
    },
    {
      "inputs": [],
      "name": "supplyLimit",
      "outputs": [
        {
          "internalType": "uint256",
          "name": "",
          "type": "uint256"
        }
      ],
      "stateMutability": "view",
      "type": "function"
    },
    {
      "inputs": [],
      "name": "symbol",
      "outputs": [
        {
          "internalType": "string",
          "name": "",
          "type": "string"
        }
      ],
      "stateMutability": "view",
      "type": "function"
    },
    {
      "inputs": [
        {
          "internalType": "address",
          "name": "operator",
          "type": "address"
        },
        {
          "internalType": "address",
          "name": "from",
          "type": "address"
        },
        {
          "internalType": "address",
          "name": "to",
          "type": "address"
        },
        {
          "internalType": "uint256",
          "name": "amount",
          "type": "uint256"
        },
        {
          "internalType": "bytes",
          "name": "userData",
          "type": "bytes"
        },
        {
          "internalType": "bytes",
          "name": "operatorData",
          "type": "bytes"
        }
      ],
      "name": "tokensReceived",
      "outputs": [],
      "stateMutability": "nonpayable",
      "type": "function"
    },
    {
      "inputs": [
        {
          "internalType": "address",
          "name": "operator",
          "type": "address"
        },
        {
          "internalType": "address",
          "name": "from",
          "type": "address"
        },
        {
          "internalType": "address",
          "name": "to",
          "type": "address"
        },
        {
          "internalType": "uint256",
          "name": "amount",
          "type": "uint256"
        },
        {
          "internalType": "bytes",
          "name": "userData",
          "type": "bytes"
        },
        {
          "internalType": "bytes",
          "name": "operatorData",
          "type": "bytes"
        }
      ],
      "name": "tokensToSend",
      "outputs": [],
      "stateMutability": "nonpayable",
      "type": "function"
    },
    {
      "inputs": [],
      "name": "totalSupply",
      "outputs": [
        {
          "internalType": "uint256",
          "name": "",
          "type": "uint256"
        }
      ],
      "stateMutability": "view",
      "type": "function"
    },
    {
      "inputs": [
        {
          "internalType": "address",
          "name": "recipient",
          "type": "address"
        },
        {
          "internalType": "uint256",
          "name": "amount",
          "type": "uint256"
        }
      ],
      "name": "transfer",
      "outputs": [
        {
          "internalType": "bool",
          "name": "",
          "type": "bool"
        }
      ],
      "stateMutability": "nonpayable",
      "type": "function"
    },
    {
      "inputs": [
        {
          "internalType": "address",
          "name": "holder",
          "type": "address"
        },
        {
          "internalType": "address",
          "name": "recipient",
          "type": "address"
        },
        {
          "internalType": "uint256",
          "name": "amount",
          "type": "uint256"
        }
      ],
      "name": "transferFrom",
      "outputs": [
        {
          "internalType": "bool",
          "name": "",
          "type": "bool"
        }
      ],
      "stateMutability": "nonpayable",
      "type": "function"
    },
    {
      "inputs": [
        {
          "internalType": "address",
          "name": "newOwner",
          "type": "address"
        }
      ],
      "name": "transferOwnership",
      "outputs": [],
      "stateMutability": "nonpayable",
      "type": "function"
    },
    {
      "inputs": [],
      "name": "unStake",
      "outputs": [],
      "stateMutability": "nonpayable",
      "type": "function"
    },
    {
      "inputs": [
        {
          "internalType": "string",
          "name": "interfaceName",
          "type": "string"
        }
      ],
      "name": "updateERC1820Registry",
      "outputs": [],
      "stateMutability": "nonpayable",
      "type": "function"
    },
    {
      "inputs": [
        {
          "internalType": "address",
          "name": "newImplementation",
          "type": "address"
        }
      ],
      "name": "upgradeTo",
      "outputs": [],
      "stateMutability": "nonpayable",
      "type": "function"
    },
    {
      "inputs": [
        {
          "internalType": "address",
          "name": "newImplementation",
          "type": "address"
        },
        {
          "internalType": "bytes",
          "name": "data",
          "type": "bytes"
        }
      ],
      "name": "upgradeToAndCall",
      "outputs": [],
      "stateMutability": "payable",
      "type": "function"
    },
    {
      "inputs": [
        {
          "internalType": "address",
          "name": "",
          "type": "address"
        }
      ],
      "name": "whitelist",
      "outputs": [
        {
          "internalType": "bool",
          "name": "",
          "type": "bool"
        }
      ],
      "stateMutability": "view",
      "type": "function"
    },
    {
      "inputs": [],
      "name": "whitelistEventTime",
      "outputs": [
        {
          "internalType": "uint256",
          "name": "",
          "type": "uint256"
        }
      ],
      "stateMutability": "view",
      "type": "function"
    }
  ],
  "bytecode": "0x60a0604052306080523480156200001557600080fd5b506200002062000026565b620000e8565b600054610100900460ff1615620000935760405162461bcd60e51b815260206004820152602760248201527f496e697469616c697a61626c653a20636f6e747261637420697320696e697469604482015266616c697a696e6760c81b606482015260840160405180910390fd5b60005460ff9081161015620000e6576000805460ff191660ff9081179091556040519081527f7f26b83ff96e1f2b6a682f133852f6798a09c465da95921460cefb38474024989060200160405180910390a15b565b608051613ab66200012060003960008181610a8001528181610b0a01528181610c0001528181610c850152610d6f0152613ab66000f3fe6080604052600436106102c55760003560e01c806375ab978211610179578063a9059cbb116100d6578063dd62ed3e1161008a578063fad8b32a11610064578063fad8b32a1461077d578063fc673c4f1461079d578063fe9d9303146107bd57600080fd5b8063dd62ed3e14610703578063f2fde38b14610749578063f39d6fa21461076957600080fd5b8063c9c7a29d116100bb578063c9c7a29d146106ad578063d95b6371146106c3578063dcdc7dd0146106e357600080fd5b8063a9059cbb14610677578063b91d40011461069757600080fd5b806395d89b411161012d5780639bd9bbc6116101125780639bd9bbc61461061d578063a1177ef11461063d578063a694fc3a1461065757600080fd5b806395d89b41146105d75780639b19251a146105ec57600080fd5b8063854cff2f1161015e578063854cff2f1461056f5780638da5cb5b1461058f578063959b8c3f146105b757600080fd5b806375ab97821461053a5780638129fc1c1461055a57600080fd5b80633659cfe61161022757806362ad1b83116101db57806370a08231116101c057806370a08231146104da578063715018a61461051057806373cf575a1461052557600080fd5b806362ad1b83146104a557806367b8958d146104c557600080fd5b806352d1902d1161020c57806352d1902d1461045a578063556f0dc71461046f57806360c7dc471461048357600080fd5b80633659cfe6146104275780634f1ef2861461044757600080fd5b806318160ddd1161027e5780631aa2984d116102635780631aa2984d146103cb57806323b872dd146103eb578063313ce5671461040b57600080fd5b806318160ddd146103a057806319d1997a146103b557600080fd5b806306e48538116102af57806306e485381461032c57806306fdde031461034e578063095ea7b31461037057600080fd5b806223de29146102ca57806301567739146102ec575b600080fd5b3480156102d657600080fd5b506102ea6102e53660046130fe565b6107dd565b005b3480156102f857600080fd5b506103196103073660046131af565b60ff6020526000908152604090205481565b6040519081526020015b60405180910390f35b34801561033857600080fd5b5061034161082c565b60405161032391906131cc565b34801561035a57600080fd5b5061036361088e565b6040516103239190613271565b34801561037c57600080fd5b5061039061038b366004613284565b610917565b6040519015158152602001610323565b3480156103ac57600080fd5b50603454610319565b3480156103c157600080fd5b5061031960fb5481565b3480156103d757600080fd5b506102ea6103e636600461333c565b610931565b3480156103f757600080fd5b5061039061040636600461338d565b610a2e565b34801561041757600080fd5b5060405160128152602001610323565b34801561043357600080fd5b506102ea6104423660046131af565b610a76565b6102ea6104553660046133ee565b610bf6565b34801561046657600080fd5b50610319610d62565b34801561047b57600080fd5b506001610319565b34801561048f57600080fd5b5033600090815260ff6020526040902054610319565b3480156104b157600080fd5b506102ea6104c036600461343e565b610e27565b3480156104d157600080fd5b506102ea610ea8565b3480156104e657600080fd5b506103196104f53660046131af565b6001600160a01b031660009081526033602052604090205490565b34801561051c57600080fd5b506102ea610f51565b34801561053157600080fd5b506102ea610f65565b34801561054657600080fd5b506102ea6105553660046130fe565b611092565b34801561056657600080fd5b506102ea6110cf565b34801561057b57600080fd5b506102ea61058a3660046131af565b61127c565b34801561059b57600080fd5b5060c9546040516001600160a01b039091168152602001610323565b3480156105c357600080fd5b506102ea6105d23660046131af565b611329565b3480156105e357600080fd5b5061036361145f565b3480156105f857600080fd5b506103906106073660046131af565b6101006020526000908152604090205460ff1681565b34801561062957600080fd5b506102ea6106383660046134d1565b61146e565b34801561064957600080fd5b5060fe546103909060ff1681565b34801561066357600080fd5b506102ea61067236600461352a565b611491565b34801561068357600080fd5b50610390610692366004613284565b611637565b3480156106a357600080fd5b5061031960fc5481565b3480156106b957600080fd5b5061031960fd5481565b3480156106cf57600080fd5b506103906106de366004613543565b61166f565b3480156106ef57600080fd5b506102ea6106fe36600461357c565b611710565b34801561070f57600080fd5b5061031961071e366004613543565b6001600160a01b039182166000908152603b6020908152604080832093909416825291909152205490565b34801561075557600080fd5b506102ea6107643660046131af565b6117c6565b34801561077557600080fd5b506002610319565b34801561078957600080fd5b506102ea6107983660046131af565b61183c565b3480156107a957600080fd5b506102ea6107b836600461357c565b611973565b3480156107c957600080fd5b506102ea6107d83660046135fc565b6119f0565b7ff7ad0180d908ac00a58ca7a7c020ac7340ed61a167cfbe1f57716544db0e4ace888888888888888860405161081a989796959493929190613656565b60405180910390a15050505050505050565b6060603780548060200260200160405190810160405280929190818152602001828054801561088457602002820191906000526020600020905b81546001600160a01b03168152600190910190602001808311610866575b5050505050905090565b60606035805461089d906136b3565b80601f01602080910402602001604051908101604052809291908181526020018280546108c9906136b3565b80156108845780601f106108eb57610100808354040283529160200191610884565b820191906000526020600020905b8154815290600101906020018083116108f957509395945050505050565b600033610925818585611a0b565b60019150505b92915050565b610939611b64565b6040516365ba36c160e01b8152600090731820a4b7618bde71dce8cdc73aab6c95905fad24906365ba36c190610973908590600401613271565b602060405180830381865afa158015610990573d6000803e3d6000fd5b505050506040513d601f19601f820116820180604052508101906109b491906136ed565b6040516329965a1d60e01b81523060048201819052602482018390526044820152909150731820a4b7618bde71dce8cdc73aab6c95905fad24906329965a1d906064015b600060405180830381600087803b158015610a1257600080fd5b505af1158015610a26573d6000803e3d6000fd5b505050505050565b600033610a3c858285611bbe565b610a6985858560405180602001604052806000815250604051806020016040528060008152506000611c4a565b60019150505b9392505050565b6001600160a01b037f0000000000000000000000000000000000000000000000000000000000000000163003610b085760405162461bcd60e51b815260206004820152602c60248201527f46756e6374696f6e206d7573742062652063616c6c6564207468726f7567682060448201526b19195b1959d85d1958d85b1b60a21b60648201526084015b60405180910390fd5b7f00000000000000000000000000000000000000000000000000000000000000006001600160a01b0316610b637f360894a13ba1a3210667c828492db98dca3e2076cc3735a920a3ca505d382bbc546001600160a01b031690565b6001600160a01b031614610bce5760405162461bcd60e51b815260206004820152602c60248201527f46756e6374696f6e206d7573742062652063616c6c6564207468726f7567682060448201526b6163746976652070726f787960a01b6064820152608401610aff565b610bd781611d5f565b60408051600080825260208201909252610bf391839190611d67565b50565b6001600160a01b037f0000000000000000000000000000000000000000000000000000000000000000163003610c835760405162461bcd60e51b815260206004820152602c60248201527f46756e6374696f6e206d7573742062652063616c6c6564207468726f7567682060448201526b19195b1959d85d1958d85b1b60a21b6064820152608401610aff565b7f00000000000000000000000000000000000000000000000000000000000000006001600160a01b0316610cde7f360894a13ba1a3210667c828492db98dca3e2076cc3735a920a3ca505d382bbc546001600160a01b031690565b6001600160a01b031614610d495760405162461bcd60e51b815260206004820152602c60248201527f46756e6374696f6e206d7573742062652063616c6c6564207468726f7567682060448201526b6163746976652070726f787960a01b6064820152608401610aff565b610d5282611d5f565b610d5e82826001611d67565b5050565b6000306001600160a01b037f00000000000000000000000000000000000000000000000000000000000000001614610e025760405162461bcd60e51b815260206004820152603860248201527f555550535570677261646561626c653a206d757374206e6f742062652063616c60448201527f6c6564207468726f7567682064656c656761746563616c6c00000000000000006064820152608401610aff565b507f360894a13ba1a3210667c828492db98dca3e2076cc3735a920a3ca505d382bbc90565b610e31338661166f565b610e925760405162461bcd60e51b815260206004820152602c60248201527f4552433737373a2063616c6c6572206973206e6f7420616e206f70657261746f60448201526b39103337b9103437b63232b960a11b6064820152608401610aff565b610ea185858585856001611c4a565b5050505050565b610eb0611b64565b60fe5460ff161515600103610f075760405162461bcd60e51b815260206004820152601960248201527f536574757020616c726561647920696e697469616c697a6564000000000000006044820152606401610aff565b60fe805460ff19166001179055610f1c611f07565b610f24611f53565b33600090815261010060205260409020805460ff19166001179055610f4c4262093a8061371c565b60fd55565b610f59611b64565b610f636000612160565b565b60fc5430904211610fb85760405162461bcd60e51b815260206004820152601760248201527f5374616b696e67206861736e27742066696e69736865640000000000000000006044820152606401610aff565b33600081815260ff602052604080822080549083905590516362ad1b8360e01b815230600482015260248101939093526044830181905260a0606484015260a4830182905260c0608484015260c4830191909152906001600160a01b038316906362ad1b839060e401600060405180830381600087803b15801561103b57600080fd5b505af115801561104f573d6000803e3d6000fd5b505060408051338152602081018590527fb24546d975e2628748efc9aced80665e0fad66272033e5c0ea25fd3afac9979593500190505b60405180910390a15050565b7fdeec22f691a3bc61c9e48411328fdd03d5e452db27bd976b19eda8877885c86d888888888888888860405161081a989796959493929190613656565b600054610100900460ff16158080156110ef5750600054600160ff909116105b806111095750303b158015611109575060005460ff166001145b61117b5760405162461bcd60e51b815260206004820152602e60248201527f496e697469616c697a61626c653a20636f6e747261637420697320616c72656160448201527f647920696e697469616c697a65640000000000000000000000000000000000006064820152608401610aff565b6000805460ff19166001179055801561119e576000805461ff0019166101001790555b604080518082018252600981527f55505f4361746e6970000000000000000000000000000000000000000000000060208083019190915282518084018452600281527f434e0000000000000000000000000000000000000000000000000000000000008183015283516000815291820190935261121b92906121bf565b611223612235565b61122b6122a0565b611233612313565b8015610bf3576000805461ff0019169055604051600181527f7f26b83ff96e1f2b6a682f133852f6798a09c465da95921460cefb3847402498906020015b60405180910390a150565b60fd5442106112cd5760405162461bcd60e51b815260206004820152601560248201527f57686974656c697374206576656e7420656e64656400000000000000000000006044820152606401610aff565b6001600160a01b03811660008181526101006020908152604091829020805460ff191660011790558151338152908101929092527f6661a7108aecd07864384529117d96c319c1163e3010c01390f6b704726e07de9101611271565b6001600160a01b03811633036113a65760405162461bcd60e51b8152602060048201526024808201527f4552433737373a20617574686f72697a696e672073656c66206173206f70657260448201527f61746f72000000000000000000000000000000000000000000000000000000006064820152608401610aff565b6001600160a01b03811660009081526038602052604090205460ff16156113f757336000908152603a602090815260408083206001600160a01b03851684529091529020805460ff19169055611426565b3360009081526039602090815260408083206001600160a01b03851684529091529020805460ff191660011790555b60405133906001600160a01b038316907ff4caeb2d6ca8932a215a353d0703c326ec2d81fc68170f320eb2ab49e9df61f990600090a350565b60606036805461089d906136b3565b61148c33848484604051806020016040528060008152506001611c4a565b505050565b6040517f70a082310000000000000000000000000000000000000000000000000000000081523360048201523090829082906370a0823190602401602060405180830381865afa1580156114e9573d6000803e3d6000fd5b505050506040513d601f19601f8201168201806040525081019061150d91906136ed565b1161155a5760405162461bcd60e51b815260206004820152601c60248201527f53686f756c642068617665206361746e69707320746f207374616b65000000006044820152606401610aff565b33600090815260ff60205260408120805484929061157990849061371c565b90915550506040516362ad1b8360e01b81523360048201523060248201526044810183905260a06064820152600060a4820181905260c0608483015260c48201526001600160a01b038216906362ad1b839060e401600060405180830381600087803b1580156115e857600080fd5b505af11580156115fc573d6000803e3d6000fd5b505060408051338152602081018690527febedb8b3c678666e7f36970bc8f57abf6d8fa2e828c0da91ea5b75bf68ed101a9350019050611086565b600061166633848460405180602001604052806000815250604051806020016040528060008152506000611c4a565b50600192915050565b6000816001600160a01b0316836001600160a01b031614806116da57506001600160a01b03831660009081526038602052604090205460ff1680156116da57506001600160a01b038083166000908152603a602090815260408083209387168352929052205460ff16155b80610a6f57506001600160a01b0380831660009081526039602090815260408083209387168352929052205460ff169392505050565b60fb5483106117615760405162461bcd60e51b815260206004820152601360248201527f4578636565646564206d617820737570706c79000000000000000000000000006044820152606401610aff565b6001600160a01b0384166000908152610100602052604081205460ff16151560011461178e576000611791565b60015b905080156117ba5760006117a6856002613734565b90506117b486828686612332565b50610ea1565b610ea185858585612332565b6117ce611b64565b6001600160a01b0381166118335760405162461bcd60e51b815260206004820152602660248201527f4f776e61626c653a206e6577206f776e657220697320746865207a65726f206160448201526564647265737360d01b6064820152608401610aff565b610bf381612160565b336001600160a01b038216036118ba5760405162461bcd60e51b815260206004820152602160248201527f4552433737373a207265766f6b696e672073656c66206173206f70657261746f60448201527f72000000000000000000000000000000000000000000000000000000000000006064820152608401610aff565b6001600160a01b03811660009081526038602052604090205460ff161561190e57336000908152603a602090815260408083206001600160a01b03851684529091529020805460ff1916600117905561193a565b3360009081526039602090815260408083206001600160a01b03851684529091529020805460ff191690555b60405133906001600160a01b038316907f50546e66e5f44d728365dc3908c63bc5cfeeab470722c1677e3073a6ac294aa190600090a350565b61197d338561166f565b6119de5760405162461bcd60e51b815260206004820152602c60248201527f4552433737373a2063616c6c6572206973206e6f7420616e206f70657261746f60448201526b39103337b9103437b63232b960a11b6064820152608401610aff565b6119ea84848484612340565b50505050565b610d5e33838360405180602001604052806000815250612340565b6001600160a01b038316611a875760405162461bcd60e51b815260206004820152602560248201527f4552433737373a20617070726f76652066726f6d20746865207a65726f20616460448201527f64726573730000000000000000000000000000000000000000000000000000006064820152608401610aff565b6001600160a01b038216611b035760405162461bcd60e51b815260206004820152602360248201527f4552433737373a20617070726f766520746f20746865207a65726f206164647260448201527f65737300000000000000000000000000000000000000000000000000000000006064820152608401610aff565b6001600160a01b038381166000818152603b602090815260408083209487168084529482529182902085905590518481527f8c5be1e5ebec7d5bd14f71427d1e84f3dd0314c0f7b2291e5b200ac8c7c3b925910160405180910390a3505050565b60c9546001600160a01b03163314610f635760405162461bcd60e51b815260206004820181905260248201527f4f776e61626c653a2063616c6c6572206973206e6f7420746865206f776e65726044820152606401610aff565b6001600160a01b038381166000908152603b602090815260408083209386168352929052205460001981146119ea5781811015611c3d5760405162461bcd60e51b815260206004820152601e60248201527f4552433737373a20696e73756666696369656e7420616c6c6f77616e636500006044820152606401610aff565b6119ea8484848403611a0b565b6001600160a01b038616611caf5760405162461bcd60e51b815260206004820152602660248201527f4552433737373a207472616e736665722066726f6d20746865207a65726f206160448201526564647265737360d01b6064820152608401610aff565b6001600160a01b038516611d2a5760405162461bcd60e51b8152602060048201526024808201527f4552433737373a207472616e7366657220746f20746865207a65726f2061646460448201527f72657373000000000000000000000000000000000000000000000000000000006064820152608401610aff565b33611d3981888888888861252a565b611d4781888888888861266a565b611d56818888888888886127e6565b50505050505050565b610bf3611b64565b7f4910fdfa16fed3260ed0e7147f7cc6da11a60208b5b9406d12a635614ffd91435460ff1615611d9a5761148c836129d4565b826001600160a01b03166352d1902d6040518163ffffffff1660e01b8152600401602060405180830381865afa925050508015611df4575060408051601f3d908101601f19168201909252611df1918101906136ed565b60015b611e665760405162461bcd60e51b815260206004820152602e60248201527f45524331393637557067726164653a206e657720696d706c656d656e7461746960448201527f6f6e206973206e6f7420555550530000000000000000000000000000000000006064820152608401610aff565b7f360894a13ba1a3210667c828492db98dca3e2076cc3735a920a3ca505d382bbc8114611efb5760405162461bcd60e51b815260206004820152602960248201527f45524331393637557067726164653a20756e737570706f727465642070726f7860448201527f6961626c655555494400000000000000000000000000000000000000000000006064820152608401610aff565b5061148c838383612a9f565b611f0f611b64565b6301baf800611f1e814261371c565b60fc8190556040519081527ffdadcafe80125e03c996b4177dd52df5498ef2842deba41eb59484c19f7ba97b90602001611271565b611f5b611b64565b6040516365ba36c160e01b815260206004820152601560248201527f455243373737546f6b656e73526563697069656e7400000000000000000000006044820152600090731820a4b7618bde71dce8cdc73aab6c95905fad24906365ba36c190606401602060405180830381865afa158015611fdb573d6000803e3d6000fd5b505050506040513d601f19601f82011682018060405250810190611fff91906136ed565b6040516365ba36c160e01b815260206004820152601260248201527f455243373737546f6b656e7353656e64657200000000000000000000000000006044820152909150600090731820a4b7618bde71dce8cdc73aab6c95905fad24906365ba36c190606401602060405180830381865afa158015612082573d6000803e3d6000fd5b505050506040513d601f19601f820116820180604052508101906120a691906136ed565b6040516329965a1d60e01b81523060048201819052602482018590526044820152909150731820a4b7618bde71dce8cdc73aab6c95905fad24906329965a1d90606401600060405180830381600087803b15801561210357600080fd5b505af1158015612117573d6000803e3d6000fd5b50506040516329965a1d60e01b81523060048201819052602482018590526044820152731820a4b7618bde71dce8cdc73aab6c95905fad2492506329965a1d91506064016109f8565b60c980546001600160a01b0383811673ffffffffffffffffffffffffffffffffffffffff19831681179093556040519116919082907f8be0079c531659141344cd1fd0a4f28419497f9722a3daafe3b4186f6b6457e090600090a35050565b600054610100900460ff1661222a5760405162461bcd60e51b815260206004820152602b60248201527f496e697469616c697a61626c653a20636f6e7472616374206973206e6f74206960448201526a6e697469616c697a696e6760a81b6064820152608401610aff565b61148c838383612ac4565b600054610100900460ff16610f635760405162461bcd60e51b815260206004820152602b60248201527f496e697469616c697a61626c653a20636f6e7472616374206973206e6f74206960448201526a6e697469616c697a696e6760a81b6064820152608401610aff565b600054610100900460ff1661230b5760405162461bcd60e51b815260206004820152602b60248201527f496e697469616c697a61626c653a20636f6e7472616374206973206e6f74206960448201526a6e697469616c697a696e6760a81b6064820152608401610aff565b610f63612ce4565b61231f6012600a613837565b61232d90633b9aca00613734565b60fb55565b6119ea848484846001612d58565b6001600160a01b0384166123bc5760405162461bcd60e51b815260206004820152602260248201527f4552433737373a206275726e2066726f6d20746865207a65726f20616464726560448201527f73730000000000000000000000000000000000000000000000000000000000006064820152608401610aff565b336123cc8186600087878761252a565b6001600160a01b0385166000908152603360205260409020548481101561245b5760405162461bcd60e51b815260206004820152602360248201527f4552433737373a206275726e20616d6f756e7420657863656564732062616c6160448201527f6e636500000000000000000000000000000000000000000000000000000000006064820152608401610aff565b6001600160a01b038616600090815260336020526040812086830390556034805487929061248a908490613846565b92505081905550856001600160a01b0316826001600160a01b03167fa78a9be3a7b862d26933ad85fb11d80ef66b8f972d7cbba06621d583943a40988787876040516124d89392919061385d565b60405180910390a36040518581526000906001600160a01b038816907fddf252ad1be2c89b69c2b068fc378daa952ba7f163c4a11628f55a4df523b3ef906020015b60405180910390a3505050505050565b60405163555ddc6560e11b81526001600160a01b03861660048201527f29ddb589b1fb5fc7cf394961c1adf5f8c6454761adf795e67fe149f658abe8956024820152600090731820a4b7618bde71dce8cdc73aab6c95905fad249063aabbb8ca90604401602060405180830381865afa1580156125ab573d6000803e3d6000fd5b505050506040513d601f19601f820116820180604052508101906125cf9190613892565b90506001600160a01b03811615611d56576040517f75ab97820000000000000000000000000000000000000000000000000000000081526001600160a01b038216906375ab97829061262f908a908a908a908a908a908a906004016138af565b600060405180830381600087803b15801561264957600080fd5b505af115801561265d573d6000803e3d6000fd5b5050505050505050505050565b6001600160a01b038516600090815260336020526040902054838110156126f95760405162461bcd60e51b815260206004820152602760248201527f4552433737373a207472616e7366657220616d6f756e7420657863656564732060448201527f62616c616e6365000000000000000000000000000000000000000000000000006064820152608401610aff565b6001600160a01b0380871660009081526033602052604080822087850390559187168152908120805486929061273090849061371c565b92505081905550846001600160a01b0316866001600160a01b0316886001600160a01b03167f06b541ddaa720db2b10a4d0cdac39b8d360425fc073085fac19bc826146779878787876040516127889392919061385d565b60405180910390a4846001600160a01b0316866001600160a01b03167fddf252ad1be2c89b69c2b068fc378daa952ba7f163c4a11628f55a4df523b3ef866040516127d591815260200190565b60405180910390a350505050505050565b60405163555ddc6560e11b81526001600160a01b03861660048201527fb281fc8c12954d22544db45de3159a39272895b169a852b314f9cc762e44c53b6024820152600090731820a4b7618bde71dce8cdc73aab6c95905fad249063aabbb8ca90604401602060405180830381865afa158015612867573d6000803e3d6000fd5b505050506040513d601f19601f8201168201806040525081019061288b9190613892565b90506001600160a01b03811615612920576040517e23de290000000000000000000000000000000000000000000000000000000081526001600160a01b038216906223de29906128e9908b908b908b908b908b908b906004016138af565b600060405180830381600087803b15801561290357600080fd5b505af1158015612917573d6000803e3d6000fd5b505050506129ca565b81156129ca576001600160a01b0386163b156129ca5760405162461bcd60e51b815260206004820152604d60248201527f4552433737373a20746f6b656e20726563697069656e7420636f6e747261637460448201527f20686173206e6f20696d706c656d656e74657220666f7220455243373737546f60648201527f6b656e73526563697069656e7400000000000000000000000000000000000000608482015260a401610aff565b5050505050505050565b6001600160a01b0381163b612a515760405162461bcd60e51b815260206004820152602d60248201527f455243313936373a206e657720696d706c656d656e746174696f6e206973206e60448201527f6f74206120636f6e7472616374000000000000000000000000000000000000006064820152608401610aff565b7f360894a13ba1a3210667c828492db98dca3e2076cc3735a920a3ca505d382bbc805473ffffffffffffffffffffffffffffffffffffffff19166001600160a01b0392909216919091179055565b612aa883612e95565b600082511180612ab55750805b1561148c576119ea8383612ed5565b600054610100900460ff16612b2f5760405162461bcd60e51b815260206004820152602b60248201527f496e697469616c697a61626c653a20636f6e7472616374206973206e6f74206960448201526a6e697469616c697a696e6760a81b6064820152608401610aff565b6035612b3b848261394e565b506036612b48838261394e565b508051612b5c906037906020840190613019565b5060005b8151811015612bc557600160386000848481518110612b8157612b81613a0e565b6020908102919091018101516001600160a01b03168252810191909152604001600020805460ff191691151591909117905580612bbd81613a24565b915050612b60565b506040516329965a1d60e01b815230600482018190527fac7fbab5f54a3ca8194167523c6753bfeb96a445279294b6125b68cce217705460248301526044820152731820a4b7618bde71dce8cdc73aab6c95905fad24906329965a1d90606401600060405180830381600087803b158015612c3f57600080fd5b505af1158015612c53573d6000803e3d6000fd5b50506040516329965a1d60e01b815230600482018190527faea199e31a596269b42cdafd93407f14436db6e4cad65417994c2eb37381e05a60248301526044820152731820a4b7618bde71dce8cdc73aab6c95905fad2492506329965a1d9150606401600060405180830381600087803b158015612cd057600080fd5b505af1158015611d56573d6000803e3d6000fd5b600054610100900460ff16612d4f5760405162461bcd60e51b815260206004820152602b60248201527f496e697469616c697a61626c653a20636f6e7472616374206973206e6f74206960448201526a6e697469616c697a696e6760a81b6064820152608401610aff565b610f6333612160565b6001600160a01b038516612dae5760405162461bcd60e51b815260206004820181905260248201527f4552433737373a206d696e7420746f20746865207a65726f20616464726573736044820152606401610aff565b60003390508460346000828254612dc5919061371c565b90915550506001600160a01b03861660009081526033602052604081208054879290612df290849061371c565b90915550612e08905081600088888888886127e6565b856001600160a01b0316816001600160a01b03167f2fe5be0146f74c5bce36c0b80911af6c7d86ff27e89d5cfa61fc681327954e5d878787604051612e4f9392919061385d565b60405180910390a36040518581526001600160a01b038716906000907fddf252ad1be2c89b69c2b068fc378daa952ba7f163c4a11628f55a4df523b3ef9060200161251a565b612e9e816129d4565b6040516001600160a01b038216907fbc7cd75a20ee27fd9adebab32041f755214dbc6bffa90cc0225b39da2e5c2d3b90600090a250565b60606001600160a01b0383163b612f545760405162461bcd60e51b815260206004820152602660248201527f416464726573733a2064656c65676174652063616c6c20746f206e6f6e2d636f60448201527f6e747261637400000000000000000000000000000000000000000000000000006064820152608401610aff565b600080846001600160a01b031684604051612f6f9190613a3d565b600060405180830381855af49150503d8060008114612faa576040519150601f19603f3d011682016040523d82523d6000602084013e612faf565b606091505b5091509150612fd78282604051806060016040528060278152602001613a5a60279139612fe0565b95945050505050565b60608315612fef575081610a6f565b825115612fff5782518084602001fd5b8160405162461bcd60e51b8152600401610aff9190613271565b82805482825590600052602060002090810192821561307b579160200282015b8281111561307b578251825473ffffffffffffffffffffffffffffffffffffffff19166001600160a01b03909116178255602090920191600190910190613039565b5061308792915061308b565b5090565b5b80821115613087576000815560010161308c565b6001600160a01b0381168114610bf357600080fd5b60008083601f8401126130c757600080fd5b50813567ffffffffffffffff8111156130df57600080fd5b6020830191508360208285010111156130f757600080fd5b9250929050565b60008060008060008060008060c0898b03121561311a57600080fd5b8835613125816130a0565b97506020890135613135816130a0565b96506040890135613145816130a0565b955060608901359450608089013567ffffffffffffffff8082111561316957600080fd5b6131758c838d016130b5565b909650945060a08b013591508082111561318e57600080fd5b5061319b8b828c016130b5565b999c989b5096995094979396929594505050565b6000602082840312156131c157600080fd5b8135610a6f816130a0565b6020808252825182820181905260009190848201906040850190845b8181101561320d5783516001600160a01b0316835292840192918401916001016131e8565b50909695505050505050565b60005b8381101561323457818101518382015260200161321c565b838111156119ea5750506000910152565b6000815180845261325d816020860160208601613219565b601f01601f19169290920160200192915050565b602081526000610a6f6020830184613245565b6000806040838503121561329757600080fd5b82356132a2816130a0565b946020939093013593505050565b634e487b7160e01b600052604160045260246000fd5b600067ffffffffffffffff808411156132e1576132e16132b0565b604051601f8501601f19908116603f01168101908282118183101715613309576133096132b0565b8160405280935085815286868601111561332257600080fd5b858560208301376000602087830101525050509392505050565b60006020828403121561334e57600080fd5b813567ffffffffffffffff81111561336557600080fd5b8201601f8101841361337657600080fd5b613385848235602084016132c6565b949350505050565b6000806000606084860312156133a257600080fd5b83356133ad816130a0565b925060208401356133bd816130a0565b929592945050506040919091013590565b600082601f8301126133df57600080fd5b610a6f838335602085016132c6565b6000806040838503121561340157600080fd5b823561340c816130a0565b9150602083013567ffffffffffffffff81111561342857600080fd5b613434858286016133ce565b9150509250929050565b600080600080600060a0868803121561345657600080fd5b8535613461816130a0565b94506020860135613471816130a0565b935060408601359250606086013567ffffffffffffffff8082111561349557600080fd5b6134a189838a016133ce565b935060808801359150808211156134b757600080fd5b506134c4888289016133ce565b9150509295509295909350565b6000806000606084860312156134e657600080fd5b83356134f1816130a0565b925060208401359150604084013567ffffffffffffffff81111561351457600080fd5b613520868287016133ce565b9150509250925092565b60006020828403121561353c57600080fd5b5035919050565b6000806040838503121561355657600080fd5b8235613561816130a0565b91506020830135613571816130a0565b809150509250929050565b6000806000806080858703121561359257600080fd5b843561359d816130a0565b935060208501359250604085013567ffffffffffffffff808211156135c157600080fd5b6135cd888389016133ce565b935060608701359150808211156135e357600080fd5b506135f0878288016133ce565b91505092959194509250565b6000806040838503121561360f57600080fd5b82359150602083013567ffffffffffffffff81111561342857600080fd5b81835281816020850137506000828201602090810191909152601f909101601f19169091010190565b60006001600160a01b03808b168352808a16602084015280891660408401525086606083015260c0608083015261369160c08301868861362d565b82810360a08401526136a481858761362d565b9b9a5050505050505050505050565b600181811c908216806136c757607f821691505b6020821081036136e757634e487b7160e01b600052602260045260246000fd5b50919050565b6000602082840312156136ff57600080fd5b5051919050565b634e487b7160e01b600052601160045260246000fd5b6000821982111561372f5761372f613706565b500190565b600081600019048311821515161561374e5761374e613706565b500290565b600181815b8085111561378e57816000190482111561377457613774613706565b8085161561378157918102915b93841c9390800290613758565b509250929050565b6000826137a55750600161092b565b816137b25750600061092b565b81600181146137c857600281146137d2576137ee565b600191505061092b565b60ff8411156137e3576137e3613706565b50506001821b61092b565b5060208310610133831016604e8410600b8410161715613811575081810a61092b565b61381b8383613753565b806000190482111561382f5761382f613706565b029392505050565b6000610a6f60ff841683613796565b60008282101561385857613858613706565b500390565b8381526060602082015260006138766060830185613245565b82810360408401526138888185613245565b9695505050505050565b6000602082840312156138a457600080fd5b8151610a6f816130a0565b60006001600160a01b038089168352808816602084015280871660408401525084606083015260c060808301526138e960c0830185613245565b82810360a08401526138fb8185613245565b9998505050505050505050565b601f82111561148c57600081815260208120601f850160051c8101602086101561392f5750805b601f850160051c820191505b81811015610a265782815560010161393b565b815167ffffffffffffffff811115613968576139686132b0565b61397c8161397684546136b3565b84613908565b602080601f8311600181146139b157600084156139995750858301515b600019600386901b1c1916600185901b178555610a26565b600085815260208120601f198616915b828110156139e0578886015182559484019460019091019084016139c1565b50858210156139fe5787850151600019600388901b60f8161c191681555b5050505050600190811b01905550565b634e487b7160e01b600052603260045260246000fd5b600060018201613a3657613a36613706565b5060010190565b60008251613a4f818460208701613219565b919091019291505056fe416464726573733a206c6f772d6c6576656c2064656c65676174652063616c6c206661696c6564a26469706673582212201c4d459c41d6976799be21e9a9252ceca36a41e6071c71119da2211cf2d9522e64736f6c634300080f0033",
  "linkReferences": {},
  "deployedLinkReferences": {}
}