{
  "_format": "hh-sol-artifact-1",
  "contractName": "UP_CatnipVer02",
  "sourceName": "contracts/token/upgradeable/token/ERC777/UP_Catnip/UP_CatnipVer02.sol",
  "abi": [
    {
      "inputs": [],
      "stateMutability": "nonpayable",
      "type": "constructor"
    },
    {
      "anonymous": false,
      "inputs": [
        {
          "indexed": false,
          "internalType": "address",
          "name": "previousAdmin",
          "type": "address"
        },
        {
          "indexed": false,
          "internalType": "address",
          "name": "newAdmin",
          "type": "address"
        }
      ],
      "name": "AdminChanged",
      "type": "event"
    },
    {
      "anonymous": false,
      "inputs": [
        {
          "indexed": true,
          "internalType": "address",
          "name": "owner",
          "type": "address"
        },
        {
          "indexed": true,
          "internalType": "address",
          "name": "spender",
          "type": "address"
        },
        {
          "indexed": false,
          "internalType": "uint256",
          "name": "value",
          "type": "uint256"
        }
      ],
      "name": "Approval",
      "type": "event"
    },
    {
      "anonymous": false,
      "inputs": [
        {
          "indexed": true,
          "internalType": "address",
          "name": "operator",
          "type": "address"
        },
        {
          "indexed": true,
          "internalType": "address",
          "name": "tokenHolder",
          "type": "address"
        }
      ],
      "name": "AuthorizedOperator",
      "type": "event"
    },
    {
      "anonymous": false,
      "inputs": [
        {
          "indexed": true,
          "internalType": "address",
          "name": "beacon",
          "type": "address"
        }
      ],
      "name": "BeaconUpgraded",
      "type": "event"
    },
    {
      "anonymous": false,
      "inputs": [
        {
          "indexed": true,
          "internalType": "address",
          "name": "operator",
          "type": "address"
        },
        {
          "indexed": true,
          "internalType": "address",
          "name": "from",
          "type": "address"
        },
        {
          "indexed": false,
          "internalType": "uint256",
          "name": "amount",
          "type": "uint256"
        },
        {
          "indexed": false,
          "internalType": "bytes",
          "name": "data",
          "type": "bytes"
        },
        {
          "indexed": false,
          "internalType": "bytes",
          "name": "operatorData",
          "type": "bytes"
        }
      ],
      "name": "Burned",
      "type": "event"
    },
    {
      "anonymous": false,
      "inputs": [
        {
          "indexed": false,
          "internalType": "uint8",
          "name": "version",
          "type": "uint8"
        }
      ],
      "name": "Initialized",
      "type": "event"
    },
    {
      "anonymous": false,
      "inputs": [
        {
          "indexed": true,
          "internalType": "address",
          "name": "operator",
          "type": "address"
        },
        {
          "indexed": true,
          "internalType": "address",
          "name": "to",
          "type": "address"
        },
        {
          "indexed": false,
          "internalType": "uint256",
          "name": "amount",
          "type": "uint256"
        },
        {
          "indexed": false,
          "internalType": "bytes",
          "name": "data",
          "type": "bytes"
        },
        {
          "indexed": false,
          "internalType": "bytes",
          "name": "operatorData",
          "type": "bytes"
        }
      ],
      "name": "Minted",
      "type": "event"
    },
    {
      "anonymous": false,
      "inputs": [
        {
          "indexed": true,
          "internalType": "address",
          "name": "previousOwner",
          "type": "address"
        },
        {
          "indexed": true,
          "internalType": "address",
          "name": "newOwner",
          "type": "address"
        }
      ],
      "name": "OwnershipTransferred",
      "type": "event"
    },
    {
      "anonymous": false,
      "inputs": [
        {
          "indexed": true,
          "internalType": "address",
          "name": "operator",
          "type": "address"
        },
        {
          "indexed": true,
          "internalType": "address",
          "name": "tokenHolder",
          "type": "address"
        }
      ],
      "name": "RevokedOperator",
      "type": "event"
    },
    {
      "anonymous": false,
      "inputs": [
        {
          "indexed": true,
          "internalType": "address",
          "name": "operator",
          "type": "address"
        },
        {
          "indexed": true,
          "internalType": "address",
          "name": "from",
          "type": "address"
        },
        {
          "indexed": true,
          "internalType": "address",
          "name": "to",
          "type": "address"
        },
        {
          "indexed": false,
          "internalType": "uint256",
          "name": "amount",
          "type": "uint256"
        },
        {
          "indexed": false,
          "internalType": "bytes",
          "name": "data",
          "type": "bytes"
        },
        {
          "indexed": false,
          "internalType": "bytes",
          "name": "operatorData",
          "type": "bytes"
        }
      ],
      "name": "Sent",
      "type": "event"
    },
    {
      "anonymous": false,
      "inputs": [
        {
          "indexed": true,
          "internalType": "address",
          "name": "from",
          "type": "address"
        },
        {
          "indexed": true,
          "internalType": "address",
          "name": "to",
          "type": "address"
        },
        {
          "indexed": false,
          "internalType": "uint256",
          "name": "value",
          "type": "uint256"
        }
      ],
      "name": "Transfer",
      "type": "event"
    },
    {
      "anonymous": false,
      "inputs": [
        {
          "indexed": true,
          "internalType": "address",
          "name": "implementation",
          "type": "address"
        }
      ],
      "name": "Upgraded",
      "type": "event"
    },
    {
      "inputs": [
        {
          "internalType": "address",
          "name": "holder",
          "type": "address"
        },
        {
          "internalType": "address",
          "name": "spender",
          "type": "address"
        }
      ],
      "name": "allowance",
      "outputs": [
        {
          "internalType": "uint256",
          "name": "",
          "type": "uint256"
        }
      ],
      "stateMutability": "view",
      "type": "function"
    },
    {
      "inputs": [
        {
          "internalType": "address",
          "name": "spender",
          "type": "address"
        },
        {
          "internalType": "uint256",
          "name": "value",
          "type": "uint256"
        }
      ],
      "name": "approve",
      "outputs": [
        {
          "internalType": "bool",
          "name": "",
          "type": "bool"
        }
      ],
      "stateMutability": "nonpayable",
      "type": "function"
    },
    {
      "inputs": [
        {
          "internalType": "address",
          "name": "operator",
          "type": "address"
        }
      ],
      "name": "authorizeOperator",
      "outputs": [],
      "stateMutability": "nonpayable",
      "type": "function"
    },
    {
      "inputs": [
        {
          "internalType": "address",
          "name": "tokenHolder",
          "type": "address"
        }
      ],
      "name": "balanceOf",
      "outputs": [
        {
          "internalType": "uint256",
          "name": "",
          "type": "uint256"
        }
      ],
      "stateMutability": "view",
      "type": "function"
    },
    {
      "inputs": [
        {
          "internalType": "uint256",
          "name": "amount",
          "type": "uint256"
        },
        {
          "internalType": "bytes",
          "name": "data",
          "type": "bytes"
        }
      ],
      "name": "burn",
      "outputs": [],
      "stateMutability": "nonpayable",
      "type": "function"
    },
    {
      "inputs": [],
      "name": "catnipVersion",
      "outputs": [
        {
          "internalType": "uint256",
          "name": "",
          "type": "uint256"
        }
      ],
      "stateMutability": "pure",
      "type": "function"
    },
    {
      "inputs": [],
      "name": "decimals",
      "outputs": [
        {
          "internalType": "uint8",
          "name": "",
          "type": "uint8"
        }
      ],
      "stateMutability": "pure",
      "type": "function"
    },
    {
      "inputs": [],
      "name": "defaultOperators",
      "outputs": [
        {
          "internalType": "address[]",
          "name": "",
          "type": "address[]"
        }
      ],
      "stateMutability": "view",
      "type": "function"
    },
    {
      "inputs": [],
      "name": "granularity",
      "outputs": [
        {
          "internalType": "uint256",
          "name": "",
          "type": "uint256"
        }
      ],
      "stateMutability": "view",
      "type": "function"
    },
    {
      "inputs": [],
      "name": "initialize",
      "outputs": [],
      "stateMutability": "nonpayable",
      "type": "function"
    },
    {
      "inputs": [
        {
          "internalType": "address",
          "name": "operator",
          "type": "address"
        },
        {
          "internalType": "address",
          "name": "tokenHolder",
          "type": "address"
        }
      ],
      "name": "isOperatorFor",
      "outputs": [
        {
          "internalType": "bool",
          "name": "",
          "type": "bool"
        }
      ],
      "stateMutability": "view",
      "type": "function"
    },
    {
      "inputs": [],
      "name": "name",
      "outputs": [
        {
          "internalType": "string",
          "name": "",
          "type": "string"
        }
      ],
      "stateMutability": "view",
      "type": "function"
    },
    {
      "inputs": [
        {
          "internalType": "address",
          "name": "account",
          "type": "address"
        },
        {
          "internalType": "uint256",
          "name": "amount",
          "type": "uint256"
        },
        {
          "internalType": "bytes",
          "name": "data",
          "type": "bytes"
        },
        {
          "internalType": "bytes",
          "name": "operatorData",
          "type": "bytes"
        }
      ],
      "name": "operatorBurn",
      "outputs": [],
      "stateMutability": "nonpayable",
      "type": "function"
    },
    {
      "inputs": [
        {
          "internalType": "address",
          "name": "sender",
          "type": "address"
        },
        {
          "internalType": "address",
          "name": "recipient",
          "type": "address"
        },
        {
          "internalType": "uint256",
          "name": "amount",
          "type": "uint256"
        },
        {
          "internalType": "bytes",
          "name": "data",
          "type": "bytes"
        },
        {
          "internalType": "bytes",
          "name": "operatorData",
          "type": "bytes"
        }
      ],
      "name": "operatorSend",
      "outputs": [],
      "stateMutability": "nonpayable",
      "type": "function"
    },
    {
      "inputs": [],
      "name": "owner",
      "outputs": [
        {
          "internalType": "address",
          "name": "",
          "type": "address"
        }
      ],
      "stateMutability": "view",
      "type": "function"
    },
    {
      "inputs": [],
      "name": "proxiableUUID",
      "outputs": [
        {
          "internalType": "bytes32",
          "name": "",
          "type": "bytes32"
        }
      ],
      "stateMutability": "view",
      "type": "function"
    },
    {
      "inputs": [],
      "name": "renounceOwnership",
      "outputs": [],
      "stateMutability": "nonpayable",
      "type": "function"
    },
    {
      "inputs": [
        {
          "internalType": "address",
          "name": "operator",
          "type": "address"
        }
      ],
      "name": "revokeOperator",
      "outputs": [],
      "stateMutability": "nonpayable",
      "type": "function"
    },
    {
      "inputs": [
        {
          "internalType": "address",
          "name": "recipient",
          "type": "address"
        },
        {
          "internalType": "uint256",
          "name": "amount",
          "type": "uint256"
        },
        {
          "internalType": "bytes",
          "name": "data",
          "type": "bytes"
        }
      ],
      "name": "send",
      "outputs": [],
      "stateMutability": "nonpayable",
      "type": "function"
    },
    {
      "inputs": [],
      "name": "supplyLimit",
      "outputs": [
        {
          "internalType": "uint256",
          "name": "",
          "type": "uint256"
        }
      ],
      "stateMutability": "view",
      "type": "function"
    },
    {
      "inputs": [],
      "name": "symbol",
      "outputs": [
        {
          "internalType": "string",
          "name": "",
          "type": "string"
        }
      ],
      "stateMutability": "view",
      "type": "function"
    },
    {
      "inputs": [],
      "name": "totalSupply",
      "outputs": [
        {
          "internalType": "uint256",
          "name": "",
          "type": "uint256"
        }
      ],
      "stateMutability": "view",
      "type": "function"
    },
    {
      "inputs": [
        {
          "internalType": "address",
          "name": "recipient",
          "type": "address"
        },
        {
          "internalType": "uint256",
          "name": "amount",
          "type": "uint256"
        }
      ],
      "name": "transfer",
      "outputs": [
        {
          "internalType": "bool",
          "name": "",
          "type": "bool"
        }
      ],
      "stateMutability": "nonpayable",
      "type": "function"
    },
    {
      "inputs": [
        {
          "internalType": "address",
          "name": "holder",
          "type": "address"
        },
        {
          "internalType": "address",
          "name": "recipient",
          "type": "address"
        },
        {
          "internalType": "uint256",
          "name": "amount",
          "type": "uint256"
        }
      ],
      "name": "transferFrom",
      "outputs": [
        {
          "internalType": "bool",
          "name": "",
          "type": "bool"
        }
      ],
      "stateMutability": "nonpayable",
      "type": "function"
    },
    {
      "inputs": [
        {
          "internalType": "address",
          "name": "newOwner",
          "type": "address"
        }
      ],
      "name": "transferOwnership",
      "outputs": [],
      "stateMutability": "nonpayable",
      "type": "function"
    },
    {
      "inputs": [
        {
          "internalType": "address",
          "name": "newImplementation",
          "type": "address"
        }
      ],
      "name": "upgradeTo",
      "outputs": [],
      "stateMutability": "nonpayable",
      "type": "function"
    },
    {
      "inputs": [
        {
          "internalType": "address",
          "name": "newImplementation",
          "type": "address"
        },
        {
          "internalType": "bytes",
          "name": "data",
          "type": "bytes"
        }
      ],
      "name": "upgradeToAndCall",
      "outputs": [],
      "stateMutability": "payable",
      "type": "function"
    }
  ],
  "bytecode": "0x60a0604052306080523480156200001557600080fd5b506200002062000030565b6200002a62000030565b620000f2565b600054610100900460ff16156200009d5760405162461bcd60e51b815260206004820152602760248201527f496e697469616c697a61626c653a20636f6e747261637420697320696e697469604482015266616c697a696e6760c81b606482015260840160405180910390fd5b60005460ff9081161015620000f0576000805460ff191660ff9081179091556040519081527f7f26b83ff96e1f2b6a682f133852f6798a09c465da95921460cefb38474024989060200160405180910390a15b565b608051612bc16200012a6000396000818161066b015281816106f5015281816107eb01528181610870015261095a0152612bc16000f3fe6080604052600436106101ac5760003560e01c8063715018a6116100ec578063d95b63711161008a578063f39d6fa211610064578063f39d6fa2146104a0578063fad8b32a146104b4578063fc673c4f146104d4578063fe9d9303146104f457600080fd5b8063d95b63711461041a578063dd62ed3e1461043a578063f2fde38b1461048057600080fd5b8063959b8c3f116100c6578063959b8c3f146103a557806395d89b41146103c55780639bd9bbc6146103da578063a9059cbb146103fa57600080fd5b8063715018a6146103535780638129fc1c146103685780638da5cb5b1461037d57600080fd5b8063313ce5671161015957806352d1902d1161013357806352d1902d146102d4578063556f0dc7146102e957806362ad1b83146102fd57806370a082311461031d57600080fd5b8063313ce567146102835780633659cfe61461029f5780634f1ef286146102c157600080fd5b806318160ddd1161018a57806318160ddd1461022e57806319d1997a1461024d57806323b872dd1461026357600080fd5b806306e48538146101b157806306fdde03146101dc578063095ea7b3146101fe575b600080fd5b3480156101bd57600080fd5b506101c6610514565b6040516101d39190612396565b60405180910390f35b3480156101e857600080fd5b506101f1610576565b6040516101d3919061243b565b34801561020a57600080fd5b5061021e610219366004612463565b6105ff565b60405190151581526020016101d3565b34801561023a57600080fd5b506034545b6040519081526020016101d3565b34801561025957600080fd5b5061023f60fb5481565b34801561026f57600080fd5b5061021e61027e36600461248f565b610619565b34801561028f57600080fd5b50604051601281526020016101d3565b3480156102ab57600080fd5b506102bf6102ba3660046124d0565b610661565b005b6102bf6102cf366004612590565b6107e1565b3480156102e057600080fd5b5061023f61094d565b3480156102f557600080fd5b50600161023f565b34801561030957600080fd5b506102bf6103183660046125e0565b610a12565b34801561032957600080fd5b5061023f6103383660046124d0565b6001600160a01b031660009081526033602052604090205490565b34801561035f57600080fd5b506102bf610a93565b34801561037457600080fd5b506102bf610aa7565b34801561038957600080fd5b5060c9546040516001600160a01b0390911681526020016101d3565b3480156103b157600080fd5b506102bf6103c03660046124d0565b610c3f565b3480156103d157600080fd5b506101f1610d75565b3480156103e657600080fd5b506102bf6103f5366004612673565b610d84565b34801561040657600080fd5b5061021e610415366004612463565b610da7565b34801561042657600080fd5b5061021e6104353660046126cc565b610ddf565b34801561044657600080fd5b5061023f6104553660046126cc565b6001600160a01b039182166000908152603b6020908152604080832093909416825291909152205490565b34801561048c57600080fd5b506102bf61049b3660046124d0565b610e80565b3480156104ac57600080fd5b50600261023f565b3480156104c057600080fd5b506102bf6104cf3660046124d0565b610ef6565b3480156104e057600080fd5b506102bf6104ef366004612705565b61102d565b34801561050057600080fd5b506102bf61050f366004612785565b6110aa565b6060603780548060200260200160405190810160405280929190818152602001828054801561056c57602002820191906000526020600020905b81546001600160a01b0316815260019091019060200180831161054e575b5050505050905090565b606060358054610585906127b6565b80601f01602080910402602001604051908101604052809291908181526020018280546105b1906127b6565b801561056c5780601f106105d35761010080835404028352916020019161056c565b820191906000526020600020905b8154815290600101906020018083116105e157509395945050505050565b60003361060d8185856110c5565b60019150505b92915050565b60003361062785828561121e565b610654858585604051806020016040528060008152506040518060200160405280600081525060006112aa565b60019150505b9392505050565b6001600160a01b037f00000000000000000000000000000000000000000000000000000000000000001630036106f35760405162461bcd60e51b815260206004820152602c60248201527f46756e6374696f6e206d7573742062652063616c6c6564207468726f7567682060448201526b19195b1959d85d1958d85b1b60a21b60648201526084015b60405180910390fd5b7f00000000000000000000000000000000000000000000000000000000000000006001600160a01b031661074e7f360894a13ba1a3210667c828492db98dca3e2076cc3735a920a3ca505d382bbc546001600160a01b031690565b6001600160a01b0316146107b95760405162461bcd60e51b815260206004820152602c60248201527f46756e6374696f6e206d7573742062652063616c6c6564207468726f7567682060448201526b6163746976652070726f787960a01b60648201526084016106ea565b6107c2816113bf565b604080516000808252602082019092526107de918391906113c7565b50565b6001600160a01b037f000000000000000000000000000000000000000000000000000000000000000016300361086e5760405162461bcd60e51b815260206004820152602c60248201527f46756e6374696f6e206d7573742062652063616c6c6564207468726f7567682060448201526b19195b1959d85d1958d85b1b60a21b60648201526084016106ea565b7f00000000000000000000000000000000000000000000000000000000000000006001600160a01b03166108c97f360894a13ba1a3210667c828492db98dca3e2076cc3735a920a3ca505d382bbc546001600160a01b031690565b6001600160a01b0316146109345760405162461bcd60e51b815260206004820152602c60248201527f46756e6374696f6e206d7573742062652063616c6c6564207468726f7567682060448201526b6163746976652070726f787960a01b60648201526084016106ea565b61093d826113bf565b610949828260016113c7565b5050565b6000306001600160a01b037f000000000000000000000000000000000000000000000000000000000000000016146109ed5760405162461bcd60e51b815260206004820152603860248201527f555550535570677261646561626c653a206d757374206e6f742062652063616c60448201527f6c6564207468726f7567682064656c656761746563616c6c000000000000000060648201526084016106ea565b507f360894a13ba1a3210667c828492db98dca3e2076cc3735a920a3ca505d382bbc90565b610a1c3386610ddf565b610a7d5760405162461bcd60e51b815260206004820152602c60248201527f4552433737373a2063616c6c6572206973206e6f7420616e206f70657261746f60448201526b39103337b9103437b63232b960a11b60648201526084016106ea565b610a8c858585858560016112aa565b5050505050565b610a9b611567565b610aa560006115c1565b565b600054600290610100900460ff16158015610ac9575060005460ff8083169116105b610b3b5760405162461bcd60e51b815260206004820152602e60248201527f496e697469616c697a61626c653a20636f6e747261637420697320616c72656160448201527f647920696e697469616c697a656400000000000000000000000000000000000060648201526084016106ea565b6000805461ffff191660ff831617610100178155604080518082018252600e81527f55505f4361746e6970566572303200000000000000000000000000000000000060208083019190915282518084018452600281527f434e000000000000000000000000000000000000000000000000000000000000818301528351858152918201909352610bce9391929150611620565b610bd6611696565b610bde611701565b610bea6012600a6128ea565b610bf890633b9aca006128f9565b60fb556000805461ff001916905560405160ff821681527f7f26b83ff96e1f2b6a682f133852f6798a09c465da95921460cefb38474024989060200160405180910390a150565b6001600160a01b0381163303610cbc5760405162461bcd60e51b8152602060048201526024808201527f4552433737373a20617574686f72697a696e672073656c66206173206f70657260448201527f61746f720000000000000000000000000000000000000000000000000000000060648201526084016106ea565b6001600160a01b03811660009081526038602052604090205460ff1615610d0d57336000908152603a602090815260408083206001600160a01b03851684529091529020805460ff19169055610d3c565b3360009081526039602090815260408083206001600160a01b03851684529091529020805460ff191660011790555b60405133906001600160a01b038316907ff4caeb2d6ca8932a215a353d0703c326ec2d81fc68170f320eb2ab49e9df61f990600090a350565b606060368054610585906127b6565b610da2338484846040518060200160405280600081525060016112aa565b505050565b6000610dd6338484604051806020016040528060008152506040518060200160405280600081525060006112aa565b50600192915050565b6000816001600160a01b0316836001600160a01b03161480610e4a57506001600160a01b03831660009081526038602052604090205460ff168015610e4a57506001600160a01b038083166000908152603a602090815260408083209387168352929052205460ff16155b8061065a57506001600160a01b0380831660009081526039602090815260408083209387168352929052205460ff169392505050565b610e88611567565b6001600160a01b038116610eed5760405162461bcd60e51b815260206004820152602660248201527f4f776e61626c653a206e6577206f776e657220697320746865207a65726f206160448201526564647265737360d01b60648201526084016106ea565b6107de816115c1565b336001600160a01b03821603610f745760405162461bcd60e51b815260206004820152602160248201527f4552433737373a207265766f6b696e672073656c66206173206f70657261746f60448201527f720000000000000000000000000000000000000000000000000000000000000060648201526084016106ea565b6001600160a01b03811660009081526038602052604090205460ff1615610fc857336000908152603a602090815260408083206001600160a01b03851684529091529020805460ff19166001179055610ff4565b3360009081526039602090815260408083206001600160a01b03851684529091529020805460ff191690555b60405133906001600160a01b038316907f50546e66e5f44d728365dc3908c63bc5cfeeab470722c1677e3073a6ac294aa190600090a350565b6110373385610ddf565b6110985760405162461bcd60e51b815260206004820152602c60248201527f4552433737373a2063616c6c6572206973206e6f7420616e206f70657261746f60448201526b39103337b9103437b63232b960a11b60648201526084016106ea565b6110a484848484611774565b50505050565b61094933838360405180602001604052806000815250611774565b6001600160a01b0383166111415760405162461bcd60e51b815260206004820152602560248201527f4552433737373a20617070726f76652066726f6d20746865207a65726f20616460448201527f647265737300000000000000000000000000000000000000000000000000000060648201526084016106ea565b6001600160a01b0382166111bd5760405162461bcd60e51b815260206004820152602360248201527f4552433737373a20617070726f766520746f20746865207a65726f206164647260448201527f657373000000000000000000000000000000000000000000000000000000000060648201526084016106ea565b6001600160a01b038381166000818152603b602090815260408083209487168084529482529182902085905590518481527f8c5be1e5ebec7d5bd14f71427d1e84f3dd0314c0f7b2291e5b200ac8c7c3b925910160405180910390a3505050565b6001600160a01b038381166000908152603b602090815260408083209386168352929052205460001981146110a4578181101561129d5760405162461bcd60e51b815260206004820152601e60248201527f4552433737373a20696e73756666696369656e7420616c6c6f77616e6365000060448201526064016106ea565b6110a484848484036110c5565b6001600160a01b03861661130f5760405162461bcd60e51b815260206004820152602660248201527f4552433737373a207472616e736665722066726f6d20746865207a65726f206160448201526564647265737360d01b60648201526084016106ea565b6001600160a01b03851661138a5760405162461bcd60e51b8152602060048201526024808201527f4552433737373a207472616e7366657220746f20746865207a65726f2061646460448201527f726573730000000000000000000000000000000000000000000000000000000060648201526084016106ea565b3361139981888888888861195d565b6113a7818888888888611a9d565b6113b681888888888888611c19565b50505050505050565b6107de611567565b7f4910fdfa16fed3260ed0e7147f7cc6da11a60208b5b9406d12a635614ffd91435460ff16156113fa57610da283611e07565b826001600160a01b03166352d1902d6040518163ffffffff1660e01b8152600401602060405180830381865afa925050508015611454575060408051601f3d908101601f1916820190925261145191810190612918565b60015b6114c65760405162461bcd60e51b815260206004820152602e60248201527f45524331393637557067726164653a206e657720696d706c656d656e7461746960448201527f6f6e206973206e6f74205555505300000000000000000000000000000000000060648201526084016106ea565b7f360894a13ba1a3210667c828492db98dca3e2076cc3735a920a3ca505d382bbc811461155b5760405162461bcd60e51b815260206004820152602960248201527f45524331393637557067726164653a20756e737570706f727465642070726f7860448201527f6961626c6555554944000000000000000000000000000000000000000000000060648201526084016106ea565b50610da2838383611ed2565b60c9546001600160a01b03163314610aa55760405162461bcd60e51b815260206004820181905260248201527f4f776e61626c653a2063616c6c6572206973206e6f7420746865206f776e657260448201526064016106ea565b60c980546001600160a01b0383811673ffffffffffffffffffffffffffffffffffffffff19831681179093556040519116919082907f8be0079c531659141344cd1fd0a4f28419497f9722a3daafe3b4186f6b6457e090600090a35050565b600054610100900460ff1661168b5760405162461bcd60e51b815260206004820152602b60248201527f496e697469616c697a61626c653a20636f6e7472616374206973206e6f74206960448201526a6e697469616c697a696e6760a81b60648201526084016106ea565b610da2838383611ef7565b600054610100900460ff16610aa55760405162461bcd60e51b815260206004820152602b60248201527f496e697469616c697a61626c653a20636f6e7472616374206973206e6f74206960448201526a6e697469616c697a696e6760a81b60648201526084016106ea565b600054610100900460ff1661176c5760405162461bcd60e51b815260206004820152602b60248201527f496e697469616c697a61626c653a20636f6e7472616374206973206e6f74206960448201526a6e697469616c697a696e6760a81b60648201526084016106ea565b610aa5612117565b6001600160a01b0384166117f05760405162461bcd60e51b815260206004820152602260248201527f4552433737373a206275726e2066726f6d20746865207a65726f20616464726560448201527f737300000000000000000000000000000000000000000000000000000000000060648201526084016106ea565b336118008186600087878761195d565b6001600160a01b0385166000908152603360205260409020548481101561188f5760405162461bcd60e51b815260206004820152602360248201527f4552433737373a206275726e20616d6f756e7420657863656564732062616c6160448201527f6e6365000000000000000000000000000000000000000000000000000000000060648201526084016106ea565b6001600160a01b03861660009081526033602052604081208683039055603480548792906118be908490612931565b92505081905550856001600160a01b0316826001600160a01b03167fa78a9be3a7b862d26933ad85fb11d80ef66b8f972d7cbba06621d583943a409887878760405161190c93929190612948565b60405180910390a36040518581526000906001600160a01b038816907fddf252ad1be2c89b69c2b068fc378daa952ba7f163c4a11628f55a4df523b3ef9060200160405180910390a3505050505050565b60405163555ddc6560e11b81526001600160a01b03861660048201527f29ddb589b1fb5fc7cf394961c1adf5f8c6454761adf795e67fe149f658abe8956024820152600090731820a4b7618bde71dce8cdc73aab6c95905fad249063aabbb8ca90604401602060405180830381865afa1580156119de573d6000803e3d6000fd5b505050506040513d601f19601f82011682018060405250810190611a02919061297d565b90506001600160a01b038116156113b6576040517f75ab97820000000000000000000000000000000000000000000000000000000081526001600160a01b038216906375ab978290611a62908a908a908a908a908a908a9060040161299a565b600060405180830381600087803b158015611a7c57600080fd5b505af1158015611a90573d6000803e3d6000fd5b5050505050505050505050565b6001600160a01b03851660009081526033602052604090205483811015611b2c5760405162461bcd60e51b815260206004820152602760248201527f4552433737373a207472616e7366657220616d6f756e7420657863656564732060448201527f62616c616e63650000000000000000000000000000000000000000000000000060648201526084016106ea565b6001600160a01b03808716600090815260336020526040808220878503905591871681529081208054869290611b639084906129f3565b92505081905550846001600160a01b0316866001600160a01b0316886001600160a01b03167f06b541ddaa720db2b10a4d0cdac39b8d360425fc073085fac19bc82614677987878787604051611bbb93929190612948565b60405180910390a4846001600160a01b0316866001600160a01b03167fddf252ad1be2c89b69c2b068fc378daa952ba7f163c4a11628f55a4df523b3ef86604051611c0891815260200190565b60405180910390a350505050505050565b60405163555ddc6560e11b81526001600160a01b03861660048201527fb281fc8c12954d22544db45de3159a39272895b169a852b314f9cc762e44c53b6024820152600090731820a4b7618bde71dce8cdc73aab6c95905fad249063aabbb8ca90604401602060405180830381865afa158015611c9a573d6000803e3d6000fd5b505050506040513d601f19601f82011682018060405250810190611cbe919061297d565b90506001600160a01b03811615611d53576040517e23de290000000000000000000000000000000000000000000000000000000081526001600160a01b038216906223de2990611d1c908b908b908b908b908b908b9060040161299a565b600060405180830381600087803b158015611d3657600080fd5b505af1158015611d4a573d6000803e3d6000fd5b50505050611dfd565b8115611dfd576001600160a01b0386163b15611dfd5760405162461bcd60e51b815260206004820152604d60248201527f4552433737373a20746f6b656e20726563697069656e7420636f6e747261637460448201527f20686173206e6f20696d706c656d656e74657220666f7220455243373737546f60648201527f6b656e73526563697069656e7400000000000000000000000000000000000000608482015260a4016106ea565b5050505050505050565b6001600160a01b0381163b611e845760405162461bcd60e51b815260206004820152602d60248201527f455243313936373a206e657720696d706c656d656e746174696f6e206973206e60448201527f6f74206120636f6e74726163740000000000000000000000000000000000000060648201526084016106ea565b7f360894a13ba1a3210667c828492db98dca3e2076cc3735a920a3ca505d382bbc805473ffffffffffffffffffffffffffffffffffffffff19166001600160a01b0392909216919091179055565b611edb8361218b565b600082511180611ee85750805b15610da2576110a483836121cb565b600054610100900460ff16611f625760405162461bcd60e51b815260206004820152602b60248201527f496e697469616c697a61626c653a20636f6e7472616374206973206e6f74206960448201526a6e697469616c697a696e6760a81b60648201526084016106ea565b6035611f6e8482612a59565b506036611f7b8382612a59565b508051611f8f90603790602084019061230f565b5060005b8151811015611ff857600160386000848481518110611fb457611fb4612b19565b6020908102919091018101516001600160a01b03168252810191909152604001600020805460ff191691151591909117905580611ff081612b2f565b915050611f93565b506040516329965a1d60e01b815230600482018190527fac7fbab5f54a3ca8194167523c6753bfeb96a445279294b6125b68cce217705460248301526044820152731820a4b7618bde71dce8cdc73aab6c95905fad24906329965a1d90606401600060405180830381600087803b15801561207257600080fd5b505af1158015612086573d6000803e3d6000fd5b50506040516329965a1d60e01b815230600482018190527faea199e31a596269b42cdafd93407f14436db6e4cad65417994c2eb37381e05a60248301526044820152731820a4b7618bde71dce8cdc73aab6c95905fad2492506329965a1d9150606401600060405180830381600087803b15801561210357600080fd5b505af11580156113b6573d6000803e3d6000fd5b600054610100900460ff166121825760405162461bcd60e51b815260206004820152602b60248201527f496e697469616c697a61626c653a20636f6e7472616374206973206e6f74206960448201526a6e697469616c697a696e6760a81b60648201526084016106ea565b610aa5336115c1565b61219481611e07565b6040516001600160a01b038216907fbc7cd75a20ee27fd9adebab32041f755214dbc6bffa90cc0225b39da2e5c2d3b90600090a250565b60606001600160a01b0383163b61224a5760405162461bcd60e51b815260206004820152602660248201527f416464726573733a2064656c65676174652063616c6c20746f206e6f6e2d636f60448201527f6e7472616374000000000000000000000000000000000000000000000000000060648201526084016106ea565b600080846001600160a01b0316846040516122659190612b48565b600060405180830381855af49150503d80600081146122a0576040519150601f19603f3d011682016040523d82523d6000602084013e6122a5565b606091505b50915091506122cd8282604051806060016040528060278152602001612b65602791396122d6565b95945050505050565b606083156122e557508161065a565b8251156122f55782518084602001fd5b8160405162461bcd60e51b81526004016106ea919061243b565b828054828255906000526020600020908101928215612371579160200282015b82811115612371578251825473ffffffffffffffffffffffffffffffffffffffff19166001600160a01b0390911617825560209092019160019091019061232f565b5061237d929150612381565b5090565b5b8082111561237d5760008155600101612382565b6020808252825182820181905260009190848201906040850190845b818110156123d75783516001600160a01b0316835292840192918401916001016123b2565b50909695505050505050565b60005b838110156123fe5781810151838201526020016123e6565b838111156110a45750506000910152565b600081518084526124278160208601602086016123e3565b601f01601f19169290920160200192915050565b60208152600061065a602083018461240f565b6001600160a01b03811681146107de57600080fd5b6000806040838503121561247657600080fd5b82356124818161244e565b946020939093013593505050565b6000806000606084860312156124a457600080fd5b83356124af8161244e565b925060208401356124bf8161244e565b929592945050506040919091013590565b6000602082840312156124e257600080fd5b813561065a8161244e565b634e487b7160e01b600052604160045260246000fd5b600082601f83011261251457600080fd5b813567ffffffffffffffff8082111561252f5761252f6124ed565b604051601f8301601f19908116603f01168101908282118183101715612557576125576124ed565b8160405283815286602085880101111561257057600080fd5b836020870160208301376000602085830101528094505050505092915050565b600080604083850312156125a357600080fd5b82356125ae8161244e565b9150602083013567ffffffffffffffff8111156125ca57600080fd5b6125d685828601612503565b9150509250929050565b600080600080600060a086880312156125f857600080fd5b85356126038161244e565b945060208601356126138161244e565b935060408601359250606086013567ffffffffffffffff8082111561263757600080fd5b61264389838a01612503565b9350608088013591508082111561265957600080fd5b5061266688828901612503565b9150509295509295909350565b60008060006060848603121561268857600080fd5b83356126938161244e565b925060208401359150604084013567ffffffffffffffff8111156126b657600080fd5b6126c286828701612503565b9150509250925092565b600080604083850312156126df57600080fd5b82356126ea8161244e565b915060208301356126fa8161244e565b809150509250929050565b6000806000806080858703121561271b57600080fd5b84356127268161244e565b935060208501359250604085013567ffffffffffffffff8082111561274a57600080fd5b61275688838901612503565b9350606087013591508082111561276c57600080fd5b5061277987828801612503565b91505092959194509250565b6000806040838503121561279857600080fd5b82359150602083013567ffffffffffffffff8111156125ca57600080fd5b600181811c908216806127ca57607f821691505b6020821081036127ea57634e487b7160e01b600052602260045260246000fd5b50919050565b634e487b7160e01b600052601160045260246000fd5b600181815b80851115612841578160001904821115612827576128276127f0565b8085161561283457918102915b93841c939080029061280b565b509250929050565b60008261285857506001610613565b8161286557506000610613565b816001811461287b5760028114612885576128a1565b6001915050610613565b60ff841115612896576128966127f0565b50506001821b610613565b5060208310610133831016604e8410600b84101617156128c4575081810a610613565b6128ce8383612806565b80600019048211156128e2576128e26127f0565b029392505050565b600061065a60ff841683612849565b6000816000190483118215151615612913576129136127f0565b500290565b60006020828403121561292a57600080fd5b5051919050565b600082821015612943576129436127f0565b500390565b838152606060208201526000612961606083018561240f565b8281036040840152612973818561240f565b9695505050505050565b60006020828403121561298f57600080fd5b815161065a8161244e565b60006001600160a01b038089168352808816602084015280871660408401525084606083015260c060808301526129d460c083018561240f565b82810360a08401526129e6818561240f565b9998505050505050505050565b60008219821115612a0657612a066127f0565b500190565b601f821115610da257600081815260208120601f850160051c81016020861015612a325750805b601f850160051c820191505b81811015612a5157828155600101612a3e565b505050505050565b815167ffffffffffffffff811115612a7357612a736124ed565b612a8781612a8184546127b6565b84612a0b565b602080601f831160018114612abc5760008415612aa45750858301515b600019600386901b1c1916600185901b178555612a51565b600085815260208120601f198616915b82811015612aeb57888601518255948401946001909101908401612acc565b5085821015612b095787850151600019600388901b60f8161c191681555b5050505050600190811b01905550565b634e487b7160e01b600052603260045260246000fd5b600060018201612b4157612b416127f0565b5060010190565b60008251612b5a8184602087016123e3565b919091019291505056fe416464726573733a206c6f772d6c6576656c2064656c65676174652063616c6c206661696c6564a2646970667358221220b5d29d5c2221c53fe61ccff1dd3eeafd1dba3e83c0fbcc71efb7247d4ec7134f64736f6c634300080f0033",
  "linkReferences": {},
  "deployedLinkReferences": {}
}