{
  "_format": "hh-sol-artifact-1",
  "contractName": "UP_CatnipVer02",
  "sourceName": "contracts/token/upgradeable/token/ERC777/UP_Catnip/UP_CatnipVer02.sol",
  "abi": [
    {
      "anonymous": false,
      "inputs": [
        {
          "indexed": false,
          "internalType": "address",
          "name": "previousAdmin",
          "type": "address"
        },
        {
          "indexed": false,
          "internalType": "address",
          "name": "newAdmin",
          "type": "address"
        }
      ],
      "name": "AdminChanged",
      "type": "event"
    },
    {
      "anonymous": false,
      "inputs": [
        {
          "indexed": true,
          "internalType": "address",
          "name": "owner",
          "type": "address"
        },
        {
          "indexed": true,
          "internalType": "address",
          "name": "spender",
          "type": "address"
        },
        {
          "indexed": false,
          "internalType": "uint256",
          "name": "value",
          "type": "uint256"
        }
      ],
      "name": "Approval",
      "type": "event"
    },
    {
      "anonymous": false,
      "inputs": [
        {
          "indexed": true,
          "internalType": "address",
          "name": "operator",
          "type": "address"
        },
        {
          "indexed": true,
          "internalType": "address",
          "name": "tokenHolder",
          "type": "address"
        }
      ],
      "name": "AuthorizedOperator",
      "type": "event"
    },
    {
      "anonymous": false,
      "inputs": [
        {
          "indexed": true,
          "internalType": "address",
          "name": "beacon",
          "type": "address"
        }
      ],
      "name": "BeaconUpgraded",
      "type": "event"
    },
    {
      "anonymous": false,
      "inputs": [
        {
          "indexed": true,
          "internalType": "address",
          "name": "operator",
          "type": "address"
        },
        {
          "indexed": true,
          "internalType": "address",
          "name": "from",
          "type": "address"
        },
        {
          "indexed": false,
          "internalType": "uint256",
          "name": "amount",
          "type": "uint256"
        },
        {
          "indexed": false,
          "internalType": "bytes",
          "name": "data",
          "type": "bytes"
        },
        {
          "indexed": false,
          "internalType": "bytes",
          "name": "operatorData",
          "type": "bytes"
        }
      ],
      "name": "Burned",
      "type": "event"
    },
    {
      "anonymous": false,
      "inputs": [
        {
          "indexed": false,
          "internalType": "uint8",
          "name": "version",
          "type": "uint8"
        }
      ],
      "name": "Initialized",
      "type": "event"
    },
    {
      "anonymous": false,
      "inputs": [
        {
          "indexed": true,
          "internalType": "address",
          "name": "operator",
          "type": "address"
        },
        {
          "indexed": true,
          "internalType": "address",
          "name": "to",
          "type": "address"
        },
        {
          "indexed": false,
          "internalType": "uint256",
          "name": "amount",
          "type": "uint256"
        },
        {
          "indexed": false,
          "internalType": "bytes",
          "name": "data",
          "type": "bytes"
        },
        {
          "indexed": false,
          "internalType": "bytes",
          "name": "operatorData",
          "type": "bytes"
        }
      ],
      "name": "Minted",
      "type": "event"
    },
    {
      "anonymous": false,
      "inputs": [
        {
          "indexed": true,
          "internalType": "address",
          "name": "previousOwner",
          "type": "address"
        },
        {
          "indexed": true,
          "internalType": "address",
          "name": "newOwner",
          "type": "address"
        }
      ],
      "name": "OwnershipTransferred",
      "type": "event"
    },
    {
      "anonymous": false,
      "inputs": [
        {
          "indexed": false,
          "internalType": "uint256",
          "name": "_releaseTime",
          "type": "uint256"
        }
      ],
      "name": "ReleaseTime",
      "type": "event"
    },
    {
      "anonymous": false,
      "inputs": [
        {
          "indexed": true,
          "internalType": "address",
          "name": "operator",
          "type": "address"
        },
        {
          "indexed": true,
          "internalType": "address",
          "name": "tokenHolder",
          "type": "address"
        }
      ],
      "name": "RevokedOperator",
      "type": "event"
    },
    {
      "anonymous": false,
      "inputs": [
        {
          "indexed": true,
          "internalType": "address",
          "name": "operator",
          "type": "address"
        },
        {
          "indexed": true,
          "internalType": "address",
          "name": "from",
          "type": "address"
        },
        {
          "indexed": true,
          "internalType": "address",
          "name": "to",
          "type": "address"
        },
        {
          "indexed": false,
          "internalType": "uint256",
          "name": "amount",
          "type": "uint256"
        },
        {
          "indexed": false,
          "internalType": "bytes",
          "name": "data",
          "type": "bytes"
        },
        {
          "indexed": false,
          "internalType": "bytes",
          "name": "operatorData",
          "type": "bytes"
        }
      ],
      "name": "Sent",
      "type": "event"
    },
    {
      "anonymous": false,
      "inputs": [
        {
          "indexed": true,
          "internalType": "address",
          "name": "from",
          "type": "address"
        },
        {
          "indexed": true,
          "internalType": "address",
          "name": "to",
          "type": "address"
        },
        {
          "indexed": false,
          "internalType": "uint256",
          "name": "value",
          "type": "uint256"
        }
      ],
      "name": "Transfer",
      "type": "event"
    },
    {
      "anonymous": false,
      "inputs": [
        {
          "indexed": true,
          "internalType": "address",
          "name": "implementation",
          "type": "address"
        }
      ],
      "name": "Upgraded",
      "type": "event"
    },
    {
      "inputs": [
        {
          "internalType": "address",
          "name": "holder",
          "type": "address"
        },
        {
          "internalType": "address",
          "name": "spender",
          "type": "address"
        }
      ],
      "name": "allowance",
      "outputs": [
        {
          "internalType": "uint256",
          "name": "",
          "type": "uint256"
        }
      ],
      "stateMutability": "view",
      "type": "function"
    },
    {
      "inputs": [
        {
          "internalType": "address",
          "name": "spender",
          "type": "address"
        },
        {
          "internalType": "uint256",
          "name": "value",
          "type": "uint256"
        }
      ],
      "name": "approve",
      "outputs": [
        {
          "internalType": "bool",
          "name": "",
          "type": "bool"
        }
      ],
      "stateMutability": "nonpayable",
      "type": "function"
    },
    {
      "inputs": [
        {
          "internalType": "address",
          "name": "operator",
          "type": "address"
        }
      ],
      "name": "authorizeOperator",
      "outputs": [],
      "stateMutability": "nonpayable",
      "type": "function"
    },
    {
      "inputs": [
        {
          "internalType": "address",
          "name": "tokenHolder",
          "type": "address"
        }
      ],
      "name": "balanceOf",
      "outputs": [
        {
          "internalType": "uint256",
          "name": "",
          "type": "uint256"
        }
      ],
      "stateMutability": "view",
      "type": "function"
    },
    {
      "inputs": [
        {
          "internalType": "address",
          "name": "",
          "type": "address"
        }
      ],
      "name": "beneficiaries",
      "outputs": [
        {
          "internalType": "uint256",
          "name": "",
          "type": "uint256"
        }
      ],
      "stateMutability": "view",
      "type": "function"
    },
    {
      "inputs": [
        {
          "internalType": "uint256",
          "name": "amount",
          "type": "uint256"
        },
        {
          "internalType": "bytes",
          "name": "data",
          "type": "bytes"
        }
      ],
      "name": "burn",
      "outputs": [],
      "stateMutability": "nonpayable",
      "type": "function"
    },
    {
      "inputs": [],
      "name": "catnipVersion",
      "outputs": [
        {
          "internalType": "uint256",
          "name": "",
          "type": "uint256"
        }
      ],
      "stateMutability": "pure",
      "type": "function"
    },
    {
      "inputs": [],
      "name": "decimals",
      "outputs": [
        {
          "internalType": "uint8",
          "name": "",
          "type": "uint8"
        }
      ],
      "stateMutability": "pure",
      "type": "function"
    },
    {
      "inputs": [],
      "name": "defaultOperators",
      "outputs": [
        {
          "internalType": "address[]",
          "name": "",
          "type": "address[]"
        }
      ],
      "stateMutability": "view",
      "type": "function"
    },
    {
      "inputs": [],
      "name": "granularity",
      "outputs": [
        {
          "internalType": "uint256",
          "name": "",
          "type": "uint256"
        }
      ],
      "stateMutability": "view",
      "type": "function"
    },
    {
      "inputs": [],
      "name": "initialize",
      "outputs": [],
      "stateMutability": "nonpayable",
      "type": "function"
    },
    {
      "inputs": [
        {
          "internalType": "address",
          "name": "operator",
          "type": "address"
        },
        {
          "internalType": "address",
          "name": "tokenHolder",
          "type": "address"
        }
      ],
      "name": "isOperatorFor",
      "outputs": [
        {
          "internalType": "bool",
          "name": "",
          "type": "bool"
        }
      ],
      "stateMutability": "view",
      "type": "function"
    },
    {
      "inputs": [
        {
          "internalType": "address",
          "name": "account",
          "type": "address"
        },
        {
          "internalType": "uint256",
          "name": "amount",
          "type": "uint256"
        },
        {
          "internalType": "bytes",
          "name": "userData",
          "type": "bytes"
        },
        {
          "internalType": "bytes",
          "name": "operatorData",
          "type": "bytes"
        }
      ],
      "name": "mint",
      "outputs": [],
      "stateMutability": "nonpayable",
      "type": "function"
    },
    {
      "inputs": [],
      "name": "name",
      "outputs": [
        {
          "internalType": "string",
          "name": "",
          "type": "string"
        }
      ],
      "stateMutability": "view",
      "type": "function"
    },
    {
      "inputs": [
        {
          "internalType": "address",
          "name": "account",
          "type": "address"
        },
        {
          "internalType": "uint256",
          "name": "amount",
          "type": "uint256"
        },
        {
          "internalType": "bytes",
          "name": "data",
          "type": "bytes"
        },
        {
          "internalType": "bytes",
          "name": "operatorData",
          "type": "bytes"
        }
      ],
      "name": "operatorBurn",
      "outputs": [],
      "stateMutability": "nonpayable",
      "type": "function"
    },
    {
      "inputs": [
        {
          "internalType": "address",
          "name": "sender",
          "type": "address"
        },
        {
          "internalType": "address",
          "name": "recipient",
          "type": "address"
        },
        {
          "internalType": "uint256",
          "name": "amount",
          "type": "uint256"
        },
        {
          "internalType": "bytes",
          "name": "data",
          "type": "bytes"
        },
        {
          "internalType": "bytes",
          "name": "operatorData",
          "type": "bytes"
        }
      ],
      "name": "operatorSend",
      "outputs": [],
      "stateMutability": "nonpayable",
      "type": "function"
    },
    {
      "inputs": [],
      "name": "owner",
      "outputs": [
        {
          "internalType": "address",
          "name": "",
          "type": "address"
        }
      ],
      "stateMutability": "view",
      "type": "function"
    },
    {
      "inputs": [],
      "name": "proxiableUUID",
      "outputs": [
        {
          "internalType": "bytes32",
          "name": "",
          "type": "bytes32"
        }
      ],
      "stateMutability": "view",
      "type": "function"
    },
    {
      "inputs": [],
      "name": "releaseTime",
      "outputs": [
        {
          "internalType": "uint256",
          "name": "",
          "type": "uint256"
        }
      ],
      "stateMutability": "view",
      "type": "function"
    },
    {
      "inputs": [],
      "name": "renounceOwnership",
      "outputs": [],
      "stateMutability": "nonpayable",
      "type": "function"
    },
    {
      "inputs": [
        {
          "internalType": "address",
          "name": "operator",
          "type": "address"
        }
      ],
      "name": "revokeOperator",
      "outputs": [],
      "stateMutability": "nonpayable",
      "type": "function"
    },
    {
      "inputs": [
        {
          "internalType": "address",
          "name": "recipient",
          "type": "address"
        },
        {
          "internalType": "uint256",
          "name": "amount",
          "type": "uint256"
        },
        {
          "internalType": "bytes",
          "name": "data",
          "type": "bytes"
        }
      ],
      "name": "send",
      "outputs": [],
      "stateMutability": "nonpayable",
      "type": "function"
    },
    {
      "inputs": [
        {
          "internalType": "contract IERC777Upgradeable",
          "name": "_token",
          "type": "address"
        },
        {
          "internalType": "uint256",
          "name": "_amount",
          "type": "uint256"
        }
      ],
      "name": "stake",
      "outputs": [],
      "stateMutability": "nonpayable",
      "type": "function"
    },
    {
      "inputs": [],
      "name": "supplyLimit",
      "outputs": [
        {
          "internalType": "uint256",
          "name": "",
          "type": "uint256"
        }
      ],
      "stateMutability": "view",
      "type": "function"
    },
    {
      "inputs": [],
      "name": "symbol",
      "outputs": [
        {
          "internalType": "string",
          "name": "",
          "type": "string"
        }
      ],
      "stateMutability": "view",
      "type": "function"
    },
    {
      "inputs": [],
      "name": "totalSupply",
      "outputs": [
        {
          "internalType": "uint256",
          "name": "",
          "type": "uint256"
        }
      ],
      "stateMutability": "view",
      "type": "function"
    },
    {
      "inputs": [
        {
          "internalType": "address",
          "name": "recipient",
          "type": "address"
        },
        {
          "internalType": "uint256",
          "name": "amount",
          "type": "uint256"
        }
      ],
      "name": "transfer",
      "outputs": [
        {
          "internalType": "bool",
          "name": "",
          "type": "bool"
        }
      ],
      "stateMutability": "nonpayable",
      "type": "function"
    },
    {
      "inputs": [
        {
          "internalType": "address",
          "name": "holder",
          "type": "address"
        },
        {
          "internalType": "address",
          "name": "recipient",
          "type": "address"
        },
        {
          "internalType": "uint256",
          "name": "amount",
          "type": "uint256"
        }
      ],
      "name": "transferFrom",
      "outputs": [
        {
          "internalType": "bool",
          "name": "",
          "type": "bool"
        }
      ],
      "stateMutability": "nonpayable",
      "type": "function"
    },
    {
      "inputs": [
        {
          "internalType": "address",
          "name": "newOwner",
          "type": "address"
        }
      ],
      "name": "transferOwnership",
      "outputs": [],
      "stateMutability": "nonpayable",
      "type": "function"
    },
    {
      "inputs": [
        {
          "internalType": "contract IERC777Upgradeable",
          "name": "_token",
          "type": "address"
        }
      ],
      "name": "unStake",
      "outputs": [],
      "stateMutability": "nonpayable",
      "type": "function"
    },
    {
      "inputs": [
        {
          "internalType": "address",
          "name": "newImplementation",
          "type": "address"
        }
      ],
      "name": "upgradeTo",
      "outputs": [],
      "stateMutability": "nonpayable",
      "type": "function"
    },
    {
      "inputs": [
        {
          "internalType": "address",
          "name": "newImplementation",
          "type": "address"
        },
        {
          "internalType": "bytes",
          "name": "data",
          "type": "bytes"
        }
      ],
      "name": "upgradeToAndCall",
      "outputs": [],
      "stateMutability": "payable",
      "type": "function"
    }
  ],
  "bytecode": "0x60a06040523073ffffffffffffffffffffffffffffffffffffffff1660809073ffffffffffffffffffffffffffffffffffffffff168152503480156200004457600080fd5b50620000797f66ff1190674b98ae2b3001ef2b82ad5442592ff7e2cdeeea7bc8580de56dcf2f60001b620000f760201b60201c565b620000ad7f8426148b83c40b551d0365a67ddbbe5a7f788ef16beda1736a557fc7c3f64a0260001b620000f760201b60201c565b620000e17f8c53d378605d5fffed1e6300600bc0b233ec314fb8d72f331ec9c019c4652e8e60001b620000f760201b60201c565b620000f1620000fa60201b60201c565b620002a5565b50565b600060019054906101000a900460ff16156200014d576040517f08c379a0000000000000000000000000000000000000000000000000000000008152600401620001449062000248565b60405180910390fd5b60ff801660008054906101000a900460ff1660ff161015620001bf5760ff6000806101000a81548160ff021916908360ff1602179055507f7f26b83ff96e1f2b6a682f133852f6798a09c465da95921460cefb384740249860ff604051620001b6919062000288565b60405180910390a15b565b600082825260208201905092915050565b7f496e697469616c697a61626c653a20636f6e747261637420697320696e69746960008201527f616c697a696e6700000000000000000000000000000000000000000000000000602082015250565b600062000230602783620001c1565b91506200023d82620001d2565b604082019050919050565b60006020820190508181036000830152620002638162000221565b9050919050565b600060ff82169050919050565b62000282816200026a565b82525050565b60006020820190506200029f600083018462000277565b92915050565b608051615f39620002dd60003960008181610940015281816109ce01528181610e2601528181610eb40152610f640152615f396000f3fe6080604052600436106101e35760003560e01c80638129fc1c11610102578063d95b637111610095578063f39d6fa211610064578063f39d6fa2146106d3578063fad8b32a146106fe578063fc673c4f14610727578063fe9d930314610750576101e3565b8063d95b637114610607578063dcdc7dd014610644578063dd62ed3e1461066d578063f2fde38b146106aa576101e3565b80639bd9bbc6116100d15780639bd9bbc61461054d578063a9059cbb14610576578063adc9772e146105b3578063b91d4001146105dc576101e3565b80638129fc1c146104b75780638da5cb5b146104ce578063959b8c3f146104f957806395d89b4114610522576101e3565b80633659cfe61161017a578063556f0dc711610149578063556f0dc71461040f57806362ad1b831461043a57806370a0823114610463578063715018a6146104a0576101e3565b80633659cfe614610376578063387e49481461039f5780634f1ef286146103c857806352d1902d146103e4576101e3565b806318160ddd116101b657806318160ddd146102b857806319d1997a146102e357806323b872dd1461030e578063313ce5671461034b576101e3565b806301567739146101e857806306e485381461022557806306fdde0314610250578063095ea7b31461027b575b600080fd5b3480156101f457600080fd5b5061020f600480360381019061020a9190613eed565b610779565b60405161021c9190613f33565b60405180910390f35b34801561023157600080fd5b5061023a610791565b604051610247919061400c565b60405180910390f35b34801561025c57600080fd5b5061026561081f565b60405161027291906140c7565b60405180910390f35b34801561028757600080fd5b506102a2600480360381019061029d9190614115565b6108b1565b6040516102af9190614170565b60405180910390f35b3480156102c457600080fd5b506102cd6108d4565b6040516102da9190613f33565b60405180910390f35b3480156102ef57600080fd5b506102f86108de565b6040516103059190613f33565b60405180910390f35b34801561031a57600080fd5b506103356004803603810190610330919061418b565b6108e4565b6040516103429190614170565b60405180910390f35b34801561035757600080fd5b50610360610935565b60405161036d91906141fa565b60405180910390f35b34801561038257600080fd5b5061039d60048036038101906103989190613eed565b61093e565b005b3480156103ab57600080fd5b506103c660048036038101906103c19190614253565b610ac6565b005b6103e260048036038101906103dd91906143b5565b610e24565b005b3480156103f057600080fd5b506103f9610f60565b604051610406919061442a565b60405180910390f35b34801561041b57600080fd5b50610424611019565b6040516104319190613f33565b60405180910390f35b34801561044657600080fd5b50610461600480360381019061045c9190614445565b611022565b005b34801561046f57600080fd5b5061048a60048036038101906104859190613eed565b611088565b6040516104979190613f33565b60405180910390f35b3480156104ac57600080fd5b506104b56110d1565b005b3480156104c357600080fd5b506104cc6110e5565b005b3480156104da57600080fd5b506104e36112ea565b6040516104f09190614507565b60405180910390f35b34801561050557600080fd5b50610520600480360381019061051b9190613eed565b611314565b005b34801561052e57600080fd5b50610537611574565b60405161054491906140c7565b60405180910390f35b34801561055957600080fd5b50610574600480360381019061056f9190614522565b611606565b005b34801561058257600080fd5b5061059d60048036038101906105989190614115565b611630565b6040516105aa9190614170565b60405180910390f35b3480156105bf57600080fd5b506105da60048036038101906105d59190614591565b611670565b005b3480156105e857600080fd5b506105f1611a6b565b6040516105fe9190613f33565b60405180910390f35b34801561061357600080fd5b5061062e600480360381019061062991906145d1565b611a71565b60405161063b9190614170565b60405180910390f35b34801561065057600080fd5b5061066b60048036038101906106669190614611565b611c22565b005b34801561067957600080fd5b50610694600480360381019061068f91906145d1565b611dac565b6040516106a19190613f33565b60405180910390f35b3480156106b657600080fd5b506106d160048036038101906106cc9190613eed565b611e33565b005b3480156106df57600080fd5b506106e8611eb6565b6040516106f59190613f33565b60405180910390f35b34801561070a57600080fd5b5061072560048036038101906107209190613eed565b611f43565b005b34801561073357600080fd5b5061074e60048036038101906107499190614611565b6121a3565b005b34801561075c57600080fd5b50610777600480360381019061077291906146b0565b612205565b005b60fd6020528060005260406000206000915090505481565b6060603780548060200260200160405190810160405280929190818152602001828054801561081557602002820191906000526020600020905b8160009054906101000a900473ffffffffffffffffffffffffffffffffffffffff1673ffffffffffffffffffffffffffffffffffffffff16815260200190600101908083116107cb575b5050505050905090565b60606035805461082e9061473b565b80601f016020809104026020016040519081016040528092919081815260200182805461085a9061473b565b80156108a75780601f1061087c576101008083540402835291602001916108a7565b820191906000526020600020905b81548152906001019060200180831161088a57829003601f168201915b5050505050905090565b6000806108bc61222b565b90506108c9818585612233565b600191505092915050565b6000603454905090565b60fb5481565b6000806108ef61222b565b90506108fc8582856123fc565b61092985858560405180602001604052806000815250604051806020016040528060008152506000612488565b60019150509392505050565b60006012905090565b7f000000000000000000000000000000000000000000000000000000000000000073ffffffffffffffffffffffffffffffffffffffff163073ffffffffffffffffffffffffffffffffffffffff16036109cc576040517f08c379a00000000000000000000000000000000000000000000000000000000081526004016109c3906147de565b60405180910390fd5b7f000000000000000000000000000000000000000000000000000000000000000073ffffffffffffffffffffffffffffffffffffffff16610a0b6125a6565b73ffffffffffffffffffffffffffffffffffffffff1614610a61576040517f08c379a0000000000000000000000000000000000000000000000000000000008152600401610a5890614870565b60405180910390fd5b610a6a816125fd565b610ac381600067ffffffffffffffff811115610a8957610a8861428a565b5b6040519080825280601f01601f191660200182016040528015610abb5781602001600182028036833780820191505090505b506000612634565b50565b610af27f88e34fafbfb347d5686ab01f77e246468d7d83ccb1308e88f0531f76a816777460001b6127a2565b610b1e7fc814942548b95bb4c49f0fd2cdc347ab575bc3fdd850a08cdf328269d20d5d3a60001b6127a2565b610b4a7fcd10ffaa58abccd2659ae589583d29aeae43968c6c3fb5acea7688645f34623560001b6127a2565b610b767f1d5ca390dd5a7ef3396c9d5c3c4a8af3ee92285c2d418b0362fab115b458ee3460001b6127a2565b4260fc5410610bba576040517f08c379a0000000000000000000000000000000000000000000000000000000008152600401610bb1906148dc565b60405180910390fd5b610be67f4bcc1cefba8bba1ac229f572c0cd8b48bd402cb765f5a900204dcd7bd0d4e68560001b6127a2565b610c127fec494846546e0735b42724d9f9aaa9554a7c2f675e94eca07d5737e8f8797d2a60001b6127a2565b610c3e7f539080c85c4af522c04e36fc9f0aa2f6d8ec705450ed1d2d557a156d0048213360001b6127a2565b600060fd60003373ffffffffffffffffffffffffffffffffffffffff1673ffffffffffffffffffffffffffffffffffffffff16815260200190815260200160002081905550610caf7f71a22fbae4b2924173eec1c5ad0a2ca419da0d2b432a286dbf4419ef77f8852b60001b6127a2565b610cdb7fdd01404cb35216e7f5574bb5929aee2077fb859d5b6b0df98c4734911f04486260001b6127a2565b60008173ffffffffffffffffffffffffffffffffffffffff166370a08231306040518263ffffffff1660e01b8152600401610d169190614507565b602060405180830381865afa158015610d33573d6000803e3d6000fd5b505050506040513d601f19601f82011682018060405250810190610d579190614911565b9050610d857fa499bf7515951eff75b63b9a588bb4154a242dad7c6736ec83b1815f041c59ec60001b6127a2565b610db17fcf0d3c08089bab060b21bd403827e55bafc14deeed319f66f894450aae11a40e60001b6127a2565b8173ffffffffffffffffffffffffffffffffffffffff166362ad1b833033846040518463ffffffff1660e01b8152600401610dee93929190614975565b600060405180830381600087803b158015610e0857600080fd5b505af1158015610e1c573d6000803e3d6000fd5b505050505050565b7f000000000000000000000000000000000000000000000000000000000000000073ffffffffffffffffffffffffffffffffffffffff163073ffffffffffffffffffffffffffffffffffffffff1603610eb2576040517f08c379a0000000000000000000000000000000000000000000000000000000008152600401610ea9906147de565b60405180910390fd5b7f000000000000000000000000000000000000000000000000000000000000000073ffffffffffffffffffffffffffffffffffffffff16610ef16125a6565b73ffffffffffffffffffffffffffffffffffffffff1614610f47576040517f08c379a0000000000000000000000000000000000000000000000000000000008152600401610f3e90614870565b60405180910390fd5b610f50826125fd565b610f5c82826001612634565b5050565b60007f000000000000000000000000000000000000000000000000000000000000000073ffffffffffffffffffffffffffffffffffffffff163073ffffffffffffffffffffffffffffffffffffffff1614610ff0576040517f08c379a0000000000000000000000000000000000000000000000000000000008152600401610fe790614a44565b60405180910390fd5b7f360894a13ba1a3210667c828492db98dca3e2076cc3735a920a3ca505d382bbc60001b905090565b60006001905090565b61103361102d61222b565b86611a71565b611072576040517f08c379a000000000000000000000000000000000000000000000000000000000815260040161106990614ad6565b60405180910390fd5b61108185858585856001612488565b5050505050565b6000603360008373ffffffffffffffffffffffffffffffffffffffff1673ffffffffffffffffffffffffffffffffffffffff168152602001908152602001600020549050919050565b6110d96127a5565b6110e36000612823565b565b6002600060019054906101000a900460ff1615801561111657508060ff1660008054906101000a900460ff1660ff16105b611155576040517f08c379a000000000000000000000000000000000000000000000000000000000815260040161114c90614b68565b60405180910390fd5b806000806101000a81548160ff021916908360ff1602179055506001600060016101000a81548160ff0219169083151502179055506111b57e71e5d63ead31d4babd2f7da7217a26647df399c52370807ea78b5723a4078360001b6127a2565b6111e17fa1bc9f699334ad93a3d8f86d623de8e4859f281a7dda7a1e37dab61fb56ad91f60001b6127a2565b61120d7fb2cf040112bc1a8d4eb53282f7a53f004997e40961b196de77603e87ae8c173360001b6127a2565b6112156128e9565b6112417f83b7a18cacc634fb17f78e1c365a1ec6b9b0e0bcd2e8511f300af566fd56133560001b6127a2565b61126d7f5047e7169d32a352069c6be6d64b3bdb53534271b7837249b6bf0ac4a79ffece60001b6127a2565b611275610935565b600a6112819190614cea565b633b9aca006112909190614d35565b60fb8190555060008060016101000a81548160ff0219169083151502179055507f7f26b83ff96e1f2b6a682f133852f6798a09c465da95921460cefb3847402498816040516112df91906141fa565b60405180910390a150565b600060c960009054906101000a900473ffffffffffffffffffffffffffffffffffffffff16905090565b8073ffffffffffffffffffffffffffffffffffffffff1661133361222b565b73ffffffffffffffffffffffffffffffffffffffff1603611389576040517f08c379a000000000000000000000000000000000000000000000000000000000815260040161138090614e01565b60405180910390fd5b603860008273ffffffffffffffffffffffffffffffffffffffff1673ffffffffffffffffffffffffffffffffffffffff16815260200190815260200160002060009054906101000a900460ff161561147357603a60006113e761222b565b73ffffffffffffffffffffffffffffffffffffffff1673ffffffffffffffffffffffffffffffffffffffff16815260200190815260200160002060008273ffffffffffffffffffffffffffffffffffffffff1673ffffffffffffffffffffffffffffffffffffffff16815260200190815260200160002060006101000a81549060ff0219169055611510565b60016039600061148161222b565b73ffffffffffffffffffffffffffffffffffffffff1673ffffffffffffffffffffffffffffffffffffffff16815260200190815260200160002060008373ffffffffffffffffffffffffffffffffffffffff1673ffffffffffffffffffffffffffffffffffffffff16815260200190815260200160002060006101000a81548160ff0219169083151502179055505b61151861222b565b73ffffffffffffffffffffffffffffffffffffffff168173ffffffffffffffffffffffffffffffffffffffff167ff4caeb2d6ca8932a215a353d0703c326ec2d81fc68170f320eb2ab49e9df61f960405160405180910390a350565b6060603680546115839061473b565b80601f01602080910402602001604051908101604052809291908181526020018280546115af9061473b565b80156115fc5780601f106115d1576101008083540402835291602001916115fc565b820191906000526020600020905b8154815290600101906020018083116115df57829003601f168201915b5050505050905090565b61162b61161161222b565b848484604051806020016040528060008152506001612488565b505050565b600061166661163d61222b565b848460405180602001604052806000815250604051806020016040528060008152506000612488565b6001905092915050565b61169c7fe361ec02d2e67a2a9423a8e6b94bb4c367dfcb2fa9340c070c574f3c7c10a64a60001b6127a2565b6116c87f2dfe88c778e9d9682bedaa10896cce6171dae05cc1e052dd3d819679029e9c8e60001b6127a2565b6116f47fadfc8e1c21475e2084d23193bcd2ec9167850fbbe6248e6f8a0120fd1bb3a30e60001b6127a2565b6117207f95b2cb576c5dcd226f918e0a1c4b7a5e333df820d44d36e8345fde199a22ff8960001b6127a2565b808273ffffffffffffffffffffffffffffffffffffffff166370a08231336040518263ffffffff1660e01b815260040161175a9190614507565b602060405180830381865afa158015611777573d6000803e3d6000fd5b505050506040513d601f19601f8201168201806040525081019061179b9190614911565b116117a557600080fd5b6117d17f7e3e067b00d4760f8169d51f9015c89b10c39a2112b55ff7c39c470ebea7de2d60001b6127a2565b6117fd7f329707f8e53adc7b777ca45c27923102168fdccdef42f40dda9a18eb2ce2602d60001b6127a2565b6118297fb61f2300dabe113624ff3ff0bb3d529ca1b242b32297947aa525f4c1e31fc1d460001b6127a2565b8173ffffffffffffffffffffffffffffffffffffffff1663959b8c3f306040518263ffffffff1660e01b81526004016118629190614507565b600060405180830381600087803b15801561187c57600080fd5b505af1158015611890573d6000803e3d6000fd5b505050506118c07f8f742b29528367f3fe603e2e6c6e7e1023014ada4bb5ae863cac9b5dd246978960001b6127a2565b6118ec7f5c2c6dc6757a7076340ae0d5f1a58f0d659d120b8c6e7b2d0b0b0d917e63b70e60001b6127a2565b6118f4612c21565b6119207facf1e3272be0895d325729ee3d54cd669ee21ae3f550cc6c46ba6822c0e71aa960001b6127a2565b61194c7fef8fe89bc9c8ff0990bddb16eb44753b5c6847ddb9722433625f68ca65840a6b60001b6127a2565b8060fd60003373ffffffffffffffffffffffffffffffffffffffff1673ffffffffffffffffffffffffffffffffffffffff168152602001908152602001600020600082825461199b9190614e21565b925050819055506119ce7ff689bcf79bc2004a415b23a30734700cd689f1f95f8ac60e47d6fb97576dc29360001b6127a2565b6119fa7f8949fa17896d16f6d0f6a0db0a56da17d9825597ea813d1904b59fd5898373be60001b6127a2565b8173ffffffffffffffffffffffffffffffffffffffff16639bd9bbc630836040518363ffffffff1660e01b8152600401611a35929190614e77565b600060405180830381600087803b158015611a4f57600080fd5b505af1158015611a63573d6000803e3d6000fd5b505050505050565b60fc5481565b60008173ffffffffffffffffffffffffffffffffffffffff168373ffffffffffffffffffffffffffffffffffffffff161480611b895750603860008473ffffffffffffffffffffffffffffffffffffffff1673ffffffffffffffffffffffffffffffffffffffff16815260200190815260200160002060009054906101000a900460ff168015611b885750603a60008373ffffffffffffffffffffffffffffffffffffffff1673ffffffffffffffffffffffffffffffffffffffff16815260200190815260200160002060008473ffffffffffffffffffffffffffffffffffffffff1673ffffffffffffffffffffffffffffffffffffffff16815260200190815260200160002060009054906101000a900460ff16155b5b80611c1a5750603960008373ffffffffffffffffffffffffffffffffffffffff1673ffffffffffffffffffffffffffffffffffffffff16815260200190815260200160002060008473ffffffffffffffffffffffffffffffffffffffff1673ffffffffffffffffffffffffffffffffffffffff16815260200190815260200160002060009054906101000a900460ff165b905092915050565b611c4e7fb8282c62246d7fdc10b0a8732ae4402d42c3b96fa1074bf87084713e580e445f60001b6127a2565b611c7a7fc5b1e0b8376abe07a79c279f728008ca2c7de7bb1147b208729e5fb10094f56f60001b6127a2565b611ca67f284fcdaec371e0f88af45b8c070e8aadf6507bc5ba818aca12fdda8624c8e74160001b6127a2565b611cd27f217f2840e8f6baf744ddcd5081c1f34f57e5c50ba19bad220d311921bba263eb60001b6127a2565b60fb548310611d16576040517f08c379a0000000000000000000000000000000000000000000000000000000008152600401611d0d90614eff565b60405180910390fd5b611d427fa3e191f12100f8e9764c00a88f4a7a2db78415936ac806c45a761b57d57e3fe060001b6127a2565b611d6e7f9c916e4ae961279745354723baf6d26931b498963b03680866da5098d365acf660001b6127a2565b611d9a7f170e0bccd2f0c8ca453dc35e992b6695f5dde1c4bd2a263c32ad96387cfa485060001b6127a2565b611da684848484612dac565b50505050565b6000603b60008473ffffffffffffffffffffffffffffffffffffffff1673ffffffffffffffffffffffffffffffffffffffff16815260200190815260200160002060008373ffffffffffffffffffffffffffffffffffffffff1673ffffffffffffffffffffffffffffffffffffffff16815260200190815260200160002054905092915050565b611e3b6127a5565b600073ffffffffffffffffffffffffffffffffffffffff168173ffffffffffffffffffffffffffffffffffffffff1603611eaa576040517f08c379a0000000000000000000000000000000000000000000000000000000008152600401611ea190614f91565b60405180910390fd5b611eb381612823565b50565b6000611ee47fdd34009c0bd979bc4fbae442fa7895449d1b0c232ca8082dce0a13b1f90516ef60001b6127a2565b611f107f0e686c23a9a32d1d36a90e669a08c2724e7f224c6e61b4c2813eabd7fc78281460001b6127a2565b611f3c7fe6ea8801258e492478f5e81fd2c965db53c10d7f9f47bc7fc24b9bbe536f370660001b6127a2565b6002905090565b611f4b61222b565b73ffffffffffffffffffffffffffffffffffffffff168173ffffffffffffffffffffffffffffffffffffffff1603611fb8576040517f08c379a0000000000000000000000000000000000000000000000000000000008152600401611faf90615023565b60405180910390fd5b603860008273ffffffffffffffffffffffffffffffffffffffff1673ffffffffffffffffffffffffffffffffffffffff16815260200190815260200160002060009054906101000a900460ff16156120ab576001603a600061201861222b565b73ffffffffffffffffffffffffffffffffffffffff1673ffffffffffffffffffffffffffffffffffffffff16815260200190815260200160002060008373ffffffffffffffffffffffffffffffffffffffff1673ffffffffffffffffffffffffffffffffffffffff16815260200190815260200160002060006101000a81548160ff02191690831515021790555061213f565b603960006120b761222b565b73ffffffffffffffffffffffffffffffffffffffff1673ffffffffffffffffffffffffffffffffffffffff16815260200190815260200160002060008273ffffffffffffffffffffffffffffffffffffffff1673ffffffffffffffffffffffffffffffffffffffff16815260200190815260200160002060006101000a81549060ff02191690555b61214761222b565b73ffffffffffffffffffffffffffffffffffffffff168173ffffffffffffffffffffffffffffffffffffffff167f50546e66e5f44d728365dc3908c63bc5cfeeab470722c1677e3073a6ac294aa160405160405180910390a350565b6121b46121ae61222b565b85611a71565b6121f3576040517f08c379a00000000000000000000000000000000000000000000000000000000081526004016121ea90614ad6565b60405180910390fd5b6121ff84848484612dc0565b50505050565b61222761221061222b565b838360405180602001604052806000815250612dc0565b5050565b600033905090565b600073ffffffffffffffffffffffffffffffffffffffff168373ffffffffffffffffffffffffffffffffffffffff16036122a2576040517f08c379a0000000000000000000000000000000000000000000000000000000008152600401612299906150b5565b60405180910390fd5b600073ffffffffffffffffffffffffffffffffffffffff168273ffffffffffffffffffffffffffffffffffffffff1603612311576040517f08c379a000000000000000000000000000000000000000000000000000000000815260040161230890615147565b60405180910390fd5b80603b60008573ffffffffffffffffffffffffffffffffffffffff1673ffffffffffffffffffffffffffffffffffffffff16815260200190815260200160002060008473ffffffffffffffffffffffffffffffffffffffff1673ffffffffffffffffffffffffffffffffffffffff168152602001908152602001600020819055508173ffffffffffffffffffffffffffffffffffffffff168373ffffffffffffffffffffffffffffffffffffffff167f8c5be1e5ebec7d5bd14f71427d1e84f3dd0314c0f7b2291e5b200ac8c7c3b925836040516123ef9190613f33565b60405180910390a3505050565b60006124088484611dac565b90507fffffffffffffffffffffffffffffffffffffffffffffffffffffffffffffffff81146124825781811015612474576040517f08c379a000000000000000000000000000000000000000000000000000000000815260040161246b906151b3565b60405180910390fd5b6124818484848403612233565b5b50505050565b600073ffffffffffffffffffffffffffffffffffffffff168673ffffffffffffffffffffffffffffffffffffffff16036124f7576040517f08c379a00000000000000000000000000000000000000000000000000000000081526004016124ee90615245565b60405180910390fd5b600073ffffffffffffffffffffffffffffffffffffffff168573ffffffffffffffffffffffffffffffffffffffff1603612566576040517f08c379a000000000000000000000000000000000000000000000000000000000815260040161255d906152d7565b60405180910390fd5b600061257061222b565b9050612580818888888888613014565b61258e81888888888861317b565b61259d81888888888888613398565b50505050505050565b60006125d47f360894a13ba1a3210667c828492db98dca3e2076cc3735a920a3ca505d382bbc60001b61356a565b60000160009054906101000a900473ffffffffffffffffffffffffffffffffffffffff16905090565b6126056127a5565b6126317f1ca495790228f613779f3748ec9e9f25d5eeced97332b0d9c6c7b8ff43dcf41b60001b613574565b50565b6126607f4910fdfa16fed3260ed0e7147f7cc6da11a60208b5b9406d12a635614ffd914360001b613577565b60000160009054906101000a900460ff16156126845761267f83613581565b61279d565b8273ffffffffffffffffffffffffffffffffffffffff166352d1902d6040518163ffffffff1660e01b8152600401602060405180830381865afa9250505080156126ec57506040513d601f19601f820116820180604052508101906126e99190615323565b60015b61272b576040517f08c379a0000000000000000000000000000000000000000000000000000000008152600401612722906153c2565b60405180910390fd5b7f360894a13ba1a3210667c828492db98dca3e2076cc3735a920a3ca505d382bbc60001b8114612790576040517f08c379a000000000000000000000000000000000000000000000000000000000815260040161278790615454565b60405180910390fd5b5061279c83838361363a565b5b505050565b50565b6127ad61222b565b73ffffffffffffffffffffffffffffffffffffffff166127cb6112ea565b73ffffffffffffffffffffffffffffffffffffffff1614612821576040517f08c379a0000000000000000000000000000000000000000000000000000000008152600401612818906154c0565b60405180910390fd5b565b600060c960009054906101000a900473ffffffffffffffffffffffffffffffffffffffff1690508160c960006101000a81548173ffffffffffffffffffffffffffffffffffffffff021916908373ffffffffffffffffffffffffffffffffffffffff1602179055508173ffffffffffffffffffffffffffffffffffffffff168173ffffffffffffffffffffffffffffffffffffffff167f8be0079c531659141344cd1fd0a4f28419497f9722a3daafe3b4186f6b6457e060405160405180910390a35050565b60008060019054906101000a900460ff1615905080801561291a5750600160008054906101000a900460ff1660ff16105b80612947575061292930613666565b1580156129465750600160008054906101000a900460ff1660ff16145b5b612986576040517f08c379a000000000000000000000000000000000000000000000000000000000815260040161297d90614b68565b60405180910390fd5b60016000806101000a81548160ff021916908360ff16021790555080156129c3576001600060016101000a81548160ff0219169083151502179055505b6129ef7faf15b059daf6950c17c59cde028f77b6510cb0e5514325dbcd5b3852e2b0ffbe60001b613574565b612a1b7f3c2a15d85c3ac34970e107e89daeac31a6f90db2c2534e7ad37e01482035777860001b613574565b612a477fb3b1c7b9d162ccccf9557f000fb9ed62ca3b9f82776626a8b216e09df3f45d3860001b613574565b612b056040518060400160405280600981526020017f55505f4361746e697000000000000000000000000000000000000000000000008152506040518060400160405280600281526020017f434e000000000000000000000000000000000000000000000000000000000000815250600067ffffffffffffffff811115612ad157612ad061428a565b5b604051908082528060200260200182016040528015612aff5781602001602082028036833780820191505090505b50613689565b612b317f991d7a86f5c899161013773ab04c46d1c5d6f3d041e6bdf5f49d0bb0acf70b8d60001b613574565b612b5d7fc763b46416634c1e4147ee7cb6b7efd64148165b16ac3afac727861bf8ff4d1160001b613574565b612b656136e8565b612b917f1d04c6ded6fe0574294c607b24d2d8f4d25fabffc7bcf1f45fa2a5832d85c81c60001b613574565b612bbd7f39637b5c0ef04719b01efb5aec0608eedc443e9e824bad1a20bda4d132ea140760001b613574565b612bc5613739565b8015612c1e5760008060016101000a81548160ff0219169083151502179055507f7f26b83ff96e1f2b6a682f133852f6798a09c465da95921460cefb38474024986001604051612c159190615525565b60405180910390a15b50565b612c4d7fcc862ae65327c7236e589bc0956793c9a0bdce04c9acb41f50b83f620efe9ebe60001b6127a2565b612c797f544f3422c4c450300c652d7dd03d4d7b60a77f1cd2b74b910211323a63b610aa60001b6127a2565b612ca57f6b906a1eb915d15b0989dbcfdac033295c435cbfe0abc78ae23adbee0ff6e70560001b6127a2565b60006301baf8009050612cda7fb66e3d95627e29b2ac43644e3951b75a0926511032f19a6244abdb2fd4379b8560001b6127a2565b612d067f3e166ed65720b0cd03815f38625c940001e1f5d6450690d4623f4eb138b2876060001b6127a2565b8042612d129190614e21565b60fc81905550612d447fc9bbb9d83acc75a43e13dd918eafdaa241afdf831c3d58c06aef16288a2c36a560001b6127a2565b612d707f5d5ac3fc86a57daff8b0fff12d2c7812767f4a4a84fae6bad62428c54c340cd560001b6127a2565b7ffdadcafe80125e03c996b4177dd52df5498ef2842deba41eb59484c19f7ba97b60fc54604051612da19190613f33565b60405180910390a150565b612dba848484846001613792565b50505050565b600073ffffffffffffffffffffffffffffffffffffffff168473ffffffffffffffffffffffffffffffffffffffff1603612e2f576040517f08c379a0000000000000000000000000000000000000000000000000000000008152600401612e26906155b2565b60405180910390fd5b6000612e3961222b565b9050612e4a81866000878787613014565b612e578186600087613970565b6000603360008773ffffffffffffffffffffffffffffffffffffffff1673ffffffffffffffffffffffffffffffffffffffff16815260200190815260200160002054905084811015612ede576040517f08c379a0000000000000000000000000000000000000000000000000000000008152600401612ed590615644565b60405180910390fd5b848103603360008873ffffffffffffffffffffffffffffffffffffffff1673ffffffffffffffffffffffffffffffffffffffff168152602001908152602001600020819055508460346000828254612f369190615664565b925050819055508573ffffffffffffffffffffffffffffffffffffffff168273ffffffffffffffffffffffffffffffffffffffff167fa78a9be3a7b862d26933ad85fb11d80ef66b8f972d7cbba06621d583943a4098878787604051612f9e939291906156dc565b60405180910390a3600073ffffffffffffffffffffffffffffffffffffffff168673ffffffffffffffffffffffffffffffffffffffff167fddf252ad1be2c89b69c2b068fc378daa952ba7f163c4a11628f55a4df523b3ef876040516130049190613f33565b60405180910390a3505050505050565b6000731820a4b7618bde71dce8cdc73aab6c95905fad2473ffffffffffffffffffffffffffffffffffffffff1663aabbb8ca877f29ddb589b1fb5fc7cf394961c1adf5f8c6454761adf795e67fe149f658abe8956040518363ffffffff1660e01b8152600401613085929190615721565b602060405180830381865afa1580156130a2573d6000803e3d6000fd5b505050506040513d601f19601f820116820180604052508101906130c6919061575f565b9050600073ffffffffffffffffffffffffffffffffffffffff168173ffffffffffffffffffffffffffffffffffffffff1614613172578073ffffffffffffffffffffffffffffffffffffffff166375ab97828888888888886040518763ffffffff1660e01b815260040161313f9695949392919061578c565b600060405180830381600087803b15801561315957600080fd5b505af115801561316d573d6000803e3d6000fd5b505050505b50505050505050565b61318786868686613970565b6000603360008773ffffffffffffffffffffffffffffffffffffffff1673ffffffffffffffffffffffffffffffffffffffff1681526020019081526020016000205490508381101561320e576040517f08c379a00000000000000000000000000000000000000000000000000000000081526004016132059061586d565b60405180910390fd5b838103603360008873ffffffffffffffffffffffffffffffffffffffff1673ffffffffffffffffffffffffffffffffffffffff1681526020019081526020016000208190555083603360008773ffffffffffffffffffffffffffffffffffffffff1673ffffffffffffffffffffffffffffffffffffffff16815260200190815260200160002060008282546132a39190614e21565b925050819055508473ffffffffffffffffffffffffffffffffffffffff168673ffffffffffffffffffffffffffffffffffffffff168873ffffffffffffffffffffffffffffffffffffffff167f06b541ddaa720db2b10a4d0cdac39b8d360425fc073085fac19bc82614677987878787604051613322939291906156dc565b60405180910390a48473ffffffffffffffffffffffffffffffffffffffff168673ffffffffffffffffffffffffffffffffffffffff167fddf252ad1be2c89b69c2b068fc378daa952ba7f163c4a11628f55a4df523b3ef866040516133879190613f33565b60405180910390a350505050505050565b6000731820a4b7618bde71dce8cdc73aab6c95905fad2473ffffffffffffffffffffffffffffffffffffffff1663aabbb8ca877fb281fc8c12954d22544db45de3159a39272895b169a852b314f9cc762e44c53b6040518363ffffffff1660e01b8152600401613409929190615721565b602060405180830381865afa158015613426573d6000803e3d6000fd5b505050506040513d601f19601f8201168201806040525081019061344a919061575f565b9050600073ffffffffffffffffffffffffffffffffffffffff168173ffffffffffffffffffffffffffffffffffffffff16146134f9578073ffffffffffffffffffffffffffffffffffffffff166223de298989898989896040518763ffffffff1660e01b81526004016134c29695949392919061578c565b600060405180830381600087803b1580156134dc57600080fd5b505af11580156134f0573d6000803e3d6000fd5b50505050613560565b811561355f5761351e8673ffffffffffffffffffffffffffffffffffffffff16613666565b1561355e576040517f08c379a000000000000000000000000000000000000000000000000000000000815260040161355590615925565b60405180910390fd5b5b5b5050505050505050565b6000819050919050565b50565b6000819050919050565b61358a81613666565b6135c9576040517f08c379a00000000000000000000000000000000000000000000000000000000081526004016135c0906159b7565b60405180910390fd5b806135f67f360894a13ba1a3210667c828492db98dca3e2076cc3735a920a3ca505d382bbc60001b61356a565b60000160006101000a81548173ffffffffffffffffffffffffffffffffffffffff021916908373ffffffffffffffffffffffffffffffffffffffff16021790555050565b61364383613976565b6000825111806136505750805b156136615761365f83836139c5565b505b505050565b6000808273ffffffffffffffffffffffffffffffffffffffff163b119050919050565b600060019054906101000a900460ff166136d8576040517f08c379a00000000000000000000000000000000000000000000000000000000081526004016136cf90615a49565b60405180910390fd5b6136e3838383613aa9565b505050565b600060019054906101000a900460ff16613737576040517f08c379a000000000000000000000000000000000000000000000000000000000815260040161372e90615a49565b60405180910390fd5b565b600060019054906101000a900460ff16613788576040517f08c379a000000000000000000000000000000000000000000000000000000000815260040161377f90615a49565b60405180910390fd5b613790613d0c565b565b600073ffffffffffffffffffffffffffffffffffffffff168573ffffffffffffffffffffffffffffffffffffffff1603613801576040517f08c379a00000000000000000000000000000000000000000000000000000000081526004016137f890615ab5565b60405180910390fd5b600061380b61222b565b905061381a8160008888613970565b846034600082825461382c9190614e21565b9250508190555084603360008873ffffffffffffffffffffffffffffffffffffffff1673ffffffffffffffffffffffffffffffffffffffff16815260200190815260200160002060008282546138829190614e21565b925050819055506138998160008888888888613398565b8573ffffffffffffffffffffffffffffffffffffffff168173ffffffffffffffffffffffffffffffffffffffff167f2fe5be0146f74c5bce36c0b80911af6c7d86ff27e89d5cfa61fc681327954e5d8787876040516138fa939291906156dc565b60405180910390a38573ffffffffffffffffffffffffffffffffffffffff16600073ffffffffffffffffffffffffffffffffffffffff167fddf252ad1be2c89b69c2b068fc378daa952ba7f163c4a11628f55a4df523b3ef876040516139609190613f33565b60405180910390a3505050505050565b50505050565b61397f81613581565b8073ffffffffffffffffffffffffffffffffffffffff167fbc7cd75a20ee27fd9adebab32041f755214dbc6bffa90cc0225b39da2e5c2d3b60405160405180910390a250565b60606139d083613666565b613a0f576040517f08c379a0000000000000000000000000000000000000000000000000000000008152600401613a0690615b47565b60405180910390fd5b6000808473ffffffffffffffffffffffffffffffffffffffff1684604051613a379190615ba3565b600060405180830381855af49150503d8060008114613a72576040519150601f19603f3d011682016040523d82523d6000602084013e613a77565b606091505b5091509150613a9f8282604051806060016040528060278152602001615edd60279139613d6d565b9250505092915050565b600060019054906101000a900460ff16613af8576040517f08c379a0000000000000000000000000000000000000000000000000000000008152600401613aef90615a49565b60405180910390fd5b8260359081613b079190615d5c565b508160369081613b179190615d5c565b508060379080519060200190613b2e929190613dd4565b5060005b8151811015613bc057600160386000848481518110613b5457613b53615e2e565b5b602002602001015173ffffffffffffffffffffffffffffffffffffffff1673ffffffffffffffffffffffffffffffffffffffff16815260200190815260200160002060006101000a81548160ff0219169083151502179055508080613bb890615e5d565b915050613b32565b50731820a4b7618bde71dce8cdc73aab6c95905fad2473ffffffffffffffffffffffffffffffffffffffff166329965a1d307fac7fbab5f54a3ca8194167523c6753bfeb96a445279294b6125b68cce2177054306040518463ffffffff1660e01b8152600401613c3293929190615ea5565b600060405180830381600087803b158015613c4c57600080fd5b505af1158015613c60573d6000803e3d6000fd5b50505050731820a4b7618bde71dce8cdc73aab6c95905fad2473ffffffffffffffffffffffffffffffffffffffff166329965a1d307faea199e31a596269b42cdafd93407f14436db6e4cad65417994c2eb37381e05a306040518463ffffffff1660e01b8152600401613cd593929190615ea5565b600060405180830381600087803b158015613cef57600080fd5b505af1158015613d03573d6000803e3d6000fd5b50505050505050565b600060019054906101000a900460ff16613d5b576040517f08c379a0000000000000000000000000000000000000000000000000000000008152600401613d5290615a49565b60405180910390fd5b613d6b613d6661222b565b612823565b565b60608315613d7d57829050613dcd565b600083511115613d905782518084602001fd5b816040517f08c379a0000000000000000000000000000000000000000000000000000000008152600401613dc491906140c7565b60405180910390fd5b9392505050565b828054828255906000526020600020908101928215613e4d579160200282015b82811115613e4c5782518260006101000a81548173ffffffffffffffffffffffffffffffffffffffff021916908373ffffffffffffffffffffffffffffffffffffffff16021790555091602001919060010190613df4565b5b509050613e5a9190613e5e565b5090565b5b80821115613e77576000816000905550600101613e5f565b5090565b6000604051905090565b600080fd5b600080fd5b600073ffffffffffffffffffffffffffffffffffffffff82169050919050565b6000613eba82613e8f565b9050919050565b613eca81613eaf565b8114613ed557600080fd5b50565b600081359050613ee781613ec1565b92915050565b600060208284031215613f0357613f02613e85565b5b6000613f1184828501613ed8565b91505092915050565b6000819050919050565b613f2d81613f1a565b82525050565b6000602082019050613f486000830184613f24565b92915050565b600081519050919050565b600082825260208201905092915050565b6000819050602082019050919050565b613f8381613eaf565b82525050565b6000613f958383613f7a565b60208301905092915050565b6000602082019050919050565b6000613fb982613f4e565b613fc38185613f59565b9350613fce83613f6a565b8060005b83811015613fff578151613fe68882613f89565b9750613ff183613fa1565b925050600181019050613fd2565b5085935050505092915050565b600060208201905081810360008301526140268184613fae565b905092915050565b600081519050919050565b600082825260208201905092915050565b60005b8381101561406857808201518184015260208101905061404d565b83811115614077576000848401525b50505050565b6000601f19601f8301169050919050565b60006140998261402e565b6140a38185614039565b93506140b381856020860161404a565b6140bc8161407d565b840191505092915050565b600060208201905081810360008301526140e1818461408e565b905092915050565b6140f281613f1a565b81146140fd57600080fd5b50565b60008135905061410f816140e9565b92915050565b6000806040838503121561412c5761412b613e85565b5b600061413a85828601613ed8565b925050602061414b85828601614100565b9150509250929050565b60008115159050919050565b61416a81614155565b82525050565b60006020820190506141856000830184614161565b92915050565b6000806000606084860312156141a4576141a3613e85565b5b60006141b286828701613ed8565b93505060206141c386828701613ed8565b92505060406141d486828701614100565b9150509250925092565b600060ff82169050919050565b6141f4816141de565b82525050565b600060208201905061420f60008301846141eb565b92915050565b600061422082613eaf565b9050919050565b61423081614215565b811461423b57600080fd5b50565b60008135905061424d81614227565b92915050565b60006020828403121561426957614268613e85565b5b60006142778482850161423e565b91505092915050565b600080fd5b600080fd5b7f4e487b7100000000000000000000000000000000000000000000000000000000600052604160045260246000fd5b6142c28261407d565b810181811067ffffffffffffffff821117156142e1576142e061428a565b5b80604052505050565b60006142f4613e7b565b905061430082826142b9565b919050565b600067ffffffffffffffff8211156143205761431f61428a565b5b6143298261407d565b9050602081019050919050565b82818337600083830152505050565b600061435861435384614305565b6142ea565b90508281526020810184848401111561437457614373614285565b5b61437f848285614336565b509392505050565b600082601f83011261439c5761439b614280565b5b81356143ac848260208601614345565b91505092915050565b600080604083850312156143cc576143cb613e85565b5b60006143da85828601613ed8565b925050602083013567ffffffffffffffff8111156143fb576143fa613e8a565b5b61440785828601614387565b9150509250929050565b6000819050919050565b61442481614411565b82525050565b600060208201905061443f600083018461441b565b92915050565b600080600080600060a0868803121561446157614460613e85565b5b600061446f88828901613ed8565b955050602061448088828901613ed8565b945050604061449188828901614100565b935050606086013567ffffffffffffffff8111156144b2576144b1613e8a565b5b6144be88828901614387565b925050608086013567ffffffffffffffff8111156144df576144de613e8a565b5b6144eb88828901614387565b9150509295509295909350565b61450181613eaf565b82525050565b600060208201905061451c60008301846144f8565b92915050565b60008060006060848603121561453b5761453a613e85565b5b600061454986828701613ed8565b935050602061455a86828701614100565b925050604084013567ffffffffffffffff81111561457b5761457a613e8a565b5b61458786828701614387565b9150509250925092565b600080604083850312156145a8576145a7613e85565b5b60006145b68582860161423e565b92505060206145c785828601614100565b9150509250929050565b600080604083850312156145e8576145e7613e85565b5b60006145f685828601613ed8565b925050602061460785828601613ed8565b9150509250929050565b6000806000806080858703121561462b5761462a613e85565b5b600061463987828801613ed8565b945050602061464a87828801614100565b935050604085013567ffffffffffffffff81111561466b5761466a613e8a565b5b61467787828801614387565b925050606085013567ffffffffffffffff81111561469857614697613e8a565b5b6146a487828801614387565b91505092959194509250565b600080604083850312156146c7576146c6613e85565b5b60006146d585828601614100565b925050602083013567ffffffffffffffff8111156146f6576146f5613e8a565b5b61470285828601614387565b9150509250929050565b7f4e487b7100000000000000000000000000000000000000000000000000000000600052602260045260246000fd5b6000600282049050600182168061475357607f821691505b6020821081036147665761476561470c565b5b50919050565b7f46756e6374696f6e206d7573742062652063616c6c6564207468726f7567682060008201527f64656c656761746563616c6c0000000000000000000000000000000000000000602082015250565b60006147c8602c83614039565b91506147d38261476c565b604082019050919050565b600060208201905081810360008301526147f7816147bb565b9050919050565b7f46756e6374696f6e206d7573742062652063616c6c6564207468726f7567682060008201527f6163746976652070726f78790000000000000000000000000000000000000000602082015250565b600061485a602c83614039565b9150614865826147fe565b604082019050919050565b600060208201905081810360008301526148898161484d565b9050919050565b7f5374616b696e67206861736e27742066696e6973686564000000000000000000600082015250565b60006148c6601783614039565b91506148d182614890565b602082019050919050565b600060208201905081810360008301526148f5816148b9565b9050919050565b60008151905061490b816140e9565b92915050565b60006020828403121561492757614926613e85565b5b6000614935848285016148fc565b91505092915050565b600082825260208201905092915050565b50565b600061495f60008361493e565b915061496a8261494f565b600082019050919050565b600060a08201905061498a60008301866144f8565b61499760208301856144f8565b6149a46040830184613f24565b81810360608301526149b581614952565b905081810360808301526149c881614952565b9050949350505050565b7f555550535570677261646561626c653a206d757374206e6f742062652063616c60008201527f6c6564207468726f7567682064656c656761746563616c6c0000000000000000602082015250565b6000614a2e603883614039565b9150614a39826149d2565b604082019050919050565b60006020820190508181036000830152614a5d81614a21565b9050919050565b7f4552433737373a2063616c6c6572206973206e6f7420616e206f70657261746f60008201527f7220666f7220686f6c6465720000000000000000000000000000000000000000602082015250565b6000614ac0602c83614039565b9150614acb82614a64565b604082019050919050565b60006020820190508181036000830152614aef81614ab3565b9050919050565b7f496e697469616c697a61626c653a20636f6e747261637420697320616c72656160008201527f647920696e697469616c697a6564000000000000000000000000000000000000602082015250565b6000614b52602e83614039565b9150614b5d82614af6565b604082019050919050565b60006020820190508181036000830152614b8181614b45565b9050919050565b7f4e487b7100000000000000000000000000000000000000000000000000000000600052601160045260246000fd5b60008160011c9050919050565b6000808291508390505b6001851115614c0e57808604811115614bea57614be9614b88565b5b6001851615614bf95780820291505b8081029050614c0785614bb7565b9450614bce565b94509492505050565b600082614c275760019050614ce3565b81614c355760009050614ce3565b8160018114614c4b5760028114614c5557614c84565b6001915050614ce3565b60ff841115614c6757614c66614b88565b5b8360020a915084821115614c7e57614c7d614b88565b5b50614ce3565b5060208310610133831016604e8410600b8410161715614cb95782820a905083811115614cb457614cb3614b88565b5b614ce3565b614cc68484846001614bc4565b92509050818404811115614cdd57614cdc614b88565b5b81810290505b9392505050565b6000614cf582613f1a565b9150614d00836141de565b9250614d2d7fffffffffffffffffffffffffffffffffffffffffffffffffffffffffffffffff8484614c17565b905092915050565b6000614d4082613f1a565b9150614d4b83613f1a565b9250817fffffffffffffffffffffffffffffffffffffffffffffffffffffffffffffffff0483118215151615614d8457614d83614b88565b5b828202905092915050565b7f4552433737373a20617574686f72697a696e672073656c66206173206f70657260008201527f61746f7200000000000000000000000000000000000000000000000000000000602082015250565b6000614deb602483614039565b9150614df682614d8f565b604082019050919050565b60006020820190508181036000830152614e1a81614dde565b9050919050565b6000614e2c82613f1a565b9150614e3783613f1a565b9250827fffffffffffffffffffffffffffffffffffffffffffffffffffffffffffffffff03821115614e6c57614e6b614b88565b5b828201905092915050565b6000606082019050614e8c60008301856144f8565b614e996020830184613f24565b8181036040830152614eaa81614952565b90509392505050565b7f4578636565646564206d617820737570706c7900000000000000000000000000600082015250565b6000614ee9601383614039565b9150614ef482614eb3565b602082019050919050565b60006020820190508181036000830152614f1881614edc565b9050919050565b7f4f776e61626c653a206e6577206f776e657220697320746865207a65726f206160008201527f6464726573730000000000000000000000000000000000000000000000000000602082015250565b6000614f7b602683614039565b9150614f8682614f1f565b604082019050919050565b60006020820190508181036000830152614faa81614f6e565b9050919050565b7f4552433737373a207265766f6b696e672073656c66206173206f70657261746f60008201527f7200000000000000000000000000000000000000000000000000000000000000602082015250565b600061500d602183614039565b915061501882614fb1565b604082019050919050565b6000602082019050818103600083015261503c81615000565b9050919050565b7f4552433737373a20617070726f76652066726f6d20746865207a65726f20616460008201527f6472657373000000000000000000000000000000000000000000000000000000602082015250565b600061509f602583614039565b91506150aa82615043565b604082019050919050565b600060208201905081810360008301526150ce81615092565b9050919050565b7f4552433737373a20617070726f766520746f20746865207a65726f206164647260008201527f6573730000000000000000000000000000000000000000000000000000000000602082015250565b6000615131602383614039565b915061513c826150d5565b604082019050919050565b6000602082019050818103600083015261516081615124565b9050919050565b7f4552433737373a20696e73756666696369656e7420616c6c6f77616e63650000600082015250565b600061519d601e83614039565b91506151a882615167565b602082019050919050565b600060208201905081810360008301526151cc81615190565b9050919050565b7f4552433737373a207472616e736665722066726f6d20746865207a65726f206160008201527f6464726573730000000000000000000000000000000000000000000000000000602082015250565b600061522f602683614039565b915061523a826151d3565b604082019050919050565b6000602082019050818103600083015261525e81615222565b9050919050565b7f4552433737373a207472616e7366657220746f20746865207a65726f2061646460008201527f7265737300000000000000000000000000000000000000000000000000000000602082015250565b60006152c1602483614039565b91506152cc82615265565b604082019050919050565b600060208201905081810360008301526152f0816152b4565b9050919050565b61530081614411565b811461530b57600080fd5b50565b60008151905061531d816152f7565b92915050565b60006020828403121561533957615338613e85565b5b60006153478482850161530e565b91505092915050565b7f45524331393637557067726164653a206e657720696d706c656d656e7461746960008201527f6f6e206973206e6f742055555053000000000000000000000000000000000000602082015250565b60006153ac602e83614039565b91506153b782615350565b604082019050919050565b600060208201905081810360008301526153db8161539f565b9050919050565b7f45524331393637557067726164653a20756e737570706f727465642070726f7860008201527f6961626c65555549440000000000000000000000000000000000000000000000602082015250565b600061543e602983614039565b9150615449826153e2565b604082019050919050565b6000602082019050818103600083015261546d81615431565b9050919050565b7f4f776e61626c653a2063616c6c6572206973206e6f7420746865206f776e6572600082015250565b60006154aa602083614039565b91506154b582615474565b602082019050919050565b600060208201905081810360008301526154d98161549d565b9050919050565b6000819050919050565b6000819050919050565b600061550f61550a615505846154e0565b6154ea565b6141de565b9050919050565b61551f816154f4565b82525050565b600060208201905061553a6000830184615516565b92915050565b7f4552433737373a206275726e2066726f6d20746865207a65726f20616464726560008201527f7373000000000000000000000000000000000000000000000000000000000000602082015250565b600061559c602283614039565b91506155a782615540565b604082019050919050565b600060208201905081810360008301526155cb8161558f565b9050919050565b7f4552433737373a206275726e20616d6f756e7420657863656564732062616c6160008201527f6e63650000000000000000000000000000000000000000000000000000000000602082015250565b600061562e602383614039565b9150615639826155d2565b604082019050919050565b6000602082019050818103600083015261565d81615621565b9050919050565b600061566f82613f1a565b915061567a83613f1a565b92508282101561568d5761568c614b88565b5b828203905092915050565b600081519050919050565b60006156ae82615698565b6156b8818561493e565b93506156c881856020860161404a565b6156d18161407d565b840191505092915050565b60006060820190506156f16000830186613f24565b818103602083015261570381856156a3565b9050818103604083015261571781846156a3565b9050949350505050565b600060408201905061573660008301856144f8565b615743602083018461441b565b9392505050565b60008151905061575981613ec1565b92915050565b60006020828403121561577557615774613e85565b5b60006157838482850161574a565b91505092915050565b600060c0820190506157a160008301896144f8565b6157ae60208301886144f8565b6157bb60408301876144f8565b6157c86060830186613f24565b81810360808301526157da81856156a3565b905081810360a08301526157ee81846156a3565b9050979650505050505050565b7f4552433737373a207472616e7366657220616d6f756e7420657863656564732060008201527f62616c616e636500000000000000000000000000000000000000000000000000602082015250565b6000615857602783614039565b9150615862826157fb565b604082019050919050565b600060208201905081810360008301526158868161584a565b9050919050565b7f4552433737373a20746f6b656e20726563697069656e7420636f6e747261637460008201527f20686173206e6f20696d706c656d656e74657220666f7220455243373737546f60208201527f6b656e73526563697069656e7400000000000000000000000000000000000000604082015250565b600061590f604d83614039565b915061591a8261588d565b606082019050919050565b6000602082019050818103600083015261593e81615902565b9050919050565b7f455243313936373a206e657720696d706c656d656e746174696f6e206973206e60008201527f6f74206120636f6e747261637400000000000000000000000000000000000000602082015250565b60006159a1602d83614039565b91506159ac82615945565b604082019050919050565b600060208201905081810360008301526159d081615994565b9050919050565b7f496e697469616c697a61626c653a20636f6e7472616374206973206e6f74206960008201527f6e697469616c697a696e67000000000000000000000000000000000000000000602082015250565b6000615a33602b83614039565b9150615a3e826159d7565b604082019050919050565b60006020820190508181036000830152615a6281615a26565b9050919050565b7f4552433737373a206d696e7420746f20746865207a65726f2061646472657373600082015250565b6000615a9f602083614039565b9150615aaa82615a69565b602082019050919050565b60006020820190508181036000830152615ace81615a92565b9050919050565b7f416464726573733a2064656c65676174652063616c6c20746f206e6f6e2d636f60008201527f6e74726163740000000000000000000000000000000000000000000000000000602082015250565b6000615b31602683614039565b9150615b3c82615ad5565b604082019050919050565b60006020820190508181036000830152615b6081615b24565b9050919050565b600081905092915050565b6000615b7d82615698565b615b878185615b67565b9350615b9781856020860161404a565b80840191505092915050565b6000615baf8284615b72565b915081905092915050565b60008190508160005260206000209050919050565b60006020601f8301049050919050565b600082821b905092915050565b600060088302615c1c7fffffffffffffffffffffffffffffffffffffffffffffffffffffffffffffffff82615bdf565b615c268683615bdf565b95508019841693508086168417925050509392505050565b6000615c59615c54615c4f84613f1a565b6154ea565b613f1a565b9050919050565b6000819050919050565b615c7383615c3e565b615c87615c7f82615c60565b848454615bec565b825550505050565b600090565b615c9c615c8f565b615ca7818484615c6a565b505050565b5b81811015615ccb57615cc0600082615c94565b600181019050615cad565b5050565b601f821115615d1057615ce181615bba565b615cea84615bcf565b81016020851015615cf9578190505b615d0d615d0585615bcf565b830182615cac565b50505b505050565b600082821c905092915050565b6000615d3360001984600802615d15565b1980831691505092915050565b6000615d4c8383615d22565b9150826002028217905092915050565b615d658261402e565b67ffffffffffffffff811115615d7e57615d7d61428a565b5b615d88825461473b565b615d93828285615ccf565b600060209050601f831160018114615dc65760008415615db4578287015190505b615dbe8582615d40565b865550615e26565b601f198416615dd486615bba565b60005b82811015615dfc57848901518255600182019150602085019450602081019050615dd7565b86831015615e195784890151615e15601f891682615d22565b8355505b6001600288020188555050505b505050505050565b7f4e487b7100000000000000000000000000000000000000000000000000000000600052603260045260246000fd5b6000615e6882613f1a565b91507fffffffffffffffffffffffffffffffffffffffffffffffffffffffffffffffff8203615e9a57615e99614b88565b5b600182019050919050565b6000606082019050615eba60008301866144f8565b615ec7602083018561441b565b615ed460408301846144f8565b94935050505056fe416464726573733a206c6f772d6c6576656c2064656c65676174652063616c6c206661696c6564a26469706673582212204099b1dfd81d97007a11d4d627b202b7de32f9f6f29ff4e0f24c0baeed5e3eba64736f6c634300080f0033",
  "linkReferences": {},
  "deployedLinkReferences": {}
}