{
  "_format": "hh-sol-artifact-1",
  "contractName": "UP_CatnipVer02",
  "sourceName": "contracts/token/upgradeable/token/ERC777/UP_Catnip/UP_CatnipVer02.sol",
  "abi": [
    {
      "anonymous": false,
      "inputs": [
        {
          "indexed": false,
          "internalType": "address",
          "name": "previousAdmin",
          "type": "address"
        },
        {
          "indexed": false,
          "internalType": "address",
          "name": "newAdmin",
          "type": "address"
        }
      ],
      "name": "AdminChanged",
      "type": "event"
    },
    {
      "anonymous": false,
      "inputs": [
        {
          "indexed": true,
          "internalType": "address",
          "name": "owner",
          "type": "address"
        },
        {
          "indexed": true,
          "internalType": "address",
          "name": "spender",
          "type": "address"
        },
        {
          "indexed": false,
          "internalType": "uint256",
          "name": "value",
          "type": "uint256"
        }
      ],
      "name": "Approval",
      "type": "event"
    },
    {
      "anonymous": false,
      "inputs": [
        {
          "indexed": true,
          "internalType": "address",
          "name": "operator",
          "type": "address"
        },
        {
          "indexed": true,
          "internalType": "address",
          "name": "tokenHolder",
          "type": "address"
        }
      ],
      "name": "AuthorizedOperator",
      "type": "event"
    },
    {
      "anonymous": false,
      "inputs": [
        {
          "indexed": true,
          "internalType": "address",
          "name": "beacon",
          "type": "address"
        }
      ],
      "name": "BeaconUpgraded",
      "type": "event"
    },
    {
      "anonymous": false,
      "inputs": [
        {
          "indexed": true,
          "internalType": "address",
          "name": "operator",
          "type": "address"
        },
        {
          "indexed": true,
          "internalType": "address",
          "name": "from",
          "type": "address"
        },
        {
          "indexed": false,
          "internalType": "uint256",
          "name": "amount",
          "type": "uint256"
        },
        {
          "indexed": false,
          "internalType": "bytes",
          "name": "data",
          "type": "bytes"
        },
        {
          "indexed": false,
          "internalType": "bytes",
          "name": "operatorData",
          "type": "bytes"
        }
      ],
      "name": "Burned",
      "type": "event"
    },
    {
      "anonymous": false,
      "inputs": [
        {
          "indexed": false,
          "internalType": "uint8",
          "name": "version",
          "type": "uint8"
        }
      ],
      "name": "Initialized",
      "type": "event"
    },
    {
      "anonymous": false,
      "inputs": [
        {
          "indexed": true,
          "internalType": "address",
          "name": "operator",
          "type": "address"
        },
        {
          "indexed": true,
          "internalType": "address",
          "name": "to",
          "type": "address"
        },
        {
          "indexed": false,
          "internalType": "uint256",
          "name": "amount",
          "type": "uint256"
        },
        {
          "indexed": false,
          "internalType": "bytes",
          "name": "data",
          "type": "bytes"
        },
        {
          "indexed": false,
          "internalType": "bytes",
          "name": "operatorData",
          "type": "bytes"
        }
      ],
      "name": "Minted",
      "type": "event"
    },
    {
      "anonymous": false,
      "inputs": [
        {
          "indexed": true,
          "internalType": "address",
          "name": "previousOwner",
          "type": "address"
        },
        {
          "indexed": true,
          "internalType": "address",
          "name": "newOwner",
          "type": "address"
        }
      ],
      "name": "OwnershipTransferred",
      "type": "event"
    },
    {
      "anonymous": false,
      "inputs": [
        {
          "indexed": false,
          "internalType": "uint256",
          "name": "_releaseTime",
          "type": "uint256"
        }
      ],
      "name": "ReleaseTime",
      "type": "event"
    },
    {
      "anonymous": false,
      "inputs": [
        {
          "indexed": true,
          "internalType": "address",
          "name": "operator",
          "type": "address"
        },
        {
          "indexed": true,
          "internalType": "address",
          "name": "tokenHolder",
          "type": "address"
        }
      ],
      "name": "RevokedOperator",
      "type": "event"
    },
    {
      "anonymous": false,
      "inputs": [
        {
          "indexed": true,
          "internalType": "address",
          "name": "operator",
          "type": "address"
        },
        {
          "indexed": true,
          "internalType": "address",
          "name": "from",
          "type": "address"
        },
        {
          "indexed": true,
          "internalType": "address",
          "name": "to",
          "type": "address"
        },
        {
          "indexed": false,
          "internalType": "uint256",
          "name": "amount",
          "type": "uint256"
        },
        {
          "indexed": false,
          "internalType": "bytes",
          "name": "data",
          "type": "bytes"
        },
        {
          "indexed": false,
          "internalType": "bytes",
          "name": "operatorData",
          "type": "bytes"
        }
      ],
      "name": "Sent",
      "type": "event"
    },
    {
      "anonymous": false,
      "inputs": [
        {
          "indexed": false,
          "internalType": "address",
          "name": "staker",
          "type": "address"
        },
        {
          "indexed": false,
          "internalType": "uint256",
          "name": "stakeAmount",
          "type": "uint256"
        }
      ],
      "name": "Stake",
      "type": "event"
    },
    {
      "anonymous": false,
      "inputs": [
        {
          "indexed": false,
          "internalType": "address",
          "name": "operator",
          "type": "address"
        },
        {
          "indexed": false,
          "internalType": "address",
          "name": "from",
          "type": "address"
        },
        {
          "indexed": false,
          "internalType": "address",
          "name": "to",
          "type": "address"
        },
        {
          "indexed": false,
          "internalType": "uint256",
          "name": "amount",
          "type": "uint256"
        },
        {
          "indexed": false,
          "internalType": "bytes",
          "name": "userData",
          "type": "bytes"
        },
        {
          "indexed": false,
          "internalType": "bytes",
          "name": "operatorData",
          "type": "bytes"
        }
      ],
      "name": "TokenReceived",
      "type": "event"
    },
    {
      "anonymous": false,
      "inputs": [
        {
          "indexed": false,
          "internalType": "address",
          "name": "operator",
          "type": "address"
        },
        {
          "indexed": false,
          "internalType": "address",
          "name": "from",
          "type": "address"
        },
        {
          "indexed": false,
          "internalType": "address",
          "name": "to",
          "type": "address"
        },
        {
          "indexed": false,
          "internalType": "uint256",
          "name": "amount",
          "type": "uint256"
        },
        {
          "indexed": false,
          "internalType": "bytes",
          "name": "userData",
          "type": "bytes"
        },
        {
          "indexed": false,
          "internalType": "bytes",
          "name": "operatorData",
          "type": "bytes"
        }
      ],
      "name": "TokensToSend",
      "type": "event"
    },
    {
      "anonymous": false,
      "inputs": [
        {
          "indexed": true,
          "internalType": "address",
          "name": "from",
          "type": "address"
        },
        {
          "indexed": true,
          "internalType": "address",
          "name": "to",
          "type": "address"
        },
        {
          "indexed": false,
          "internalType": "uint256",
          "name": "value",
          "type": "uint256"
        }
      ],
      "name": "Transfer",
      "type": "event"
    },
    {
      "anonymous": false,
      "inputs": [
        {
          "indexed": false,
          "internalType": "address",
          "name": "unStaker",
          "type": "address"
        },
        {
          "indexed": false,
          "internalType": "uint256",
          "name": "unStakeAmount",
          "type": "uint256"
        }
      ],
      "name": "UnStake",
      "type": "event"
    },
    {
      "anonymous": false,
      "inputs": [
        {
          "indexed": true,
          "internalType": "address",
          "name": "implementation",
          "type": "address"
        }
      ],
      "name": "Upgraded",
      "type": "event"
    },
    {
      "inputs": [],
      "name": "__Ver02Setup_init",
      "outputs": [],
      "stateMutability": "nonpayable",
      "type": "function"
    },
    {
      "inputs": [
        {
          "internalType": "address",
          "name": "holder",
          "type": "address"
        },
        {
          "internalType": "address",
          "name": "spender",
          "type": "address"
        }
      ],
      "name": "allowance",
      "outputs": [
        {
          "internalType": "uint256",
          "name": "",
          "type": "uint256"
        }
      ],
      "stateMutability": "view",
      "type": "function"
    },
    {
      "inputs": [
        {
          "internalType": "address",
          "name": "spender",
          "type": "address"
        },
        {
          "internalType": "uint256",
          "name": "value",
          "type": "uint256"
        }
      ],
      "name": "approve",
      "outputs": [
        {
          "internalType": "bool",
          "name": "",
          "type": "bool"
        }
      ],
      "stateMutability": "nonpayable",
      "type": "function"
    },
    {
      "inputs": [
        {
          "internalType": "address",
          "name": "operator",
          "type": "address"
        }
      ],
      "name": "authorizeOperator",
      "outputs": [],
      "stateMutability": "nonpayable",
      "type": "function"
    },
    {
      "inputs": [
        {
          "internalType": "address",
          "name": "tokenHolder",
          "type": "address"
        }
      ],
      "name": "balanceOf",
      "outputs": [
        {
          "internalType": "uint256",
          "name": "",
          "type": "uint256"
        }
      ],
      "stateMutability": "view",
      "type": "function"
    },
    {
      "inputs": [
        {
          "internalType": "address",
          "name": "",
          "type": "address"
        }
      ],
      "name": "beneficiaries",
      "outputs": [
        {
          "internalType": "uint256",
          "name": "",
          "type": "uint256"
        }
      ],
      "stateMutability": "view",
      "type": "function"
    },
    {
      "inputs": [
        {
          "internalType": "uint256",
          "name": "amount",
          "type": "uint256"
        },
        {
          "internalType": "bytes",
          "name": "data",
          "type": "bytes"
        }
      ],
      "name": "burn",
      "outputs": [],
      "stateMutability": "nonpayable",
      "type": "function"
    },
    {
      "inputs": [],
      "name": "catnipVersion",
      "outputs": [
        {
          "internalType": "uint256",
          "name": "",
          "type": "uint256"
        }
      ],
      "stateMutability": "pure",
      "type": "function"
    },
    {
      "inputs": [],
      "name": "decimals",
      "outputs": [
        {
          "internalType": "uint8",
          "name": "",
          "type": "uint8"
        }
      ],
      "stateMutability": "pure",
      "type": "function"
    },
    {
      "inputs": [],
      "name": "defaultOperators",
      "outputs": [
        {
          "internalType": "address[]",
          "name": "",
          "type": "address[]"
        }
      ],
      "stateMutability": "view",
      "type": "function"
    },
    {
      "inputs": [],
      "name": "granularity",
      "outputs": [
        {
          "internalType": "uint256",
          "name": "",
          "type": "uint256"
        }
      ],
      "stateMutability": "view",
      "type": "function"
    },
    {
      "inputs": [],
      "name": "initialize",
      "outputs": [],
      "stateMutability": "nonpayable",
      "type": "function"
    },
    {
      "inputs": [
        {
          "internalType": "address",
          "name": "operator",
          "type": "address"
        },
        {
          "internalType": "address",
          "name": "tokenHolder",
          "type": "address"
        }
      ],
      "name": "isOperatorFor",
      "outputs": [
        {
          "internalType": "bool",
          "name": "",
          "type": "bool"
        }
      ],
      "stateMutability": "view",
      "type": "function"
    },
    {
      "inputs": [
        {
          "internalType": "address",
          "name": "account",
          "type": "address"
        },
        {
          "internalType": "uint256",
          "name": "amount",
          "type": "uint256"
        },
        {
          "internalType": "bytes",
          "name": "userData",
          "type": "bytes"
        },
        {
          "internalType": "bytes",
          "name": "operatorData",
          "type": "bytes"
        }
      ],
      "name": "mint",
      "outputs": [],
      "stateMutability": "nonpayable",
      "type": "function"
    },
    {
      "inputs": [],
      "name": "name",
      "outputs": [
        {
          "internalType": "string",
          "name": "",
          "type": "string"
        }
      ],
      "stateMutability": "view",
      "type": "function"
    },
    {
      "inputs": [],
      "name": "onlyVer02SetupInit",
      "outputs": [
        {
          "internalType": "bool",
          "name": "",
          "type": "bool"
        }
      ],
      "stateMutability": "view",
      "type": "function"
    },
    {
      "inputs": [
        {
          "internalType": "address",
          "name": "account",
          "type": "address"
        },
        {
          "internalType": "uint256",
          "name": "amount",
          "type": "uint256"
        },
        {
          "internalType": "bytes",
          "name": "data",
          "type": "bytes"
        },
        {
          "internalType": "bytes",
          "name": "operatorData",
          "type": "bytes"
        }
      ],
      "name": "operatorBurn",
      "outputs": [],
      "stateMutability": "nonpayable",
      "type": "function"
    },
    {
      "inputs": [
        {
          "internalType": "address",
          "name": "sender",
          "type": "address"
        },
        {
          "internalType": "address",
          "name": "recipient",
          "type": "address"
        },
        {
          "internalType": "uint256",
          "name": "amount",
          "type": "uint256"
        },
        {
          "internalType": "bytes",
          "name": "data",
          "type": "bytes"
        },
        {
          "internalType": "bytes",
          "name": "operatorData",
          "type": "bytes"
        }
      ],
      "name": "operatorSend",
      "outputs": [],
      "stateMutability": "nonpayable",
      "type": "function"
    },
    {
      "inputs": [],
      "name": "owner",
      "outputs": [
        {
          "internalType": "address",
          "name": "",
          "type": "address"
        }
      ],
      "stateMutability": "view",
      "type": "function"
    },
    {
      "inputs": [],
      "name": "proxiableUUID",
      "outputs": [
        {
          "internalType": "bytes32",
          "name": "",
          "type": "bytes32"
        }
      ],
      "stateMutability": "view",
      "type": "function"
    },
    {
      "inputs": [],
      "name": "releaseTime",
      "outputs": [
        {
          "internalType": "uint256",
          "name": "",
          "type": "uint256"
        }
      ],
      "stateMutability": "view",
      "type": "function"
    },
    {
      "inputs": [],
      "name": "renounceOwnership",
      "outputs": [],
      "stateMutability": "nonpayable",
      "type": "function"
    },
    {
      "inputs": [
        {
          "internalType": "address",
          "name": "operator",
          "type": "address"
        }
      ],
      "name": "revokeOperator",
      "outputs": [],
      "stateMutability": "nonpayable",
      "type": "function"
    },
    {
      "inputs": [
        {
          "internalType": "address",
          "name": "recipient",
          "type": "address"
        },
        {
          "internalType": "uint256",
          "name": "amount",
          "type": "uint256"
        },
        {
          "internalType": "bytes",
          "name": "data",
          "type": "bytes"
        }
      ],
      "name": "send",
      "outputs": [],
      "stateMutability": "nonpayable",
      "type": "function"
    },
    {
      "inputs": [
        {
          "internalType": "uint256",
          "name": "_amount",
          "type": "uint256"
        }
      ],
      "name": "stake",
      "outputs": [],
      "stateMutability": "nonpayable",
      "type": "function"
    },
    {
      "inputs": [],
      "name": "stakeAmount",
      "outputs": [
        {
          "internalType": "uint256",
          "name": "",
          "type": "uint256"
        }
      ],
      "stateMutability": "view",
      "type": "function"
    },
    {
      "inputs": [],
      "name": "supplyLimit",
      "outputs": [
        {
          "internalType": "uint256",
          "name": "",
          "type": "uint256"
        }
      ],
      "stateMutability": "view",
      "type": "function"
    },
    {
      "inputs": [],
      "name": "symbol",
      "outputs": [
        {
          "internalType": "string",
          "name": "",
          "type": "string"
        }
      ],
      "stateMutability": "view",
      "type": "function"
    },
    {
      "inputs": [
        {
          "internalType": "address",
          "name": "operator",
          "type": "address"
        },
        {
          "internalType": "address",
          "name": "from",
          "type": "address"
        },
        {
          "internalType": "address",
          "name": "to",
          "type": "address"
        },
        {
          "internalType": "uint256",
          "name": "amount",
          "type": "uint256"
        },
        {
          "internalType": "bytes",
          "name": "userData",
          "type": "bytes"
        },
        {
          "internalType": "bytes",
          "name": "operatorData",
          "type": "bytes"
        }
      ],
      "name": "tokensReceived",
      "outputs": [],
      "stateMutability": "nonpayable",
      "type": "function"
    },
    {
      "inputs": [
        {
          "internalType": "address",
          "name": "operator",
          "type": "address"
        },
        {
          "internalType": "address",
          "name": "from",
          "type": "address"
        },
        {
          "internalType": "address",
          "name": "to",
          "type": "address"
        },
        {
          "internalType": "uint256",
          "name": "amount",
          "type": "uint256"
        },
        {
          "internalType": "bytes",
          "name": "userData",
          "type": "bytes"
        },
        {
          "internalType": "bytes",
          "name": "operatorData",
          "type": "bytes"
        }
      ],
      "name": "tokensToSend",
      "outputs": [],
      "stateMutability": "nonpayable",
      "type": "function"
    },
    {
      "inputs": [],
      "name": "totalSupply",
      "outputs": [
        {
          "internalType": "uint256",
          "name": "",
          "type": "uint256"
        }
      ],
      "stateMutability": "view",
      "type": "function"
    },
    {
      "inputs": [
        {
          "internalType": "address",
          "name": "recipient",
          "type": "address"
        },
        {
          "internalType": "uint256",
          "name": "amount",
          "type": "uint256"
        }
      ],
      "name": "transfer",
      "outputs": [
        {
          "internalType": "bool",
          "name": "",
          "type": "bool"
        }
      ],
      "stateMutability": "nonpayable",
      "type": "function"
    },
    {
      "inputs": [
        {
          "internalType": "address",
          "name": "holder",
          "type": "address"
        },
        {
          "internalType": "address",
          "name": "recipient",
          "type": "address"
        },
        {
          "internalType": "uint256",
          "name": "amount",
          "type": "uint256"
        }
      ],
      "name": "transferFrom",
      "outputs": [
        {
          "internalType": "bool",
          "name": "",
          "type": "bool"
        }
      ],
      "stateMutability": "nonpayable",
      "type": "function"
    },
    {
      "inputs": [
        {
          "internalType": "address",
          "name": "newOwner",
          "type": "address"
        }
      ],
      "name": "transferOwnership",
      "outputs": [],
      "stateMutability": "nonpayable",
      "type": "function"
    },
    {
      "inputs": [],
      "name": "unStake",
      "outputs": [],
      "stateMutability": "nonpayable",
      "type": "function"
    },
    {
      "inputs": [
        {
          "internalType": "string",
          "name": "interfaceName",
          "type": "string"
        }
      ],
      "name": "updateERC1820Registry",
      "outputs": [],
      "stateMutability": "nonpayable",
      "type": "function"
    },
    {
      "inputs": [
        {
          "internalType": "address",
          "name": "newImplementation",
          "type": "address"
        }
      ],
      "name": "upgradeTo",
      "outputs": [],
      "stateMutability": "nonpayable",
      "type": "function"
    },
    {
      "inputs": [
        {
          "internalType": "address",
          "name": "newImplementation",
          "type": "address"
        },
        {
          "internalType": "bytes",
          "name": "data",
          "type": "bytes"
        }
      ],
      "name": "upgradeToAndCall",
      "outputs": [],
      "stateMutability": "payable",
      "type": "function"
    }
  ],
  "bytecode": "0x60a0604052306080523480156200001557600080fd5b506200002062000026565b620000e8565b600054610100900460ff1615620000935760405162461bcd60e51b815260206004820152602760248201527f496e697469616c697a61626c653a20636f6e747261637420697320696e697469604482015266616c697a696e6760c81b606482015260840160405180910390fd5b60005460ff9081161015620000e6576000805460ff191660ff9081179091556040519081527f7f26b83ff96e1f2b6a682f133852f6798a09c465da95921460cefb38474024989060200160405180910390a15b565b6080516138db62000120600039600081816109d801528181610a6201528181610b5801528181610bdd0152610cc701526138db6000f3fe6080604052600436106102845760003560e01c806373cf575a11610153578063a9059cbb116100cb578063f2fde38b1161007f578063fad8b32a11610064578063fad8b32a146106d5578063fc673c4f146106f5578063fe9d93031461071557600080fd5b8063f2fde38b146106a1578063f39d6fa2146106c157600080fd5b8063d95b6371116100b0578063d95b63711461061b578063dcdc7dd01461063b578063dd62ed3e1461065b57600080fd5b8063a9059cbb146105e5578063b91d40011461060557600080fd5b8063959b8c3f116101225780639bd9bbc6116101075780639bd9bbc61461058b578063a1177ef1146105ab578063a694fc3a146105c557600080fd5b8063959b8c3f1461055657806395d89b411461057657600080fd5b806373cf575a146104e457806375ab9782146104f95780638129fc1c146105195780638da5cb5b1461052e57600080fd5b8063313ce5671161020157806360c7dc47116101b557806367b8958d1161019a57806367b8958d1461048457806370a0823114610499578063715018a6146104cf57600080fd5b806360c7dc471461044257806362ad1b831461046457600080fd5b80634f1ef286116101e65780634f1ef2861461040657806352d1902d14610419578063556f0dc71461042e57600080fd5b8063313ce567146103ca5780633659cfe6146103e657600080fd5b8063095ea7b31161025857806319d1997a1161023d57806319d1997a146103745780631aa2984d1461038a57806323b872dd146103aa57600080fd5b8063095ea7b31461032f57806318160ddd1461035f57600080fd5b806223de291461028957806301567739146102ab57806306e48538146102eb57806306fdde031461030d575b600080fd5b34801561029557600080fd5b506102a96102a4366004612f23565b610735565b005b3480156102b757600080fd5b506102d86102c6366004612fd4565b60fd6020526000908152604090205481565b6040519081526020015b60405180910390f35b3480156102f757600080fd5b50610300610784565b6040516102e29190612ff1565b34801561031957600080fd5b506103226107e6565b6040516102e29190613096565b34801561033b57600080fd5b5061034f61034a3660046130a9565b61086f565b60405190151581526020016102e2565b34801561036b57600080fd5b506034546102d8565b34801561038057600080fd5b506102d860fb5481565b34801561039657600080fd5b506102a96103a5366004613161565b610889565b3480156103b657600080fd5b5061034f6103c53660046131b2565b610986565b3480156103d657600080fd5b50604051601281526020016102e2565b3480156103f257600080fd5b506102a9610401366004612fd4565b6109ce565b6102a9610414366004613213565b610b4e565b34801561042557600080fd5b506102d8610cba565b34801561043a57600080fd5b5060016102d8565b34801561044e57600080fd5b5033600090815260fd60205260409020546102d8565b34801561047057600080fd5b506102a961047f366004613263565b610d7f565b34801561049057600080fd5b506102a9610e00565b3480156104a557600080fd5b506102d86104b4366004612fd4565b6001600160a01b031660009081526033602052604090205490565b3480156104db57600080fd5b506102a9610e7e565b3480156104f057600080fd5b506102a9610e90565b34801561050557600080fd5b506102a9610514366004612f23565b610fbd565b34801561052557600080fd5b506102a9610ffa565b34801561053a57600080fd5b5060c9546040516001600160a01b0390911681526020016102e2565b34801561056257600080fd5b506102a9610571366004612fd4565b6111a7565b34801561058257600080fd5b506103226112dd565b34801561059757600080fd5b506102a96105a63660046132f6565b6112ec565b3480156105b757600080fd5b5060fe5461034f9060ff1681565b3480156105d157600080fd5b506102a96105e036600461334f565b61130f565b3480156105f157600080fd5b5061034f6106003660046130a9565b6114b5565b34801561061157600080fd5b506102d860fc5481565b34801561062757600080fd5b5061034f610636366004613368565b6114ed565b34801561064757600080fd5b506102a96106563660046133a1565b61158e565b34801561066757600080fd5b506102d8610676366004613368565b6001600160a01b039182166000908152603b6020908152604080832093909416825291909152205490565b3480156106ad57600080fd5b506102a96106bc366004612fd4565b6115f1565b3480156106cd57600080fd5b5060026102d8565b3480156106e157600080fd5b506102a96106f0366004612fd4565b611667565b34801561070157600080fd5b506102a96107103660046133a1565b61179e565b34801561072157600080fd5b506102a9610730366004613421565b611815565b7ff7ad0180d908ac00a58ca7a7c020ac7340ed61a167cfbe1f57716544db0e4ace888888888888888860405161077298979695949392919061347b565b60405180910390a15050505050505050565b606060378054806020026020016040519081016040528092919081815260200182805480156107dc57602002820191906000526020600020905b81546001600160a01b031681526001909101906020018083116107be575b5050505050905090565b6060603580546107f5906134d8565b80601f0160208091040260200160405190810160405280929190818152602001828054610821906134d8565b80156107dc5780601f10610843576101008083540402835291602001916107dc565b820191906000526020600020905b81548152906001019060200180831161085157509395945050505050565b60003361087d818585611830565b60019150505b92915050565b610891611989565b6040516365ba36c160e01b8152600090731820a4b7618bde71dce8cdc73aab6c95905fad24906365ba36c1906108cb908590600401613096565b602060405180830381865afa1580156108e8573d6000803e3d6000fd5b505050506040513d601f19601f8201168201806040525081019061090c9190613512565b6040516329965a1d60e01b81523060048201819052602482018390526044820152909150731820a4b7618bde71dce8cdc73aab6c95905fad24906329965a1d906064015b600060405180830381600087803b15801561096a57600080fd5b505af115801561097e573d6000803e3d6000fd5b505050505050565b6000336109948582856119e3565b6109c185858560405180602001604052806000815250604051806020016040528060008152506000611a6f565b60019150505b9392505050565b6001600160a01b037f0000000000000000000000000000000000000000000000000000000000000000163003610a605760405162461bcd60e51b815260206004820152602c60248201527f46756e6374696f6e206d7573742062652063616c6c6564207468726f7567682060448201526b19195b1959d85d1958d85b1b60a21b60648201526084015b60405180910390fd5b7f00000000000000000000000000000000000000000000000000000000000000006001600160a01b0316610abb7f360894a13ba1a3210667c828492db98dca3e2076cc3735a920a3ca505d382bbc546001600160a01b031690565b6001600160a01b031614610b265760405162461bcd60e51b815260206004820152602c60248201527f46756e6374696f6e206d7573742062652063616c6c6564207468726f7567682060448201526b6163746976652070726f787960a01b6064820152608401610a57565b610b2f81611b84565b60408051600080825260208201909252610b4b91839190611b8c565b50565b6001600160a01b037f0000000000000000000000000000000000000000000000000000000000000000163003610bdb5760405162461bcd60e51b815260206004820152602c60248201527f46756e6374696f6e206d7573742062652063616c6c6564207468726f7567682060448201526b19195b1959d85d1958d85b1b60a21b6064820152608401610a57565b7f00000000000000000000000000000000000000000000000000000000000000006001600160a01b0316610c367f360894a13ba1a3210667c828492db98dca3e2076cc3735a920a3ca505d382bbc546001600160a01b031690565b6001600160a01b031614610ca15760405162461bcd60e51b815260206004820152602c60248201527f46756e6374696f6e206d7573742062652063616c6c6564207468726f7567682060448201526b6163746976652070726f787960a01b6064820152608401610a57565b610caa82611b84565b610cb682826001611b8c565b5050565b6000306001600160a01b037f00000000000000000000000000000000000000000000000000000000000000001614610d5a5760405162461bcd60e51b815260206004820152603860248201527f555550535570677261646561626c653a206d757374206e6f742062652063616c60448201527f6c6564207468726f7567682064656c656761746563616c6c00000000000000006064820152608401610a57565b507f360894a13ba1a3210667c828492db98dca3e2076cc3735a920a3ca505d382bbc90565b610d8933866114ed565b610dea5760405162461bcd60e51b815260206004820152602c60248201527f4552433737373a2063616c6c6572206973206e6f7420616e206f70657261746f60448201526b39103337b9103437b63232b960a11b6064820152608401610a57565b610df985858585856001611a6f565b5050505050565b610e08611989565b60fe5460ff161515600103610e5f5760405162461bcd60e51b815260206004820152601960248201527f536574757020616c726561647920696e697469616c697a6564000000000000006044820152606401610a57565b60fe805460ff19166001179055610e74611d2c565b610e7c611d78565b565b610e86611989565b610e7c6000611f85565b60fc5430904211610ee35760405162461bcd60e51b815260206004820152601760248201527f5374616b696e67206861736e27742066696e69736865640000000000000000006044820152606401610a57565b33600081815260fd602052604080822080549083905590516362ad1b8360e01b815230600482015260248101939093526044830181905260a0606484015260a4830182905260c0608484015260c4830191909152906001600160a01b038316906362ad1b839060e401600060405180830381600087803b158015610f6657600080fd5b505af1158015610f7a573d6000803e3d6000fd5b505060408051338152602081018590527fb24546d975e2628748efc9aced80665e0fad66272033e5c0ea25fd3afac9979593500190505b60405180910390a15050565b7fdeec22f691a3bc61c9e48411328fdd03d5e452db27bd976b19eda8877885c86d888888888888888860405161077298979695949392919061347b565b600054610100900460ff161580801561101a5750600054600160ff909116105b806110345750303b158015611034575060005460ff166001145b6110a65760405162461bcd60e51b815260206004820152602e60248201527f496e697469616c697a61626c653a20636f6e747261637420697320616c72656160448201527f647920696e697469616c697a65640000000000000000000000000000000000006064820152608401610a57565b6000805460ff1916600117905580156110c9576000805461ff0019166101001790555b604080518082018252600981527f55505f4361746e6970000000000000000000000000000000000000000000000060208083019190915282518084018452600281527f434e000000000000000000000000000000000000000000000000000000000000818301528351600081529182019093526111469290611fe4565b61114e61205a565b6111566120c5565b61115e612138565b8015610b4b576000805461ff0019169055604051600181527f7f26b83ff96e1f2b6a682f133852f6798a09c465da95921460cefb3847402498906020015b60405180910390a150565b6001600160a01b03811633036112245760405162461bcd60e51b8152602060048201526024808201527f4552433737373a20617574686f72697a696e672073656c66206173206f70657260448201527f61746f72000000000000000000000000000000000000000000000000000000006064820152608401610a57565b6001600160a01b03811660009081526038602052604090205460ff161561127557336000908152603a602090815260408083206001600160a01b03851684529091529020805460ff191690556112a4565b3360009081526039602090815260408083206001600160a01b03851684529091529020805460ff191660011790555b60405133906001600160a01b038316907ff4caeb2d6ca8932a215a353d0703c326ec2d81fc68170f320eb2ab49e9df61f990600090a350565b6060603680546107f5906134d8565b61130a33848484604051806020016040528060008152506001611a6f565b505050565b6040517f70a082310000000000000000000000000000000000000000000000000000000081523360048201523090829082906370a0823190602401602060405180830381865afa158015611367573d6000803e3d6000fd5b505050506040513d601f19601f8201168201806040525081019061138b9190613512565b116113d85760405162461bcd60e51b815260206004820152601c60248201527f53686f756c642068617665206361746e69707320746f207374616b65000000006044820152606401610a57565b33600090815260fd6020526040812080548492906113f7908490613541565b90915550506040516362ad1b8360e01b81523360048201523060248201526044810183905260a06064820152600060a4820181905260c0608483015260c48201526001600160a01b038216906362ad1b839060e401600060405180830381600087803b15801561146657600080fd5b505af115801561147a573d6000803e3d6000fd5b505060408051338152602081018690527febedb8b3c678666e7f36970bc8f57abf6d8fa2e828c0da91ea5b75bf68ed101a9350019050610fb1565b60006114e433848460405180602001604052806000815250604051806020016040528060008152506000611a6f565b50600192915050565b6000816001600160a01b0316836001600160a01b0316148061155857506001600160a01b03831660009081526038602052604090205460ff16801561155857506001600160a01b038083166000908152603a602090815260408083209387168352929052205460ff16155b806109c757506001600160a01b0380831660009081526039602090815260408083209387168352929052205460ff169392505050565b60fb5483106115df5760405162461bcd60e51b815260206004820152601360248201527f4578636565646564206d617820737570706c79000000000000000000000000006044820152606401610a57565b6115eb84848484612157565b50505050565b6115f9611989565b6001600160a01b03811661165e5760405162461bcd60e51b815260206004820152602660248201527f4f776e61626c653a206e6577206f776e657220697320746865207a65726f206160448201526564647265737360d01b6064820152608401610a57565b610b4b81611f85565b336001600160a01b038216036116e55760405162461bcd60e51b815260206004820152602160248201527f4552433737373a207265766f6b696e672073656c66206173206f70657261746f60448201527f72000000000000000000000000000000000000000000000000000000000000006064820152608401610a57565b6001600160a01b03811660009081526038602052604090205460ff161561173957336000908152603a602090815260408083206001600160a01b03851684529091529020805460ff19166001179055611765565b3360009081526039602090815260408083206001600160a01b03851684529091529020805460ff191690555b60405133906001600160a01b038316907f50546e66e5f44d728365dc3908c63bc5cfeeab470722c1677e3073a6ac294aa190600090a350565b6117a833856114ed565b6118095760405162461bcd60e51b815260206004820152602c60248201527f4552433737373a2063616c6c6572206973206e6f7420616e206f70657261746f60448201526b39103337b9103437b63232b960a11b6064820152608401610a57565b6115eb84848484612165565b610cb633838360405180602001604052806000815250612165565b6001600160a01b0383166118ac5760405162461bcd60e51b815260206004820152602560248201527f4552433737373a20617070726f76652066726f6d20746865207a65726f20616460448201527f64726573730000000000000000000000000000000000000000000000000000006064820152608401610a57565b6001600160a01b0382166119285760405162461bcd60e51b815260206004820152602360248201527f4552433737373a20617070726f766520746f20746865207a65726f206164647260448201527f65737300000000000000000000000000000000000000000000000000000000006064820152608401610a57565b6001600160a01b038381166000818152603b602090815260408083209487168084529482529182902085905590518481527f8c5be1e5ebec7d5bd14f71427d1e84f3dd0314c0f7b2291e5b200ac8c7c3b925910160405180910390a3505050565b60c9546001600160a01b03163314610e7c5760405162461bcd60e51b815260206004820181905260248201527f4f776e61626c653a2063616c6c6572206973206e6f7420746865206f776e65726044820152606401610a57565b6001600160a01b038381166000908152603b602090815260408083209386168352929052205460001981146115eb5781811015611a625760405162461bcd60e51b815260206004820152601e60248201527f4552433737373a20696e73756666696369656e7420616c6c6f77616e636500006044820152606401610a57565b6115eb8484848403611830565b6001600160a01b038616611ad45760405162461bcd60e51b815260206004820152602660248201527f4552433737373a207472616e736665722066726f6d20746865207a65726f206160448201526564647265737360d01b6064820152608401610a57565b6001600160a01b038516611b4f5760405162461bcd60e51b8152602060048201526024808201527f4552433737373a207472616e7366657220746f20746865207a65726f2061646460448201527f72657373000000000000000000000000000000000000000000000000000000006064820152608401610a57565b33611b5e81888888888861234f565b611b6c81888888888861248f565b611b7b8188888888888861260b565b50505050505050565b610b4b611989565b7f4910fdfa16fed3260ed0e7147f7cc6da11a60208b5b9406d12a635614ffd91435460ff1615611bbf5761130a836127f9565b826001600160a01b03166352d1902d6040518163ffffffff1660e01b8152600401602060405180830381865afa925050508015611c19575060408051601f3d908101601f19168201909252611c1691810190613512565b60015b611c8b5760405162461bcd60e51b815260206004820152602e60248201527f45524331393637557067726164653a206e657720696d706c656d656e7461746960448201527f6f6e206973206e6f7420555550530000000000000000000000000000000000006064820152608401610a57565b7f360894a13ba1a3210667c828492db98dca3e2076cc3735a920a3ca505d382bbc8114611d205760405162461bcd60e51b815260206004820152602960248201527f45524331393637557067726164653a20756e737570706f727465642070726f7860448201527f6961626c655555494400000000000000000000000000000000000000000000006064820152608401610a57565b5061130a8383836128c4565b611d34611989565b6301baf800611d438142613541565b60fc8190556040519081527ffdadcafe80125e03c996b4177dd52df5498ef2842deba41eb59484c19f7ba97b9060200161119c565b611d80611989565b6040516365ba36c160e01b815260206004820152601560248201527f455243373737546f6b656e73526563697069656e7400000000000000000000006044820152600090731820a4b7618bde71dce8cdc73aab6c95905fad24906365ba36c190606401602060405180830381865afa158015611e00573d6000803e3d6000fd5b505050506040513d601f19601f82011682018060405250810190611e249190613512565b6040516365ba36c160e01b815260206004820152601260248201527f455243373737546f6b656e7353656e64657200000000000000000000000000006044820152909150600090731820a4b7618bde71dce8cdc73aab6c95905fad24906365ba36c190606401602060405180830381865afa158015611ea7573d6000803e3d6000fd5b505050506040513d601f19601f82011682018060405250810190611ecb9190613512565b6040516329965a1d60e01b81523060048201819052602482018590526044820152909150731820a4b7618bde71dce8cdc73aab6c95905fad24906329965a1d90606401600060405180830381600087803b158015611f2857600080fd5b505af1158015611f3c573d6000803e3d6000fd5b50506040516329965a1d60e01b81523060048201819052602482018590526044820152731820a4b7618bde71dce8cdc73aab6c95905fad2492506329965a1d9150606401610950565b60c980546001600160a01b0383811673ffffffffffffffffffffffffffffffffffffffff19831681179093556040519116919082907f8be0079c531659141344cd1fd0a4f28419497f9722a3daafe3b4186f6b6457e090600090a35050565b600054610100900460ff1661204f5760405162461bcd60e51b815260206004820152602b60248201527f496e697469616c697a61626c653a20636f6e7472616374206973206e6f74206960448201526a6e697469616c697a696e6760a81b6064820152608401610a57565b61130a8383836128e9565b600054610100900460ff16610e7c5760405162461bcd60e51b815260206004820152602b60248201527f496e697469616c697a61626c653a20636f6e7472616374206973206e6f74206960448201526a6e697469616c697a696e6760a81b6064820152608401610a57565b600054610100900460ff166121305760405162461bcd60e51b815260206004820152602b60248201527f496e697469616c697a61626c653a20636f6e7472616374206973206e6f74206960448201526a6e697469616c697a696e6760a81b6064820152608401610a57565b610e7c612b09565b6121446012600a61363d565b61215290633b9aca0061364c565b60fb55565b6115eb848484846001612b7d565b6001600160a01b0384166121e15760405162461bcd60e51b815260206004820152602260248201527f4552433737373a206275726e2066726f6d20746865207a65726f20616464726560448201527f73730000000000000000000000000000000000000000000000000000000000006064820152608401610a57565b336121f18186600087878761234f565b6001600160a01b038516600090815260336020526040902054848110156122805760405162461bcd60e51b815260206004820152602360248201527f4552433737373a206275726e20616d6f756e7420657863656564732062616c6160448201527f6e636500000000000000000000000000000000000000000000000000000000006064820152608401610a57565b6001600160a01b03861660009081526033602052604081208683039055603480548792906122af90849061366b565b92505081905550856001600160a01b0316826001600160a01b03167fa78a9be3a7b862d26933ad85fb11d80ef66b8f972d7cbba06621d583943a40988787876040516122fd93929190613682565b60405180910390a36040518581526000906001600160a01b038816907fddf252ad1be2c89b69c2b068fc378daa952ba7f163c4a11628f55a4df523b3ef906020015b60405180910390a3505050505050565b60405163555ddc6560e11b81526001600160a01b03861660048201527f29ddb589b1fb5fc7cf394961c1adf5f8c6454761adf795e67fe149f658abe8956024820152600090731820a4b7618bde71dce8cdc73aab6c95905fad249063aabbb8ca90604401602060405180830381865afa1580156123d0573d6000803e3d6000fd5b505050506040513d601f19601f820116820180604052508101906123f491906136b7565b90506001600160a01b03811615611b7b576040517f75ab97820000000000000000000000000000000000000000000000000000000081526001600160a01b038216906375ab978290612454908a908a908a908a908a908a906004016136d4565b600060405180830381600087803b15801561246e57600080fd5b505af1158015612482573d6000803e3d6000fd5b5050505050505050505050565b6001600160a01b0385166000908152603360205260409020548381101561251e5760405162461bcd60e51b815260206004820152602760248201527f4552433737373a207472616e7366657220616d6f756e7420657863656564732060448201527f62616c616e6365000000000000000000000000000000000000000000000000006064820152608401610a57565b6001600160a01b03808716600090815260336020526040808220878503905591871681529081208054869290612555908490613541565b92505081905550846001600160a01b0316866001600160a01b0316886001600160a01b03167f06b541ddaa720db2b10a4d0cdac39b8d360425fc073085fac19bc826146779878787876040516125ad93929190613682565b60405180910390a4846001600160a01b0316866001600160a01b03167fddf252ad1be2c89b69c2b068fc378daa952ba7f163c4a11628f55a4df523b3ef866040516125fa91815260200190565b60405180910390a350505050505050565b60405163555ddc6560e11b81526001600160a01b03861660048201527fb281fc8c12954d22544db45de3159a39272895b169a852b314f9cc762e44c53b6024820152600090731820a4b7618bde71dce8cdc73aab6c95905fad249063aabbb8ca90604401602060405180830381865afa15801561268c573d6000803e3d6000fd5b505050506040513d601f19601f820116820180604052508101906126b091906136b7565b90506001600160a01b03811615612745576040517e23de290000000000000000000000000000000000000000000000000000000081526001600160a01b038216906223de299061270e908b908b908b908b908b908b906004016136d4565b600060405180830381600087803b15801561272857600080fd5b505af115801561273c573d6000803e3d6000fd5b505050506127ef565b81156127ef576001600160a01b0386163b156127ef5760405162461bcd60e51b815260206004820152604d60248201527f4552433737373a20746f6b656e20726563697069656e7420636f6e747261637460448201527f20686173206e6f20696d706c656d656e74657220666f7220455243373737546f60648201527f6b656e73526563697069656e7400000000000000000000000000000000000000608482015260a401610a57565b5050505050505050565b6001600160a01b0381163b6128765760405162461bcd60e51b815260206004820152602d60248201527f455243313936373a206e657720696d706c656d656e746174696f6e206973206e60448201527f6f74206120636f6e7472616374000000000000000000000000000000000000006064820152608401610a57565b7f360894a13ba1a3210667c828492db98dca3e2076cc3735a920a3ca505d382bbc805473ffffffffffffffffffffffffffffffffffffffff19166001600160a01b0392909216919091179055565b6128cd83612cba565b6000825111806128da5750805b1561130a576115eb8383612cfa565b600054610100900460ff166129545760405162461bcd60e51b815260206004820152602b60248201527f496e697469616c697a61626c653a20636f6e7472616374206973206e6f74206960448201526a6e697469616c697a696e6760a81b6064820152608401610a57565b60356129608482613773565b50603661296d8382613773565b508051612981906037906020840190612e3e565b5060005b81518110156129ea576001603860008484815181106129a6576129a6613833565b6020908102919091018101516001600160a01b03168252810191909152604001600020805460ff1916911515919091179055806129e281613849565b915050612985565b506040516329965a1d60e01b815230600482018190527fac7fbab5f54a3ca8194167523c6753bfeb96a445279294b6125b68cce217705460248301526044820152731820a4b7618bde71dce8cdc73aab6c95905fad24906329965a1d90606401600060405180830381600087803b158015612a6457600080fd5b505af1158015612a78573d6000803e3d6000fd5b50506040516329965a1d60e01b815230600482018190527faea199e31a596269b42cdafd93407f14436db6e4cad65417994c2eb37381e05a60248301526044820152731820a4b7618bde71dce8cdc73aab6c95905fad2492506329965a1d9150606401600060405180830381600087803b158015612af557600080fd5b505af1158015611b7b573d6000803e3d6000fd5b600054610100900460ff16612b745760405162461bcd60e51b815260206004820152602b60248201527f496e697469616c697a61626c653a20636f6e7472616374206973206e6f74206960448201526a6e697469616c697a696e6760a81b6064820152608401610a57565b610e7c33611f85565b6001600160a01b038516612bd35760405162461bcd60e51b815260206004820181905260248201527f4552433737373a206d696e7420746f20746865207a65726f20616464726573736044820152606401610a57565b60003390508460346000828254612bea9190613541565b90915550506001600160a01b03861660009081526033602052604081208054879290612c17908490613541565b90915550612c2d9050816000888888888861260b565b856001600160a01b0316816001600160a01b03167f2fe5be0146f74c5bce36c0b80911af6c7d86ff27e89d5cfa61fc681327954e5d878787604051612c7493929190613682565b60405180910390a36040518581526001600160a01b038716906000907fddf252ad1be2c89b69c2b068fc378daa952ba7f163c4a11628f55a4df523b3ef9060200161233f565b612cc3816127f9565b6040516001600160a01b038216907fbc7cd75a20ee27fd9adebab32041f755214dbc6bffa90cc0225b39da2e5c2d3b90600090a250565b60606001600160a01b0383163b612d795760405162461bcd60e51b815260206004820152602660248201527f416464726573733a2064656c65676174652063616c6c20746f206e6f6e2d636f60448201527f6e747261637400000000000000000000000000000000000000000000000000006064820152608401610a57565b600080846001600160a01b031684604051612d949190613862565b600060405180830381855af49150503d8060008114612dcf576040519150601f19603f3d011682016040523d82523d6000602084013e612dd4565b606091505b5091509150612dfc828260405180606001604052806027815260200161387f60279139612e05565b95945050505050565b60608315612e145750816109c7565b825115612e245782518084602001fd5b8160405162461bcd60e51b8152600401610a579190613096565b828054828255906000526020600020908101928215612ea0579160200282015b82811115612ea0578251825473ffffffffffffffffffffffffffffffffffffffff19166001600160a01b03909116178255602090920191600190910190612e5e565b50612eac929150612eb0565b5090565b5b80821115612eac5760008155600101612eb1565b6001600160a01b0381168114610b4b57600080fd5b60008083601f840112612eec57600080fd5b50813567ffffffffffffffff811115612f0457600080fd5b602083019150836020828501011115612f1c57600080fd5b9250929050565b60008060008060008060008060c0898b031215612f3f57600080fd5b8835612f4a81612ec5565b97506020890135612f5a81612ec5565b96506040890135612f6a81612ec5565b955060608901359450608089013567ffffffffffffffff80821115612f8e57600080fd5b612f9a8c838d01612eda565b909650945060a08b0135915080821115612fb357600080fd5b50612fc08b828c01612eda565b999c989b5096995094979396929594505050565b600060208284031215612fe657600080fd5b81356109c781612ec5565b6020808252825182820181905260009190848201906040850190845b818110156130325783516001600160a01b03168352928401929184019160010161300d565b50909695505050505050565b60005b83811015613059578181015183820152602001613041565b838111156115eb5750506000910152565b6000815180845261308281602086016020860161303e565b601f01601f19169290920160200192915050565b6020815260006109c7602083018461306a565b600080604083850312156130bc57600080fd5b82356130c781612ec5565b946020939093013593505050565b634e487b7160e01b600052604160045260246000fd5b600067ffffffffffffffff80841115613106576131066130d5565b604051601f8501601f19908116603f0116810190828211818310171561312e5761312e6130d5565b8160405280935085815286868601111561314757600080fd5b858560208301376000602087830101525050509392505050565b60006020828403121561317357600080fd5b813567ffffffffffffffff81111561318a57600080fd5b8201601f8101841361319b57600080fd5b6131aa848235602084016130eb565b949350505050565b6000806000606084860312156131c757600080fd5b83356131d281612ec5565b925060208401356131e281612ec5565b929592945050506040919091013590565b600082601f83011261320457600080fd5b6109c7838335602085016130eb565b6000806040838503121561322657600080fd5b823561323181612ec5565b9150602083013567ffffffffffffffff81111561324d57600080fd5b613259858286016131f3565b9150509250929050565b600080600080600060a0868803121561327b57600080fd5b853561328681612ec5565b9450602086013561329681612ec5565b935060408601359250606086013567ffffffffffffffff808211156132ba57600080fd5b6132c689838a016131f3565b935060808801359150808211156132dc57600080fd5b506132e9888289016131f3565b9150509295509295909350565b60008060006060848603121561330b57600080fd5b833561331681612ec5565b925060208401359150604084013567ffffffffffffffff81111561333957600080fd5b613345868287016131f3565b9150509250925092565b60006020828403121561336157600080fd5b5035919050565b6000806040838503121561337b57600080fd5b823561338681612ec5565b9150602083013561339681612ec5565b809150509250929050565b600080600080608085870312156133b757600080fd5b84356133c281612ec5565b935060208501359250604085013567ffffffffffffffff808211156133e657600080fd5b6133f2888389016131f3565b9350606087013591508082111561340857600080fd5b50613415878288016131f3565b91505092959194509250565b6000806040838503121561343457600080fd5b82359150602083013567ffffffffffffffff81111561324d57600080fd5b81835281816020850137506000828201602090810191909152601f909101601f19169091010190565b60006001600160a01b03808b168352808a16602084015280891660408401525086606083015260c060808301526134b660c083018688613452565b82810360a08401526134c9818587613452565b9b9a5050505050505050505050565b600181811c908216806134ec57607f821691505b60208210810361350c57634e487b7160e01b600052602260045260246000fd5b50919050565b60006020828403121561352457600080fd5b5051919050565b634e487b7160e01b600052601160045260246000fd5b600082198211156135545761355461352b565b500190565b600181815b8085111561359457816000190482111561357a5761357a61352b565b8085161561358757918102915b93841c939080029061355e565b509250929050565b6000826135ab57506001610883565b816135b857506000610883565b81600181146135ce57600281146135d8576135f4565b6001915050610883565b60ff8411156135e9576135e961352b565b50506001821b610883565b5060208310610133831016604e8410600b8410161715613617575081810a610883565b6136218383613559565b80600019048211156136355761363561352b565b029392505050565b60006109c760ff84168361359c565b60008160001904831182151516156136665761366661352b565b500290565b60008282101561367d5761367d61352b565b500390565b83815260606020820152600061369b606083018561306a565b82810360408401526136ad818561306a565b9695505050505050565b6000602082840312156136c957600080fd5b81516109c781612ec5565b60006001600160a01b038089168352808816602084015280871660408401525084606083015260c0608083015261370e60c083018561306a565b82810360a0840152613720818561306a565b9998505050505050505050565b601f82111561130a57600081815260208120601f850160051c810160208610156137545750805b601f850160051c820191505b8181101561097e57828155600101613760565b815167ffffffffffffffff81111561378d5761378d6130d5565b6137a18161379b84546134d8565b8461372d565b602080601f8311600181146137d657600084156137be5750858301515b600019600386901b1c1916600185901b17855561097e565b600085815260208120601f198616915b82811015613805578886015182559484019460019091019084016137e6565b50858210156138235787850151600019600388901b60f8161c191681555b5050505050600190811b01905550565b634e487b7160e01b600052603260045260246000fd5b60006001820161385b5761385b61352b565b5060010190565b6000825161387481846020870161303e565b919091019291505056fe416464726573733a206c6f772d6c6576656c2064656c65676174652063616c6c206661696c6564a264697066735822122017a4ef0ee18592eb1f62fea4fd8f142aad972f18a3bedf7bbd5abdf969234d7e64736f6c634300080f0033",
  "linkReferences": {},
  "deployedLinkReferences": {}
}